{
	"Developer.sol": {
		"Developer": {
			"abi": [
				{
					"inputs": [],
					"name": "from_admin",
					"outputs": [
						{
							"components": [
								{
									"internalType": "string",
									"name": "time",
									"type": "string"
								},
								{
									"components": [
										{
											"internalType": "string",
											"name": "bug_name",
											"type": "string"
										},
										{
											"internalType": "string",
											"name": "bug_description",
											"type": "string"
										},
										{
											"internalType": "string",
											"name": "bug_priority",
											"type": "string"
										}
									],
									"internalType": "struct Bugs[]",
									"name": "bugs_arr",
									"type": "tuple[]"
								},
								{
									"components": [
										{
											"internalType": "string",
											"name": "feature_name",
											"type": "string"
										},
										{
											"internalType": "string",
											"name": "feature_description",
											"type": "string"
										},
										{
											"internalType": "string",
											"name": "feature_priority",
											"type": "string"
										}
									],
									"internalType": "struct Features[]",
									"name": "features_arr",
									"type": "tuple[]"
								}
							],
							"internalType": "struct Requests",
							"name": "",
							"type": "tuple"
						}
					],
					"stateMutability": "view",
					"type": "function"
				},
				{
					"inputs": [
						{
							"internalType": "string",
							"name": "",
							"type": "string"
						}
					],
					"name": "sent_req",
					"outputs": [
						{
							"internalType": "string",
							"name": "time",
							"type": "string"
						}
					],
					"stateMutability": "view",
					"type": "function"
				},
				{
					"inputs": [
						{
							"internalType": "string",
							"name": "time_rn",
							"type": "string"
						},
						{
							"internalType": "string[][]",
							"name": "bugs",
							"type": "string[][]"
						},
						{
							"internalType": "string[][]",
							"name": "features",
							"type": "string[][]"
						}
					],
					"name": "to_dev",
					"outputs": [],
					"stateMutability": "nonpayable",
					"type": "function"
				}
			],
			"devdoc": {
				"kind": "dev",
				"methods": {},
				"version": 1
			},
			"evm": {
				"assembly": "    /* \"Developer.sol\":373:1383  contract Developer{... */\n  mstore(0x40, 0x80)\n  callvalue\n  dup1\n  iszero\n  tag_1\n  jumpi\n  0x00\n  dup1\n  revert\ntag_1:\n  pop\n  dataSize(sub_0)\n  dup1\n  dataOffset(sub_0)\n  0x00\n  codecopy\n  0x00\n  return\nstop\n\nsub_0: assembly {\n        /* \"Developer.sol\":373:1383  contract Developer{... */\n      mstore(0x40, 0x80)\n      callvalue\n      dup1\n      iszero\n      tag_1\n      jumpi\n      0x00\n      dup1\n      revert\n    tag_1:\n      pop\n      jumpi(tag_2, lt(calldatasize, 0x04))\n      shr(0xe0, calldataload(0x00))\n      dup1\n      0x572dc02b\n      eq\n      tag_3\n      jumpi\n      dup1\n      0x643b45b8\n      eq\n      tag_4\n      jumpi\n      dup1\n      0xff3ffb38\n      eq\n      tag_5\n      jumpi\n    tag_2:\n      0x00\n      dup1\n      revert\n        /* \"Developer.sol\":468:1255  function to_dev(string memory time_rn, string[][] memory bugs, string[][] memory features) public{... */\n    tag_3:\n      tag_6\n      0x04\n      dup1\n      calldatasize\n      sub\n      dup2\n      add\n      swap1\n      tag_7\n      swap2\n      swap1\n      tag_8\n      jump\t// in\n    tag_7:\n      tag_9\n      jump\t// in\n    tag_6:\n      stop\n        /* \"Developer.sol\":1263:1380  function from_admin() public view returns (Requests memory){... */\n    tag_4:\n      tag_10\n      tag_11\n      jump\t// in\n    tag_10:\n      mload(0x40)\n      tag_12\n      swap2\n      swap1\n      tag_13\n      jump\t// in\n    tag_12:\n      mload(0x40)\n      dup1\n      swap2\n      sub\n      swap1\n      return\n        /* \"Developer.sol\":398:440  mapping (string=>Requests) public sent_req */\n    tag_5:\n      tag_14\n      0x04\n      dup1\n      calldatasize\n      sub\n      dup2\n      add\n      swap1\n      tag_15\n      swap2\n      swap1\n      tag_16\n      jump\t// in\n    tag_15:\n      tag_17\n      jump\t// in\n    tag_14:\n      mload(0x40)\n      tag_18\n      swap2\n      swap1\n      tag_19\n      jump\t// in\n    tag_18:\n      mload(0x40)\n      dup1\n      swap2\n      sub\n      swap1\n      return\n        /* \"Developer.sol\":468:1255  function to_dev(string memory time_rn, string[][] memory bugs, string[][] memory features) public{... */\n    tag_9:\n        /* \"Developer.sol\":576:602  Requests storage temporary */\n      0x00\n        /* \"Developer.sol\":605:613  sent_req */\n      dup1\n        /* \"Developer.sol\":614:621  time_rn */\n      dup5\n        /* \"Developer.sol\":605:622  sent_req[time_rn] */\n      mload(0x40)\n      tag_21\n      swap2\n      swap1\n      tag_22\n      jump\t// in\n    tag_21:\n      swap1\n      dup2\n      mstore\n      0x20\n      add\n      mload(0x40)\n      dup1\n      swap2\n      sub\n      swap1\n      keccak256\n        /* \"Developer.sol\":576:622  Requests storage temporary = sent_req[time_rn] */\n      swap1\n      pop\n        /* \"Developer.sol\":633:638  dates */\n      0x01\n        /* \"Developer.sol\":644:651  time_rn */\n      dup5\n        /* \"Developer.sol\":633:652  dates.push(time_rn) */\n      swap1\n      dup1\n      0x01\n      dup2\n      sload\n      add\n      dup1\n      dup3\n      sstore\n      dup1\n      swap2\n      pop\n      pop\n      0x01\n      swap1\n      sub\n      swap1\n      0x00\n      mstore\n      keccak256(0x00, 0x20)\n      add\n      0x00\n      swap1\n      swap2\n      swap1\n      swap2\n      swap1\n      swap2\n      pop\n      swap1\n      dup2\n      tag_24\n      swap2\n      swap1\n      tag_25\n      jump\t// in\n    tag_24:\n      pop\n        /* \"Developer.sol\":680:687  time_rn */\n      dup4\n        /* \"Developer.sol\":663:672  temporary */\n      dup2\n        /* \"Developer.sol\":663:677  temporary.time */\n      0x00\n      add\n        /* \"Developer.sol\":663:687  temporary.time = time_rn */\n      swap1\n      dup2\n      tag_26\n      swap2\n      swap1\n      tag_25\n      jump\t// in\n    tag_26:\n      pop\n        /* \"Developer.sol\":702:708  uint i */\n      0x00\n        /* \"Developer.sol\":698:950  for(uint i=0;i<bugs.length;i++){... */\n    tag_27:\n        /* \"Developer.sol\":713:717  bugs */\n      dup4\n        /* \"Developer.sol\":713:724  bugs.length */\n      mload\n        /* \"Developer.sol\":711:712  i */\n      dup2\n        /* \"Developer.sol\":711:724  i<bugs.length */\n      lt\n        /* \"Developer.sol\":698:950  for(uint i=0;i<bugs.length;i++){... */\n      iszero\n      tag_28\n      jumpi\n        /* \"Developer.sol\":744:760  Bugs memory temp */\n      tag_30\n      tag_31\n      jump\t// in\n    tag_30:\n        /* \"Developer.sol\":791:795  bugs */\n      dup5\n        /* \"Developer.sol\":796:797  i */\n      dup3\n        /* \"Developer.sol\":791:798  bugs[i] */\n      dup2\n      mload\n      dup2\n      lt\n      tag_32\n      jumpi\n      tag_33\n      tag_34\n      jump\t// in\n    tag_33:\n    tag_32:\n      0x20\n      mul\n      0x20\n      add\n      add\n      mload\n        /* \"Developer.sol\":799:800  0 */\n      0x00\n        /* \"Developer.sol\":791:801  bugs[i][0] */\n      dup2\n      mload\n      dup2\n      lt\n      tag_35\n      jumpi\n      tag_36\n      tag_34\n      jump\t// in\n    tag_36:\n    tag_35:\n      0x20\n      mul\n      0x20\n      add\n      add\n      mload\n        /* \"Developer.sol\":775:779  temp */\n      dup2\n        /* \"Developer.sol\":775:788  temp.bug_name */\n      0x00\n      add\n        /* \"Developer.sol\":775:801  temp.bug_name = bugs[i][0] */\n      dup2\n      swap1\n      mstore\n      pop\n        /* \"Developer.sol\":839:843  bugs */\n      dup5\n        /* \"Developer.sol\":844:845  i */\n      dup3\n        /* \"Developer.sol\":839:846  bugs[i] */\n      dup2\n      mload\n      dup2\n      lt\n      tag_37\n      jumpi\n      tag_38\n      tag_34\n      jump\t// in\n    tag_38:\n    tag_37:\n      0x20\n      mul\n      0x20\n      add\n      add\n      mload\n        /* \"Developer.sol\":847:848  1 */\n      0x01\n        /* \"Developer.sol\":839:849  bugs[i][1] */\n      dup2\n      mload\n      dup2\n      lt\n      tag_39\n      jumpi\n      tag_40\n      tag_34\n      jump\t// in\n    tag_40:\n    tag_39:\n      0x20\n      mul\n      0x20\n      add\n      add\n      mload\n        /* \"Developer.sol\":816:820  temp */\n      dup2\n        /* \"Developer.sol\":816:836  temp.bug_description */\n      0x20\n      add\n        /* \"Developer.sol\":816:849  temp.bug_description = bugs[i][1] */\n      dup2\n      swap1\n      mstore\n      pop\n        /* \"Developer.sol\":884:888  bugs */\n      dup5\n        /* \"Developer.sol\":889:890  i */\n      dup3\n        /* \"Developer.sol\":884:891  bugs[i] */\n      dup2\n      mload\n      dup2\n      lt\n      tag_41\n      jumpi\n      tag_42\n      tag_34\n      jump\t// in\n    tag_42:\n    tag_41:\n      0x20\n      mul\n      0x20\n      add\n      add\n      mload\n        /* \"Developer.sol\":892:893  2 */\n      0x02\n        /* \"Developer.sol\":884:894  bugs[i][2] */\n      dup2\n      mload\n      dup2\n      lt\n      tag_43\n      jumpi\n      tag_44\n      tag_34\n      jump\t// in\n    tag_44:\n    tag_43:\n      0x20\n      mul\n      0x20\n      add\n      add\n      mload\n        /* \"Developer.sol\":864:868  temp */\n      dup2\n        /* \"Developer.sol\":864:881  temp.bug_priority */\n      0x40\n      add\n        /* \"Developer.sol\":864:894  temp.bug_priority = bugs[i][2] */\n      dup2\n      swap1\n      mstore\n      pop\n        /* \"Developer.sol\":909:918  temporary */\n      dup3\n        /* \"Developer.sol\":909:927  temporary.bugs_arr */\n      0x01\n      add\n        /* \"Developer.sol\":933:937  temp */\n      dup2\n        /* \"Developer.sol\":909:938  temporary.bugs_arr.push(temp) */\n      swap1\n      dup1\n      0x01\n      dup2\n      sload\n      add\n      dup1\n      dup3\n      sstore\n      dup1\n      swap2\n      pop\n      pop\n      0x01\n      swap1\n      sub\n      swap1\n      0x00\n      mstore\n      keccak256(0x00, 0x20)\n      swap1\n      0x03\n      mul\n      add\n      0x00\n      swap1\n      swap2\n      swap1\n      swap2\n      swap1\n      swap2\n      pop\n      0x00\n      dup3\n      add\n      mload\n      dup2\n      0x00\n      add\n      swap1\n      dup2\n      tag_46\n      swap2\n      swap1\n      tag_25\n      jump\t// in\n    tag_46:\n      pop\n      0x20\n      dup3\n      add\n      mload\n      dup2\n      0x01\n      add\n      swap1\n      dup2\n      tag_47\n      swap2\n      swap1\n      tag_25\n      jump\t// in\n    tag_47:\n      pop\n      0x40\n      dup3\n      add\n      mload\n      dup2\n      0x02\n      add\n      swap1\n      dup2\n      tag_48\n      swap2\n      swap1\n      tag_25\n      jump\t// in\n    tag_48:\n      pop\n      pop\n      pop\n        /* \"Developer.sol\":729:950  {... */\n      pop\n        /* \"Developer.sol\":725:728  i++ */\n      dup1\n      dup1\n      tag_49\n      swap1\n      tag_50\n      jump\t// in\n    tag_49:\n      swap2\n      pop\n      pop\n        /* \"Developer.sol\":698:950  for(uint i=0;i<bugs.length;i++){... */\n      jump(tag_27)\n    tag_28:\n      pop\n        /* \"Developer.sol\":964:970  uint i */\n      0x00\n        /* \"Developer.sol\":960:1248  for(uint i=0;i<features.length;i++){... */\n    tag_51:\n        /* \"Developer.sol\":975:983  features */\n      dup3\n        /* \"Developer.sol\":975:990  features.length */\n      mload\n        /* \"Developer.sol\":973:974  i */\n      dup2\n        /* \"Developer.sol\":973:990  i<features.length */\n      lt\n        /* \"Developer.sol\":960:1248  for(uint i=0;i<features.length;i++){... */\n      iszero\n      tag_52\n      jumpi\n        /* \"Developer.sol\":1010:1030  Features memory temp */\n      tag_54\n      tag_55\n      jump\t// in\n    tag_54:\n        /* \"Developer.sol\":1065:1073  features */\n      dup4\n        /* \"Developer.sol\":1074:1075  i */\n      dup3\n        /* \"Developer.sol\":1065:1076  features[i] */\n      dup2\n      mload\n      dup2\n      lt\n      tag_56\n      jumpi\n      tag_57\n      tag_34\n      jump\t// in\n    tag_57:\n    tag_56:\n      0x20\n      mul\n      0x20\n      add\n      add\n      mload\n        /* \"Developer.sol\":1077:1078  0 */\n      0x00\n        /* \"Developer.sol\":1065:1079  features[i][0] */\n      dup2\n      mload\n      dup2\n      lt\n      tag_58\n      jumpi\n      tag_59\n      tag_34\n      jump\t// in\n    tag_59:\n    tag_58:\n      0x20\n      mul\n      0x20\n      add\n      add\n      mload\n        /* \"Developer.sol\":1045:1049  temp */\n      dup2\n        /* \"Developer.sol\":1045:1062  temp.feature_name */\n      0x00\n      add\n        /* \"Developer.sol\":1045:1079  temp.feature_name = features[i][0] */\n      dup2\n      swap1\n      mstore\n      pop\n        /* \"Developer.sol\":1121:1129  features */\n      dup4\n        /* \"Developer.sol\":1130:1131  i */\n      dup3\n        /* \"Developer.sol\":1121:1132  features[i] */\n      dup2\n      mload\n      dup2\n      lt\n      tag_60\n      jumpi\n      tag_61\n      tag_34\n      jump\t// in\n    tag_61:\n    tag_60:\n      0x20\n      mul\n      0x20\n      add\n      add\n      mload\n        /* \"Developer.sol\":1133:1134  1 */\n      0x01\n        /* \"Developer.sol\":1121:1135  features[i][1] */\n      dup2\n      mload\n      dup2\n      lt\n      tag_62\n      jumpi\n      tag_63\n      tag_34\n      jump\t// in\n    tag_63:\n    tag_62:\n      0x20\n      mul\n      0x20\n      add\n      add\n      mload\n        /* \"Developer.sol\":1094:1098  temp */\n      dup2\n        /* \"Developer.sol\":1094:1118  temp.feature_description */\n      0x20\n      add\n        /* \"Developer.sol\":1094:1135  temp.feature_description = features[i][1] */\n      dup2\n      swap1\n      mstore\n      pop\n        /* \"Developer.sol\":1174:1182  features */\n      dup4\n        /* \"Developer.sol\":1183:1184  i */\n      dup3\n        /* \"Developer.sol\":1174:1185  features[i] */\n      dup2\n      mload\n      dup2\n      lt\n      tag_64\n      jumpi\n      tag_65\n      tag_34\n      jump\t// in\n    tag_65:\n    tag_64:\n      0x20\n      mul\n      0x20\n      add\n      add\n      mload\n        /* \"Developer.sol\":1186:1187  2 */\n      0x02\n        /* \"Developer.sol\":1174:1188  features[i][2] */\n      dup2\n      mload\n      dup2\n      lt\n      tag_66\n      jumpi\n      tag_67\n      tag_34\n      jump\t// in\n    tag_67:\n    tag_66:\n      0x20\n      mul\n      0x20\n      add\n      add\n      mload\n        /* \"Developer.sol\":1150:1154  temp */\n      dup2\n        /* \"Developer.sol\":1150:1171  temp.feature_priority */\n      0x40\n      add\n        /* \"Developer.sol\":1150:1188  temp.feature_priority = features[i][2] */\n      dup2\n      swap1\n      mstore\n      pop\n        /* \"Developer.sol\":1203:1212  temporary */\n      dup3\n        /* \"Developer.sol\":1203:1225  temporary.features_arr */\n      0x02\n      add\n        /* \"Developer.sol\":1231:1235  temp */\n      dup2\n        /* \"Developer.sol\":1203:1236  temporary.features_arr.push(temp) */\n      swap1\n      dup1\n      0x01\n      dup2\n      sload\n      add\n      dup1\n      dup3\n      sstore\n      dup1\n      swap2\n      pop\n      pop\n      0x01\n      swap1\n      sub\n      swap1\n      0x00\n      mstore\n      keccak256(0x00, 0x20)\n      swap1\n      0x03\n      mul\n      add\n      0x00\n      swap1\n      swap2\n      swap1\n      swap2\n      swap1\n      swap2\n      pop\n      0x00\n      dup3\n      add\n      mload\n      dup2\n      0x00\n      add\n      swap1\n      dup2\n      tag_69\n      swap2\n      swap1\n      tag_25\n      jump\t// in\n    tag_69:\n      pop\n      0x20\n      dup3\n      add\n      mload\n      dup2\n      0x01\n      add\n      swap1\n      dup2\n      tag_70\n      swap2\n      swap1\n      tag_25\n      jump\t// in\n    tag_70:\n      pop\n      0x40\n      dup3\n      add\n      mload\n      dup2\n      0x02\n      add\n      swap1\n      dup2\n      tag_71\n      swap2\n      swap1\n      tag_25\n      jump\t// in\n    tag_71:\n      pop\n      pop\n      pop\n        /* \"Developer.sol\":995:1248  {... */\n      pop\n        /* \"Developer.sol\":991:994  i++ */\n      dup1\n      dup1\n      tag_72\n      swap1\n      tag_50\n      jump\t// in\n    tag_72:\n      swap2\n      pop\n      pop\n        /* \"Developer.sol\":960:1248  for(uint i=0;i<features.length;i++){... */\n      jump(tag_51)\n    tag_52:\n      pop\n        /* \"Developer.sol\":565:1255  {... */\n      pop\n        /* \"Developer.sol\":468:1255  function to_dev(string memory time_rn, string[][] memory bugs, string[][] memory features) public{... */\n      pop\n      pop\n      pop\n      jump\t// out\n        /* \"Developer.sol\":1263:1380  function from_admin() public view returns (Requests memory){... */\n    tag_11:\n        /* \"Developer.sol\":1306:1321  Requests memory */\n      tag_73\n      tag_74\n      jump\t// in\n    tag_73:\n        /* \"Developer.sol\":1340:1348  sent_req */\n      0x00\n        /* \"Developer.sol\":1349:1354  dates */\n      0x01\n        /* \"Developer.sol\":1368:1369  1 */\n      dup1\n        /* \"Developer.sol\":1355:1360  dates */\n      dup1\n        /* \"Developer.sol\":1355:1367  dates.length */\n      dup1\n      sload\n      swap1\n      pop\n        /* \"Developer.sol\":1355:1369  dates.length-1 */\n      tag_76\n      swap2\n      swap1\n      tag_77\n      jump\t// in\n    tag_76:\n        /* \"Developer.sol\":1349:1370  dates[dates.length-1] */\n      dup2\n      sload\n      dup2\n      lt\n      tag_78\n      jumpi\n      tag_79\n      tag_34\n      jump\t// in\n    tag_79:\n    tag_78:\n      swap1\n      0x00\n      mstore\n      keccak256(0x00, 0x20)\n      add\n        /* \"Developer.sol\":1340:1371  sent_req[dates[dates.length-1]] */\n      mload(0x40)\n      tag_81\n      swap2\n      swap1\n      tag_82\n      jump\t// in\n    tag_81:\n      swap1\n      dup2\n      mstore\n      0x20\n      add\n      mload(0x40)\n      dup1\n      swap2\n      sub\n      swap1\n      keccak256\n        /* \"Developer.sol\":1333:1372  return(sent_req[dates[dates.length-1]]) */\n      mload(0x40)\n      dup1\n      0x60\n      add\n      0x40\n      mstore\n      swap1\n      dup2\n      0x00\n      dup3\n      add\n      dup1\n      sload\n      tag_83\n      swap1\n      tag_84\n      jump\t// in\n    tag_83:\n      dup1\n      0x1f\n      add\n      0x20\n      dup1\n      swap2\n      div\n      mul\n      0x20\n      add\n      mload(0x40)\n      swap1\n      dup2\n      add\n      0x40\n      mstore\n      dup1\n      swap3\n      swap2\n      swap1\n      dup2\n      dup2\n      mstore\n      0x20\n      add\n      dup3\n      dup1\n      sload\n      tag_85\n      swap1\n      tag_84\n      jump\t// in\n    tag_85:\n      dup1\n      iszero\n      tag_86\n      jumpi\n      dup1\n      0x1f\n      lt\n      tag_87\n      jumpi\n      0x0100\n      dup1\n      dup4\n      sload\n      div\n      mul\n      dup4\n      mstore\n      swap2\n      0x20\n      add\n      swap2\n      jump(tag_86)\n    tag_87:\n      dup3\n      add\n      swap2\n      swap1\n      0x00\n      mstore\n      keccak256(0x00, 0x20)\n      swap1\n    tag_88:\n      dup2\n      sload\n      dup2\n      mstore\n      swap1\n      0x01\n      add\n      swap1\n      0x20\n      add\n      dup1\n      dup4\n      gt\n      tag_88\n      jumpi\n      dup3\n      swap1\n      sub\n      0x1f\n      and\n      dup3\n      add\n      swap2\n    tag_86:\n      pop\n      pop\n      pop\n      pop\n      pop\n      dup2\n      mstore\n      0x20\n      add\n      0x01\n      dup3\n      add\n      dup1\n      sload\n      dup1\n      0x20\n      mul\n      0x20\n      add\n      mload(0x40)\n      swap1\n      dup2\n      add\n      0x40\n      mstore\n      dup1\n      swap3\n      swap2\n      swap1\n      dup2\n      dup2\n      mstore\n      0x20\n      add\n      0x00\n      swap1\n    tag_89:\n      dup3\n      dup3\n      lt\n      iszero\n      tag_90\n      jumpi\n      dup4\n      dup3\n      swap1\n      0x00\n      mstore\n      keccak256(0x00, 0x20)\n      swap1\n      0x03\n      mul\n      add\n      mload(0x40)\n      dup1\n      0x60\n      add\n      0x40\n      mstore\n      swap1\n      dup2\n      0x00\n      dup3\n      add\n      dup1\n      sload\n      tag_92\n      swap1\n      tag_84\n      jump\t// in\n    tag_92:\n      dup1\n      0x1f\n      add\n      0x20\n      dup1\n      swap2\n      div\n      mul\n      0x20\n      add\n      mload(0x40)\n      swap1\n      dup2\n      add\n      0x40\n      mstore\n      dup1\n      swap3\n      swap2\n      swap1\n      dup2\n      dup2\n      mstore\n      0x20\n      add\n      dup3\n      dup1\n      sload\n      tag_93\n      swap1\n      tag_84\n      jump\t// in\n    tag_93:\n      dup1\n      iszero\n      tag_94\n      jumpi\n      dup1\n      0x1f\n      lt\n      tag_95\n      jumpi\n      0x0100\n      dup1\n      dup4\n      sload\n      div\n      mul\n      dup4\n      mstore\n      swap2\n      0x20\n      add\n      swap2\n      jump(tag_94)\n    tag_95:\n      dup3\n      add\n      swap2\n      swap1\n      0x00\n      mstore\n      keccak256(0x00, 0x20)\n      swap1\n    tag_96:\n      dup2\n      sload\n      dup2\n      mstore\n      swap1\n      0x01\n      add\n      swap1\n      0x20\n      add\n      dup1\n      dup4\n      gt\n      tag_96\n      jumpi\n      dup3\n      swap1\n      sub\n      0x1f\n      and\n      dup3\n      add\n      swap2\n    tag_94:\n      pop\n      pop\n      pop\n      pop\n      pop\n      dup2\n      mstore\n      0x20\n      add\n      0x01\n      dup3\n      add\n      dup1\n      sload\n      tag_97\n      swap1\n      tag_84\n      jump\t// in\n    tag_97:\n      dup1\n      0x1f\n      add\n      0x20\n      dup1\n      swap2\n      div\n      mul\n      0x20\n      add\n      mload(0x40)\n      swap1\n      dup2\n      add\n      0x40\n      mstore\n      dup1\n      swap3\n      swap2\n      swap1\n      dup2\n      dup2\n      mstore\n      0x20\n      add\n      dup3\n      dup1\n      sload\n      tag_98\n      swap1\n      tag_84\n      jump\t// in\n    tag_98:\n      dup1\n      iszero\n      tag_99\n      jumpi\n      dup1\n      0x1f\n      lt\n      tag_100\n      jumpi\n      0x0100\n      dup1\n      dup4\n      sload\n      div\n      mul\n      dup4\n      mstore\n      swap2\n      0x20\n      add\n      swap2\n      jump(tag_99)\n    tag_100:\n      dup3\n      add\n      swap2\n      swap1\n      0x00\n      mstore\n      keccak256(0x00, 0x20)\n      swap1\n    tag_101:\n      dup2\n      sload\n      dup2\n      mstore\n      swap1\n      0x01\n      add\n      swap1\n      0x20\n      add\n      dup1\n      dup4\n      gt\n      tag_101\n      jumpi\n      dup3\n      swap1\n      sub\n      0x1f\n      and\n      dup3\n      add\n      swap2\n    tag_99:\n      pop\n      pop\n      pop\n      pop\n      pop\n      dup2\n      mstore\n      0x20\n      add\n      0x02\n      dup3\n      add\n      dup1\n      sload\n      tag_102\n      swap1\n      tag_84\n      jump\t// in\n    tag_102:\n      dup1\n      0x1f\n      add\n      0x20\n      dup1\n      swap2\n      div\n      mul\n      0x20\n      add\n      mload(0x40)\n      swap1\n      dup2\n      add\n      0x40\n      mstore\n      dup1\n      swap3\n      swap2\n      swap1\n      dup2\n      dup2\n      mstore\n      0x20\n      add\n      dup3\n      dup1\n      sload\n      tag_103\n      swap1\n      tag_84\n      jump\t// in\n    tag_103:\n      dup1\n      iszero\n      tag_104\n      jumpi\n      dup1\n      0x1f\n      lt\n      tag_105\n      jumpi\n      0x0100\n      dup1\n      dup4\n      sload\n      div\n      mul\n      dup4\n      mstore\n      swap2\n      0x20\n      add\n      swap2\n      jump(tag_104)\n    tag_105:\n      dup3\n      add\n      swap2\n      swap1\n      0x00\n      mstore\n      keccak256(0x00, 0x20)\n      swap1\n    tag_106:\n      dup2\n      sload\n      dup2\n      mstore\n      swap1\n      0x01\n      add\n      swap1\n      0x20\n      add\n      dup1\n      dup4\n      gt\n      tag_106\n      jumpi\n      dup3\n      swap1\n      sub\n      0x1f\n      and\n      dup3\n      add\n      swap2\n    tag_104:\n      pop\n      pop\n      pop\n      pop\n      pop\n      dup2\n      mstore\n      pop\n      pop\n      dup2\n      mstore\n      0x20\n      add\n      swap1\n      0x01\n      add\n      swap1\n      jump(tag_89)\n    tag_90:\n      pop\n      pop\n      pop\n      pop\n      dup2\n      mstore\n      0x20\n      add\n      0x02\n      dup3\n      add\n      dup1\n      sload\n      dup1\n      0x20\n      mul\n      0x20\n      add\n      mload(0x40)\n      swap1\n      dup2\n      add\n      0x40\n      mstore\n      dup1\n      swap3\n      swap2\n      swap1\n      dup2\n      dup2\n      mstore\n      0x20\n      add\n      0x00\n      swap1\n    tag_107:\n      dup3\n      dup3\n      lt\n      iszero\n      tag_108\n      jumpi\n      dup4\n      dup3\n      swap1\n      0x00\n      mstore\n      keccak256(0x00, 0x20)\n      swap1\n      0x03\n      mul\n      add\n      mload(0x40)\n      dup1\n      0x60\n      add\n      0x40\n      mstore\n      swap1\n      dup2\n      0x00\n      dup3\n      add\n      dup1\n      sload\n      tag_110\n      swap1\n      tag_84\n      jump\t// in\n    tag_110:\n      dup1\n      0x1f\n      add\n      0x20\n      dup1\n      swap2\n      div\n      mul\n      0x20\n      add\n      mload(0x40)\n      swap1\n      dup2\n      add\n      0x40\n      mstore\n      dup1\n      swap3\n      swap2\n      swap1\n      dup2\n      dup2\n      mstore\n      0x20\n      add\n      dup3\n      dup1\n      sload\n      tag_111\n      swap1\n      tag_84\n      jump\t// in\n    tag_111:\n      dup1\n      iszero\n      tag_112\n      jumpi\n      dup1\n      0x1f\n      lt\n      tag_113\n      jumpi\n      0x0100\n      dup1\n      dup4\n      sload\n      div\n      mul\n      dup4\n      mstore\n      swap2\n      0x20\n      add\n      swap2\n      jump(tag_112)\n    tag_113:\n      dup3\n      add\n      swap2\n      swap1\n      0x00\n      mstore\n      keccak256(0x00, 0x20)\n      swap1\n    tag_114:\n      dup2\n      sload\n      dup2\n      mstore\n      swap1\n      0x01\n      add\n      swap1\n      0x20\n      add\n      dup1\n      dup4\n      gt\n      tag_114\n      jumpi\n      dup3\n      swap1\n      sub\n      0x1f\n      and\n      dup3\n      add\n      swap2\n    tag_112:\n      pop\n      pop\n      pop\n      pop\n      pop\n      dup2\n      mstore\n      0x20\n      add\n      0x01\n      dup3\n      add\n      dup1\n      sload\n      tag_115\n      swap1\n      tag_84\n      jump\t// in\n    tag_115:\n      dup1\n      0x1f\n      add\n      0x20\n      dup1\n      swap2\n      div\n      mul\n      0x20\n      add\n      mload(0x40)\n      swap1\n      dup2\n      add\n      0x40\n      mstore\n      dup1\n      swap3\n      swap2\n      swap1\n      dup2\n      dup2\n      mstore\n      0x20\n      add\n      dup3\n      dup1\n      sload\n      tag_116\n      swap1\n      tag_84\n      jump\t// in\n    tag_116:\n      dup1\n      iszero\n      tag_117\n      jumpi\n      dup1\n      0x1f\n      lt\n      tag_118\n      jumpi\n      0x0100\n      dup1\n      dup4\n      sload\n      div\n      mul\n      dup4\n      mstore\n      swap2\n      0x20\n      add\n      swap2\n      jump(tag_117)\n    tag_118:\n      dup3\n      add\n      swap2\n      swap1\n      0x00\n      mstore\n      keccak256(0x00, 0x20)\n      swap1\n    tag_119:\n      dup2\n      sload\n      dup2\n      mstore\n      swap1\n      0x01\n      add\n      swap1\n      0x20\n      add\n      dup1\n      dup4\n      gt\n      tag_119\n      jumpi\n      dup3\n      swap1\n      sub\n      0x1f\n      and\n      dup3\n      add\n      swap2\n    tag_117:\n      pop\n      pop\n      pop\n      pop\n      pop\n      dup2\n      mstore\n      0x20\n      add\n      0x02\n      dup3\n      add\n      dup1\n      sload\n      tag_120\n      swap1\n      tag_84\n      jump\t// in\n    tag_120:\n      dup1\n      0x1f\n      add\n      0x20\n      dup1\n      swap2\n      div\n      mul\n      0x20\n      add\n      mload(0x40)\n      swap1\n      dup2\n      add\n      0x40\n      mstore\n      dup1\n      swap3\n      swap2\n      swap1\n      dup2\n      dup2\n      mstore\n      0x20\n      add\n      dup3\n      dup1\n      sload\n      tag_121\n      swap1\n      tag_84\n      jump\t// in\n    tag_121:\n      dup1\n      iszero\n      tag_122\n      jumpi\n      dup1\n      0x1f\n      lt\n      tag_123\n      jumpi\n      0x0100\n      dup1\n      dup4\n      sload\n      div\n      mul\n      dup4\n      mstore\n      swap2\n      0x20\n      add\n      swap2\n      jump(tag_122)\n    tag_123:\n      dup3\n      add\n      swap2\n      swap1\n      0x00\n      mstore\n      keccak256(0x00, 0x20)\n      swap1\n    tag_124:\n      dup2\n      sload\n      dup2\n      mstore\n      swap1\n      0x01\n      add\n      swap1\n      0x20\n      add\n      dup1\n      dup4\n      gt\n      tag_124\n      jumpi\n      dup3\n      swap1\n      sub\n      0x1f\n      and\n      dup3\n      add\n      swap2\n    tag_122:\n      pop\n      pop\n      pop\n      pop\n      pop\n      dup2\n      mstore\n      pop\n      pop\n      dup2\n      mstore\n      0x20\n      add\n      swap1\n      0x01\n      add\n      swap1\n      jump(tag_107)\n    tag_108:\n      pop\n      pop\n      pop\n      pop\n      dup2\n      mstore\n      pop\n      pop\n      swap1\n      pop\n        /* \"Developer.sol\":1263:1380  function from_admin() public view returns (Requests memory){... */\n      swap1\n      jump\t// out\n        /* \"Developer.sol\":398:440  mapping (string=>Requests) public sent_req */\n    tag_17:\n      0x00\n      dup2\n      dup1\n      mload\n      0x20\n      dup2\n      add\n      dup3\n      add\n      dup1\n      mload\n      dup5\n      dup3\n      mstore\n      0x20\n      dup4\n      add\n      0x20\n      dup6\n      add\n      keccak256\n      dup2\n      dup4\n      mstore\n      dup1\n      swap6\n      pop\n      pop\n      pop\n      pop\n      pop\n      pop\n      0x00\n      swap2\n      pop\n      swap1\n      pop\n      dup1\n      0x00\n      add\n      dup1\n      sload\n      tag_125\n      swap1\n      tag_84\n      jump\t// in\n    tag_125:\n      dup1\n      0x1f\n      add\n      0x20\n      dup1\n      swap2\n      div\n      mul\n      0x20\n      add\n      mload(0x40)\n      swap1\n      dup2\n      add\n      0x40\n      mstore\n      dup1\n      swap3\n      swap2\n      swap1\n      dup2\n      dup2\n      mstore\n      0x20\n      add\n      dup3\n      dup1\n      sload\n      tag_126\n      swap1\n      tag_84\n      jump\t// in\n    tag_126:\n      dup1\n      iszero\n      tag_127\n      jumpi\n      dup1\n      0x1f\n      lt\n      tag_128\n      jumpi\n      0x0100\n      dup1\n      dup4\n      sload\n      div\n      mul\n      dup4\n      mstore\n      swap2\n      0x20\n      add\n      swap2\n      jump(tag_127)\n    tag_128:\n      dup3\n      add\n      swap2\n      swap1\n      0x00\n      mstore\n      keccak256(0x00, 0x20)\n      swap1\n    tag_129:\n      dup2\n      sload\n      dup2\n      mstore\n      swap1\n      0x01\n      add\n      swap1\n      0x20\n      add\n      dup1\n      dup4\n      gt\n      tag_129\n      jumpi\n      dup3\n      swap1\n      sub\n      0x1f\n      and\n      dup3\n      add\n      swap2\n    tag_127:\n      pop\n      pop\n      pop\n      pop\n      pop\n      swap1\n      pop\n      dup2\n      jump\t// out\n    tag_31:\n      mload(0x40)\n      dup1\n      0x60\n      add\n      0x40\n      mstore\n      dup1\n      0x60\n      dup2\n      mstore\n      0x20\n      add\n      0x60\n      dup2\n      mstore\n      0x20\n      add\n      0x60\n      dup2\n      mstore\n      pop\n      swap1\n      jump\t// out\n    tag_55:\n      mload(0x40)\n      dup1\n      0x60\n      add\n      0x40\n      mstore\n      dup1\n      0x60\n      dup2\n      mstore\n      0x20\n      add\n      0x60\n      dup2\n      mstore\n      0x20\n      add\n      0x60\n      dup2\n      mstore\n      pop\n      swap1\n      jump\t// out\n    tag_74:\n      mload(0x40)\n      dup1\n      0x60\n      add\n      0x40\n      mstore\n      dup1\n      0x60\n      dup2\n      mstore\n      0x20\n      add\n      0x60\n      dup2\n      mstore\n      0x20\n      add\n      0x60\n      dup2\n      mstore\n      pop\n      swap1\n      jump\t// out\n        /* \"#utility.yul\":7:82   */\n    tag_130:\n        /* \"#utility.yul\":40:46   */\n      0x00\n        /* \"#utility.yul\":73:75   */\n      0x40\n        /* \"#utility.yul\":67:76   */\n      mload\n        /* \"#utility.yul\":57:76   */\n      swap1\n      pop\n        /* \"#utility.yul\":7:82   */\n      swap1\n      jump\t// out\n        /* \"#utility.yul\":88:205   */\n    tag_131:\n        /* \"#utility.yul\":197:198   */\n      0x00\n        /* \"#utility.yul\":194:195   */\n      dup1\n        /* \"#utility.yul\":187:199   */\n      revert\n        /* \"#utility.yul\":211:328   */\n    tag_132:\n        /* \"#utility.yul\":320:321   */\n      0x00\n        /* \"#utility.yul\":317:318   */\n      dup1\n        /* \"#utility.yul\":310:322   */\n      revert\n        /* \"#utility.yul\":334:451   */\n    tag_133:\n        /* \"#utility.yul\":443:444   */\n      0x00\n        /* \"#utility.yul\":440:441   */\n      dup1\n        /* \"#utility.yul\":433:445   */\n      revert\n        /* \"#utility.yul\":457:574   */\n    tag_134:\n        /* \"#utility.yul\":566:567   */\n      0x00\n        /* \"#utility.yul\":563:564   */\n      dup1\n        /* \"#utility.yul\":556:568   */\n      revert\n        /* \"#utility.yul\":580:682   */\n    tag_135:\n        /* \"#utility.yul\":621:627   */\n      0x00\n        /* \"#utility.yul\":672:674   */\n      0x1f\n        /* \"#utility.yul\":668:675   */\n      not\n        /* \"#utility.yul\":663:665   */\n      0x1f\n        /* \"#utility.yul\":656:661   */\n      dup4\n        /* \"#utility.yul\":652:666   */\n      add\n        /* \"#utility.yul\":648:676   */\n      and\n        /* \"#utility.yul\":638:676   */\n      swap1\n      pop\n        /* \"#utility.yul\":580:682   */\n      swap2\n      swap1\n      pop\n      jump\t// out\n        /* \"#utility.yul\":688:868   */\n    tag_136:\n        /* \"#utility.yul\":736:813   */\n      0x4e487b7100000000000000000000000000000000000000000000000000000000\n        /* \"#utility.yul\":733:734   */\n      0x00\n        /* \"#utility.yul\":726:814   */\n      mstore\n        /* \"#utility.yul\":833:837   */\n      0x41\n        /* \"#utility.yul\":830:831   */\n      0x04\n        /* \"#utility.yul\":823:838   */\n      mstore\n        /* \"#utility.yul\":857:861   */\n      0x24\n        /* \"#utility.yul\":854:855   */\n      0x00\n        /* \"#utility.yul\":847:862   */\n      revert\n        /* \"#utility.yul\":874:1155   */\n    tag_137:\n        /* \"#utility.yul\":957:984   */\n      tag_201\n        /* \"#utility.yul\":979:983   */\n      dup3\n        /* \"#utility.yul\":957:984   */\n      tag_135\n      jump\t// in\n    tag_201:\n        /* \"#utility.yul\":949:955   */\n      dup2\n        /* \"#utility.yul\":945:985   */\n      add\n        /* \"#utility.yul\":1087:1093   */\n      dup2\n        /* \"#utility.yul\":1075:1085   */\n      dup2\n        /* \"#utility.yul\":1072:1094   */\n      lt\n        /* \"#utility.yul\":1051:1069   */\n      0xffffffffffffffff\n        /* \"#utility.yul\":1039:1049   */\n      dup3\n        /* \"#utility.yul\":1036:1070   */\n      gt\n        /* \"#utility.yul\":1033:1095   */\n      or\n        /* \"#utility.yul\":1030:1118   */\n      iszero\n      tag_202\n      jumpi\n        /* \"#utility.yul\":1098:1116   */\n      tag_203\n      tag_136\n      jump\t// in\n    tag_203:\n        /* \"#utility.yul\":1030:1118   */\n    tag_202:\n        /* \"#utility.yul\":1138:1148   */\n      dup1\n        /* \"#utility.yul\":1134:1136   */\n      0x40\n        /* \"#utility.yul\":1127:1149   */\n      mstore\n        /* \"#utility.yul\":917:1155   */\n      pop\n        /* \"#utility.yul\":874:1155   */\n      pop\n      pop\n      jump\t// out\n        /* \"#utility.yul\":1161:1290   */\n    tag_138:\n        /* \"#utility.yul\":1195:1201   */\n      0x00\n        /* \"#utility.yul\":1222:1242   */\n      tag_205\n      tag_130\n      jump\t// in\n    tag_205:\n        /* \"#utility.yul\":1212:1242   */\n      swap1\n      pop\n        /* \"#utility.yul\":1251:1284   */\n      tag_206\n        /* \"#utility.yul\":1279:1283   */\n      dup3\n        /* \"#utility.yul\":1271:1277   */\n      dup3\n        /* \"#utility.yul\":1251:1284   */\n      tag_137\n      jump\t// in\n    tag_206:\n        /* \"#utility.yul\":1161:1290   */\n      swap2\n      swap1\n      pop\n      jump\t// out\n        /* \"#utility.yul\":1296:1604   */\n    tag_139:\n        /* \"#utility.yul\":1358:1362   */\n      0x00\n        /* \"#utility.yul\":1448:1466   */\n      0xffffffffffffffff\n        /* \"#utility.yul\":1440:1446   */\n      dup3\n        /* \"#utility.yul\":1437:1467   */\n      gt\n        /* \"#utility.yul\":1434:1490   */\n      iszero\n      tag_208\n      jumpi\n        /* \"#utility.yul\":1470:1488   */\n      tag_209\n      tag_136\n      jump\t// in\n    tag_209:\n        /* \"#utility.yul\":1434:1490   */\n    tag_208:\n        /* \"#utility.yul\":1508:1537   */\n      tag_210\n        /* \"#utility.yul\":1530:1536   */\n      dup3\n        /* \"#utility.yul\":1508:1537   */\n      tag_135\n      jump\t// in\n    tag_210:\n        /* \"#utility.yul\":1500:1537   */\n      swap1\n      pop\n        /* \"#utility.yul\":1592:1596   */\n      0x20\n        /* \"#utility.yul\":1586:1590   */\n      dup2\n        /* \"#utility.yul\":1582:1597   */\n      add\n        /* \"#utility.yul\":1574:1597   */\n      swap1\n      pop\n        /* \"#utility.yul\":1296:1604   */\n      swap2\n      swap1\n      pop\n      jump\t// out\n        /* \"#utility.yul\":1610:1756   */\n    tag_140:\n        /* \"#utility.yul\":1707:1713   */\n      dup3\n        /* \"#utility.yul\":1702:1705   */\n      dup2\n        /* \"#utility.yul\":1697:1700   */\n      dup4\n        /* \"#utility.yul\":1684:1714   */\n      calldatacopy\n        /* \"#utility.yul\":1748:1749   */\n      0x00\n        /* \"#utility.yul\":1739:1745   */\n      dup4\n        /* \"#utility.yul\":1734:1737   */\n      dup4\n        /* \"#utility.yul\":1730:1746   */\n      add\n        /* \"#utility.yul\":1723:1750   */\n      mstore\n        /* \"#utility.yul\":1610:1756   */\n      pop\n      pop\n      pop\n      jump\t// out\n        /* \"#utility.yul\":1762:2187   */\n    tag_141:\n        /* \"#utility.yul\":1840:1845   */\n      0x00\n        /* \"#utility.yul\":1865:1931   */\n      tag_213\n        /* \"#utility.yul\":1881:1930   */\n      tag_214\n        /* \"#utility.yul\":1923:1929   */\n      dup5\n        /* \"#utility.yul\":1881:1930   */\n      tag_139\n      jump\t// in\n    tag_214:\n        /* \"#utility.yul\":1865:1931   */\n      tag_138\n      jump\t// in\n    tag_213:\n        /* \"#utility.yul\":1856:1931   */\n      swap1\n      pop\n        /* \"#utility.yul\":1954:1960   */\n      dup3\n        /* \"#utility.yul\":1947:1952   */\n      dup2\n        /* \"#utility.yul\":1940:1961   */\n      mstore\n        /* \"#utility.yul\":1992:1996   */\n      0x20\n        /* \"#utility.yul\":1985:1990   */\n      dup2\n        /* \"#utility.yul\":1981:1997   */\n      add\n        /* \"#utility.yul\":2030:2033   */\n      dup5\n        /* \"#utility.yul\":2021:2027   */\n      dup5\n        /* \"#utility.yul\":2016:2019   */\n      dup5\n        /* \"#utility.yul\":2012:2028   */\n      add\n        /* \"#utility.yul\":2009:2034   */\n      gt\n        /* \"#utility.yul\":2006:2118   */\n      iszero\n      tag_215\n      jumpi\n        /* \"#utility.yul\":2037:2116   */\n      tag_216\n      tag_134\n      jump\t// in\n    tag_216:\n        /* \"#utility.yul\":2006:2118   */\n    tag_215:\n        /* \"#utility.yul\":2127:2181   */\n      tag_217\n        /* \"#utility.yul\":2174:2180   */\n      dup5\n        /* \"#utility.yul\":2169:2172   */\n      dup3\n        /* \"#utility.yul\":2164:2167   */\n      dup6\n        /* \"#utility.yul\":2127:2181   */\n      tag_140\n      jump\t// in\n    tag_217:\n        /* \"#utility.yul\":1846:2187   */\n      pop\n        /* \"#utility.yul\":1762:2187   */\n      swap4\n      swap3\n      pop\n      pop\n      pop\n      jump\t// out\n        /* \"#utility.yul\":2207:2547   */\n    tag_142:\n        /* \"#utility.yul\":2263:2268   */\n      0x00\n        /* \"#utility.yul\":2312:2315   */\n      dup3\n        /* \"#utility.yul\":2305:2309   */\n      0x1f\n        /* \"#utility.yul\":2297:2303   */\n      dup4\n        /* \"#utility.yul\":2293:2310   */\n      add\n        /* \"#utility.yul\":2289:2316   */\n      slt\n        /* \"#utility.yul\":2279:2401   */\n      tag_219\n      jumpi\n        /* \"#utility.yul\":2320:2399   */\n      tag_220\n      tag_133\n      jump\t// in\n    tag_220:\n        /* \"#utility.yul\":2279:2401   */\n    tag_219:\n        /* \"#utility.yul\":2437:2443   */\n      dup2\n        /* \"#utility.yul\":2424:2444   */\n      calldataload\n        /* \"#utility.yul\":2462:2541   */\n      tag_221\n        /* \"#utility.yul\":2537:2540   */\n      dup5\n        /* \"#utility.yul\":2529:2535   */\n      dup3\n        /* \"#utility.yul\":2522:2526   */\n      0x20\n        /* \"#utility.yul\":2514:2520   */\n      dup7\n        /* \"#utility.yul\":2510:2527   */\n      add\n        /* \"#utility.yul\":2462:2541   */\n      tag_141\n      jump\t// in\n    tag_221:\n        /* \"#utility.yul\":2453:2541   */\n      swap2\n      pop\n        /* \"#utility.yul\":2269:2547   */\n      pop\n        /* \"#utility.yul\":2207:2547   */\n      swap3\n      swap2\n      pop\n      pop\n      jump\t// out\n        /* \"#utility.yul\":2553:2899   */\n    tag_143:\n        /* \"#utility.yul\":2665:2669   */\n      0x00\n        /* \"#utility.yul\":2755:2773   */\n      0xffffffffffffffff\n        /* \"#utility.yul\":2747:2753   */\n      dup3\n        /* \"#utility.yul\":2744:2774   */\n      gt\n        /* \"#utility.yul\":2741:2797   */\n      iszero\n      tag_223\n      jumpi\n        /* \"#utility.yul\":2777:2795   */\n      tag_224\n      tag_136\n      jump\t// in\n    tag_224:\n        /* \"#utility.yul\":2741:2797   */\n    tag_223:\n        /* \"#utility.yul\":2827:2831   */\n      0x20\n        /* \"#utility.yul\":2819:2825   */\n      dup3\n        /* \"#utility.yul\":2815:2832   */\n      mul\n        /* \"#utility.yul\":2807:2832   */\n      swap1\n      pop\n        /* \"#utility.yul\":2887:2891   */\n      0x20\n        /* \"#utility.yul\":2881:2885   */\n      dup2\n        /* \"#utility.yul\":2877:2892   */\n      add\n        /* \"#utility.yul\":2869:2892   */\n      swap1\n      pop\n        /* \"#utility.yul\":2553:2899   */\n      swap2\n      swap1\n      pop\n      jump\t// out\n        /* \"#utility.yul\":2905:3022   */\n    tag_144:\n        /* \"#utility.yul\":3014:3015   */\n      0x00\n        /* \"#utility.yul\":3011:3012   */\n      dup1\n        /* \"#utility.yul\":3004:3016   */\n      revert\n        /* \"#utility.yul\":3028:3349   */\n    tag_145:\n        /* \"#utility.yul\":3115:3119   */\n      0x00\n        /* \"#utility.yul\":3205:3223   */\n      0xffffffffffffffff\n        /* \"#utility.yul\":3197:3203   */\n      dup3\n        /* \"#utility.yul\":3194:3224   */\n      gt\n        /* \"#utility.yul\":3191:3247   */\n      iszero\n      tag_227\n      jumpi\n        /* \"#utility.yul\":3227:3245   */\n      tag_228\n      tag_136\n      jump\t// in\n    tag_228:\n        /* \"#utility.yul\":3191:3247   */\n    tag_227:\n        /* \"#utility.yul\":3277:3281   */\n      0x20\n        /* \"#utility.yul\":3269:3275   */\n      dup3\n        /* \"#utility.yul\":3265:3282   */\n      mul\n        /* \"#utility.yul\":3257:3282   */\n      swap1\n      pop\n        /* \"#utility.yul\":3337:3341   */\n      0x20\n        /* \"#utility.yul\":3331:3335   */\n      dup2\n        /* \"#utility.yul\":3327:3342   */\n      add\n        /* \"#utility.yul\":3319:3342   */\n      swap1\n      pop\n        /* \"#utility.yul\":3028:3349   */\n      swap2\n      swap1\n      pop\n      jump\t// out\n        /* \"#utility.yul\":3371:4316   */\n    tag_146:\n        /* \"#utility.yul\":3477:3482   */\n      0x00\n        /* \"#utility.yul\":3502:3593   */\n      tag_230\n        /* \"#utility.yul\":3518:3592   */\n      tag_231\n        /* \"#utility.yul\":3585:3591   */\n      dup5\n        /* \"#utility.yul\":3518:3592   */\n      tag_145\n      jump\t// in\n    tag_231:\n        /* \"#utility.yul\":3502:3593   */\n      tag_138\n      jump\t// in\n    tag_230:\n        /* \"#utility.yul\":3493:3593   */\n      swap1\n      pop\n        /* \"#utility.yul\":3613:3618   */\n      dup1\n        /* \"#utility.yul\":3642:3648   */\n      dup4\n        /* \"#utility.yul\":3635:3640   */\n      dup3\n        /* \"#utility.yul\":3628:3649   */\n      mstore\n        /* \"#utility.yul\":3676:3680   */\n      0x20\n        /* \"#utility.yul\":3669:3674   */\n      dup3\n        /* \"#utility.yul\":3665:3681   */\n      add\n        /* \"#utility.yul\":3658:3681   */\n      swap1\n      pop\n        /* \"#utility.yul\":3729:3733   */\n      0x20\n        /* \"#utility.yul\":3721:3727   */\n      dup5\n        /* \"#utility.yul\":3717:3734   */\n      mul\n        /* \"#utility.yul\":3709:3715   */\n      dup4\n        /* \"#utility.yul\":3705:3735   */\n      add\n        /* \"#utility.yul\":3758:3761   */\n      dup6\n        /* \"#utility.yul\":3750:3756   */\n      dup2\n        /* \"#utility.yul\":3747:3762   */\n      gt\n        /* \"#utility.yul\":3744:3866   */\n      iszero\n      tag_232\n      jumpi\n        /* \"#utility.yul\":3777:3856   */\n      tag_233\n      tag_144\n      jump\t// in\n    tag_233:\n        /* \"#utility.yul\":3744:3866   */\n    tag_232:\n        /* \"#utility.yul\":3892:3898   */\n      dup4\n        /* \"#utility.yul\":3875:4310   */\n    tag_234:\n        /* \"#utility.yul\":3909:3915   */\n      dup2\n        /* \"#utility.yul\":3904:3907   */\n      dup2\n        /* \"#utility.yul\":3901:3916   */\n      lt\n        /* \"#utility.yul\":3875:4310   */\n      iszero\n      tag_236\n      jumpi\n        /* \"#utility.yul\":3998:4001   */\n      dup1\n        /* \"#utility.yul\":3985:4002   */\n      calldataload\n        /* \"#utility.yul\":4034:4052   */\n      0xffffffffffffffff\n        /* \"#utility.yul\":4021:4032   */\n      dup2\n        /* \"#utility.yul\":4018:4053   */\n      gt\n        /* \"#utility.yul\":4015:4137   */\n      iszero\n      tag_237\n      jumpi\n        /* \"#utility.yul\":4056:4135   */\n      tag_238\n      tag_133\n      jump\t// in\n    tag_238:\n        /* \"#utility.yul\":4015:4137   */\n    tag_237:\n        /* \"#utility.yul\":4180:4191   */\n      dup1\n        /* \"#utility.yul\":4172:4178   */\n      dup7\n        /* \"#utility.yul\":4168:4192   */\n      add\n        /* \"#utility.yul\":4218:4265   */\n      tag_239\n        /* \"#utility.yul\":4261:4264   */\n      dup10\n        /* \"#utility.yul\":4249:4259   */\n      dup3\n        /* \"#utility.yul\":4218:4265   */\n      tag_142\n      jump\t// in\n    tag_239:\n        /* \"#utility.yul\":4213:4216   */\n      dup6\n        /* \"#utility.yul\":4206:4266   */\n      mstore\n        /* \"#utility.yul\":4295:4299   */\n      0x20\n        /* \"#utility.yul\":4290:4293   */\n      dup6\n        /* \"#utility.yul\":4286:4300   */\n      add\n        /* \"#utility.yul\":4279:4300   */\n      swap5\n      pop\n        /* \"#utility.yul\":3951:4310   */\n      pop\n      pop\n        /* \"#utility.yul\":3935:3939   */\n      0x20\n        /* \"#utility.yul\":3930:3933   */\n      dup2\n        /* \"#utility.yul\":3926:3940   */\n      add\n        /* \"#utility.yul\":3919:3940   */\n      swap1\n      pop\n        /* \"#utility.yul\":3875:4310   */\n      jump(tag_234)\n    tag_236:\n        /* \"#utility.yul\":3879:3900   */\n      pop\n        /* \"#utility.yul\":3483:4316   */\n      pop\n      pop\n        /* \"#utility.yul\":3371:4316   */\n      swap4\n      swap3\n      pop\n      pop\n      pop\n      jump\t// out\n        /* \"#utility.yul\":4338:4728   */\n    tag_147:\n        /* \"#utility.yul\":4419:4424   */\n      0x00\n        /* \"#utility.yul\":4468:4471   */\n      dup3\n        /* \"#utility.yul\":4461:4465   */\n      0x1f\n        /* \"#utility.yul\":4453:4459   */\n      dup4\n        /* \"#utility.yul\":4449:4466   */\n      add\n        /* \"#utility.yul\":4445:4472   */\n      slt\n        /* \"#utility.yul\":4435:4557   */\n      tag_241\n      jumpi\n        /* \"#utility.yul\":4476:4555   */\n      tag_242\n      tag_133\n      jump\t// in\n    tag_242:\n        /* \"#utility.yul\":4435:4557   */\n    tag_241:\n        /* \"#utility.yul\":4593:4599   */\n      dup2\n        /* \"#utility.yul\":4580:4600   */\n      calldataload\n        /* \"#utility.yul\":4618:4722   */\n      tag_243\n        /* \"#utility.yul\":4718:4721   */\n      dup5\n        /* \"#utility.yul\":4710:4716   */\n      dup3\n        /* \"#utility.yul\":4703:4707   */\n      0x20\n        /* \"#utility.yul\":4695:4701   */\n      dup7\n        /* \"#utility.yul\":4691:4708   */\n      add\n        /* \"#utility.yul\":4618:4722   */\n      tag_146\n      jump\t// in\n    tag_243:\n        /* \"#utility.yul\":4609:4722   */\n      swap2\n      pop\n        /* \"#utility.yul\":4425:4728   */\n      pop\n        /* \"#utility.yul\":4338:4728   */\n      swap3\n      swap2\n      pop\n      pop\n      jump\t// out\n        /* \"#utility.yul\":4752:5772   */\n    tag_148:\n        /* \"#utility.yul\":4883:4888   */\n      0x00\n        /* \"#utility.yul\":4908:5024   */\n      tag_245\n        /* \"#utility.yul\":4924:5023   */\n      tag_246\n        /* \"#utility.yul\":5016:5022   */\n      dup5\n        /* \"#utility.yul\":4924:5023   */\n      tag_143\n      jump\t// in\n    tag_246:\n        /* \"#utility.yul\":4908:5024   */\n      tag_138\n      jump\t// in\n    tag_245:\n        /* \"#utility.yul\":4899:5024   */\n      swap1\n      pop\n        /* \"#utility.yul\":5044:5049   */\n      dup1\n        /* \"#utility.yul\":5073:5079   */\n      dup4\n        /* \"#utility.yul\":5066:5071   */\n      dup3\n        /* \"#utility.yul\":5059:5080   */\n      mstore\n        /* \"#utility.yul\":5107:5111   */\n      0x20\n        /* \"#utility.yul\":5100:5105   */\n      dup3\n        /* \"#utility.yul\":5096:5112   */\n      add\n        /* \"#utility.yul\":5089:5112   */\n      swap1\n      pop\n        /* \"#utility.yul\":5160:5164   */\n      0x20\n        /* \"#utility.yul\":5152:5158   */\n      dup5\n        /* \"#utility.yul\":5148:5165   */\n      mul\n        /* \"#utility.yul\":5140:5146   */\n      dup4\n        /* \"#utility.yul\":5136:5166   */\n      add\n        /* \"#utility.yul\":5189:5192   */\n      dup6\n        /* \"#utility.yul\":5181:5187   */\n      dup2\n        /* \"#utility.yul\":5178:5193   */\n      gt\n        /* \"#utility.yul\":5175:5297   */\n      iszero\n      tag_247\n      jumpi\n        /* \"#utility.yul\":5208:5287   */\n      tag_248\n      tag_144\n      jump\t// in\n    tag_248:\n        /* \"#utility.yul\":5175:5297   */\n    tag_247:\n        /* \"#utility.yul\":5323:5329   */\n      dup4\n        /* \"#utility.yul\":5306:5766   */\n    tag_249:\n        /* \"#utility.yul\":5340:5346   */\n      dup2\n        /* \"#utility.yul\":5335:5338   */\n      dup2\n        /* \"#utility.yul\":5332:5347   */\n      lt\n        /* \"#utility.yul\":5306:5766   */\n      iszero\n      tag_251\n      jumpi\n        /* \"#utility.yul\":5429:5432   */\n      dup1\n        /* \"#utility.yul\":5416:5433   */\n      calldataload\n        /* \"#utility.yul\":5465:5483   */\n      0xffffffffffffffff\n        /* \"#utility.yul\":5452:5463   */\n      dup2\n        /* \"#utility.yul\":5449:5484   */\n      gt\n        /* \"#utility.yul\":5446:5568   */\n      iszero\n      tag_252\n      jumpi\n        /* \"#utility.yul\":5487:5566   */\n      tag_253\n      tag_133\n      jump\t// in\n    tag_253:\n        /* \"#utility.yul\":5446:5568   */\n    tag_252:\n        /* \"#utility.yul\":5611:5622   */\n      dup1\n        /* \"#utility.yul\":5603:5609   */\n      dup7\n        /* \"#utility.yul\":5599:5623   */\n      add\n        /* \"#utility.yul\":5649:5721   */\n      tag_254\n        /* \"#utility.yul\":5717:5720   */\n      dup10\n        /* \"#utility.yul\":5705:5715   */\n      dup3\n        /* \"#utility.yul\":5649:5721   */\n      tag_147\n      jump\t// in\n    tag_254:\n        /* \"#utility.yul\":5644:5647   */\n      dup6\n        /* \"#utility.yul\":5637:5722   */\n      mstore\n        /* \"#utility.yul\":5751:5755   */\n      0x20\n        /* \"#utility.yul\":5746:5749   */\n      dup6\n        /* \"#utility.yul\":5742:5756   */\n      add\n        /* \"#utility.yul\":5735:5756   */\n      swap5\n      pop\n        /* \"#utility.yul\":5382:5766   */\n      pop\n      pop\n        /* \"#utility.yul\":5366:5370   */\n      0x20\n        /* \"#utility.yul\":5361:5364   */\n      dup2\n        /* \"#utility.yul\":5357:5371   */\n      add\n        /* \"#utility.yul\":5350:5371   */\n      swap1\n      pop\n        /* \"#utility.yul\":5306:5766   */\n      jump(tag_249)\n    tag_251:\n        /* \"#utility.yul\":5310:5331   */\n      pop\n        /* \"#utility.yul\":4889:5772   */\n      pop\n      pop\n        /* \"#utility.yul\":4752:5772   */\n      swap4\n      swap3\n      pop\n      pop\n      pop\n      jump\t// out\n        /* \"#utility.yul\":5796:6236   */\n    tag_149:\n        /* \"#utility.yul\":5902:5907   */\n      0x00\n        /* \"#utility.yul\":5951:5954   */\n      dup3\n        /* \"#utility.yul\":5944:5948   */\n      0x1f\n        /* \"#utility.yul\":5936:5942   */\n      dup4\n        /* \"#utility.yul\":5932:5949   */\n      add\n        /* \"#utility.yul\":5928:5955   */\n      slt\n        /* \"#utility.yul\":5918:6040   */\n      tag_256\n      jumpi\n        /* \"#utility.yul\":5959:6038   */\n      tag_257\n      tag_133\n      jump\t// in\n    tag_257:\n        /* \"#utility.yul\":5918:6040   */\n    tag_256:\n        /* \"#utility.yul\":6076:6082   */\n      dup2\n        /* \"#utility.yul\":6063:6083   */\n      calldataload\n        /* \"#utility.yul\":6101:6230   */\n      tag_258\n        /* \"#utility.yul\":6226:6229   */\n      dup5\n        /* \"#utility.yul\":6218:6224   */\n      dup3\n        /* \"#utility.yul\":6211:6215   */\n      0x20\n        /* \"#utility.yul\":6203:6209   */\n      dup7\n        /* \"#utility.yul\":6199:6216   */\n      add\n        /* \"#utility.yul\":6101:6230   */\n      tag_148\n      jump\t// in\n    tag_258:\n        /* \"#utility.yul\":6092:6230   */\n      swap2\n      pop\n        /* \"#utility.yul\":5908:6236   */\n      pop\n        /* \"#utility.yul\":5796:6236   */\n      swap3\n      swap2\n      pop\n      pop\n      jump\t// out\n        /* \"#utility.yul\":6242:7601   */\n    tag_8:\n        /* \"#utility.yul\":6449:6455   */\n      0x00\n        /* \"#utility.yul\":6457:6463   */\n      dup1\n        /* \"#utility.yul\":6465:6471   */\n      0x00\n        /* \"#utility.yul\":6514:6516   */\n      0x60\n        /* \"#utility.yul\":6502:6511   */\n      dup5\n        /* \"#utility.yul\":6493:6500   */\n      dup7\n        /* \"#utility.yul\":6489:6512   */\n      sub\n        /* \"#utility.yul\":6485:6517   */\n      slt\n        /* \"#utility.yul\":6482:6601   */\n      iszero\n      tag_260\n      jumpi\n        /* \"#utility.yul\":6520:6599   */\n      tag_261\n      tag_131\n      jump\t// in\n    tag_261:\n        /* \"#utility.yul\":6482:6601   */\n    tag_260:\n        /* \"#utility.yul\":6668:6669   */\n      0x00\n        /* \"#utility.yul\":6657:6666   */\n      dup5\n        /* \"#utility.yul\":6653:6670   */\n      add\n        /* \"#utility.yul\":6640:6671   */\n      calldataload\n        /* \"#utility.yul\":6698:6716   */\n      0xffffffffffffffff\n        /* \"#utility.yul\":6690:6696   */\n      dup2\n        /* \"#utility.yul\":6687:6717   */\n      gt\n        /* \"#utility.yul\":6684:6801   */\n      iszero\n      tag_262\n      jumpi\n        /* \"#utility.yul\":6720:6799   */\n      tag_263\n      tag_132\n      jump\t// in\n    tag_263:\n        /* \"#utility.yul\":6684:6801   */\n    tag_262:\n        /* \"#utility.yul\":6825:6888   */\n      tag_264\n        /* \"#utility.yul\":6880:6887   */\n      dup7\n        /* \"#utility.yul\":6871:6877   */\n      dup3\n        /* \"#utility.yul\":6860:6869   */\n      dup8\n        /* \"#utility.yul\":6856:6878   */\n      add\n        /* \"#utility.yul\":6825:6888   */\n      tag_142\n      jump\t// in\n    tag_264:\n        /* \"#utility.yul\":6815:6888   */\n      swap4\n      pop\n        /* \"#utility.yul\":6611:6898   */\n      pop\n        /* \"#utility.yul\":6965:6967   */\n      0x20\n        /* \"#utility.yul\":6954:6963   */\n      dup5\n        /* \"#utility.yul\":6950:6968   */\n      add\n        /* \"#utility.yul\":6937:6969   */\n      calldataload\n        /* \"#utility.yul\":6996:7014   */\n      0xffffffffffffffff\n        /* \"#utility.yul\":6988:6994   */\n      dup2\n        /* \"#utility.yul\":6985:7015   */\n      gt\n        /* \"#utility.yul\":6982:7099   */\n      iszero\n      tag_265\n      jumpi\n        /* \"#utility.yul\":7018:7097   */\n      tag_266\n      tag_132\n      jump\t// in\n    tag_266:\n        /* \"#utility.yul\":6982:7099   */\n    tag_265:\n        /* \"#utility.yul\":7123:7236   */\n      tag_267\n        /* \"#utility.yul\":7228:7235   */\n      dup7\n        /* \"#utility.yul\":7219:7225   */\n      dup3\n        /* \"#utility.yul\":7208:7217   */\n      dup8\n        /* \"#utility.yul\":7204:7226   */\n      add\n        /* \"#utility.yul\":7123:7236   */\n      tag_149\n      jump\t// in\n    tag_267:\n        /* \"#utility.yul\":7113:7236   */\n      swap3\n      pop\n        /* \"#utility.yul\":6908:7246   */\n      pop\n        /* \"#utility.yul\":7313:7315   */\n      0x40\n        /* \"#utility.yul\":7302:7311   */\n      dup5\n        /* \"#utility.yul\":7298:7316   */\n      add\n        /* \"#utility.yul\":7285:7317   */\n      calldataload\n        /* \"#utility.yul\":7344:7362   */\n      0xffffffffffffffff\n        /* \"#utility.yul\":7336:7342   */\n      dup2\n        /* \"#utility.yul\":7333:7363   */\n      gt\n        /* \"#utility.yul\":7330:7447   */\n      iszero\n      tag_268\n      jumpi\n        /* \"#utility.yul\":7366:7445   */\n      tag_269\n      tag_132\n      jump\t// in\n    tag_269:\n        /* \"#utility.yul\":7330:7447   */\n    tag_268:\n        /* \"#utility.yul\":7471:7584   */\n      tag_270\n        /* \"#utility.yul\":7576:7583   */\n      dup7\n        /* \"#utility.yul\":7567:7573   */\n      dup3\n        /* \"#utility.yul\":7556:7565   */\n      dup8\n        /* \"#utility.yul\":7552:7574   */\n      add\n        /* \"#utility.yul\":7471:7584   */\n      tag_149\n      jump\t// in\n    tag_270:\n        /* \"#utility.yul\":7461:7584   */\n      swap2\n      pop\n        /* \"#utility.yul\":7256:7594   */\n      pop\n        /* \"#utility.yul\":6242:7601   */\n      swap3\n      pop\n      swap3\n      pop\n      swap3\n      jump\t// out\n        /* \"#utility.yul\":7607:7706   */\n    tag_150:\n        /* \"#utility.yul\":7659:7665   */\n      0x00\n        /* \"#utility.yul\":7693:7698   */\n      dup2\n        /* \"#utility.yul\":7687:7699   */\n      mload\n        /* \"#utility.yul\":7677:7699   */\n      swap1\n      pop\n        /* \"#utility.yul\":7607:7706   */\n      swap2\n      swap1\n      pop\n      jump\t// out\n        /* \"#utility.yul\":7712:7871   */\n    tag_151:\n        /* \"#utility.yul\":7786:7797   */\n      0x00\n        /* \"#utility.yul\":7820:7826   */\n      dup3\n        /* \"#utility.yul\":7815:7818   */\n      dup3\n        /* \"#utility.yul\":7808:7827   */\n      mstore\n        /* \"#utility.yul\":7860:7864   */\n      0x20\n        /* \"#utility.yul\":7855:7858   */\n      dup3\n        /* \"#utility.yul\":7851:7865   */\n      add\n        /* \"#utility.yul\":7836:7865   */\n      swap1\n      pop\n        /* \"#utility.yul\":7712:7871   */\n      swap3\n      swap2\n      pop\n      pop\n      jump\t// out\n        /* \"#utility.yul\":7877:8123   */\n    tag_152:\n        /* \"#utility.yul\":7958:7959   */\n      0x00\n        /* \"#utility.yul\":7968:8081   */\n    tag_274:\n        /* \"#utility.yul\":7982:7988   */\n      dup4\n        /* \"#utility.yul\":7979:7980   */\n      dup2\n        /* \"#utility.yul\":7976:7989   */\n      lt\n        /* \"#utility.yul\":7968:8081   */\n      iszero\n      tag_276\n      jumpi\n        /* \"#utility.yul\":8067:8068   */\n      dup1\n        /* \"#utility.yul\":8062:8065   */\n      dup3\n        /* \"#utility.yul\":8058:8069   */\n      add\n        /* \"#utility.yul\":8052:8070   */\n      mload\n        /* \"#utility.yul\":8048:8049   */\n      dup2\n        /* \"#utility.yul\":8043:8046   */\n      dup5\n        /* \"#utility.yul\":8039:8050   */\n      add\n        /* \"#utility.yul\":8032:8071   */\n      mstore\n        /* \"#utility.yul\":8004:8006   */\n      0x20\n        /* \"#utility.yul\":8001:8002   */\n      dup2\n        /* \"#utility.yul\":7997:8007   */\n      add\n        /* \"#utility.yul\":7992:8007   */\n      swap1\n      pop\n        /* \"#utility.yul\":7968:8081   */\n      jump(tag_274)\n    tag_276:\n        /* \"#utility.yul\":8115:8116   */\n      0x00\n        /* \"#utility.yul\":8106:8112   */\n      dup5\n        /* \"#utility.yul\":8101:8104   */\n      dup5\n        /* \"#utility.yul\":8097:8113   */\n      add\n        /* \"#utility.yul\":8090:8117   */\n      mstore\n        /* \"#utility.yul\":7939:8123   */\n      pop\n        /* \"#utility.yul\":7877:8123   */\n      pop\n      pop\n      pop\n      jump\t// out\n        /* \"#utility.yul\":8129:8486   */\n    tag_153:\n        /* \"#utility.yul\":8207:8210   */\n      0x00\n        /* \"#utility.yul\":8235:8274   */\n      tag_278\n        /* \"#utility.yul\":8268:8273   */\n      dup3\n        /* \"#utility.yul\":8235:8274   */\n      tag_150\n      jump\t// in\n    tag_278:\n        /* \"#utility.yul\":8290:8351   */\n      tag_279\n        /* \"#utility.yul\":8344:8350   */\n      dup2\n        /* \"#utility.yul\":8339:8342   */\n      dup6\n        /* \"#utility.yul\":8290:8351   */\n      tag_151\n      jump\t// in\n    tag_279:\n        /* \"#utility.yul\":8283:8351   */\n      swap4\n      pop\n        /* \"#utility.yul\":8360:8425   */\n      tag_280\n        /* \"#utility.yul\":8418:8424   */\n      dup2\n        /* \"#utility.yul\":8413:8416   */\n      dup6\n        /* \"#utility.yul\":8406:8410   */\n      0x20\n        /* \"#utility.yul\":8399:8404   */\n      dup7\n        /* \"#utility.yul\":8395:8411   */\n      add\n        /* \"#utility.yul\":8360:8425   */\n      tag_152\n      jump\t// in\n    tag_280:\n        /* \"#utility.yul\":8450:8479   */\n      tag_281\n        /* \"#utility.yul\":8472:8478   */\n      dup2\n        /* \"#utility.yul\":8450:8479   */\n      tag_135\n      jump\t// in\n    tag_281:\n        /* \"#utility.yul\":8445:8448   */\n      dup5\n        /* \"#utility.yul\":8441:8480   */\n      add\n        /* \"#utility.yul\":8434:8480   */\n      swap2\n      pop\n        /* \"#utility.yul\":8211:8486   */\n      pop\n        /* \"#utility.yul\":8129:8486   */\n      swap3\n      swap2\n      pop\n      pop\n      jump\t// out\n        /* \"#utility.yul\":8492:8625   */\n    tag_154:\n        /* \"#utility.yul\":8578:8584   */\n      0x00\n        /* \"#utility.yul\":8612:8617   */\n      dup2\n        /* \"#utility.yul\":8606:8618   */\n      mload\n        /* \"#utility.yul\":8596:8618   */\n      swap1\n      pop\n        /* \"#utility.yul\":8492:8625   */\n      swap2\n      swap1\n      pop\n      jump\t// out\n        /* \"#utility.yul\":8631:8824   */\n    tag_155:\n        /* \"#utility.yul\":8739:8750   */\n      0x00\n        /* \"#utility.yul\":8773:8779   */\n      dup3\n        /* \"#utility.yul\":8768:8771   */\n      dup3\n        /* \"#utility.yul\":8761:8780   */\n      mstore\n        /* \"#utility.yul\":8813:8817   */\n      0x20\n        /* \"#utility.yul\":8808:8811   */\n      dup3\n        /* \"#utility.yul\":8804:8818   */\n      add\n        /* \"#utility.yul\":8789:8818   */\n      swap1\n      pop\n        /* \"#utility.yul\":8631:8824   */\n      swap3\n      swap2\n      pop\n      pop\n      jump\t// out\n        /* \"#utility.yul\":8830:8981   */\n    tag_156:\n        /* \"#utility.yul\":8916:8920   */\n      0x00\n        /* \"#utility.yul\":8939:8942   */\n      dup2\n        /* \"#utility.yul\":8931:8942   */\n      swap1\n      pop\n        /* \"#utility.yul\":8969:8973   */\n      0x20\n        /* \"#utility.yul\":8964:8967   */\n      dup3\n        /* \"#utility.yul\":8960:8974   */\n      add\n        /* \"#utility.yul\":8952:8974   */\n      swap1\n      pop\n        /* \"#utility.yul\":8830:8981   */\n      swap2\n      swap1\n      pop\n      jump\t// out\n        /* \"#utility.yul\":9021:9944   */\n    tag_157:\n        /* \"#utility.yul\":9118:9121   */\n      0x00\n        /* \"#utility.yul\":9154:9158   */\n      0x60\n        /* \"#utility.yul\":9149:9152   */\n      dup4\n        /* \"#utility.yul\":9145:9159   */\n      add\n        /* \"#utility.yul\":9245:9249   */\n      0x00\n        /* \"#utility.yul\":9238:9243   */\n      dup4\n        /* \"#utility.yul\":9234:9250   */\n      add\n        /* \"#utility.yul\":9228:9251   */\n      mload\n        /* \"#utility.yul\":9298:9301   */\n      dup5\n        /* \"#utility.yul\":9292:9296   */\n      dup3\n        /* \"#utility.yul\":9288:9302   */\n      sub\n        /* \"#utility.yul\":9281:9285   */\n      0x00\n        /* \"#utility.yul\":9276:9279   */\n      dup7\n        /* \"#utility.yul\":9272:9286   */\n      add\n        /* \"#utility.yul\":9265:9303   */\n      mstore\n        /* \"#utility.yul\":9324:9397   */\n      tag_286\n        /* \"#utility.yul\":9392:9396   */\n      dup3\n        /* \"#utility.yul\":9378:9390   */\n      dup3\n        /* \"#utility.yul\":9324:9397   */\n      tag_153\n      jump\t// in\n    tag_286:\n        /* \"#utility.yul\":9316:9397   */\n      swap2\n      pop\n        /* \"#utility.yul\":9169:9408   */\n      pop\n        /* \"#utility.yul\":9501:9505   */\n      0x20\n        /* \"#utility.yul\":9494:9499   */\n      dup4\n        /* \"#utility.yul\":9490:9506   */\n      add\n        /* \"#utility.yul\":9484:9507   */\n      mload\n        /* \"#utility.yul\":9554:9557   */\n      dup5\n        /* \"#utility.yul\":9548:9552   */\n      dup3\n        /* \"#utility.yul\":9544:9558   */\n      sub\n        /* \"#utility.yul\":9537:9541   */\n      0x20\n        /* \"#utility.yul\":9532:9535   */\n      dup7\n        /* \"#utility.yul\":9528:9542   */\n      add\n        /* \"#utility.yul\":9521:9559   */\n      mstore\n        /* \"#utility.yul\":9580:9653   */\n      tag_287\n        /* \"#utility.yul\":9648:9652   */\n      dup3\n        /* \"#utility.yul\":9634:9646   */\n      dup3\n        /* \"#utility.yul\":9580:9653   */\n      tag_153\n      jump\t// in\n    tag_287:\n        /* \"#utility.yul\":9572:9653   */\n      swap2\n      pop\n        /* \"#utility.yul\":9418:9664   */\n      pop\n        /* \"#utility.yul\":9754:9758   */\n      0x40\n        /* \"#utility.yul\":9747:9752   */\n      dup4\n        /* \"#utility.yul\":9743:9759   */\n      add\n        /* \"#utility.yul\":9737:9760   */\n      mload\n        /* \"#utility.yul\":9807:9810   */\n      dup5\n        /* \"#utility.yul\":9801:9805   */\n      dup3\n        /* \"#utility.yul\":9797:9811   */\n      sub\n        /* \"#utility.yul\":9790:9794   */\n      0x40\n        /* \"#utility.yul\":9785:9788   */\n      dup7\n        /* \"#utility.yul\":9781:9795   */\n      add\n        /* \"#utility.yul\":9774:9812   */\n      mstore\n        /* \"#utility.yul\":9833:9906   */\n      tag_288\n        /* \"#utility.yul\":9901:9905   */\n      dup3\n        /* \"#utility.yul\":9887:9899   */\n      dup3\n        /* \"#utility.yul\":9833:9906   */\n      tag_153\n      jump\t// in\n    tag_288:\n        /* \"#utility.yul\":9825:9906   */\n      swap2\n      pop\n        /* \"#utility.yul\":9674:9917   */\n      pop\n        /* \"#utility.yul\":9934:9938   */\n      dup1\n        /* \"#utility.yul\":9927:9938   */\n      swap2\n      pop\n        /* \"#utility.yul\":9123:9944   */\n      pop\n        /* \"#utility.yul\":9021:9944   */\n      swap3\n      swap2\n      pop\n      pop\n      jump\t// out\n        /* \"#utility.yul\":9950:10182   */\n    tag_158:\n        /* \"#utility.yul\":10057:10067   */\n      0x00\n        /* \"#utility.yul\":10092:10176   */\n      tag_290\n        /* \"#utility.yul\":10172:10175   */\n      dup4\n        /* \"#utility.yul\":10164:10170   */\n      dup4\n        /* \"#utility.yul\":10092:10176   */\n      tag_157\n      jump\t// in\n    tag_290:\n        /* \"#utility.yul\":10078:10176   */\n      swap1\n      pop\n        /* \"#utility.yul\":9950:10182   */\n      swap3\n      swap2\n      pop\n      pop\n      jump\t// out\n        /* \"#utility.yul\":10188:10320   */\n    tag_159:\n        /* \"#utility.yul\":10277:10281   */\n      0x00\n        /* \"#utility.yul\":10309:10313   */\n      0x20\n        /* \"#utility.yul\":10304:10307   */\n      dup3\n        /* \"#utility.yul\":10300:10314   */\n      add\n        /* \"#utility.yul\":10292:10314   */\n      swap1\n      pop\n        /* \"#utility.yul\":10188:10320   */\n      swap2\n      swap1\n      pop\n      jump\t// out\n        /* \"#utility.yul\":10364:11407   */\n    tag_160:\n        /* \"#utility.yul\":10511:10514   */\n      0x00\n        /* \"#utility.yul\":10540:10613   */\n      tag_293\n        /* \"#utility.yul\":10607:10612   */\n      dup3\n        /* \"#utility.yul\":10540:10613   */\n      tag_154\n      jump\t// in\n    tag_293:\n        /* \"#utility.yul\":10629:10724   */\n      tag_294\n        /* \"#utility.yul\":10717:10723   */\n      dup2\n        /* \"#utility.yul\":10712:10715   */\n      dup6\n        /* \"#utility.yul\":10629:10724   */\n      tag_155\n      jump\t// in\n    tag_294:\n        /* \"#utility.yul\":10622:10724   */\n      swap4\n      pop\n        /* \"#utility.yul\":10750:10753   */\n      dup4\n        /* \"#utility.yul\":10795:10799   */\n      0x20\n        /* \"#utility.yul\":10787:10793   */\n      dup3\n        /* \"#utility.yul\":10783:10800   */\n      mul\n        /* \"#utility.yul\":10778:10781   */\n      dup6\n        /* \"#utility.yul\":10774:10801   */\n      add\n        /* \"#utility.yul\":10825:10900   */\n      tag_295\n        /* \"#utility.yul\":10894:10899   */\n      dup6\n        /* \"#utility.yul\":10825:10900   */\n      tag_156\n      jump\t// in\n    tag_295:\n        /* \"#utility.yul\":10923:10930   */\n      dup1\n        /* \"#utility.yul\":10954:10955   */\n      0x00\n        /* \"#utility.yul\":10939:11362   */\n    tag_296:\n        /* \"#utility.yul\":10964:10970   */\n      dup6\n        /* \"#utility.yul\":10961:10962   */\n      dup2\n        /* \"#utility.yul\":10958:10971   */\n      lt\n        /* \"#utility.yul\":10939:11362   */\n      iszero\n      tag_298\n      jumpi\n        /* \"#utility.yul\":11035:11044   */\n      dup5\n        /* \"#utility.yul\":11029:11033   */\n      dup5\n        /* \"#utility.yul\":11025:11045   */\n      sub\n        /* \"#utility.yul\":11020:11023   */\n      dup10\n        /* \"#utility.yul\":11013:11046   */\n      mstore\n        /* \"#utility.yul\":11086:11092   */\n      dup2\n        /* \"#utility.yul\":11080:11093   */\n      mload\n        /* \"#utility.yul\":11114:11216   */\n      tag_299\n        /* \"#utility.yul\":11211:11215   */\n      dup6\n        /* \"#utility.yul\":11196:11209   */\n      dup3\n        /* \"#utility.yul\":11114:11216   */\n      tag_158\n      jump\t// in\n    tag_299:\n        /* \"#utility.yul\":11106:11216   */\n      swap5\n      pop\n        /* \"#utility.yul\":11239:11318   */\n      tag_300\n        /* \"#utility.yul\":11311:11317   */\n      dup4\n        /* \"#utility.yul\":11239:11318   */\n      tag_159\n      jump\t// in\n    tag_300:\n        /* \"#utility.yul\":11229:11318   */\n      swap3\n      pop\n        /* \"#utility.yul\":11347:11351   */\n      0x20\n        /* \"#utility.yul\":11342:11345   */\n      dup11\n        /* \"#utility.yul\":11338:11352   */\n      add\n        /* \"#utility.yul\":11331:11352   */\n      swap10\n      pop\n        /* \"#utility.yul\":10999:11362   */\n      pop\n        /* \"#utility.yul\":10986:10987   */\n      0x01\n        /* \"#utility.yul\":10983:10984   */\n      dup2\n        /* \"#utility.yul\":10979:10988   */\n      add\n        /* \"#utility.yul\":10974:10988   */\n      swap1\n      pop\n        /* \"#utility.yul\":10939:11362   */\n      jump(tag_296)\n    tag_298:\n        /* \"#utility.yul\":10943:10957   */\n      pop\n        /* \"#utility.yul\":11378:11382   */\n      dup3\n        /* \"#utility.yul\":11371:11382   */\n      swap8\n      pop\n        /* \"#utility.yul\":11398:11401   */\n      dup8\n        /* \"#utility.yul\":11391:11401   */\n      swap6\n      pop\n        /* \"#utility.yul\":10516:11407   */\n      pop\n      pop\n      pop\n      pop\n      pop\n        /* \"#utility.yul\":10364:11407   */\n      swap3\n      swap2\n      pop\n      pop\n      jump\t// out\n        /* \"#utility.yul\":11413:11551   */\n    tag_161:\n        /* \"#utility.yul\":11504:11510   */\n      0x00\n        /* \"#utility.yul\":11538:11543   */\n      dup2\n        /* \"#utility.yul\":11532:11544   */\n      mload\n        /* \"#utility.yul\":11522:11544   */\n      swap1\n      pop\n        /* \"#utility.yul\":11413:11551   */\n      swap2\n      swap1\n      pop\n      jump\t// out\n        /* \"#utility.yul\":11557:11755   */\n    tag_162:\n        /* \"#utility.yul\":11670:11681   */\n      0x00\n        /* \"#utility.yul\":11704:11710   */\n      dup3\n        /* \"#utility.yul\":11699:11702   */\n      dup3\n        /* \"#utility.yul\":11692:11711   */\n      mstore\n        /* \"#utility.yul\":11744:11748   */\n      0x20\n        /* \"#utility.yul\":11739:11742   */\n      dup3\n        /* \"#utility.yul\":11735:11749   */\n      add\n        /* \"#utility.yul\":11720:11749   */\n      swap1\n      pop\n        /* \"#utility.yul\":11557:11755   */\n      swap3\n      swap2\n      pop\n      pop\n      jump\t// out\n        /* \"#utility.yul\":11761:11917   */\n    tag_163:\n        /* \"#utility.yul\":11852:11856   */\n      0x00\n        /* \"#utility.yul\":11875:11878   */\n      dup2\n        /* \"#utility.yul\":11867:11878   */\n      swap1\n      pop\n        /* \"#utility.yul\":11905:11909   */\n      0x20\n        /* \"#utility.yul\":11900:11903   */\n      dup3\n        /* \"#utility.yul\":11896:11910   */\n      add\n        /* \"#utility.yul\":11888:11910   */\n      swap1\n      pop\n        /* \"#utility.yul\":11761:11917   */\n      swap2\n      swap1\n      pop\n      jump\t// out\n        /* \"#utility.yul\":11965:12910   */\n    tag_164:\n        /* \"#utility.yul\":12072:12075   */\n      0x00\n        /* \"#utility.yul\":12108:12112   */\n      0x60\n        /* \"#utility.yul\":12103:12106   */\n      dup4\n        /* \"#utility.yul\":12099:12113   */\n      add\n        /* \"#utility.yul\":12203:12207   */\n      0x00\n        /* \"#utility.yul\":12196:12201   */\n      dup4\n        /* \"#utility.yul\":12192:12208   */\n      add\n        /* \"#utility.yul\":12186:12209   */\n      mload\n        /* \"#utility.yul\":12256:12259   */\n      dup5\n        /* \"#utility.yul\":12250:12254   */\n      dup3\n        /* \"#utility.yul\":12246:12260   */\n      sub\n        /* \"#utility.yul\":12239:12243   */\n      0x00\n        /* \"#utility.yul\":12234:12237   */\n      dup7\n        /* \"#utility.yul\":12230:12244   */\n      add\n        /* \"#utility.yul\":12223:12261   */\n      mstore\n        /* \"#utility.yul\":12282:12355   */\n      tag_305\n        /* \"#utility.yul\":12350:12354   */\n      dup3\n        /* \"#utility.yul\":12336:12348   */\n      dup3\n        /* \"#utility.yul\":12282:12355   */\n      tag_153\n      jump\t// in\n    tag_305:\n        /* \"#utility.yul\":12274:12355   */\n      swap2\n      pop\n        /* \"#utility.yul\":12123:12366   */\n      pop\n        /* \"#utility.yul\":12463:12467   */\n      0x20\n        /* \"#utility.yul\":12456:12461   */\n      dup4\n        /* \"#utility.yul\":12452:12468   */\n      add\n        /* \"#utility.yul\":12446:12469   */\n      mload\n        /* \"#utility.yul\":12516:12519   */\n      dup5\n        /* \"#utility.yul\":12510:12514   */\n      dup3\n        /* \"#utility.yul\":12506:12520   */\n      sub\n        /* \"#utility.yul\":12499:12503   */\n      0x20\n        /* \"#utility.yul\":12494:12497   */\n      dup7\n        /* \"#utility.yul\":12490:12504   */\n      add\n        /* \"#utility.yul\":12483:12521   */\n      mstore\n        /* \"#utility.yul\":12542:12615   */\n      tag_306\n        /* \"#utility.yul\":12610:12614   */\n      dup3\n        /* \"#utility.yul\":12596:12608   */\n      dup3\n        /* \"#utility.yul\":12542:12615   */\n      tag_153\n      jump\t// in\n    tag_306:\n        /* \"#utility.yul\":12534:12615   */\n      swap2\n      pop\n        /* \"#utility.yul\":12376:12626   */\n      pop\n        /* \"#utility.yul\":12720:12724   */\n      0x40\n        /* \"#utility.yul\":12713:12718   */\n      dup4\n        /* \"#utility.yul\":12709:12725   */\n      add\n        /* \"#utility.yul\":12703:12726   */\n      mload\n        /* \"#utility.yul\":12773:12776   */\n      dup5\n        /* \"#utility.yul\":12767:12771   */\n      dup3\n        /* \"#utility.yul\":12763:12777   */\n      sub\n        /* \"#utility.yul\":12756:12760   */\n      0x40\n        /* \"#utility.yul\":12751:12754   */\n      dup7\n        /* \"#utility.yul\":12747:12761   */\n      add\n        /* \"#utility.yul\":12740:12778   */\n      mstore\n        /* \"#utility.yul\":12799:12872   */\n      tag_307\n        /* \"#utility.yul\":12867:12871   */\n      dup3\n        /* \"#utility.yul\":12853:12865   */\n      dup3\n        /* \"#utility.yul\":12799:12872   */\n      tag_153\n      jump\t// in\n    tag_307:\n        /* \"#utility.yul\":12791:12872   */\n      swap2\n      pop\n        /* \"#utility.yul\":12636:12883   */\n      pop\n        /* \"#utility.yul\":12900:12904   */\n      dup1\n        /* \"#utility.yul\":12893:12904   */\n      swap2\n      pop\n        /* \"#utility.yul\":12077:12910   */\n      pop\n        /* \"#utility.yul\":11965:12910   */\n      swap3\n      swap2\n      pop\n      pop\n      jump\t// out\n        /* \"#utility.yul\":12916:13168   */\n    tag_165:\n        /* \"#utility.yul\":13033:13043   */\n      0x00\n        /* \"#utility.yul\":13068:13162   */\n      tag_309\n        /* \"#utility.yul\":13158:13161   */\n      dup4\n        /* \"#utility.yul\":13150:13156   */\n      dup4\n        /* \"#utility.yul\":13068:13162   */\n      tag_164\n      jump\t// in\n    tag_309:\n        /* \"#utility.yul\":13054:13162   */\n      swap1\n      pop\n        /* \"#utility.yul\":12916:13168   */\n      swap3\n      swap2\n      pop\n      pop\n      jump\t// out\n        /* \"#utility.yul\":13174:13311   */\n    tag_166:\n        /* \"#utility.yul\":13268:13272   */\n      0x00\n        /* \"#utility.yul\":13300:13304   */\n      0x20\n        /* \"#utility.yul\":13295:13298   */\n      dup3\n        /* \"#utility.yul\":13291:13305   */\n      add\n        /* \"#utility.yul\":13283:13305   */\n      swap1\n      pop\n        /* \"#utility.yul\":13174:13311   */\n      swap2\n      swap1\n      pop\n      jump\t// out\n        /* \"#utility.yul\":13363:14446   */\n    tag_167:\n        /* \"#utility.yul\":13520:13523   */\n      0x00\n        /* \"#utility.yul\":13549:13627   */\n      tag_312\n        /* \"#utility.yul\":13621:13626   */\n      dup3\n        /* \"#utility.yul\":13549:13627   */\n      tag_161\n      jump\t// in\n    tag_312:\n        /* \"#utility.yul\":13643:13743   */\n      tag_313\n        /* \"#utility.yul\":13736:13742   */\n      dup2\n        /* \"#utility.yul\":13731:13734   */\n      dup6\n        /* \"#utility.yul\":13643:13743   */\n      tag_162\n      jump\t// in\n    tag_313:\n        /* \"#utility.yul\":13636:13743   */\n      swap4\n      pop\n        /* \"#utility.yul\":13769:13772   */\n      dup4\n        /* \"#utility.yul\":13814:13818   */\n      0x20\n        /* \"#utility.yul\":13806:13812   */\n      dup3\n        /* \"#utility.yul\":13802:13819   */\n      mul\n        /* \"#utility.yul\":13797:13800   */\n      dup6\n        /* \"#utility.yul\":13793:13820   */\n      add\n        /* \"#utility.yul\":13844:13924   */\n      tag_314\n        /* \"#utility.yul\":13918:13923   */\n      dup6\n        /* \"#utility.yul\":13844:13924   */\n      tag_163\n      jump\t// in\n    tag_314:\n        /* \"#utility.yul\":13947:13954   */\n      dup1\n        /* \"#utility.yul\":13978:13979   */\n      0x00\n        /* \"#utility.yul\":13963:14401   */\n    tag_315:\n        /* \"#utility.yul\":13988:13994   */\n      dup6\n        /* \"#utility.yul\":13985:13986   */\n      dup2\n        /* \"#utility.yul\":13982:13995   */\n      lt\n        /* \"#utility.yul\":13963:14401   */\n      iszero\n      tag_317\n      jumpi\n        /* \"#utility.yul\":14059:14068   */\n      dup5\n        /* \"#utility.yul\":14053:14057   */\n      dup5\n        /* \"#utility.yul\":14049:14069   */\n      sub\n        /* \"#utility.yul\":14044:14047   */\n      dup10\n        /* \"#utility.yul\":14037:14070   */\n      mstore\n        /* \"#utility.yul\":14110:14116   */\n      dup2\n        /* \"#utility.yul\":14104:14117   */\n      mload\n        /* \"#utility.yul\":14138:14250   */\n      tag_318\n        /* \"#utility.yul\":14245:14249   */\n      dup6\n        /* \"#utility.yul\":14230:14243   */\n      dup3\n        /* \"#utility.yul\":14138:14250   */\n      tag_165\n      jump\t// in\n    tag_318:\n        /* \"#utility.yul\":14130:14250   */\n      swap5\n      pop\n        /* \"#utility.yul\":14273:14357   */\n      tag_319\n        /* \"#utility.yul\":14350:14356   */\n      dup4\n        /* \"#utility.yul\":14273:14357   */\n      tag_166\n      jump\t// in\n    tag_319:\n        /* \"#utility.yul\":14263:14357   */\n      swap3\n      pop\n        /* \"#utility.yul\":14386:14390   */\n      0x20\n        /* \"#utility.yul\":14381:14384   */\n      dup11\n        /* \"#utility.yul\":14377:14391   */\n      add\n        /* \"#utility.yul\":14370:14391   */\n      swap10\n      pop\n        /* \"#utility.yul\":14023:14401   */\n      pop\n        /* \"#utility.yul\":14010:14011   */\n      0x01\n        /* \"#utility.yul\":14007:14008   */\n      dup2\n        /* \"#utility.yul\":14003:14012   */\n      add\n        /* \"#utility.yul\":13998:14012   */\n      swap1\n      pop\n        /* \"#utility.yul\":13963:14401   */\n      jump(tag_315)\n    tag_317:\n        /* \"#utility.yul\":13967:13981   */\n      pop\n        /* \"#utility.yul\":14417:14421   */\n      dup3\n        /* \"#utility.yul\":14410:14421   */\n      swap8\n      pop\n        /* \"#utility.yul\":14437:14440   */\n      dup8\n        /* \"#utility.yul\":14430:14440   */\n      swap6\n      pop\n        /* \"#utility.yul\":13525:14446   */\n      pop\n      pop\n      pop\n      pop\n      pop\n        /* \"#utility.yul\":13363:14446   */\n      swap3\n      swap2\n      pop\n      pop\n      jump\t// out\n        /* \"#utility.yul\":14494:15572   */\n    tag_168:\n        /* \"#utility.yul\":14611:14614   */\n      0x00\n        /* \"#utility.yul\":14647:14651   */\n      0x60\n        /* \"#utility.yul\":14642:14645   */\n      dup4\n        /* \"#utility.yul\":14638:14652   */\n      add\n        /* \"#utility.yul\":14734:14738   */\n      0x00\n        /* \"#utility.yul\":14727:14732   */\n      dup4\n        /* \"#utility.yul\":14723:14739   */\n      add\n        /* \"#utility.yul\":14717:14740   */\n      mload\n        /* \"#utility.yul\":14787:14790   */\n      dup5\n        /* \"#utility.yul\":14781:14785   */\n      dup3\n        /* \"#utility.yul\":14777:14791   */\n      sub\n        /* \"#utility.yul\":14770:14774   */\n      0x00\n        /* \"#utility.yul\":14765:14768   */\n      dup7\n        /* \"#utility.yul\":14761:14775   */\n      add\n        /* \"#utility.yul\":14754:14792   */\n      mstore\n        /* \"#utility.yul\":14813:14886   */\n      tag_321\n        /* \"#utility.yul\":14881:14885   */\n      dup3\n        /* \"#utility.yul\":14867:14879   */\n      dup3\n        /* \"#utility.yul\":14813:14886   */\n      tag_153\n      jump\t// in\n    tag_321:\n        /* \"#utility.yul\":14805:14886   */\n      swap2\n      pop\n        /* \"#utility.yul\":14662:14897   */\n      pop\n        /* \"#utility.yul\":14983:14987   */\n      0x20\n        /* \"#utility.yul\":14976:14981   */\n      dup4\n        /* \"#utility.yul\":14972:14988   */\n      add\n        /* \"#utility.yul\":14966:14989   */\n      mload\n        /* \"#utility.yul\":15036:15039   */\n      dup5\n        /* \"#utility.yul\":15030:15034   */\n      dup3\n        /* \"#utility.yul\":15026:15040   */\n      sub\n        /* \"#utility.yul\":15019:15023   */\n      0x20\n        /* \"#utility.yul\":15014:15017   */\n      dup7\n        /* \"#utility.yul\":15010:15024   */\n      add\n        /* \"#utility.yul\":15003:15041   */\n      mstore\n        /* \"#utility.yul\":15062:15203   */\n      tag_322\n        /* \"#utility.yul\":15198:15202   */\n      dup3\n        /* \"#utility.yul\":15184:15196   */\n      dup3\n        /* \"#utility.yul\":15062:15203   */\n      tag_160\n      jump\t// in\n    tag_322:\n        /* \"#utility.yul\":15054:15203   */\n      swap2\n      pop\n        /* \"#utility.yul\":14907:15214   */\n      pop\n        /* \"#utility.yul\":15304:15308   */\n      0x40\n        /* \"#utility.yul\":15297:15302   */\n      dup4\n        /* \"#utility.yul\":15293:15309   */\n      add\n        /* \"#utility.yul\":15287:15310   */\n      mload\n        /* \"#utility.yul\":15357:15360   */\n      dup5\n        /* \"#utility.yul\":15351:15355   */\n      dup3\n        /* \"#utility.yul\":15347:15361   */\n      sub\n        /* \"#utility.yul\":15340:15344   */\n      0x40\n        /* \"#utility.yul\":15335:15338   */\n      dup7\n        /* \"#utility.yul\":15331:15345   */\n      add\n        /* \"#utility.yul\":15324:15362   */\n      mstore\n        /* \"#utility.yul\":15383:15534   */\n      tag_323\n        /* \"#utility.yul\":15529:15533   */\n      dup3\n        /* \"#utility.yul\":15515:15527   */\n      dup3\n        /* \"#utility.yul\":15383:15534   */\n      tag_167\n      jump\t// in\n    tag_323:\n        /* \"#utility.yul\":15375:15534   */\n      swap2\n      pop\n        /* \"#utility.yul\":15224:15545   */\n      pop\n        /* \"#utility.yul\":15562:15566   */\n      dup1\n        /* \"#utility.yul\":15555:15566   */\n      swap2\n      pop\n        /* \"#utility.yul\":14616:15572   */\n      pop\n        /* \"#utility.yul\":14494:15572   */\n      swap3\n      swap2\n      pop\n      pop\n      jump\t// out\n        /* \"#utility.yul\":15578:15947   */\n    tag_13:\n        /* \"#utility.yul\":15719:15723   */\n      0x00\n        /* \"#utility.yul\":15757:15759   */\n      0x20\n        /* \"#utility.yul\":15746:15755   */\n      dup3\n        /* \"#utility.yul\":15742:15760   */\n      add\n        /* \"#utility.yul\":15734:15760   */\n      swap1\n      pop\n        /* \"#utility.yul\":15806:15815   */\n      dup2\n        /* \"#utility.yul\":15800:15804   */\n      dup2\n        /* \"#utility.yul\":15796:15816   */\n      sub\n        /* \"#utility.yul\":15792:15793   */\n      0x00\n        /* \"#utility.yul\":15781:15790   */\n      dup4\n        /* \"#utility.yul\":15777:15794   */\n      add\n        /* \"#utility.yul\":15770:15817   */\n      mstore\n        /* \"#utility.yul\":15834:15940   */\n      tag_325\n        /* \"#utility.yul\":15935:15939   */\n      dup2\n        /* \"#utility.yul\":15926:15932   */\n      dup5\n        /* \"#utility.yul\":15834:15940   */\n      tag_168\n      jump\t// in\n    tag_325:\n        /* \"#utility.yul\":15826:15940   */\n      swap1\n      pop\n        /* \"#utility.yul\":15578:15947   */\n      swap3\n      swap2\n      pop\n      pop\n      jump\t// out\n        /* \"#utility.yul\":15953:16462   */\n    tag_16:\n        /* \"#utility.yul\":16022:16028   */\n      0x00\n        /* \"#utility.yul\":16071:16073   */\n      0x20\n        /* \"#utility.yul\":16059:16068   */\n      dup3\n        /* \"#utility.yul\":16050:16057   */\n      dup5\n        /* \"#utility.yul\":16046:16069   */\n      sub\n        /* \"#utility.yul\":16042:16074   */\n      slt\n        /* \"#utility.yul\":16039:16158   */\n      iszero\n      tag_327\n      jumpi\n        /* \"#utility.yul\":16077:16156   */\n      tag_328\n      tag_131\n      jump\t// in\n    tag_328:\n        /* \"#utility.yul\":16039:16158   */\n    tag_327:\n        /* \"#utility.yul\":16225:16226   */\n      0x00\n        /* \"#utility.yul\":16214:16223   */\n      dup3\n        /* \"#utility.yul\":16210:16227   */\n      add\n        /* \"#utility.yul\":16197:16228   */\n      calldataload\n        /* \"#utility.yul\":16255:16273   */\n      0xffffffffffffffff\n        /* \"#utility.yul\":16247:16253   */\n      dup2\n        /* \"#utility.yul\":16244:16274   */\n      gt\n        /* \"#utility.yul\":16241:16358   */\n      iszero\n      tag_329\n      jumpi\n        /* \"#utility.yul\":16277:16356   */\n      tag_330\n      tag_132\n      jump\t// in\n    tag_330:\n        /* \"#utility.yul\":16241:16358   */\n    tag_329:\n        /* \"#utility.yul\":16382:16445   */\n      tag_331\n        /* \"#utility.yul\":16437:16444   */\n      dup5\n        /* \"#utility.yul\":16428:16434   */\n      dup3\n        /* \"#utility.yul\":16417:16426   */\n      dup6\n        /* \"#utility.yul\":16413:16435   */\n      add\n        /* \"#utility.yul\":16382:16445   */\n      tag_142\n      jump\t// in\n    tag_331:\n        /* \"#utility.yul\":16372:16445   */\n      swap2\n      pop\n        /* \"#utility.yul\":16168:16455   */\n      pop\n        /* \"#utility.yul\":15953:16462   */\n      swap3\n      swap2\n      pop\n      pop\n      jump\t// out\n        /* \"#utility.yul\":16468:16637   */\n    tag_169:\n        /* \"#utility.yul\":16552:16563   */\n      0x00\n        /* \"#utility.yul\":16586:16592   */\n      dup3\n        /* \"#utility.yul\":16581:16584   */\n      dup3\n        /* \"#utility.yul\":16574:16593   */\n      mstore\n        /* \"#utility.yul\":16626:16630   */\n      0x20\n        /* \"#utility.yul\":16621:16624   */\n      dup3\n        /* \"#utility.yul\":16617:16631   */\n      add\n        /* \"#utility.yul\":16602:16631   */\n      swap1\n      pop\n        /* \"#utility.yul\":16468:16637   */\n      swap3\n      swap2\n      pop\n      pop\n      jump\t// out\n        /* \"#utility.yul\":16643:17020   */\n    tag_170:\n        /* \"#utility.yul\":16731:16734   */\n      0x00\n        /* \"#utility.yul\":16759:16798   */\n      tag_334\n        /* \"#utility.yul\":16792:16797   */\n      dup3\n        /* \"#utility.yul\":16759:16798   */\n      tag_150\n      jump\t// in\n    tag_334:\n        /* \"#utility.yul\":16814:16885   */\n      tag_335\n        /* \"#utility.yul\":16878:16884   */\n      dup2\n        /* \"#utility.yul\":16873:16876   */\n      dup6\n        /* \"#utility.yul\":16814:16885   */\n      tag_169\n      jump\t// in\n    tag_335:\n        /* \"#utility.yul\":16807:16885   */\n      swap4\n      pop\n        /* \"#utility.yul\":16894:16959   */\n      tag_336\n        /* \"#utility.yul\":16952:16958   */\n      dup2\n        /* \"#utility.yul\":16947:16950   */\n      dup6\n        /* \"#utility.yul\":16940:16944   */\n      0x20\n        /* \"#utility.yul\":16933:16938   */\n      dup7\n        /* \"#utility.yul\":16929:16945   */\n      add\n        /* \"#utility.yul\":16894:16959   */\n      tag_152\n      jump\t// in\n    tag_336:\n        /* \"#utility.yul\":16984:17013   */\n      tag_337\n        /* \"#utility.yul\":17006:17012   */\n      dup2\n        /* \"#utility.yul\":16984:17013   */\n      tag_135\n      jump\t// in\n    tag_337:\n        /* \"#utility.yul\":16979:16982   */\n      dup5\n        /* \"#utility.yul\":16975:17014   */\n      add\n        /* \"#utility.yul\":16968:17014   */\n      swap2\n      pop\n        /* \"#utility.yul\":16735:17020   */\n      pop\n        /* \"#utility.yul\":16643:17020   */\n      swap3\n      swap2\n      pop\n      pop\n      jump\t// out\n        /* \"#utility.yul\":17026:17339   */\n    tag_19:\n        /* \"#utility.yul\":17139:17143   */\n      0x00\n        /* \"#utility.yul\":17177:17179   */\n      0x20\n        /* \"#utility.yul\":17166:17175   */\n      dup3\n        /* \"#utility.yul\":17162:17180   */\n      add\n        /* \"#utility.yul\":17154:17180   */\n      swap1\n      pop\n        /* \"#utility.yul\":17226:17235   */\n      dup2\n        /* \"#utility.yul\":17220:17224   */\n      dup2\n        /* \"#utility.yul\":17216:17236   */\n      sub\n        /* \"#utility.yul\":17212:17213   */\n      0x00\n        /* \"#utility.yul\":17201:17210   */\n      dup4\n        /* \"#utility.yul\":17197:17214   */\n      add\n        /* \"#utility.yul\":17190:17237   */\n      mstore\n        /* \"#utility.yul\":17254:17332   */\n      tag_339\n        /* \"#utility.yul\":17327:17331   */\n      dup2\n        /* \"#utility.yul\":17318:17324   */\n      dup5\n        /* \"#utility.yul\":17254:17332   */\n      tag_170\n      jump\t// in\n    tag_339:\n        /* \"#utility.yul\":17246:17332   */\n      swap1\n      pop\n        /* \"#utility.yul\":17026:17339   */\n      swap3\n      swap2\n      pop\n      pop\n      jump\t// out\n        /* \"#utility.yul\":17345:17493   */\n    tag_171:\n        /* \"#utility.yul\":17447:17458   */\n      0x00\n        /* \"#utility.yul\":17484:17487   */\n      dup2\n        /* \"#utility.yul\":17469:17487   */\n      swap1\n      pop\n        /* \"#utility.yul\":17345:17493   */\n      swap3\n      swap2\n      pop\n      pop\n      jump\t// out\n        /* \"#utility.yul\":17499:17889   */\n    tag_172:\n        /* \"#utility.yul\":17605:17608   */\n      0x00\n        /* \"#utility.yul\":17633:17672   */\n      tag_342\n        /* \"#utility.yul\":17666:17671   */\n      dup3\n        /* \"#utility.yul\":17633:17672   */\n      tag_150\n      jump\t// in\n    tag_342:\n        /* \"#utility.yul\":17688:17777   */\n      tag_343\n        /* \"#utility.yul\":17770:17776   */\n      dup2\n        /* \"#utility.yul\":17765:17768   */\n      dup6\n        /* \"#utility.yul\":17688:17777   */\n      tag_171\n      jump\t// in\n    tag_343:\n        /* \"#utility.yul\":17681:17777   */\n      swap4\n      pop\n        /* \"#utility.yul\":17786:17851   */\n      tag_344\n        /* \"#utility.yul\":17844:17850   */\n      dup2\n        /* \"#utility.yul\":17839:17842   */\n      dup6\n        /* \"#utility.yul\":17832:17836   */\n      0x20\n        /* \"#utility.yul\":17825:17830   */\n      dup7\n        /* \"#utility.yul\":17821:17837   */\n      add\n        /* \"#utility.yul\":17786:17851   */\n      tag_152\n      jump\t// in\n    tag_344:\n        /* \"#utility.yul\":17876:17882   */\n      dup1\n        /* \"#utility.yul\":17871:17874   */\n      dup5\n        /* \"#utility.yul\":17867:17883   */\n      add\n        /* \"#utility.yul\":17860:17883   */\n      swap2\n      pop\n        /* \"#utility.yul\":17609:17889   */\n      pop\n        /* \"#utility.yul\":17499:17889   */\n      swap3\n      swap2\n      pop\n      pop\n      jump\t// out\n        /* \"#utility.yul\":17895:18170   */\n    tag_22:\n        /* \"#utility.yul\":18027:18030   */\n      0x00\n        /* \"#utility.yul\":18049:18144   */\n      tag_346\n        /* \"#utility.yul\":18140:18143   */\n      dup3\n        /* \"#utility.yul\":18131:18137   */\n      dup5\n        /* \"#utility.yul\":18049:18144   */\n      tag_172\n      jump\t// in\n    tag_346:\n        /* \"#utility.yul\":18042:18144   */\n      swap2\n      pop\n        /* \"#utility.yul\":18161:18164   */\n      dup2\n        /* \"#utility.yul\":18154:18164   */\n      swap1\n      pop\n        /* \"#utility.yul\":17895:18170   */\n      swap3\n      swap2\n      pop\n      pop\n      jump\t// out\n        /* \"#utility.yul\":18176:18356   */\n    tag_173:\n        /* \"#utility.yul\":18224:18301   */\n      0x4e487b7100000000000000000000000000000000000000000000000000000000\n        /* \"#utility.yul\":18221:18222   */\n      0x00\n        /* \"#utility.yul\":18214:18302   */\n      mstore\n        /* \"#utility.yul\":18321:18325   */\n      0x22\n        /* \"#utility.yul\":18318:18319   */\n      0x04\n        /* \"#utility.yul\":18311:18326   */\n      mstore\n        /* \"#utility.yul\":18345:18349   */\n      0x24\n        /* \"#utility.yul\":18342:18343   */\n      0x00\n        /* \"#utility.yul\":18335:18350   */\n      revert\n        /* \"#utility.yul\":18362:18682   */\n    tag_84:\n        /* \"#utility.yul\":18406:18412   */\n      0x00\n        /* \"#utility.yul\":18443:18444   */\n      0x02\n        /* \"#utility.yul\":18437:18441   */\n      dup3\n        /* \"#utility.yul\":18433:18445   */\n      div\n        /* \"#utility.yul\":18423:18445   */\n      swap1\n      pop\n        /* \"#utility.yul\":18490:18491   */\n      0x01\n        /* \"#utility.yul\":18484:18488   */\n      dup3\n        /* \"#utility.yul\":18480:18492   */\n      and\n        /* \"#utility.yul\":18511:18529   */\n      dup1\n        /* \"#utility.yul\":18501:18582   */\n      tag_349\n      jumpi\n        /* \"#utility.yul\":18567:18571   */\n      0x7f\n        /* \"#utility.yul\":18559:18565   */\n      dup3\n        /* \"#utility.yul\":18555:18572   */\n      and\n        /* \"#utility.yul\":18545:18572   */\n      swap2\n      pop\n        /* \"#utility.yul\":18501:18582   */\n    tag_349:\n        /* \"#utility.yul\":18629:18631   */\n      0x20\n        /* \"#utility.yul\":18621:18627   */\n      dup3\n        /* \"#utility.yul\":18618:18632   */\n      lt\n        /* \"#utility.yul\":18598:18616   */\n      dup2\n        /* \"#utility.yul\":18595:18633   */\n      sub\n        /* \"#utility.yul\":18592:18676   */\n      tag_350\n      jumpi\n        /* \"#utility.yul\":18648:18666   */\n      tag_351\n      tag_173\n      jump\t// in\n    tag_351:\n        /* \"#utility.yul\":18592:18676   */\n    tag_350:\n        /* \"#utility.yul\":18413:18682   */\n      pop\n        /* \"#utility.yul\":18362:18682   */\n      swap2\n      swap1\n      pop\n      jump\t// out\n        /* \"#utility.yul\":18688:18829   */\n    tag_174:\n        /* \"#utility.yul\":18737:18741   */\n      0x00\n        /* \"#utility.yul\":18760:18763   */\n      dup2\n        /* \"#utility.yul\":18752:18763   */\n      swap1\n      pop\n        /* \"#utility.yul\":18783:18786   */\n      dup2\n        /* \"#utility.yul\":18780:18781   */\n      0x00\n        /* \"#utility.yul\":18773:18787   */\n      mstore\n        /* \"#utility.yul\":18817:18821   */\n      0x20\n        /* \"#utility.yul\":18814:18815   */\n      0x00\n        /* \"#utility.yul\":18804:18822   */\n      keccak256\n        /* \"#utility.yul\":18796:18822   */\n      swap1\n      pop\n        /* \"#utility.yul\":18688:18829   */\n      swap2\n      swap1\n      pop\n      jump\t// out\n        /* \"#utility.yul\":18835:18928   */\n    tag_175:\n        /* \"#utility.yul\":18872:18878   */\n      0x00\n        /* \"#utility.yul\":18919:18921   */\n      0x20\n        /* \"#utility.yul\":18914:18916   */\n      0x1f\n        /* \"#utility.yul\":18907:18912   */\n      dup4\n        /* \"#utility.yul\":18903:18917   */\n      add\n        /* \"#utility.yul\":18899:18922   */\n      div\n        /* \"#utility.yul\":18889:18922   */\n      swap1\n      pop\n        /* \"#utility.yul\":18835:18928   */\n      swap2\n      swap1\n      pop\n      jump\t// out\n        /* \"#utility.yul\":18934:19041   */\n    tag_176:\n        /* \"#utility.yul\":18978:18986   */\n      0x00\n        /* \"#utility.yul\":19028:19033   */\n      dup3\n        /* \"#utility.yul\":19022:19026   */\n      dup3\n        /* \"#utility.yul\":19018:19034   */\n      shl\n        /* \"#utility.yul\":18997:19034   */\n      swap1\n      pop\n        /* \"#utility.yul\":18934:19041   */\n      swap3\n      swap2\n      pop\n      pop\n      jump\t// out\n        /* \"#utility.yul\":19047:19440   */\n    tag_177:\n        /* \"#utility.yul\":19116:19122   */\n      0x00\n        /* \"#utility.yul\":19166:19167   */\n      0x08\n        /* \"#utility.yul\":19154:19164   */\n      dup4\n        /* \"#utility.yul\":19150:19168   */\n      mul\n        /* \"#utility.yul\":19189:19286   */\n      tag_356\n        /* \"#utility.yul\":19219:19285   */\n      0xffffffffffffffffffffffffffffffffffffffffffffffffffffffffffffffff\n        /* \"#utility.yul\":19208:19217   */\n      dup3\n        /* \"#utility.yul\":19189:19286   */\n      tag_176\n      jump\t// in\n    tag_356:\n        /* \"#utility.yul\":19307:19346   */\n      tag_357\n        /* \"#utility.yul\":19337:19345   */\n      dup7\n        /* \"#utility.yul\":19326:19335   */\n      dup4\n        /* \"#utility.yul\":19307:19346   */\n      tag_176\n      jump\t// in\n    tag_357:\n        /* \"#utility.yul\":19295:19346   */\n      swap6\n      pop\n        /* \"#utility.yul\":19379:19383   */\n      dup1\n        /* \"#utility.yul\":19375:19384   */\n      not\n        /* \"#utility.yul\":19368:19373   */\n      dup5\n        /* \"#utility.yul\":19364:19385   */\n      and\n        /* \"#utility.yul\":19355:19385   */\n      swap4\n      pop\n        /* \"#utility.yul\":19428:19432   */\n      dup1\n        /* \"#utility.yul\":19418:19426   */\n      dup7\n        /* \"#utility.yul\":19414:19433   */\n      and\n        /* \"#utility.yul\":19407:19412   */\n      dup5\n        /* \"#utility.yul\":19404:19434   */\n      or\n        /* \"#utility.yul\":19394:19434   */\n      swap3\n      pop\n        /* \"#utility.yul\":19123:19440   */\n      pop\n      pop\n        /* \"#utility.yul\":19047:19440   */\n      swap4\n      swap3\n      pop\n      pop\n      pop\n      jump\t// out\n        /* \"#utility.yul\":19446:19523   */\n    tag_178:\n        /* \"#utility.yul\":19483:19490   */\n      0x00\n        /* \"#utility.yul\":19512:19517   */\n      dup2\n        /* \"#utility.yul\":19501:19517   */\n      swap1\n      pop\n        /* \"#utility.yul\":19446:19523   */\n      swap2\n      swap1\n      pop\n      jump\t// out\n        /* \"#utility.yul\":19529:19589   */\n    tag_179:\n        /* \"#utility.yul\":19557:19560   */\n      0x00\n        /* \"#utility.yul\":19578:19583   */\n      dup2\n        /* \"#utility.yul\":19571:19583   */\n      swap1\n      pop\n        /* \"#utility.yul\":19529:19589   */\n      swap2\n      swap1\n      pop\n      jump\t// out\n        /* \"#utility.yul\":19595:19737   */\n    tag_180:\n        /* \"#utility.yul\":19645:19654   */\n      0x00\n        /* \"#utility.yul\":19678:19731   */\n      tag_361\n        /* \"#utility.yul\":19696:19730   */\n      tag_362\n        /* \"#utility.yul\":19705:19729   */\n      tag_363\n        /* \"#utility.yul\":19723:19728   */\n      dup5\n        /* \"#utility.yul\":19705:19729   */\n      tag_178\n      jump\t// in\n    tag_363:\n        /* \"#utility.yul\":19696:19730   */\n      tag_179\n      jump\t// in\n    tag_362:\n        /* \"#utility.yul\":19678:19731   */\n      tag_178\n      jump\t// in\n    tag_361:\n        /* \"#utility.yul\":19665:19731   */\n      swap1\n      pop\n        /* \"#utility.yul\":19595:19737   */\n      swap2\n      swap1\n      pop\n      jump\t// out\n        /* \"#utility.yul\":19743:19818   */\n    tag_181:\n        /* \"#utility.yul\":19786:19789   */\n      0x00\n        /* \"#utility.yul\":19807:19812   */\n      dup2\n        /* \"#utility.yul\":19800:19812   */\n      swap1\n      pop\n        /* \"#utility.yul\":19743:19818   */\n      swap2\n      swap1\n      pop\n      jump\t// out\n        /* \"#utility.yul\":19824:20093   */\n    tag_182:\n        /* \"#utility.yul\":19934:19973   */\n      tag_366\n        /* \"#utility.yul\":19965:19972   */\n      dup4\n        /* \"#utility.yul\":19934:19973   */\n      tag_180\n      jump\t// in\n    tag_366:\n        /* \"#utility.yul\":19995:20086   */\n      tag_367\n        /* \"#utility.yul\":20044:20085   */\n      tag_368\n        /* \"#utility.yul\":20068:20084   */\n      dup3\n        /* \"#utility.yul\":20044:20085   */\n      tag_181\n      jump\t// in\n    tag_368:\n        /* \"#utility.yul\":20036:20042   */\n      dup5\n        /* \"#utility.yul\":20029:20033   */\n      dup5\n        /* \"#utility.yul\":20023:20034   */\n      sload\n        /* \"#utility.yul\":19995:20086   */\n      tag_177\n      jump\t// in\n    tag_367:\n        /* \"#utility.yul\":19989:19993   */\n      dup3\n        /* \"#utility.yul\":19982:20087   */\n      sstore\n        /* \"#utility.yul\":19900:20093   */\n      pop\n        /* \"#utility.yul\":19824:20093   */\n      pop\n      pop\n      pop\n      jump\t// out\n        /* \"#utility.yul\":20099:20172   */\n    tag_183:\n        /* \"#utility.yul\":20144:20147   */\n      0x00\n        /* \"#utility.yul\":20099:20172   */\n      swap1\n      jump\t// out\n        /* \"#utility.yul\":20178:20367   */\n    tag_184:\n        /* \"#utility.yul\":20255:20287   */\n      tag_371\n      tag_183\n      jump\t// in\n    tag_371:\n        /* \"#utility.yul\":20296:20361   */\n      tag_372\n        /* \"#utility.yul\":20354:20360   */\n      dup2\n        /* \"#utility.yul\":20346:20352   */\n      dup5\n        /* \"#utility.yul\":20340:20344   */\n      dup5\n        /* \"#utility.yul\":20296:20361   */\n      tag_182\n      jump\t// in\n    tag_372:\n        /* \"#utility.yul\":20231:20367   */\n      pop\n        /* \"#utility.yul\":20178:20367   */\n      pop\n      pop\n      jump\t// out\n        /* \"#utility.yul\":20373:20559   */\n    tag_185:\n        /* \"#utility.yul\":20433:20553   */\n    tag_374:\n        /* \"#utility.yul\":20450:20453   */\n      dup2\n        /* \"#utility.yul\":20443:20448   */\n      dup2\n        /* \"#utility.yul\":20440:20454   */\n      lt\n        /* \"#utility.yul\":20433:20553   */\n      iszero\n      tag_376\n      jumpi\n        /* \"#utility.yul\":20504:20543   */\n      tag_377\n        /* \"#utility.yul\":20541:20542   */\n      0x00\n        /* \"#utility.yul\":20534:20539   */\n      dup3\n        /* \"#utility.yul\":20504:20543   */\n      tag_184\n      jump\t// in\n    tag_377:\n        /* \"#utility.yul\":20477:20478   */\n      0x01\n        /* \"#utility.yul\":20470:20475   */\n      dup2\n        /* \"#utility.yul\":20466:20479   */\n      add\n        /* \"#utility.yul\":20457:20479   */\n      swap1\n      pop\n        /* \"#utility.yul\":20433:20553   */\n      jump(tag_374)\n    tag_376:\n        /* \"#utility.yul\":20373:20559   */\n      pop\n      pop\n      jump\t// out\n        /* \"#utility.yul\":20565:21108   */\n    tag_186:\n        /* \"#utility.yul\":20666:20668   */\n      0x1f\n        /* \"#utility.yul\":20661:20664   */\n      dup3\n        /* \"#utility.yul\":20658:20669   */\n      gt\n        /* \"#utility.yul\":20655:21101   */\n      iszero\n      tag_379\n      jumpi\n        /* \"#utility.yul\":20700:20738   */\n      tag_380\n        /* \"#utility.yul\":20732:20737   */\n      dup2\n        /* \"#utility.yul\":20700:20738   */\n      tag_174\n      jump\t// in\n    tag_380:\n        /* \"#utility.yul\":20784:20813   */\n      tag_381\n        /* \"#utility.yul\":20802:20812   */\n      dup5\n        /* \"#utility.yul\":20784:20813   */\n      tag_175\n      jump\t// in\n    tag_381:\n        /* \"#utility.yul\":20774:20782   */\n      dup2\n        /* \"#utility.yul\":20770:20814   */\n      add\n        /* \"#utility.yul\":20967:20969   */\n      0x20\n        /* \"#utility.yul\":20955:20965   */\n      dup6\n        /* \"#utility.yul\":20952:20970   */\n      lt\n        /* \"#utility.yul\":20949:20998   */\n      iszero\n      tag_382\n      jumpi\n        /* \"#utility.yul\":20988:20996   */\n      dup2\n        /* \"#utility.yul\":20973:20996   */\n      swap1\n      pop\n        /* \"#utility.yul\":20949:20998   */\n    tag_382:\n        /* \"#utility.yul\":21011:21091   */\n      tag_383\n        /* \"#utility.yul\":21067:21089   */\n      tag_384\n        /* \"#utility.yul\":21085:21088   */\n      dup6\n        /* \"#utility.yul\":21067:21089   */\n      tag_175\n      jump\t// in\n    tag_384:\n        /* \"#utility.yul\":21057:21065   */\n      dup4\n        /* \"#utility.yul\":21053:21090   */\n      add\n        /* \"#utility.yul\":21040:21051   */\n      dup3\n        /* \"#utility.yul\":21011:21091   */\n      tag_185\n      jump\t// in\n    tag_383:\n        /* \"#utility.yul\":20670:21101   */\n      pop\n      pop\n        /* \"#utility.yul\":20655:21101   */\n    tag_379:\n        /* \"#utility.yul\":20565:21108   */\n      pop\n      pop\n      pop\n      jump\t// out\n        /* \"#utility.yul\":21114:21231   */\n    tag_187:\n        /* \"#utility.yul\":21168:21176   */\n      0x00\n        /* \"#utility.yul\":21218:21223   */\n      dup3\n        /* \"#utility.yul\":21212:21216   */\n      dup3\n        /* \"#utility.yul\":21208:21224   */\n      shr\n        /* \"#utility.yul\":21187:21224   */\n      swap1\n      pop\n        /* \"#utility.yul\":21114:21231   */\n      swap3\n      swap2\n      pop\n      pop\n      jump\t// out\n        /* \"#utility.yul\":21237:21406   */\n    tag_188:\n        /* \"#utility.yul\":21281:21287   */\n      0x00\n        /* \"#utility.yul\":21314:21365   */\n      tag_387\n        /* \"#utility.yul\":21362:21363   */\n      0x00\n        /* \"#utility.yul\":21358:21364   */\n      not\n        /* \"#utility.yul\":21350:21355   */\n      dup5\n        /* \"#utility.yul\":21347:21348   */\n      0x08\n        /* \"#utility.yul\":21343:21356   */\n      mul\n        /* \"#utility.yul\":21314:21365   */\n      tag_187\n      jump\t// in\n    tag_387:\n        /* \"#utility.yul\":21310:21366   */\n      not\n        /* \"#utility.yul\":21395:21399   */\n      dup1\n        /* \"#utility.yul\":21389:21393   */\n      dup4\n        /* \"#utility.yul\":21385:21400   */\n      and\n        /* \"#utility.yul\":21375:21400   */\n      swap2\n      pop\n        /* \"#utility.yul\":21288:21406   */\n      pop\n        /* \"#utility.yul\":21237:21406   */\n      swap3\n      swap2\n      pop\n      pop\n      jump\t// out\n        /* \"#utility.yul\":21411:21706   */\n    tag_189:\n        /* \"#utility.yul\":21487:21491   */\n      0x00\n        /* \"#utility.yul\":21633:21662   */\n      tag_389\n        /* \"#utility.yul\":21658:21661   */\n      dup4\n        /* \"#utility.yul\":21652:21656   */\n      dup4\n        /* \"#utility.yul\":21633:21662   */\n      tag_188\n      jump\t// in\n    tag_389:\n        /* \"#utility.yul\":21625:21662   */\n      swap2\n      pop\n        /* \"#utility.yul\":21695:21698   */\n      dup3\n        /* \"#utility.yul\":21692:21693   */\n      0x02\n        /* \"#utility.yul\":21688:21699   */\n      mul\n        /* \"#utility.yul\":21682:21686   */\n      dup3\n        /* \"#utility.yul\":21679:21700   */\n      or\n        /* \"#utility.yul\":21671:21700   */\n      swap1\n      pop\n        /* \"#utility.yul\":21411:21706   */\n      swap3\n      swap2\n      pop\n      pop\n      jump\t// out\n        /* \"#utility.yul\":21711:23106   */\n    tag_25:\n        /* \"#utility.yul\":21828:21865   */\n      tag_391\n        /* \"#utility.yul\":21861:21864   */\n      dup3\n        /* \"#utility.yul\":21828:21865   */\n      tag_150\n      jump\t// in\n    tag_391:\n        /* \"#utility.yul\":21930:21948   */\n      0xffffffffffffffff\n        /* \"#utility.yul\":21922:21928   */\n      dup2\n        /* \"#utility.yul\":21919:21949   */\n      gt\n        /* \"#utility.yul\":21916:21972   */\n      iszero\n      tag_392\n      jumpi\n        /* \"#utility.yul\":21952:21970   */\n      tag_393\n      tag_136\n      jump\t// in\n    tag_393:\n        /* \"#utility.yul\":21916:21972   */\n    tag_392:\n        /* \"#utility.yul\":21996:22034   */\n      tag_394\n        /* \"#utility.yul\":22028:22032   */\n      dup3\n        /* \"#utility.yul\":22022:22033   */\n      sload\n        /* \"#utility.yul\":21996:22034   */\n      tag_84\n      jump\t// in\n    tag_394:\n        /* \"#utility.yul\":22081:22148   */\n      tag_395\n        /* \"#utility.yul\":22141:22147   */\n      dup3\n        /* \"#utility.yul\":22133:22139   */\n      dup3\n        /* \"#utility.yul\":22127:22131   */\n      dup6\n        /* \"#utility.yul\":22081:22148   */\n      tag_186\n      jump\t// in\n    tag_395:\n        /* \"#utility.yul\":22175:22176   */\n      0x00\n        /* \"#utility.yul\":22199:22203   */\n      0x20\n        /* \"#utility.yul\":22186:22203   */\n      swap1\n      pop\n        /* \"#utility.yul\":22231:22233   */\n      0x1f\n        /* \"#utility.yul\":22223:22229   */\n      dup4\n        /* \"#utility.yul\":22220:22234   */\n      gt\n        /* \"#utility.yul\":22248:22249   */\n      0x01\n        /* \"#utility.yul\":22243:22861   */\n      dup2\n      eq\n      tag_397\n      jumpi\n        /* \"#utility.yul\":22905:22906   */\n      0x00\n        /* \"#utility.yul\":22922:22928   */\n      dup5\n        /* \"#utility.yul\":22919:22996   */\n      iszero\n      tag_398\n      jumpi\n        /* \"#utility.yul\":22971:22980   */\n      dup3\n        /* \"#utility.yul\":22966:22969   */\n      dup8\n        /* \"#utility.yul\":22962:22981   */\n      add\n        /* \"#utility.yul\":22956:22982   */\n      mload\n        /* \"#utility.yul\":22947:22982   */\n      swap1\n      pop\n        /* \"#utility.yul\":22919:22996   */\n    tag_398:\n        /* \"#utility.yul\":23022:23089   */\n      tag_399\n        /* \"#utility.yul\":23082:23088   */\n      dup6\n        /* \"#utility.yul\":23075:23080   */\n      dup3\n        /* \"#utility.yul\":23022:23089   */\n      tag_189\n      jump\t// in\n    tag_399:\n        /* \"#utility.yul\":23016:23020   */\n      dup7\n        /* \"#utility.yul\":23009:23090   */\n      sstore\n        /* \"#utility.yul\":22878:23100   */\n      pop\n        /* \"#utility.yul\":22213:23100   */\n      jump(tag_396)\n        /* \"#utility.yul\":22243:22861   */\n    tag_397:\n        /* \"#utility.yul\":22295:22299   */\n      0x1f\n        /* \"#utility.yul\":22291:22300   */\n      not\n        /* \"#utility.yul\":22283:22289   */\n      dup5\n        /* \"#utility.yul\":22279:22301   */\n      and\n        /* \"#utility.yul\":22329:22366   */\n      tag_400\n        /* \"#utility.yul\":22361:22365   */\n      dup7\n        /* \"#utility.yul\":22329:22366   */\n      tag_174\n      jump\t// in\n    tag_400:\n        /* \"#utility.yul\":22388:22389   */\n      0x00\n        /* \"#utility.yul\":22402:22610   */\n    tag_401:\n        /* \"#utility.yul\":22416:22423   */\n      dup3\n        /* \"#utility.yul\":22413:22414   */\n      dup2\n        /* \"#utility.yul\":22410:22424   */\n      lt\n        /* \"#utility.yul\":22402:22610   */\n      iszero\n      tag_403\n      jumpi\n        /* \"#utility.yul\":22495:22504   */\n      dup5\n        /* \"#utility.yul\":22490:22493   */\n      dup10\n        /* \"#utility.yul\":22486:22505   */\n      add\n        /* \"#utility.yul\":22480:22506   */\n      mload\n        /* \"#utility.yul\":22472:22478   */\n      dup3\n        /* \"#utility.yul\":22465:22507   */\n      sstore\n        /* \"#utility.yul\":22546:22547   */\n      0x01\n        /* \"#utility.yul\":22538:22544   */\n      dup3\n        /* \"#utility.yul\":22534:22548   */\n      add\n        /* \"#utility.yul\":22524:22548   */\n      swap2\n      pop\n        /* \"#utility.yul\":22593:22595   */\n      0x20\n        /* \"#utility.yul\":22582:22591   */\n      dup6\n        /* \"#utility.yul\":22578:22596   */\n      add\n        /* \"#utility.yul\":22565:22596   */\n      swap5\n      pop\n        /* \"#utility.yul\":22439:22443   */\n      0x20\n        /* \"#utility.yul\":22436:22437   */\n      dup2\n        /* \"#utility.yul\":22432:22444   */\n      add\n        /* \"#utility.yul\":22427:22444   */\n      swap1\n      pop\n        /* \"#utility.yul\":22402:22610   */\n      jump(tag_401)\n    tag_403:\n        /* \"#utility.yul\":22638:22644   */\n      dup7\n        /* \"#utility.yul\":22629:22636   */\n      dup4\n        /* \"#utility.yul\":22626:22645   */\n      lt\n        /* \"#utility.yul\":22623:22802   */\n      iszero\n      tag_404\n      jumpi\n        /* \"#utility.yul\":22696:22705   */\n      dup5\n        /* \"#utility.yul\":22691:22694   */\n      dup10\n        /* \"#utility.yul\":22687:22706   */\n      add\n        /* \"#utility.yul\":22681:22707   */\n      mload\n        /* \"#utility.yul\":22739:22787   */\n      tag_405\n        /* \"#utility.yul\":22781:22785   */\n      0x1f\n        /* \"#utility.yul\":22773:22779   */\n      dup10\n        /* \"#utility.yul\":22769:22786   */\n      and\n        /* \"#utility.yul\":22758:22767   */\n      dup3\n        /* \"#utility.yul\":22739:22787   */\n      tag_188\n      jump\t// in\n    tag_405:\n        /* \"#utility.yul\":22731:22737   */\n      dup4\n        /* \"#utility.yul\":22724:22788   */\n      sstore\n        /* \"#utility.yul\":22646:22802   */\n      pop\n        /* \"#utility.yul\":22623:22802   */\n    tag_404:\n        /* \"#utility.yul\":22848:22849   */\n      0x01\n        /* \"#utility.yul\":22844:22845   */\n      0x02\n        /* \"#utility.yul\":22836:22842   */\n      dup9\n        /* \"#utility.yul\":22832:22846   */\n      mul\n        /* \"#utility.yul\":22828:22850   */\n      add\n        /* \"#utility.yul\":22822:22826   */\n      dup9\n        /* \"#utility.yul\":22815:22851   */\n      sstore\n        /* \"#utility.yul\":22250:22861   */\n      pop\n      pop\n      pop\n        /* \"#utility.yul\":22213:23100   */\n    tag_396:\n      pop\n        /* \"#utility.yul\":21803:23106   */\n      pop\n      pop\n      pop\n        /* \"#utility.yul\":21711:23106   */\n      pop\n      pop\n      jump\t// out\n        /* \"#utility.yul\":23112:23292   */\n    tag_34:\n        /* \"#utility.yul\":23160:23237   */\n      0x4e487b7100000000000000000000000000000000000000000000000000000000\n        /* \"#utility.yul\":23157:23158   */\n      0x00\n        /* \"#utility.yul\":23150:23238   */\n      mstore\n        /* \"#utility.yul\":23257:23261   */\n      0x32\n        /* \"#utility.yul\":23254:23255   */\n      0x04\n        /* \"#utility.yul\":23247:23262   */\n      mstore\n        /* \"#utility.yul\":23281:23285   */\n      0x24\n        /* \"#utility.yul\":23278:23279   */\n      0x00\n        /* \"#utility.yul\":23271:23286   */\n      revert\n        /* \"#utility.yul\":23298:23478   */\n    tag_190:\n        /* \"#utility.yul\":23346:23423   */\n      0x4e487b7100000000000000000000000000000000000000000000000000000000\n        /* \"#utility.yul\":23343:23344   */\n      0x00\n        /* \"#utility.yul\":23336:23424   */\n      mstore\n        /* \"#utility.yul\":23443:23447   */\n      0x11\n        /* \"#utility.yul\":23440:23441   */\n      0x04\n        /* \"#utility.yul\":23433:23448   */\n      mstore\n        /* \"#utility.yul\":23467:23471   */\n      0x24\n        /* \"#utility.yul\":23464:23465   */\n      0x00\n        /* \"#utility.yul\":23457:23472   */\n      revert\n        /* \"#utility.yul\":23484:23717   */\n    tag_50:\n        /* \"#utility.yul\":23523:23526   */\n      0x00\n        /* \"#utility.yul\":23546:23570   */\n      tag_409\n        /* \"#utility.yul\":23564:23569   */\n      dup3\n        /* \"#utility.yul\":23546:23570   */\n      tag_178\n      jump\t// in\n    tag_409:\n        /* \"#utility.yul\":23537:23570   */\n      swap2\n      pop\n        /* \"#utility.yul\":23592:23658   */\n      0xffffffffffffffffffffffffffffffffffffffffffffffffffffffffffffffff\n        /* \"#utility.yul\":23585:23590   */\n      dup3\n        /* \"#utility.yul\":23582:23659   */\n      sub\n        /* \"#utility.yul\":23579:23682   */\n      tag_410\n      jumpi\n        /* \"#utility.yul\":23662:23680   */\n      tag_411\n      tag_190\n      jump\t// in\n    tag_411:\n        /* \"#utility.yul\":23579:23682   */\n    tag_410:\n        /* \"#utility.yul\":23709:23710   */\n      0x01\n        /* \"#utility.yul\":23702:23707   */\n      dup3\n        /* \"#utility.yul\":23698:23711   */\n      add\n        /* \"#utility.yul\":23691:23711   */\n      swap1\n      pop\n        /* \"#utility.yul\":23484:23717   */\n      swap2\n      swap1\n      pop\n      jump\t// out\n        /* \"#utility.yul\":23723:23917   */\n    tag_77:\n        /* \"#utility.yul\":23763:23767   */\n      0x00\n        /* \"#utility.yul\":23783:23803   */\n      tag_413\n        /* \"#utility.yul\":23801:23802   */\n      dup3\n        /* \"#utility.yul\":23783:23803   */\n      tag_178\n      jump\t// in\n    tag_413:\n        /* \"#utility.yul\":23778:23803   */\n      swap2\n      pop\n        /* \"#utility.yul\":23817:23837   */\n      tag_414\n        /* \"#utility.yul\":23835:23836   */\n      dup4\n        /* \"#utility.yul\":23817:23837   */\n      tag_178\n      jump\t// in\n    tag_414:\n        /* \"#utility.yul\":23812:23837   */\n      swap3\n      pop\n        /* \"#utility.yul\":23861:23862   */\n      dup3\n        /* \"#utility.yul\":23858:23859   */\n      dup3\n        /* \"#utility.yul\":23854:23863   */\n      sub\n        /* \"#utility.yul\":23846:23863   */\n      swap1\n      pop\n        /* \"#utility.yul\":23885:23886   */\n      dup2\n        /* \"#utility.yul\":23879:23883   */\n      dup2\n        /* \"#utility.yul\":23876:23887   */\n      gt\n        /* \"#utility.yul\":23873:23910   */\n      iszero\n      tag_415\n      jumpi\n        /* \"#utility.yul\":23890:23908   */\n      tag_416\n      tag_190\n      jump\t// in\n    tag_416:\n        /* \"#utility.yul\":23873:23910   */\n    tag_415:\n        /* \"#utility.yul\":23723:23917   */\n      swap3\n      swap2\n      pop\n      pop\n      jump\t// out\n        /* \"#utility.yul\":23947:24821   */\n    tag_191:\n        /* \"#utility.yul\":24050:24053   */\n      0x00\n        /* \"#utility.yul\":24087:24092   */\n      dup2\n        /* \"#utility.yul\":24081:24093   */\n      sload\n        /* \"#utility.yul\":24116:24152   */\n      tag_418\n        /* \"#utility.yul\":24142:24151   */\n      dup2\n        /* \"#utility.yul\":24116:24152   */\n      tag_84\n      jump\t// in\n    tag_418:\n        /* \"#utility.yul\":24168:24257   */\n      tag_419\n        /* \"#utility.yul\":24250:24256   */\n      dup2\n        /* \"#utility.yul\":24245:24248   */\n      dup7\n        /* \"#utility.yul\":24168:24257   */\n      tag_171\n      jump\t// in\n    tag_419:\n        /* \"#utility.yul\":24161:24257   */\n      swap5\n      pop\n        /* \"#utility.yul\":24288:24289   */\n      0x01\n        /* \"#utility.yul\":24277:24286   */\n      dup3\n        /* \"#utility.yul\":24273:24290   */\n      and\n        /* \"#utility.yul\":24304:24305   */\n      0x00\n        /* \"#utility.yul\":24299:24465   */\n      dup2\n      eq\n      tag_421\n      jumpi\n        /* \"#utility.yul\":24479:24480   */\n      0x01\n        /* \"#utility.yul\":24474:24815   */\n      dup2\n      eq\n      tag_422\n      jumpi\n        /* \"#utility.yul\":24266:24815   */\n      jump(tag_420)\n        /* \"#utility.yul\":24299:24465   */\n    tag_421:\n        /* \"#utility.yul\":24383:24387   */\n      0xff\n        /* \"#utility.yul\":24379:24388   */\n      not\n        /* \"#utility.yul\":24368:24377   */\n      dup4\n        /* \"#utility.yul\":24364:24389   */\n      and\n        /* \"#utility.yul\":24359:24362   */\n      dup7\n        /* \"#utility.yul\":24352:24390   */\n      mstore\n        /* \"#utility.yul\":24445:24451   */\n      dup2\n        /* \"#utility.yul\":24438:24452   */\n      iszero\n        /* \"#utility.yul\":24431:24453   */\n      iszero\n        /* \"#utility.yul\":24423:24429   */\n      dup3\n        /* \"#utility.yul\":24419:24454   */\n      mul\n        /* \"#utility.yul\":24414:24417   */\n      dup7\n        /* \"#utility.yul\":24410:24455   */\n      add\n        /* \"#utility.yul\":24403:24455   */\n      swap4\n      pop\n        /* \"#utility.yul\":24299:24465   */\n      jump(tag_420)\n        /* \"#utility.yul\":24474:24815   */\n    tag_422:\n        /* \"#utility.yul\":24541:24579   */\n      tag_423\n        /* \"#utility.yul\":24573:24578   */\n      dup6\n        /* \"#utility.yul\":24541:24579   */\n      tag_174\n      jump\t// in\n    tag_423:\n        /* \"#utility.yul\":24601:24602   */\n      0x00\n        /* \"#utility.yul\":24615:24769   */\n    tag_424:\n        /* \"#utility.yul\":24629:24635   */\n      dup4\n        /* \"#utility.yul\":24626:24627   */\n      dup2\n        /* \"#utility.yul\":24623:24636   */\n      lt\n        /* \"#utility.yul\":24615:24769   */\n      iszero\n      tag_426\n      jumpi\n        /* \"#utility.yul\":24703:24710   */\n      dup2\n        /* \"#utility.yul\":24697:24711   */\n      sload\n        /* \"#utility.yul\":24693:24694   */\n      dup2\n        /* \"#utility.yul\":24688:24691   */\n      dup10\n        /* \"#utility.yul\":24684:24695   */\n      add\n        /* \"#utility.yul\":24677:24712   */\n      mstore\n        /* \"#utility.yul\":24753:24754   */\n      0x01\n        /* \"#utility.yul\":24744:24751   */\n      dup3\n        /* \"#utility.yul\":24740:24755   */\n      add\n        /* \"#utility.yul\":24729:24755   */\n      swap2\n      pop\n        /* \"#utility.yul\":24651:24655   */\n      0x20\n        /* \"#utility.yul\":24648:24649   */\n      dup2\n        /* \"#utility.yul\":24644:24656   */\n      add\n        /* \"#utility.yul\":24639:24656   */\n      swap1\n      pop\n        /* \"#utility.yul\":24615:24769   */\n      jump(tag_424)\n    tag_426:\n        /* \"#utility.yul\":24798:24804   */\n      dup4\n        /* \"#utility.yul\":24793:24796   */\n      dup9\n        /* \"#utility.yul\":24789:24805   */\n      add\n        /* \"#utility.yul\":24782:24805   */\n      swap6\n      pop\n        /* \"#utility.yul\":24481:24815   */\n      pop\n      pop\n        /* \"#utility.yul\":24266:24815   */\n    tag_420:\n      pop\n        /* \"#utility.yul\":24054:24821   */\n      pop\n      pop\n        /* \"#utility.yul\":23947:24821   */\n      swap3\n      swap2\n      pop\n      pop\n      jump\t// out\n        /* \"#utility.yul\":24827:25096   */\n    tag_82:\n        /* \"#utility.yul\":24956:24959   */\n      0x00\n        /* \"#utility.yul\":24978:25070   */\n      tag_428\n        /* \"#utility.yul\":25066:25069   */\n      dup3\n        /* \"#utility.yul\":25057:25063   */\n      dup5\n        /* \"#utility.yul\":24978:25070   */\n      tag_191\n      jump\t// in\n    tag_428:\n        /* \"#utility.yul\":24971:25070   */\n      swap2\n      pop\n        /* \"#utility.yul\":25087:25090   */\n      dup2\n        /* \"#utility.yul\":25080:25090   */\n      swap1\n      pop\n        /* \"#utility.yul\":24827:25096   */\n      swap3\n      swap2\n      pop\n      pop\n      jump\t// out\n\n    auxdata: 0xa264697066735822122030b3872e06c8504b39ef4c50b91077433894340abbedf2a328ee111a3e7a638064736f6c63430008120033\n}\n",
				"bytecode": {
					"linkReferences": {},
					"object": "608060405234801561001057600080fd5b506116a6806100206000396000f3fe608060405234801561001057600080fd5b50600436106100415760003560e01c8063572dc02b14610046578063643b45b814610062578063ff3ffb3814610080575b600080fd5b610060600480360381019061005b9190610d26565b6100b0565b005b61006a6103c8565b60405161007791906110ea565b60405180910390f35b61009a6004803603810190610095919061110c565b6108e6565b6040516100a7919061119f565b60405180910390f35b600080846040516100c191906111fd565b90815260200160405180910390209050600184908060018154018082558091505060019003906000526020600020016000909190919091509081610105919061142a565b5083816000019081610117919061142a565b5060005b835181101561026c5761012c6109a2565b84828151811061013f5761013e6114fc565b5b602002602001015160008151811061015a576101596114fc565b5b6020026020010151816000018190525084828151811061017d5761017c6114fc565b5b6020026020010151600181518110610198576101976114fc565b5b602002602001015181602001819052508482815181106101bb576101ba6114fc565b5b60200260200101516002815181106101d6576101d56114fc565b5b60200260200101518160400181905250826001018190806001815401808255809150506001900390600052602060002090600302016000909190919091506000820151816000019081610229919061142a565b50602082015181600101908161023f919061142a565b506040820151816002019081610255919061142a565b5050505080806102649061155a565b91505061011b565b5060005b82518110156103c1576102816109c3565b838281518110610294576102936114fc565b5b60200260200101516000815181106102af576102ae6114fc565b5b602002602001015181600001819052508382815181106102d2576102d16114fc565b5b60200260200101516001815181106102ed576102ec6114fc565b5b602002602001015181602001819052508382815181106103105761030f6114fc565b5b602002602001015160028151811061032b5761032a6114fc565b5b6020026020010151816040018190525082600201819080600181540180825580915050600190039060005260206000209060030201600090919091909150600082015181600001908161037e919061142a565b506020820151816001019081610394919061142a565b5060408201518160020190816103aa919061142a565b5050505080806103b99061155a565b915050610270565b5050505050565b6103d06109e4565b600060018080805490506103e491906115a2565b815481106103f5576103f46114fc565b5b9060005260206000200160405161040c9190611659565b908152602001604051809103902060405180606001604052908160008201805461043590611243565b80601f016020809104026020016040519081016040528092919081815260200182805461046190611243565b80156104ae5780601f10610483576101008083540402835291602001916104ae565b820191906000526020600020905b81548152906001019060200180831161049157829003601f168201915b5050505050815260200160018201805480602002602001604051908101604052809291908181526020016000905b828210156106c4578382906000526020600020906003020160405180606001604052908160008201805461050f90611243565b80601f016020809104026020016040519081016040528092919081815260200182805461053b90611243565b80156105885780601f1061055d57610100808354040283529160200191610588565b820191906000526020600020905b81548152906001019060200180831161056b57829003601f168201915b505050505081526020016001820180546105a190611243565b80601f01602080910402602001604051908101604052809291908181526020018280546105cd90611243565b801561061a5780601f106105ef5761010080835404028352916020019161061a565b820191906000526020600020905b8154815290600101906020018083116105fd57829003601f168201915b5050505050815260200160028201805461063390611243565b80601f016020809104026020016040519081016040528092919081815260200182805461065f90611243565b80156106ac5780601f10610681576101008083540402835291602001916106ac565b820191906000526020600020905b81548152906001019060200180831161068f57829003601f168201915b505050505081525050815260200190600101906104dc565b50505050815260200160028201805480602002602001604051908101604052809291908181526020016000905b828210156108d9578382906000526020600020906003020160405180606001604052908160008201805461072490611243565b80601f016020809104026020016040519081016040528092919081815260200182805461075090611243565b801561079d5780601f106107725761010080835404028352916020019161079d565b820191906000526020600020905b81548152906001019060200180831161078057829003601f168201915b505050505081526020016001820180546107b690611243565b80601f01602080910402602001604051908101604052809291908181526020018280546107e290611243565b801561082f5780601f106108045761010080835404028352916020019161082f565b820191906000526020600020905b81548152906001019060200180831161081257829003601f168201915b5050505050815260200160028201805461084890611243565b80601f016020809104026020016040519081016040528092919081815260200182805461087490611243565b80156108c15780601f10610896576101008083540402835291602001916108c1565b820191906000526020600020905b8154815290600101906020018083116108a457829003601f168201915b505050505081525050815260200190600101906106f1565b5050505081525050905090565b60008180516020810182018051848252602083016020850120818352809550505050505060009150905080600001805461091f90611243565b80601f016020809104026020016040519081016040528092919081815260200182805461094b90611243565b80156109985780601f1061096d57610100808354040283529160200191610998565b820191906000526020600020905b81548152906001019060200180831161097b57829003601f168201915b5050505050905081565b60405180606001604052806060815260200160608152602001606081525090565b60405180606001604052806060815260200160608152602001606081525090565b60405180606001604052806060815260200160608152602001606081525090565b6000604051905090565b600080fd5b600080fd5b600080fd5b600080fd5b6000601f19601f8301169050919050565b7f4e487b7100000000000000000000000000000000000000000000000000000000600052604160045260246000fd5b610a6c82610a23565b810181811067ffffffffffffffff82111715610a8b57610a8a610a34565b5b80604052505050565b6000610a9e610a05565b9050610aaa8282610a63565b919050565b600067ffffffffffffffff821115610aca57610ac9610a34565b5b610ad382610a23565b9050602081019050919050565b82818337600083830152505050565b6000610b02610afd84610aaf565b610a94565b905082815260208101848484011115610b1e57610b1d610a1e565b5b610b29848285610ae0565b509392505050565b600082601f830112610b4657610b45610a19565b5b8135610b56848260208601610aef565b91505092915050565b600067ffffffffffffffff821115610b7a57610b79610a34565b5b602082029050602081019050919050565b600080fd5b600067ffffffffffffffff821115610bab57610baa610a34565b5b602082029050602081019050919050565b6000610bcf610bca84610b90565b610a94565b90508083825260208201905060208402830185811115610bf257610bf1610b8b565b5b835b81811015610c3957803567ffffffffffffffff811115610c1757610c16610a19565b5b808601610c248982610b31565b85526020850194505050602081019050610bf4565b5050509392505050565b600082601f830112610c5857610c57610a19565b5b8135610c68848260208601610bbc565b91505092915050565b6000610c84610c7f84610b5f565b610a94565b90508083825260208201905060208402830185811115610ca757610ca6610b8b565b5b835b81811015610cee57803567ffffffffffffffff811115610ccc57610ccb610a19565b5b808601610cd98982610c43565b85526020850194505050602081019050610ca9565b5050509392505050565b600082601f830112610d0d57610d0c610a19565b5b8135610d1d848260208601610c71565b91505092915050565b600080600060608486031215610d3f57610d3e610a0f565b5b600084013567ffffffffffffffff811115610d5d57610d5c610a14565b5b610d6986828701610b31565b935050602084013567ffffffffffffffff811115610d8a57610d89610a14565b5b610d9686828701610cf8565b925050604084013567ffffffffffffffff811115610db757610db6610a14565b5b610dc386828701610cf8565b9150509250925092565b600081519050919050565b600082825260208201905092915050565b60005b83811015610e07578082015181840152602081019050610dec565b60008484015250505050565b6000610e1e82610dcd565b610e288185610dd8565b9350610e38818560208601610de9565b610e4181610a23565b840191505092915050565b600081519050919050565b600082825260208201905092915050565b6000819050602082019050919050565b60006060830160008301518482036000860152610e958282610e13565b91505060208301518482036020860152610eaf8282610e13565b91505060408301518482036040860152610ec98282610e13565b9150508091505092915050565b6000610ee28383610e78565b905092915050565b6000602082019050919050565b6000610f0282610e4c565b610f0c8185610e57565b935083602082028501610f1e85610e68565b8060005b85811015610f5a5784840389528151610f3b8582610ed6565b9450610f4683610eea565b925060208a01995050600181019050610f22565b50829750879550505050505092915050565b600081519050919050565b600082825260208201905092915050565b6000819050602082019050919050565b60006060830160008301518482036000860152610fb58282610e13565b91505060208301518482036020860152610fcf8282610e13565b91505060408301518482036040860152610fe98282610e13565b9150508091505092915050565b60006110028383610f98565b905092915050565b6000602082019050919050565b600061102282610f6c565b61102c8185610f77565b93508360208202850161103e85610f88565b8060005b8581101561107a578484038952815161105b8582610ff6565b94506110668361100a565b925060208a01995050600181019050611042565b50829750879550505050505092915050565b600060608301600083015184820360008601526110a98282610e13565b915050602083015184820360208601526110c38282610ef7565b915050604083015184820360408601526110dd8282611017565b9150508091505092915050565b60006020820190508181036000830152611104818461108c565b905092915050565b60006020828403121561112257611121610a0f565b5b600082013567ffffffffffffffff8111156111405761113f610a14565b5b61114c84828501610b31565b91505092915050565b600082825260208201905092915050565b600061117182610dcd565b61117b8185611155565b935061118b818560208601610de9565b61119481610a23565b840191505092915050565b600060208201905081810360008301526111b98184611166565b905092915050565b600081905092915050565b60006111d782610dcd565b6111e181856111c1565b93506111f1818560208601610de9565b80840191505092915050565b600061120982846111cc565b915081905092915050565b7f4e487b7100000000000000000000000000000000000000000000000000000000600052602260045260246000fd5b6000600282049050600182168061125b57607f821691505b60208210810361126e5761126d611214565b5b50919050565b60008190508160005260206000209050919050565b60006020601f8301049050919050565b600082821b905092915050565b6000600883026112d67fffffffffffffffffffffffffffffffffffffffffffffffffffffffffffffffff82611299565b6112e08683611299565b95508019841693508086168417925050509392505050565b6000819050919050565b6000819050919050565b600061132761132261131d846112f8565b611302565b6112f8565b9050919050565b6000819050919050565b6113418361130c565b61135561134d8261132e565b8484546112a6565b825550505050565b600090565b61136a61135d565b611375818484611338565b505050565b5b818110156113995761138e600082611362565b60018101905061137b565b5050565b601f8211156113de576113af81611274565b6113b884611289565b810160208510156113c7578190505b6113db6113d385611289565b83018261137a565b50505b505050565b600082821c905092915050565b6000611401600019846008026113e3565b1980831691505092915050565b600061141a83836113f0565b9150826002028217905092915050565b61143382610dcd565b67ffffffffffffffff81111561144c5761144b610a34565b5b6114568254611243565b61146182828561139d565b600060209050601f8311600181146114945760008415611482578287015190505b61148c858261140e565b8655506114f4565b601f1984166114a286611274565b60005b828110156114ca578489015182556001820191506020850194506020810190506114a5565b868310156114e757848901516114e3601f8916826113f0565b8355505b6001600288020188555050505b505050505050565b7f4e487b7100000000000000000000000000000000000000000000000000000000600052603260045260246000fd5b7f4e487b7100000000000000000000000000000000000000000000000000000000600052601160045260246000fd5b6000611565826112f8565b91507fffffffffffffffffffffffffffffffffffffffffffffffffffffffffffffffff82036115975761159661152b565b5b600182019050919050565b60006115ad826112f8565b91506115b8836112f8565b92508282039050818111156115d0576115cf61152b565b5b92915050565b600081546115e381611243565b6115ed81866111c1565b94506001821660008114611608576001811461161d57611650565b60ff1983168652811515820286019350611650565b61162685611274565b60005b8381101561164857815481890152600182019150602081019050611629565b838801955050505b50505092915050565b600061166582846115d6565b91508190509291505056fea264697066735822122030b3872e06c8504b39ef4c50b91077433894340abbedf2a328ee111a3e7a638064736f6c63430008120033",
					"opcodes": "PUSH1 0x80 PUSH1 0x40 MSTORE CALLVALUE DUP1 ISZERO PUSH2 0x10 JUMPI PUSH1 0x0 DUP1 REVERT JUMPDEST POP PUSH2 0x16A6 DUP1 PUSH2 0x20 PUSH1 0x0 CODECOPY PUSH1 0x0 RETURN INVALID PUSH1 0x80 PUSH1 0x40 MSTORE CALLVALUE DUP1 ISZERO PUSH2 0x10 JUMPI PUSH1 0x0 DUP1 REVERT JUMPDEST POP PUSH1 0x4 CALLDATASIZE LT PUSH2 0x41 JUMPI PUSH1 0x0 CALLDATALOAD PUSH1 0xE0 SHR DUP1 PUSH4 0x572DC02B EQ PUSH2 0x46 JUMPI DUP1 PUSH4 0x643B45B8 EQ PUSH2 0x62 JUMPI DUP1 PUSH4 0xFF3FFB38 EQ PUSH2 0x80 JUMPI JUMPDEST PUSH1 0x0 DUP1 REVERT JUMPDEST PUSH2 0x60 PUSH1 0x4 DUP1 CALLDATASIZE SUB DUP2 ADD SWAP1 PUSH2 0x5B SWAP2 SWAP1 PUSH2 0xD26 JUMP JUMPDEST PUSH2 0xB0 JUMP JUMPDEST STOP JUMPDEST PUSH2 0x6A PUSH2 0x3C8 JUMP JUMPDEST PUSH1 0x40 MLOAD PUSH2 0x77 SWAP2 SWAP1 PUSH2 0x10EA JUMP JUMPDEST PUSH1 0x40 MLOAD DUP1 SWAP2 SUB SWAP1 RETURN JUMPDEST PUSH2 0x9A PUSH1 0x4 DUP1 CALLDATASIZE SUB DUP2 ADD SWAP1 PUSH2 0x95 SWAP2 SWAP1 PUSH2 0x110C JUMP JUMPDEST PUSH2 0x8E6 JUMP JUMPDEST PUSH1 0x40 MLOAD PUSH2 0xA7 SWAP2 SWAP1 PUSH2 0x119F JUMP JUMPDEST PUSH1 0x40 MLOAD DUP1 SWAP2 SUB SWAP1 RETURN JUMPDEST PUSH1 0x0 DUP1 DUP5 PUSH1 0x40 MLOAD PUSH2 0xC1 SWAP2 SWAP1 PUSH2 0x11FD JUMP JUMPDEST SWAP1 DUP2 MSTORE PUSH1 0x20 ADD PUSH1 0x40 MLOAD DUP1 SWAP2 SUB SWAP1 KECCAK256 SWAP1 POP PUSH1 0x1 DUP5 SWAP1 DUP1 PUSH1 0x1 DUP2 SLOAD ADD DUP1 DUP3 SSTORE DUP1 SWAP2 POP POP PUSH1 0x1 SWAP1 SUB SWAP1 PUSH1 0x0 MSTORE PUSH1 0x20 PUSH1 0x0 KECCAK256 ADD PUSH1 0x0 SWAP1 SWAP2 SWAP1 SWAP2 SWAP1 SWAP2 POP SWAP1 DUP2 PUSH2 0x105 SWAP2 SWAP1 PUSH2 0x142A JUMP JUMPDEST POP DUP4 DUP2 PUSH1 0x0 ADD SWAP1 DUP2 PUSH2 0x117 SWAP2 SWAP1 PUSH2 0x142A JUMP JUMPDEST POP PUSH1 0x0 JUMPDEST DUP4 MLOAD DUP2 LT ISZERO PUSH2 0x26C JUMPI PUSH2 0x12C PUSH2 0x9A2 JUMP JUMPDEST DUP5 DUP3 DUP2 MLOAD DUP2 LT PUSH2 0x13F JUMPI PUSH2 0x13E PUSH2 0x14FC JUMP JUMPDEST JUMPDEST PUSH1 0x20 MUL PUSH1 0x20 ADD ADD MLOAD PUSH1 0x0 DUP2 MLOAD DUP2 LT PUSH2 0x15A JUMPI PUSH2 0x159 PUSH2 0x14FC JUMP JUMPDEST JUMPDEST PUSH1 0x20 MUL PUSH1 0x20 ADD ADD MLOAD DUP2 PUSH1 0x0 ADD DUP2 SWAP1 MSTORE POP DUP5 DUP3 DUP2 MLOAD DUP2 LT PUSH2 0x17D JUMPI PUSH2 0x17C PUSH2 0x14FC JUMP JUMPDEST JUMPDEST PUSH1 0x20 MUL PUSH1 0x20 ADD ADD MLOAD PUSH1 0x1 DUP2 MLOAD DUP2 LT PUSH2 0x198 JUMPI PUSH2 0x197 PUSH2 0x14FC JUMP JUMPDEST JUMPDEST PUSH1 0x20 MUL PUSH1 0x20 ADD ADD MLOAD DUP2 PUSH1 0x20 ADD DUP2 SWAP1 MSTORE POP DUP5 DUP3 DUP2 MLOAD DUP2 LT PUSH2 0x1BB JUMPI PUSH2 0x1BA PUSH2 0x14FC JUMP JUMPDEST JUMPDEST PUSH1 0x20 MUL PUSH1 0x20 ADD ADD MLOAD PUSH1 0x2 DUP2 MLOAD DUP2 LT PUSH2 0x1D6 JUMPI PUSH2 0x1D5 PUSH2 0x14FC JUMP JUMPDEST JUMPDEST PUSH1 0x20 MUL PUSH1 0x20 ADD ADD MLOAD DUP2 PUSH1 0x40 ADD DUP2 SWAP1 MSTORE POP DUP3 PUSH1 0x1 ADD DUP2 SWAP1 DUP1 PUSH1 0x1 DUP2 SLOAD ADD DUP1 DUP3 SSTORE DUP1 SWAP2 POP POP PUSH1 0x1 SWAP1 SUB SWAP1 PUSH1 0x0 MSTORE PUSH1 0x20 PUSH1 0x0 KECCAK256 SWAP1 PUSH1 0x3 MUL ADD PUSH1 0x0 SWAP1 SWAP2 SWAP1 SWAP2 SWAP1 SWAP2 POP PUSH1 0x0 DUP3 ADD MLOAD DUP2 PUSH1 0x0 ADD SWAP1 DUP2 PUSH2 0x229 SWAP2 SWAP1 PUSH2 0x142A JUMP JUMPDEST POP PUSH1 0x20 DUP3 ADD MLOAD DUP2 PUSH1 0x1 ADD SWAP1 DUP2 PUSH2 0x23F SWAP2 SWAP1 PUSH2 0x142A JUMP JUMPDEST POP PUSH1 0x40 DUP3 ADD MLOAD DUP2 PUSH1 0x2 ADD SWAP1 DUP2 PUSH2 0x255 SWAP2 SWAP1 PUSH2 0x142A JUMP JUMPDEST POP POP POP POP DUP1 DUP1 PUSH2 0x264 SWAP1 PUSH2 0x155A JUMP JUMPDEST SWAP2 POP POP PUSH2 0x11B JUMP JUMPDEST POP PUSH1 0x0 JUMPDEST DUP3 MLOAD DUP2 LT ISZERO PUSH2 0x3C1 JUMPI PUSH2 0x281 PUSH2 0x9C3 JUMP JUMPDEST DUP4 DUP3 DUP2 MLOAD DUP2 LT PUSH2 0x294 JUMPI PUSH2 0x293 PUSH2 0x14FC JUMP JUMPDEST JUMPDEST PUSH1 0x20 MUL PUSH1 0x20 ADD ADD MLOAD PUSH1 0x0 DUP2 MLOAD DUP2 LT PUSH2 0x2AF JUMPI PUSH2 0x2AE PUSH2 0x14FC JUMP JUMPDEST JUMPDEST PUSH1 0x20 MUL PUSH1 0x20 ADD ADD MLOAD DUP2 PUSH1 0x0 ADD DUP2 SWAP1 MSTORE POP DUP4 DUP3 DUP2 MLOAD DUP2 LT PUSH2 0x2D2 JUMPI PUSH2 0x2D1 PUSH2 0x14FC JUMP JUMPDEST JUMPDEST PUSH1 0x20 MUL PUSH1 0x20 ADD ADD MLOAD PUSH1 0x1 DUP2 MLOAD DUP2 LT PUSH2 0x2ED JUMPI PUSH2 0x2EC PUSH2 0x14FC JUMP JUMPDEST JUMPDEST PUSH1 0x20 MUL PUSH1 0x20 ADD ADD MLOAD DUP2 PUSH1 0x20 ADD DUP2 SWAP1 MSTORE POP DUP4 DUP3 DUP2 MLOAD DUP2 LT PUSH2 0x310 JUMPI PUSH2 0x30F PUSH2 0x14FC JUMP JUMPDEST JUMPDEST PUSH1 0x20 MUL PUSH1 0x20 ADD ADD MLOAD PUSH1 0x2 DUP2 MLOAD DUP2 LT PUSH2 0x32B JUMPI PUSH2 0x32A PUSH2 0x14FC JUMP JUMPDEST JUMPDEST PUSH1 0x20 MUL PUSH1 0x20 ADD ADD MLOAD DUP2 PUSH1 0x40 ADD DUP2 SWAP1 MSTORE POP DUP3 PUSH1 0x2 ADD DUP2 SWAP1 DUP1 PUSH1 0x1 DUP2 SLOAD ADD DUP1 DUP3 SSTORE DUP1 SWAP2 POP POP PUSH1 0x1 SWAP1 SUB SWAP1 PUSH1 0x0 MSTORE PUSH1 0x20 PUSH1 0x0 KECCAK256 SWAP1 PUSH1 0x3 MUL ADD PUSH1 0x0 SWAP1 SWAP2 SWAP1 SWAP2 SWAP1 SWAP2 POP PUSH1 0x0 DUP3 ADD MLOAD DUP2 PUSH1 0x0 ADD SWAP1 DUP2 PUSH2 0x37E SWAP2 SWAP1 PUSH2 0x142A JUMP JUMPDEST POP PUSH1 0x20 DUP3 ADD MLOAD DUP2 PUSH1 0x1 ADD SWAP1 DUP2 PUSH2 0x394 SWAP2 SWAP1 PUSH2 0x142A JUMP JUMPDEST POP PUSH1 0x40 DUP3 ADD MLOAD DUP2 PUSH1 0x2 ADD SWAP1 DUP2 PUSH2 0x3AA SWAP2 SWAP1 PUSH2 0x142A JUMP JUMPDEST POP POP POP POP DUP1 DUP1 PUSH2 0x3B9 SWAP1 PUSH2 0x155A JUMP JUMPDEST SWAP2 POP POP PUSH2 0x270 JUMP JUMPDEST POP POP POP POP POP JUMP JUMPDEST PUSH2 0x3D0 PUSH2 0x9E4 JUMP JUMPDEST PUSH1 0x0 PUSH1 0x1 DUP1 DUP1 DUP1 SLOAD SWAP1 POP PUSH2 0x3E4 SWAP2 SWAP1 PUSH2 0x15A2 JUMP JUMPDEST DUP2 SLOAD DUP2 LT PUSH2 0x3F5 JUMPI PUSH2 0x3F4 PUSH2 0x14FC JUMP JUMPDEST JUMPDEST SWAP1 PUSH1 0x0 MSTORE PUSH1 0x20 PUSH1 0x0 KECCAK256 ADD PUSH1 0x40 MLOAD PUSH2 0x40C SWAP2 SWAP1 PUSH2 0x1659 JUMP JUMPDEST SWAP1 DUP2 MSTORE PUSH1 0x20 ADD PUSH1 0x40 MLOAD DUP1 SWAP2 SUB SWAP1 KECCAK256 PUSH1 0x40 MLOAD DUP1 PUSH1 0x60 ADD PUSH1 0x40 MSTORE SWAP1 DUP2 PUSH1 0x0 DUP3 ADD DUP1 SLOAD PUSH2 0x435 SWAP1 PUSH2 0x1243 JUMP JUMPDEST DUP1 PUSH1 0x1F ADD PUSH1 0x20 DUP1 SWAP2 DIV MUL PUSH1 0x20 ADD PUSH1 0x40 MLOAD SWAP1 DUP2 ADD PUSH1 0x40 MSTORE DUP1 SWAP3 SWAP2 SWAP1 DUP2 DUP2 MSTORE PUSH1 0x20 ADD DUP3 DUP1 SLOAD PUSH2 0x461 SWAP1 PUSH2 0x1243 JUMP JUMPDEST DUP1 ISZERO PUSH2 0x4AE JUMPI DUP1 PUSH1 0x1F LT PUSH2 0x483 JUMPI PUSH2 0x100 DUP1 DUP4 SLOAD DIV MUL DUP4 MSTORE SWAP2 PUSH1 0x20 ADD SWAP2 PUSH2 0x4AE JUMP JUMPDEST DUP3 ADD SWAP2 SWAP1 PUSH1 0x0 MSTORE PUSH1 0x20 PUSH1 0x0 KECCAK256 SWAP1 JUMPDEST DUP2 SLOAD DUP2 MSTORE SWAP1 PUSH1 0x1 ADD SWAP1 PUSH1 0x20 ADD DUP1 DUP4 GT PUSH2 0x491 JUMPI DUP3 SWAP1 SUB PUSH1 0x1F AND DUP3 ADD SWAP2 JUMPDEST POP POP POP POP POP DUP2 MSTORE PUSH1 0x20 ADD PUSH1 0x1 DUP3 ADD DUP1 SLOAD DUP1 PUSH1 0x20 MUL PUSH1 0x20 ADD PUSH1 0x40 MLOAD SWAP1 DUP2 ADD PUSH1 0x40 MSTORE DUP1 SWAP3 SWAP2 SWAP1 DUP2 DUP2 MSTORE PUSH1 0x20 ADD PUSH1 0x0 SWAP1 JUMPDEST DUP3 DUP3 LT ISZERO PUSH2 0x6C4 JUMPI DUP4 DUP3 SWAP1 PUSH1 0x0 MSTORE PUSH1 0x20 PUSH1 0x0 KECCAK256 SWAP1 PUSH1 0x3 MUL ADD PUSH1 0x40 MLOAD DUP1 PUSH1 0x60 ADD PUSH1 0x40 MSTORE SWAP1 DUP2 PUSH1 0x0 DUP3 ADD DUP1 SLOAD PUSH2 0x50F SWAP1 PUSH2 0x1243 JUMP JUMPDEST DUP1 PUSH1 0x1F ADD PUSH1 0x20 DUP1 SWAP2 DIV MUL PUSH1 0x20 ADD PUSH1 0x40 MLOAD SWAP1 DUP2 ADD PUSH1 0x40 MSTORE DUP1 SWAP3 SWAP2 SWAP1 DUP2 DUP2 MSTORE PUSH1 0x20 ADD DUP3 DUP1 SLOAD PUSH2 0x53B SWAP1 PUSH2 0x1243 JUMP JUMPDEST DUP1 ISZERO PUSH2 0x588 JUMPI DUP1 PUSH1 0x1F LT PUSH2 0x55D JUMPI PUSH2 0x100 DUP1 DUP4 SLOAD DIV MUL DUP4 MSTORE SWAP2 PUSH1 0x20 ADD SWAP2 PUSH2 0x588 JUMP JUMPDEST DUP3 ADD SWAP2 SWAP1 PUSH1 0x0 MSTORE PUSH1 0x20 PUSH1 0x0 KECCAK256 SWAP1 JUMPDEST DUP2 SLOAD DUP2 MSTORE SWAP1 PUSH1 0x1 ADD SWAP1 PUSH1 0x20 ADD DUP1 DUP4 GT PUSH2 0x56B JUMPI DUP3 SWAP1 SUB PUSH1 0x1F AND DUP3 ADD SWAP2 JUMPDEST POP POP POP POP POP DUP2 MSTORE PUSH1 0x20 ADD PUSH1 0x1 DUP3 ADD DUP1 SLOAD PUSH2 0x5A1 SWAP1 PUSH2 0x1243 JUMP JUMPDEST DUP1 PUSH1 0x1F ADD PUSH1 0x20 DUP1 SWAP2 DIV MUL PUSH1 0x20 ADD PUSH1 0x40 MLOAD SWAP1 DUP2 ADD PUSH1 0x40 MSTORE DUP1 SWAP3 SWAP2 SWAP1 DUP2 DUP2 MSTORE PUSH1 0x20 ADD DUP3 DUP1 SLOAD PUSH2 0x5CD SWAP1 PUSH2 0x1243 JUMP JUMPDEST DUP1 ISZERO PUSH2 0x61A JUMPI DUP1 PUSH1 0x1F LT PUSH2 0x5EF JUMPI PUSH2 0x100 DUP1 DUP4 SLOAD DIV MUL DUP4 MSTORE SWAP2 PUSH1 0x20 ADD SWAP2 PUSH2 0x61A JUMP JUMPDEST DUP3 ADD SWAP2 SWAP1 PUSH1 0x0 MSTORE PUSH1 0x20 PUSH1 0x0 KECCAK256 SWAP1 JUMPDEST DUP2 SLOAD DUP2 MSTORE SWAP1 PUSH1 0x1 ADD SWAP1 PUSH1 0x20 ADD DUP1 DUP4 GT PUSH2 0x5FD JUMPI DUP3 SWAP1 SUB PUSH1 0x1F AND DUP3 ADD SWAP2 JUMPDEST POP POP POP POP POP DUP2 MSTORE PUSH1 0x20 ADD PUSH1 0x2 DUP3 ADD DUP1 SLOAD PUSH2 0x633 SWAP1 PUSH2 0x1243 JUMP JUMPDEST DUP1 PUSH1 0x1F ADD PUSH1 0x20 DUP1 SWAP2 DIV MUL PUSH1 0x20 ADD PUSH1 0x40 MLOAD SWAP1 DUP2 ADD PUSH1 0x40 MSTORE DUP1 SWAP3 SWAP2 SWAP1 DUP2 DUP2 MSTORE PUSH1 0x20 ADD DUP3 DUP1 SLOAD PUSH2 0x65F SWAP1 PUSH2 0x1243 JUMP JUMPDEST DUP1 ISZERO PUSH2 0x6AC JUMPI DUP1 PUSH1 0x1F LT PUSH2 0x681 JUMPI PUSH2 0x100 DUP1 DUP4 SLOAD DIV MUL DUP4 MSTORE SWAP2 PUSH1 0x20 ADD SWAP2 PUSH2 0x6AC JUMP JUMPDEST DUP3 ADD SWAP2 SWAP1 PUSH1 0x0 MSTORE PUSH1 0x20 PUSH1 0x0 KECCAK256 SWAP1 JUMPDEST DUP2 SLOAD DUP2 MSTORE SWAP1 PUSH1 0x1 ADD SWAP1 PUSH1 0x20 ADD DUP1 DUP4 GT PUSH2 0x68F JUMPI DUP3 SWAP1 SUB PUSH1 0x1F AND DUP3 ADD SWAP2 JUMPDEST POP POP POP POP POP DUP2 MSTORE POP POP DUP2 MSTORE PUSH1 0x20 ADD SWAP1 PUSH1 0x1 ADD SWAP1 PUSH2 0x4DC JUMP JUMPDEST POP POP POP POP DUP2 MSTORE PUSH1 0x20 ADD PUSH1 0x2 DUP3 ADD DUP1 SLOAD DUP1 PUSH1 0x20 MUL PUSH1 0x20 ADD PUSH1 0x40 MLOAD SWAP1 DUP2 ADD PUSH1 0x40 MSTORE DUP1 SWAP3 SWAP2 SWAP1 DUP2 DUP2 MSTORE PUSH1 0x20 ADD PUSH1 0x0 SWAP1 JUMPDEST DUP3 DUP3 LT ISZERO PUSH2 0x8D9 JUMPI DUP4 DUP3 SWAP1 PUSH1 0x0 MSTORE PUSH1 0x20 PUSH1 0x0 KECCAK256 SWAP1 PUSH1 0x3 MUL ADD PUSH1 0x40 MLOAD DUP1 PUSH1 0x60 ADD PUSH1 0x40 MSTORE SWAP1 DUP2 PUSH1 0x0 DUP3 ADD DUP1 SLOAD PUSH2 0x724 SWAP1 PUSH2 0x1243 JUMP JUMPDEST DUP1 PUSH1 0x1F ADD PUSH1 0x20 DUP1 SWAP2 DIV MUL PUSH1 0x20 ADD PUSH1 0x40 MLOAD SWAP1 DUP2 ADD PUSH1 0x40 MSTORE DUP1 SWAP3 SWAP2 SWAP1 DUP2 DUP2 MSTORE PUSH1 0x20 ADD DUP3 DUP1 SLOAD PUSH2 0x750 SWAP1 PUSH2 0x1243 JUMP JUMPDEST DUP1 ISZERO PUSH2 0x79D JUMPI DUP1 PUSH1 0x1F LT PUSH2 0x772 JUMPI PUSH2 0x100 DUP1 DUP4 SLOAD DIV MUL DUP4 MSTORE SWAP2 PUSH1 0x20 ADD SWAP2 PUSH2 0x79D JUMP JUMPDEST DUP3 ADD SWAP2 SWAP1 PUSH1 0x0 MSTORE PUSH1 0x20 PUSH1 0x0 KECCAK256 SWAP1 JUMPDEST DUP2 SLOAD DUP2 MSTORE SWAP1 PUSH1 0x1 ADD SWAP1 PUSH1 0x20 ADD DUP1 DUP4 GT PUSH2 0x780 JUMPI DUP3 SWAP1 SUB PUSH1 0x1F AND DUP3 ADD SWAP2 JUMPDEST POP POP POP POP POP DUP2 MSTORE PUSH1 0x20 ADD PUSH1 0x1 DUP3 ADD DUP1 SLOAD PUSH2 0x7B6 SWAP1 PUSH2 0x1243 JUMP JUMPDEST DUP1 PUSH1 0x1F ADD PUSH1 0x20 DUP1 SWAP2 DIV MUL PUSH1 0x20 ADD PUSH1 0x40 MLOAD SWAP1 DUP2 ADD PUSH1 0x40 MSTORE DUP1 SWAP3 SWAP2 SWAP1 DUP2 DUP2 MSTORE PUSH1 0x20 ADD DUP3 DUP1 SLOAD PUSH2 0x7E2 SWAP1 PUSH2 0x1243 JUMP JUMPDEST DUP1 ISZERO PUSH2 0x82F JUMPI DUP1 PUSH1 0x1F LT PUSH2 0x804 JUMPI PUSH2 0x100 DUP1 DUP4 SLOAD DIV MUL DUP4 MSTORE SWAP2 PUSH1 0x20 ADD SWAP2 PUSH2 0x82F JUMP JUMPDEST DUP3 ADD SWAP2 SWAP1 PUSH1 0x0 MSTORE PUSH1 0x20 PUSH1 0x0 KECCAK256 SWAP1 JUMPDEST DUP2 SLOAD DUP2 MSTORE SWAP1 PUSH1 0x1 ADD SWAP1 PUSH1 0x20 ADD DUP1 DUP4 GT PUSH2 0x812 JUMPI DUP3 SWAP1 SUB PUSH1 0x1F AND DUP3 ADD SWAP2 JUMPDEST POP POP POP POP POP DUP2 MSTORE PUSH1 0x20 ADD PUSH1 0x2 DUP3 ADD DUP1 SLOAD PUSH2 0x848 SWAP1 PUSH2 0x1243 JUMP JUMPDEST DUP1 PUSH1 0x1F ADD PUSH1 0x20 DUP1 SWAP2 DIV MUL PUSH1 0x20 ADD PUSH1 0x40 MLOAD SWAP1 DUP2 ADD PUSH1 0x40 MSTORE DUP1 SWAP3 SWAP2 SWAP1 DUP2 DUP2 MSTORE PUSH1 0x20 ADD DUP3 DUP1 SLOAD PUSH2 0x874 SWAP1 PUSH2 0x1243 JUMP JUMPDEST DUP1 ISZERO PUSH2 0x8C1 JUMPI DUP1 PUSH1 0x1F LT PUSH2 0x896 JUMPI PUSH2 0x100 DUP1 DUP4 SLOAD DIV MUL DUP4 MSTORE SWAP2 PUSH1 0x20 ADD SWAP2 PUSH2 0x8C1 JUMP JUMPDEST DUP3 ADD SWAP2 SWAP1 PUSH1 0x0 MSTORE PUSH1 0x20 PUSH1 0x0 KECCAK256 SWAP1 JUMPDEST DUP2 SLOAD DUP2 MSTORE SWAP1 PUSH1 0x1 ADD SWAP1 PUSH1 0x20 ADD DUP1 DUP4 GT PUSH2 0x8A4 JUMPI DUP3 SWAP1 SUB PUSH1 0x1F AND DUP3 ADD SWAP2 JUMPDEST POP POP POP POP POP DUP2 MSTORE POP POP DUP2 MSTORE PUSH1 0x20 ADD SWAP1 PUSH1 0x1 ADD SWAP1 PUSH2 0x6F1 JUMP JUMPDEST POP POP POP POP DUP2 MSTORE POP POP SWAP1 POP SWAP1 JUMP JUMPDEST PUSH1 0x0 DUP2 DUP1 MLOAD PUSH1 0x20 DUP2 ADD DUP3 ADD DUP1 MLOAD DUP5 DUP3 MSTORE PUSH1 0x20 DUP4 ADD PUSH1 0x20 DUP6 ADD KECCAK256 DUP2 DUP4 MSTORE DUP1 SWAP6 POP POP POP POP POP POP PUSH1 0x0 SWAP2 POP SWAP1 POP DUP1 PUSH1 0x0 ADD DUP1 SLOAD PUSH2 0x91F SWAP1 PUSH2 0x1243 JUMP JUMPDEST DUP1 PUSH1 0x1F ADD PUSH1 0x20 DUP1 SWAP2 DIV MUL PUSH1 0x20 ADD PUSH1 0x40 MLOAD SWAP1 DUP2 ADD PUSH1 0x40 MSTORE DUP1 SWAP3 SWAP2 SWAP1 DUP2 DUP2 MSTORE PUSH1 0x20 ADD DUP3 DUP1 SLOAD PUSH2 0x94B SWAP1 PUSH2 0x1243 JUMP JUMPDEST DUP1 ISZERO PUSH2 0x998 JUMPI DUP1 PUSH1 0x1F LT PUSH2 0x96D JUMPI PUSH2 0x100 DUP1 DUP4 SLOAD DIV MUL DUP4 MSTORE SWAP2 PUSH1 0x20 ADD SWAP2 PUSH2 0x998 JUMP JUMPDEST DUP3 ADD SWAP2 SWAP1 PUSH1 0x0 MSTORE PUSH1 0x20 PUSH1 0x0 KECCAK256 SWAP1 JUMPDEST DUP2 SLOAD DUP2 MSTORE SWAP1 PUSH1 0x1 ADD SWAP1 PUSH1 0x20 ADD DUP1 DUP4 GT PUSH2 0x97B JUMPI DUP3 SWAP1 SUB PUSH1 0x1F AND DUP3 ADD SWAP2 JUMPDEST POP POP POP POP POP SWAP1 POP DUP2 JUMP JUMPDEST PUSH1 0x40 MLOAD DUP1 PUSH1 0x60 ADD PUSH1 0x40 MSTORE DUP1 PUSH1 0x60 DUP2 MSTORE PUSH1 0x20 ADD PUSH1 0x60 DUP2 MSTORE PUSH1 0x20 ADD PUSH1 0x60 DUP2 MSTORE POP SWAP1 JUMP JUMPDEST PUSH1 0x40 MLOAD DUP1 PUSH1 0x60 ADD PUSH1 0x40 MSTORE DUP1 PUSH1 0x60 DUP2 MSTORE PUSH1 0x20 ADD PUSH1 0x60 DUP2 MSTORE PUSH1 0x20 ADD PUSH1 0x60 DUP2 MSTORE POP SWAP1 JUMP JUMPDEST PUSH1 0x40 MLOAD DUP1 PUSH1 0x60 ADD PUSH1 0x40 MSTORE DUP1 PUSH1 0x60 DUP2 MSTORE PUSH1 0x20 ADD PUSH1 0x60 DUP2 MSTORE PUSH1 0x20 ADD PUSH1 0x60 DUP2 MSTORE POP SWAP1 JUMP JUMPDEST PUSH1 0x0 PUSH1 0x40 MLOAD SWAP1 POP SWAP1 JUMP JUMPDEST PUSH1 0x0 DUP1 REVERT JUMPDEST PUSH1 0x0 DUP1 REVERT JUMPDEST PUSH1 0x0 DUP1 REVERT JUMPDEST PUSH1 0x0 DUP1 REVERT JUMPDEST PUSH1 0x0 PUSH1 0x1F NOT PUSH1 0x1F DUP4 ADD AND SWAP1 POP SWAP2 SWAP1 POP JUMP JUMPDEST PUSH32 0x4E487B7100000000000000000000000000000000000000000000000000000000 PUSH1 0x0 MSTORE PUSH1 0x41 PUSH1 0x4 MSTORE PUSH1 0x24 PUSH1 0x0 REVERT JUMPDEST PUSH2 0xA6C DUP3 PUSH2 0xA23 JUMP JUMPDEST DUP2 ADD DUP2 DUP2 LT PUSH8 0xFFFFFFFFFFFFFFFF DUP3 GT OR ISZERO PUSH2 0xA8B JUMPI PUSH2 0xA8A PUSH2 0xA34 JUMP JUMPDEST JUMPDEST DUP1 PUSH1 0x40 MSTORE POP POP POP JUMP JUMPDEST PUSH1 0x0 PUSH2 0xA9E PUSH2 0xA05 JUMP JUMPDEST SWAP1 POP PUSH2 0xAAA DUP3 DUP3 PUSH2 0xA63 JUMP JUMPDEST SWAP2 SWAP1 POP JUMP JUMPDEST PUSH1 0x0 PUSH8 0xFFFFFFFFFFFFFFFF DUP3 GT ISZERO PUSH2 0xACA JUMPI PUSH2 0xAC9 PUSH2 0xA34 JUMP JUMPDEST JUMPDEST PUSH2 0xAD3 DUP3 PUSH2 0xA23 JUMP JUMPDEST SWAP1 POP PUSH1 0x20 DUP2 ADD SWAP1 POP SWAP2 SWAP1 POP JUMP JUMPDEST DUP3 DUP2 DUP4 CALLDATACOPY PUSH1 0x0 DUP4 DUP4 ADD MSTORE POP POP POP JUMP JUMPDEST PUSH1 0x0 PUSH2 0xB02 PUSH2 0xAFD DUP5 PUSH2 0xAAF JUMP JUMPDEST PUSH2 0xA94 JUMP JUMPDEST SWAP1 POP DUP3 DUP2 MSTORE PUSH1 0x20 DUP2 ADD DUP5 DUP5 DUP5 ADD GT ISZERO PUSH2 0xB1E JUMPI PUSH2 0xB1D PUSH2 0xA1E JUMP JUMPDEST JUMPDEST PUSH2 0xB29 DUP5 DUP3 DUP6 PUSH2 0xAE0 JUMP JUMPDEST POP SWAP4 SWAP3 POP POP POP JUMP JUMPDEST PUSH1 0x0 DUP3 PUSH1 0x1F DUP4 ADD SLT PUSH2 0xB46 JUMPI PUSH2 0xB45 PUSH2 0xA19 JUMP JUMPDEST JUMPDEST DUP2 CALLDATALOAD PUSH2 0xB56 DUP5 DUP3 PUSH1 0x20 DUP7 ADD PUSH2 0xAEF JUMP JUMPDEST SWAP2 POP POP SWAP3 SWAP2 POP POP JUMP JUMPDEST PUSH1 0x0 PUSH8 0xFFFFFFFFFFFFFFFF DUP3 GT ISZERO PUSH2 0xB7A JUMPI PUSH2 0xB79 PUSH2 0xA34 JUMP JUMPDEST JUMPDEST PUSH1 0x20 DUP3 MUL SWAP1 POP PUSH1 0x20 DUP2 ADD SWAP1 POP SWAP2 SWAP1 POP JUMP JUMPDEST PUSH1 0x0 DUP1 REVERT JUMPDEST PUSH1 0x0 PUSH8 0xFFFFFFFFFFFFFFFF DUP3 GT ISZERO PUSH2 0xBAB JUMPI PUSH2 0xBAA PUSH2 0xA34 JUMP JUMPDEST JUMPDEST PUSH1 0x20 DUP3 MUL SWAP1 POP PUSH1 0x20 DUP2 ADD SWAP1 POP SWAP2 SWAP1 POP JUMP JUMPDEST PUSH1 0x0 PUSH2 0xBCF PUSH2 0xBCA DUP5 PUSH2 0xB90 JUMP JUMPDEST PUSH2 0xA94 JUMP JUMPDEST SWAP1 POP DUP1 DUP4 DUP3 MSTORE PUSH1 0x20 DUP3 ADD SWAP1 POP PUSH1 0x20 DUP5 MUL DUP4 ADD DUP6 DUP2 GT ISZERO PUSH2 0xBF2 JUMPI PUSH2 0xBF1 PUSH2 0xB8B JUMP JUMPDEST JUMPDEST DUP4 JUMPDEST DUP2 DUP2 LT ISZERO PUSH2 0xC39 JUMPI DUP1 CALLDATALOAD PUSH8 0xFFFFFFFFFFFFFFFF DUP2 GT ISZERO PUSH2 0xC17 JUMPI PUSH2 0xC16 PUSH2 0xA19 JUMP JUMPDEST JUMPDEST DUP1 DUP7 ADD PUSH2 0xC24 DUP10 DUP3 PUSH2 0xB31 JUMP JUMPDEST DUP6 MSTORE PUSH1 0x20 DUP6 ADD SWAP5 POP POP POP PUSH1 0x20 DUP2 ADD SWAP1 POP PUSH2 0xBF4 JUMP JUMPDEST POP POP POP SWAP4 SWAP3 POP POP POP JUMP JUMPDEST PUSH1 0x0 DUP3 PUSH1 0x1F DUP4 ADD SLT PUSH2 0xC58 JUMPI PUSH2 0xC57 PUSH2 0xA19 JUMP JUMPDEST JUMPDEST DUP2 CALLDATALOAD PUSH2 0xC68 DUP5 DUP3 PUSH1 0x20 DUP7 ADD PUSH2 0xBBC JUMP JUMPDEST SWAP2 POP POP SWAP3 SWAP2 POP POP JUMP JUMPDEST PUSH1 0x0 PUSH2 0xC84 PUSH2 0xC7F DUP5 PUSH2 0xB5F JUMP JUMPDEST PUSH2 0xA94 JUMP JUMPDEST SWAP1 POP DUP1 DUP4 DUP3 MSTORE PUSH1 0x20 DUP3 ADD SWAP1 POP PUSH1 0x20 DUP5 MUL DUP4 ADD DUP6 DUP2 GT ISZERO PUSH2 0xCA7 JUMPI PUSH2 0xCA6 PUSH2 0xB8B JUMP JUMPDEST JUMPDEST DUP4 JUMPDEST DUP2 DUP2 LT ISZERO PUSH2 0xCEE JUMPI DUP1 CALLDATALOAD PUSH8 0xFFFFFFFFFFFFFFFF DUP2 GT ISZERO PUSH2 0xCCC JUMPI PUSH2 0xCCB PUSH2 0xA19 JUMP JUMPDEST JUMPDEST DUP1 DUP7 ADD PUSH2 0xCD9 DUP10 DUP3 PUSH2 0xC43 JUMP JUMPDEST DUP6 MSTORE PUSH1 0x20 DUP6 ADD SWAP5 POP POP POP PUSH1 0x20 DUP2 ADD SWAP1 POP PUSH2 0xCA9 JUMP JUMPDEST POP POP POP SWAP4 SWAP3 POP POP POP JUMP JUMPDEST PUSH1 0x0 DUP3 PUSH1 0x1F DUP4 ADD SLT PUSH2 0xD0D JUMPI PUSH2 0xD0C PUSH2 0xA19 JUMP JUMPDEST JUMPDEST DUP2 CALLDATALOAD PUSH2 0xD1D DUP5 DUP3 PUSH1 0x20 DUP7 ADD PUSH2 0xC71 JUMP JUMPDEST SWAP2 POP POP SWAP3 SWAP2 POP POP JUMP JUMPDEST PUSH1 0x0 DUP1 PUSH1 0x0 PUSH1 0x60 DUP5 DUP7 SUB SLT ISZERO PUSH2 0xD3F JUMPI PUSH2 0xD3E PUSH2 0xA0F JUMP JUMPDEST JUMPDEST PUSH1 0x0 DUP5 ADD CALLDATALOAD PUSH8 0xFFFFFFFFFFFFFFFF DUP2 GT ISZERO PUSH2 0xD5D JUMPI PUSH2 0xD5C PUSH2 0xA14 JUMP JUMPDEST JUMPDEST PUSH2 0xD69 DUP7 DUP3 DUP8 ADD PUSH2 0xB31 JUMP JUMPDEST SWAP4 POP POP PUSH1 0x20 DUP5 ADD CALLDATALOAD PUSH8 0xFFFFFFFFFFFFFFFF DUP2 GT ISZERO PUSH2 0xD8A JUMPI PUSH2 0xD89 PUSH2 0xA14 JUMP JUMPDEST JUMPDEST PUSH2 0xD96 DUP7 DUP3 DUP8 ADD PUSH2 0xCF8 JUMP JUMPDEST SWAP3 POP POP PUSH1 0x40 DUP5 ADD CALLDATALOAD PUSH8 0xFFFFFFFFFFFFFFFF DUP2 GT ISZERO PUSH2 0xDB7 JUMPI PUSH2 0xDB6 PUSH2 0xA14 JUMP JUMPDEST JUMPDEST PUSH2 0xDC3 DUP7 DUP3 DUP8 ADD PUSH2 0xCF8 JUMP JUMPDEST SWAP2 POP POP SWAP3 POP SWAP3 POP SWAP3 JUMP JUMPDEST PUSH1 0x0 DUP2 MLOAD SWAP1 POP SWAP2 SWAP1 POP JUMP JUMPDEST PUSH1 0x0 DUP3 DUP3 MSTORE PUSH1 0x20 DUP3 ADD SWAP1 POP SWAP3 SWAP2 POP POP JUMP JUMPDEST PUSH1 0x0 JUMPDEST DUP4 DUP2 LT ISZERO PUSH2 0xE07 JUMPI DUP1 DUP3 ADD MLOAD DUP2 DUP5 ADD MSTORE PUSH1 0x20 DUP2 ADD SWAP1 POP PUSH2 0xDEC JUMP JUMPDEST PUSH1 0x0 DUP5 DUP5 ADD MSTORE POP POP POP POP JUMP JUMPDEST PUSH1 0x0 PUSH2 0xE1E DUP3 PUSH2 0xDCD JUMP JUMPDEST PUSH2 0xE28 DUP2 DUP6 PUSH2 0xDD8 JUMP JUMPDEST SWAP4 POP PUSH2 0xE38 DUP2 DUP6 PUSH1 0x20 DUP7 ADD PUSH2 0xDE9 JUMP JUMPDEST PUSH2 0xE41 DUP2 PUSH2 0xA23 JUMP JUMPDEST DUP5 ADD SWAP2 POP POP SWAP3 SWAP2 POP POP JUMP JUMPDEST PUSH1 0x0 DUP2 MLOAD SWAP1 POP SWAP2 SWAP1 POP JUMP JUMPDEST PUSH1 0x0 DUP3 DUP3 MSTORE PUSH1 0x20 DUP3 ADD SWAP1 POP SWAP3 SWAP2 POP POP JUMP JUMPDEST PUSH1 0x0 DUP2 SWAP1 POP PUSH1 0x20 DUP3 ADD SWAP1 POP SWAP2 SWAP1 POP JUMP JUMPDEST PUSH1 0x0 PUSH1 0x60 DUP4 ADD PUSH1 0x0 DUP4 ADD MLOAD DUP5 DUP3 SUB PUSH1 0x0 DUP7 ADD MSTORE PUSH2 0xE95 DUP3 DUP3 PUSH2 0xE13 JUMP JUMPDEST SWAP2 POP POP PUSH1 0x20 DUP4 ADD MLOAD DUP5 DUP3 SUB PUSH1 0x20 DUP7 ADD MSTORE PUSH2 0xEAF DUP3 DUP3 PUSH2 0xE13 JUMP JUMPDEST SWAP2 POP POP PUSH1 0x40 DUP4 ADD MLOAD DUP5 DUP3 SUB PUSH1 0x40 DUP7 ADD MSTORE PUSH2 0xEC9 DUP3 DUP3 PUSH2 0xE13 JUMP JUMPDEST SWAP2 POP POP DUP1 SWAP2 POP POP SWAP3 SWAP2 POP POP JUMP JUMPDEST PUSH1 0x0 PUSH2 0xEE2 DUP4 DUP4 PUSH2 0xE78 JUMP JUMPDEST SWAP1 POP SWAP3 SWAP2 POP POP JUMP JUMPDEST PUSH1 0x0 PUSH1 0x20 DUP3 ADD SWAP1 POP SWAP2 SWAP1 POP JUMP JUMPDEST PUSH1 0x0 PUSH2 0xF02 DUP3 PUSH2 0xE4C JUMP JUMPDEST PUSH2 0xF0C DUP2 DUP6 PUSH2 0xE57 JUMP JUMPDEST SWAP4 POP DUP4 PUSH1 0x20 DUP3 MUL DUP6 ADD PUSH2 0xF1E DUP6 PUSH2 0xE68 JUMP JUMPDEST DUP1 PUSH1 0x0 JUMPDEST DUP6 DUP2 LT ISZERO PUSH2 0xF5A JUMPI DUP5 DUP5 SUB DUP10 MSTORE DUP2 MLOAD PUSH2 0xF3B DUP6 DUP3 PUSH2 0xED6 JUMP JUMPDEST SWAP5 POP PUSH2 0xF46 DUP4 PUSH2 0xEEA JUMP JUMPDEST SWAP3 POP PUSH1 0x20 DUP11 ADD SWAP10 POP POP PUSH1 0x1 DUP2 ADD SWAP1 POP PUSH2 0xF22 JUMP JUMPDEST POP DUP3 SWAP8 POP DUP8 SWAP6 POP POP POP POP POP POP SWAP3 SWAP2 POP POP JUMP JUMPDEST PUSH1 0x0 DUP2 MLOAD SWAP1 POP SWAP2 SWAP1 POP JUMP JUMPDEST PUSH1 0x0 DUP3 DUP3 MSTORE PUSH1 0x20 DUP3 ADD SWAP1 POP SWAP3 SWAP2 POP POP JUMP JUMPDEST PUSH1 0x0 DUP2 SWAP1 POP PUSH1 0x20 DUP3 ADD SWAP1 POP SWAP2 SWAP1 POP JUMP JUMPDEST PUSH1 0x0 PUSH1 0x60 DUP4 ADD PUSH1 0x0 DUP4 ADD MLOAD DUP5 DUP3 SUB PUSH1 0x0 DUP7 ADD MSTORE PUSH2 0xFB5 DUP3 DUP3 PUSH2 0xE13 JUMP JUMPDEST SWAP2 POP POP PUSH1 0x20 DUP4 ADD MLOAD DUP5 DUP3 SUB PUSH1 0x20 DUP7 ADD MSTORE PUSH2 0xFCF DUP3 DUP3 PUSH2 0xE13 JUMP JUMPDEST SWAP2 POP POP PUSH1 0x40 DUP4 ADD MLOAD DUP5 DUP3 SUB PUSH1 0x40 DUP7 ADD MSTORE PUSH2 0xFE9 DUP3 DUP3 PUSH2 0xE13 JUMP JUMPDEST SWAP2 POP POP DUP1 SWAP2 POP POP SWAP3 SWAP2 POP POP JUMP JUMPDEST PUSH1 0x0 PUSH2 0x1002 DUP4 DUP4 PUSH2 0xF98 JUMP JUMPDEST SWAP1 POP SWAP3 SWAP2 POP POP JUMP JUMPDEST PUSH1 0x0 PUSH1 0x20 DUP3 ADD SWAP1 POP SWAP2 SWAP1 POP JUMP JUMPDEST PUSH1 0x0 PUSH2 0x1022 DUP3 PUSH2 0xF6C JUMP JUMPDEST PUSH2 0x102C DUP2 DUP6 PUSH2 0xF77 JUMP JUMPDEST SWAP4 POP DUP4 PUSH1 0x20 DUP3 MUL DUP6 ADD PUSH2 0x103E DUP6 PUSH2 0xF88 JUMP JUMPDEST DUP1 PUSH1 0x0 JUMPDEST DUP6 DUP2 LT ISZERO PUSH2 0x107A JUMPI DUP5 DUP5 SUB DUP10 MSTORE DUP2 MLOAD PUSH2 0x105B DUP6 DUP3 PUSH2 0xFF6 JUMP JUMPDEST SWAP5 POP PUSH2 0x1066 DUP4 PUSH2 0x100A JUMP JUMPDEST SWAP3 POP PUSH1 0x20 DUP11 ADD SWAP10 POP POP PUSH1 0x1 DUP2 ADD SWAP1 POP PUSH2 0x1042 JUMP JUMPDEST POP DUP3 SWAP8 POP DUP8 SWAP6 POP POP POP POP POP POP SWAP3 SWAP2 POP POP JUMP JUMPDEST PUSH1 0x0 PUSH1 0x60 DUP4 ADD PUSH1 0x0 DUP4 ADD MLOAD DUP5 DUP3 SUB PUSH1 0x0 DUP7 ADD MSTORE PUSH2 0x10A9 DUP3 DUP3 PUSH2 0xE13 JUMP JUMPDEST SWAP2 POP POP PUSH1 0x20 DUP4 ADD MLOAD DUP5 DUP3 SUB PUSH1 0x20 DUP7 ADD MSTORE PUSH2 0x10C3 DUP3 DUP3 PUSH2 0xEF7 JUMP JUMPDEST SWAP2 POP POP PUSH1 0x40 DUP4 ADD MLOAD DUP5 DUP3 SUB PUSH1 0x40 DUP7 ADD MSTORE PUSH2 0x10DD DUP3 DUP3 PUSH2 0x1017 JUMP JUMPDEST SWAP2 POP POP DUP1 SWAP2 POP POP SWAP3 SWAP2 POP POP JUMP JUMPDEST PUSH1 0x0 PUSH1 0x20 DUP3 ADD SWAP1 POP DUP2 DUP2 SUB PUSH1 0x0 DUP4 ADD MSTORE PUSH2 0x1104 DUP2 DUP5 PUSH2 0x108C JUMP JUMPDEST SWAP1 POP SWAP3 SWAP2 POP POP JUMP JUMPDEST PUSH1 0x0 PUSH1 0x20 DUP3 DUP5 SUB SLT ISZERO PUSH2 0x1122 JUMPI PUSH2 0x1121 PUSH2 0xA0F JUMP JUMPDEST JUMPDEST PUSH1 0x0 DUP3 ADD CALLDATALOAD PUSH8 0xFFFFFFFFFFFFFFFF DUP2 GT ISZERO PUSH2 0x1140 JUMPI PUSH2 0x113F PUSH2 0xA14 JUMP JUMPDEST JUMPDEST PUSH2 0x114C DUP5 DUP3 DUP6 ADD PUSH2 0xB31 JUMP JUMPDEST SWAP2 POP POP SWAP3 SWAP2 POP POP JUMP JUMPDEST PUSH1 0x0 DUP3 DUP3 MSTORE PUSH1 0x20 DUP3 ADD SWAP1 POP SWAP3 SWAP2 POP POP JUMP JUMPDEST PUSH1 0x0 PUSH2 0x1171 DUP3 PUSH2 0xDCD JUMP JUMPDEST PUSH2 0x117B DUP2 DUP6 PUSH2 0x1155 JUMP JUMPDEST SWAP4 POP PUSH2 0x118B DUP2 DUP6 PUSH1 0x20 DUP7 ADD PUSH2 0xDE9 JUMP JUMPDEST PUSH2 0x1194 DUP2 PUSH2 0xA23 JUMP JUMPDEST DUP5 ADD SWAP2 POP POP SWAP3 SWAP2 POP POP JUMP JUMPDEST PUSH1 0x0 PUSH1 0x20 DUP3 ADD SWAP1 POP DUP2 DUP2 SUB PUSH1 0x0 DUP4 ADD MSTORE PUSH2 0x11B9 DUP2 DUP5 PUSH2 0x1166 JUMP JUMPDEST SWAP1 POP SWAP3 SWAP2 POP POP JUMP JUMPDEST PUSH1 0x0 DUP2 SWAP1 POP SWAP3 SWAP2 POP POP JUMP JUMPDEST PUSH1 0x0 PUSH2 0x11D7 DUP3 PUSH2 0xDCD JUMP JUMPDEST PUSH2 0x11E1 DUP2 DUP6 PUSH2 0x11C1 JUMP JUMPDEST SWAP4 POP PUSH2 0x11F1 DUP2 DUP6 PUSH1 0x20 DUP7 ADD PUSH2 0xDE9 JUMP JUMPDEST DUP1 DUP5 ADD SWAP2 POP POP SWAP3 SWAP2 POP POP JUMP JUMPDEST PUSH1 0x0 PUSH2 0x1209 DUP3 DUP5 PUSH2 0x11CC JUMP JUMPDEST SWAP2 POP DUP2 SWAP1 POP SWAP3 SWAP2 POP POP JUMP JUMPDEST PUSH32 0x4E487B7100000000000000000000000000000000000000000000000000000000 PUSH1 0x0 MSTORE PUSH1 0x22 PUSH1 0x4 MSTORE PUSH1 0x24 PUSH1 0x0 REVERT JUMPDEST PUSH1 0x0 PUSH1 0x2 DUP3 DIV SWAP1 POP PUSH1 0x1 DUP3 AND DUP1 PUSH2 0x125B JUMPI PUSH1 0x7F DUP3 AND SWAP2 POP JUMPDEST PUSH1 0x20 DUP3 LT DUP2 SUB PUSH2 0x126E JUMPI PUSH2 0x126D PUSH2 0x1214 JUMP JUMPDEST JUMPDEST POP SWAP2 SWAP1 POP JUMP JUMPDEST PUSH1 0x0 DUP2 SWAP1 POP DUP2 PUSH1 0x0 MSTORE PUSH1 0x20 PUSH1 0x0 KECCAK256 SWAP1 POP SWAP2 SWAP1 POP JUMP JUMPDEST PUSH1 0x0 PUSH1 0x20 PUSH1 0x1F DUP4 ADD DIV SWAP1 POP SWAP2 SWAP1 POP JUMP JUMPDEST PUSH1 0x0 DUP3 DUP3 SHL SWAP1 POP SWAP3 SWAP2 POP POP JUMP JUMPDEST PUSH1 0x0 PUSH1 0x8 DUP4 MUL PUSH2 0x12D6 PUSH32 0xFFFFFFFFFFFFFFFFFFFFFFFFFFFFFFFFFFFFFFFFFFFFFFFFFFFFFFFFFFFFFFFF DUP3 PUSH2 0x1299 JUMP JUMPDEST PUSH2 0x12E0 DUP7 DUP4 PUSH2 0x1299 JUMP JUMPDEST SWAP6 POP DUP1 NOT DUP5 AND SWAP4 POP DUP1 DUP7 AND DUP5 OR SWAP3 POP POP POP SWAP4 SWAP3 POP POP POP JUMP JUMPDEST PUSH1 0x0 DUP2 SWAP1 POP SWAP2 SWAP1 POP JUMP JUMPDEST PUSH1 0x0 DUP2 SWAP1 POP SWAP2 SWAP1 POP JUMP JUMPDEST PUSH1 0x0 PUSH2 0x1327 PUSH2 0x1322 PUSH2 0x131D DUP5 PUSH2 0x12F8 JUMP JUMPDEST PUSH2 0x1302 JUMP JUMPDEST PUSH2 0x12F8 JUMP JUMPDEST SWAP1 POP SWAP2 SWAP1 POP JUMP JUMPDEST PUSH1 0x0 DUP2 SWAP1 POP SWAP2 SWAP1 POP JUMP JUMPDEST PUSH2 0x1341 DUP4 PUSH2 0x130C JUMP JUMPDEST PUSH2 0x1355 PUSH2 0x134D DUP3 PUSH2 0x132E JUMP JUMPDEST DUP5 DUP5 SLOAD PUSH2 0x12A6 JUMP JUMPDEST DUP3 SSTORE POP POP POP POP JUMP JUMPDEST PUSH1 0x0 SWAP1 JUMP JUMPDEST PUSH2 0x136A PUSH2 0x135D JUMP JUMPDEST PUSH2 0x1375 DUP2 DUP5 DUP5 PUSH2 0x1338 JUMP JUMPDEST POP POP POP JUMP JUMPDEST JUMPDEST DUP2 DUP2 LT ISZERO PUSH2 0x1399 JUMPI PUSH2 0x138E PUSH1 0x0 DUP3 PUSH2 0x1362 JUMP JUMPDEST PUSH1 0x1 DUP2 ADD SWAP1 POP PUSH2 0x137B JUMP JUMPDEST POP POP JUMP JUMPDEST PUSH1 0x1F DUP3 GT ISZERO PUSH2 0x13DE JUMPI PUSH2 0x13AF DUP2 PUSH2 0x1274 JUMP JUMPDEST PUSH2 0x13B8 DUP5 PUSH2 0x1289 JUMP JUMPDEST DUP2 ADD PUSH1 0x20 DUP6 LT ISZERO PUSH2 0x13C7 JUMPI DUP2 SWAP1 POP JUMPDEST PUSH2 0x13DB PUSH2 0x13D3 DUP6 PUSH2 0x1289 JUMP JUMPDEST DUP4 ADD DUP3 PUSH2 0x137A JUMP JUMPDEST POP POP JUMPDEST POP POP POP JUMP JUMPDEST PUSH1 0x0 DUP3 DUP3 SHR SWAP1 POP SWAP3 SWAP2 POP POP JUMP JUMPDEST PUSH1 0x0 PUSH2 0x1401 PUSH1 0x0 NOT DUP5 PUSH1 0x8 MUL PUSH2 0x13E3 JUMP JUMPDEST NOT DUP1 DUP4 AND SWAP2 POP POP SWAP3 SWAP2 POP POP JUMP JUMPDEST PUSH1 0x0 PUSH2 0x141A DUP4 DUP4 PUSH2 0x13F0 JUMP JUMPDEST SWAP2 POP DUP3 PUSH1 0x2 MUL DUP3 OR SWAP1 POP SWAP3 SWAP2 POP POP JUMP JUMPDEST PUSH2 0x1433 DUP3 PUSH2 0xDCD JUMP JUMPDEST PUSH8 0xFFFFFFFFFFFFFFFF DUP2 GT ISZERO PUSH2 0x144C JUMPI PUSH2 0x144B PUSH2 0xA34 JUMP JUMPDEST JUMPDEST PUSH2 0x1456 DUP3 SLOAD PUSH2 0x1243 JUMP JUMPDEST PUSH2 0x1461 DUP3 DUP3 DUP6 PUSH2 0x139D JUMP JUMPDEST PUSH1 0x0 PUSH1 0x20 SWAP1 POP PUSH1 0x1F DUP4 GT PUSH1 0x1 DUP2 EQ PUSH2 0x1494 JUMPI PUSH1 0x0 DUP5 ISZERO PUSH2 0x1482 JUMPI DUP3 DUP8 ADD MLOAD SWAP1 POP JUMPDEST PUSH2 0x148C DUP6 DUP3 PUSH2 0x140E JUMP JUMPDEST DUP7 SSTORE POP PUSH2 0x14F4 JUMP JUMPDEST PUSH1 0x1F NOT DUP5 AND PUSH2 0x14A2 DUP7 PUSH2 0x1274 JUMP JUMPDEST PUSH1 0x0 JUMPDEST DUP3 DUP2 LT ISZERO PUSH2 0x14CA JUMPI DUP5 DUP10 ADD MLOAD DUP3 SSTORE PUSH1 0x1 DUP3 ADD SWAP2 POP PUSH1 0x20 DUP6 ADD SWAP5 POP PUSH1 0x20 DUP2 ADD SWAP1 POP PUSH2 0x14A5 JUMP JUMPDEST DUP7 DUP4 LT ISZERO PUSH2 0x14E7 JUMPI DUP5 DUP10 ADD MLOAD PUSH2 0x14E3 PUSH1 0x1F DUP10 AND DUP3 PUSH2 0x13F0 JUMP JUMPDEST DUP4 SSTORE POP JUMPDEST PUSH1 0x1 PUSH1 0x2 DUP9 MUL ADD DUP9 SSTORE POP POP POP JUMPDEST POP POP POP POP POP POP JUMP JUMPDEST PUSH32 0x4E487B7100000000000000000000000000000000000000000000000000000000 PUSH1 0x0 MSTORE PUSH1 0x32 PUSH1 0x4 MSTORE PUSH1 0x24 PUSH1 0x0 REVERT JUMPDEST PUSH32 0x4E487B7100000000000000000000000000000000000000000000000000000000 PUSH1 0x0 MSTORE PUSH1 0x11 PUSH1 0x4 MSTORE PUSH1 0x24 PUSH1 0x0 REVERT JUMPDEST PUSH1 0x0 PUSH2 0x1565 DUP3 PUSH2 0x12F8 JUMP JUMPDEST SWAP2 POP PUSH32 0xFFFFFFFFFFFFFFFFFFFFFFFFFFFFFFFFFFFFFFFFFFFFFFFFFFFFFFFFFFFFFFFF DUP3 SUB PUSH2 0x1597 JUMPI PUSH2 0x1596 PUSH2 0x152B JUMP JUMPDEST JUMPDEST PUSH1 0x1 DUP3 ADD SWAP1 POP SWAP2 SWAP1 POP JUMP JUMPDEST PUSH1 0x0 PUSH2 0x15AD DUP3 PUSH2 0x12F8 JUMP JUMPDEST SWAP2 POP PUSH2 0x15B8 DUP4 PUSH2 0x12F8 JUMP JUMPDEST SWAP3 POP DUP3 DUP3 SUB SWAP1 POP DUP2 DUP2 GT ISZERO PUSH2 0x15D0 JUMPI PUSH2 0x15CF PUSH2 0x152B JUMP JUMPDEST JUMPDEST SWAP3 SWAP2 POP POP JUMP JUMPDEST PUSH1 0x0 DUP2 SLOAD PUSH2 0x15E3 DUP2 PUSH2 0x1243 JUMP JUMPDEST PUSH2 0x15ED DUP2 DUP7 PUSH2 0x11C1 JUMP JUMPDEST SWAP5 POP PUSH1 0x1 DUP3 AND PUSH1 0x0 DUP2 EQ PUSH2 0x1608 JUMPI PUSH1 0x1 DUP2 EQ PUSH2 0x161D JUMPI PUSH2 0x1650 JUMP JUMPDEST PUSH1 0xFF NOT DUP4 AND DUP7 MSTORE DUP2 ISZERO ISZERO DUP3 MUL DUP7 ADD SWAP4 POP PUSH2 0x1650 JUMP JUMPDEST PUSH2 0x1626 DUP6 PUSH2 0x1274 JUMP JUMPDEST PUSH1 0x0 JUMPDEST DUP4 DUP2 LT ISZERO PUSH2 0x1648 JUMPI DUP2 SLOAD DUP2 DUP10 ADD MSTORE PUSH1 0x1 DUP3 ADD SWAP2 POP PUSH1 0x20 DUP2 ADD SWAP1 POP PUSH2 0x1629 JUMP JUMPDEST DUP4 DUP9 ADD SWAP6 POP POP POP JUMPDEST POP POP POP SWAP3 SWAP2 POP POP JUMP JUMPDEST PUSH1 0x0 PUSH2 0x1665 DUP3 DUP5 PUSH2 0x15D6 JUMP JUMPDEST SWAP2 POP DUP2 SWAP1 POP SWAP3 SWAP2 POP POP JUMP INVALID LOG2 PUSH5 0x6970667358 0x22 SLT KECCAK256 ADDRESS 0xB3 DUP8 0x2E MOD 0xC8 POP 0x4B CODECOPY 0xEF 0x4C POP 0xB9 LT PUSH24 0x433894340ABBEDF2A328EE111A3E7A638064736F6C634300 ADDMOD SLT STOP CALLER "
				},
				"gasEstimates": {
					"creation": {
						"codeDepositCost": "1159600",
						"executionCost": "1207",
						"totalCost": "1160807"
					},
					"external": {
						"from_admin()": "infinite",
						"sent_req(string)": "infinite",
						"to_dev(string,string[][],string[][])": "infinite"
					}
				},
				"methodIdentifiers": {
					"from_admin()": "643b45b8",
					"sent_req(string)": "ff3ffb38",
					"to_dev(string,string[][],string[][])": "572dc02b"
				}
			},
			"storageLayout": {
				"storage": [
					{
						"astId": 31,
						"contract": "Developer.sol:Developer",
						"label": "sent_req",
						"offset": 0,
						"slot": "0",
						"type": "t_mapping(t_string_memory_ptr,t_struct(Requests)26_storage)"
					},
					{
						"astId": 34,
						"contract": "Developer.sol:Developer",
						"label": "dates",
						"offset": 0,
						"slot": "1",
						"type": "t_array(t_string_storage)dyn_storage"
					}
				],
				"types": {
					"t_array(t_string_storage)dyn_storage": {
						"base": "t_string_storage",
						"encoding": "dynamic_array",
						"label": "string[]",
						"numberOfBytes": "32"
					},
					"t_array(t_struct(Bugs)8_storage)dyn_storage": {
						"base": "t_struct(Bugs)8_storage",
						"encoding": "dynamic_array",
						"label": "struct Bugs[]",
						"numberOfBytes": "32"
					},
					"t_array(t_struct(Features)15_storage)dyn_storage": {
						"base": "t_struct(Features)15_storage",
						"encoding": "dynamic_array",
						"label": "struct Features[]",
						"numberOfBytes": "32"
					},
					"t_mapping(t_string_memory_ptr,t_struct(Requests)26_storage)": {
						"encoding": "mapping",
						"key": "t_string_memory_ptr",
						"label": "mapping(string => struct Requests)",
						"numberOfBytes": "32",
						"value": "t_struct(Requests)26_storage"
					},
					"t_string_memory_ptr": {
						"encoding": "bytes",
						"label": "string",
						"numberOfBytes": "32"
					},
					"t_string_storage": {
						"encoding": "bytes",
						"label": "string",
						"numberOfBytes": "32"
					},
					"t_struct(Bugs)8_storage": {
						"encoding": "inplace",
						"label": "struct Bugs",
						"members": [
							{
								"astId": 3,
								"contract": "Developer.sol:Developer",
								"label": "bug_name",
								"offset": 0,
								"slot": "0",
								"type": "t_string_storage"
							},
							{
								"astId": 5,
								"contract": "Developer.sol:Developer",
								"label": "bug_description",
								"offset": 0,
								"slot": "1",
								"type": "t_string_storage"
							},
							{
								"astId": 7,
								"contract": "Developer.sol:Developer",
								"label": "bug_priority",
								"offset": 0,
								"slot": "2",
								"type": "t_string_storage"
							}
						],
						"numberOfBytes": "96"
					},
					"t_struct(Features)15_storage": {
						"encoding": "inplace",
						"label": "struct Features",
						"members": [
							{
								"astId": 10,
								"contract": "Developer.sol:Developer",
								"label": "feature_name",
								"offset": 0,
								"slot": "0",
								"type": "t_string_storage"
							},
							{
								"astId": 12,
								"contract": "Developer.sol:Developer",
								"label": "feature_description",
								"offset": 0,
								"slot": "1",
								"type": "t_string_storage"
							},
							{
								"astId": 14,
								"contract": "Developer.sol:Developer",
								"label": "feature_priority",
								"offset": 0,
								"slot": "2",
								"type": "t_string_storage"
							}
						],
						"numberOfBytes": "96"
					},
					"t_struct(Requests)26_storage": {
						"encoding": "inplace",
						"label": "struct Requests",
						"members": [
							{
								"astId": 17,
								"contract": "Developer.sol:Developer",
								"label": "time",
								"offset": 0,
								"slot": "0",
								"type": "t_string_storage"
							},
							{
								"astId": 21,
								"contract": "Developer.sol:Developer",
								"label": "bugs_arr",
								"offset": 0,
								"slot": "1",
								"type": "t_array(t_struct(Bugs)8_storage)dyn_storage"
							},
							{
								"astId": 25,
								"contract": "Developer.sol:Developer",
								"label": "features_arr",
								"offset": 0,
								"slot": "2",
								"type": "t_array(t_struct(Features)15_storage)dyn_storage"
							}
						],
						"numberOfBytes": "96"
					}
				}
			},
			"userdoc": {
				"kind": "user",
				"methods": {},
				"version": 1
			}
		}
	}
}