{
	"Verification.sol": {
		"PatchUpload": {
			"abi": [
				{
					"inputs": [
						{
							"internalType": "string",
							"name": "time",
							"type": "string"
						},
						{
							"internalType": "string",
							"name": "pname",
							"type": "string"
						},
						{
							"internalType": "string",
							"name": "vnumber",
							"type": "string"
						},
						{
							"internalType": "string",
							"name": "fname",
							"type": "string"
						},
						{
							"internalType": "bytes",
							"name": "data",
							"type": "bytes"
						}
					],
					"name": "addPatch",
					"outputs": [],
					"stateMutability": "nonpayable",
					"type": "function"
				},
				{
					"inputs": [
						{
							"internalType": "uint256",
							"name": "",
							"type": "uint256"
						}
					],
					"name": "arr",
					"outputs": [
						{
							"internalType": "string",
							"name": "time_rn",
							"type": "string"
						},
						{
							"internalType": "string",
							"name": "patch_name",
							"type": "string"
						},
						{
							"internalType": "string",
							"name": "version_number",
							"type": "string"
						},
						{
							"internalType": "string",
							"name": "file_name",
							"type": "string"
						},
						{
							"internalType": "bytes",
							"name": "patch",
							"type": "bytes"
						}
					],
					"stateMutability": "view",
					"type": "function"
				},
				{
					"inputs": [],
					"name": "sendPatch",
					"outputs": [
						{
							"components": [
								{
									"internalType": "string",
									"name": "time_rn",
									"type": "string"
								},
								{
									"internalType": "string",
									"name": "patch_name",
									"type": "string"
								},
								{
									"internalType": "string",
									"name": "version_number",
									"type": "string"
								},
								{
									"internalType": "string",
									"name": "file_name",
									"type": "string"
								},
								{
									"internalType": "bytes",
									"name": "patch",
									"type": "bytes"
								}
							],
							"internalType": "struct Details",
							"name": "",
							"type": "tuple"
						}
					],
					"stateMutability": "view",
					"type": "function"
				}
			],
			"devdoc": {
				"kind": "dev",
				"methods": {},
				"version": 1
			},
			"evm": {
				"assembly": "    /* \"Verification.sol\":208:759  contract PatchUpload{... */\n  mstore(0x40, 0x80)\n  callvalue\n  dup1\n  iszero\n  tag_1\n  jumpi\n  0x00\n  dup1\n  revert\ntag_1:\n  pop\n  dataSize(sub_0)\n  dup1\n  dataOffset(sub_0)\n  0x00\n  codecopy\n  0x00\n  return\nstop\n\nsub_0: assembly {\n        /* \"Verification.sol\":208:759  contract PatchUpload{... */\n      mstore(0x40, 0x80)\n      callvalue\n      dup1\n      iszero\n      tag_1\n      jumpi\n      0x00\n      dup1\n      revert\n    tag_1:\n      pop\n      jumpi(tag_2, lt(calldatasize, 0x04))\n      shr(0xe0, calldataload(0x00))\n      dup1\n      0x28f1cd7c\n      eq\n      tag_3\n      jumpi\n      dup1\n      0x6674ec7c\n      eq\n      tag_4\n      jumpi\n      dup1\n      0x71e5ee5f\n      eq\n      tag_5\n      jumpi\n    tag_2:\n      0x00\n      dup1\n      revert\n        /* \"Verification.sol\":625:756  function sendPatch() public view returns(Details memory){... */\n    tag_3:\n      tag_6\n      tag_7\n      jump\t// in\n    tag_6:\n      mload(0x40)\n      tag_8\n      swap2\n      swap1\n      tag_9\n      jump\t// in\n    tag_8:\n      mload(0x40)\n      dup1\n      swap2\n      sub\n      swap1\n      return\n        /* \"Verification.sol\":262:617  function addPatch(string memory time, string memory pname, string memory vnumber,string memory fname, bytes memory data) public{... */\n    tag_4:\n      tag_10\n      0x04\n      dup1\n      calldatasize\n      sub\n      dup2\n      add\n      swap1\n      tag_11\n      swap2\n      swap1\n      tag_12\n      jump\t// in\n    tag_11:\n      tag_13\n      jump\t// in\n    tag_10:\n      stop\n        /* \"Verification.sol\":235:255  Details[] public arr */\n    tag_5:\n      tag_14\n      0x04\n      dup1\n      calldatasize\n      sub\n      dup2\n      add\n      swap1\n      tag_15\n      swap2\n      swap1\n      tag_16\n      jump\t// in\n    tag_15:\n      tag_17\n      jump\t// in\n    tag_14:\n      mload(0x40)\n      tag_18\n      swap6\n      swap5\n      swap4\n      swap3\n      swap2\n      swap1\n      tag_19\n      jump\t// in\n    tag_18:\n      mload(0x40)\n      dup1\n      swap2\n      sub\n      swap1\n      return\n        /* \"Verification.sol\":625:756  function sendPatch() public view returns(Details memory){... */\n    tag_7:\n        /* \"Verification.sol\":666:680  Details memory */\n      tag_20\n      tag_21\n      jump\t// in\n    tag_20:\n        /* \"Verification.sol\":692:698  uint k */\n      0x00\n        /* \"Verification.sol\":722:723  1 */\n      0x01\n        /* \"Verification.sol\":711:714  arr */\n      0x00\n        /* \"Verification.sol\":711:721  arr.length */\n      dup1\n      sload\n      swap1\n      pop\n        /* \"Verification.sol\":711:723  arr.length-1 */\n      tag_23\n      swap2\n      swap1\n      tag_24\n      jump\t// in\n    tag_23:\n        /* \"Verification.sol\":709:723  k=arr.length-1 */\n      swap1\n      pop\n        /* \"Verification.sol\":741:744  arr */\n      0x00\n        /* \"Verification.sol\":745:746  k */\n      dup2\n        /* \"Verification.sol\":741:747  arr[k] */\n      dup2\n      sload\n      dup2\n      lt\n      tag_25\n      jumpi\n      tag_26\n      tag_27\n      jump\t// in\n    tag_26:\n    tag_25:\n      swap1\n      0x00\n      mstore\n      keccak256(0x00, 0x20)\n      swap1\n      0x05\n      mul\n      add\n        /* \"Verification.sol\":734:748  return(arr[k]) */\n      mload(0x40)\n      dup1\n      0xa0\n      add\n      0x40\n      mstore\n      swap1\n      dup2\n      0x00\n      dup3\n      add\n      dup1\n      sload\n      tag_29\n      swap1\n      tag_30\n      jump\t// in\n    tag_29:\n      dup1\n      0x1f\n      add\n      0x20\n      dup1\n      swap2\n      div\n      mul\n      0x20\n      add\n      mload(0x40)\n      swap1\n      dup2\n      add\n      0x40\n      mstore\n      dup1\n      swap3\n      swap2\n      swap1\n      dup2\n      dup2\n      mstore\n      0x20\n      add\n      dup3\n      dup1\n      sload\n      tag_31\n      swap1\n      tag_30\n      jump\t// in\n    tag_31:\n      dup1\n      iszero\n      tag_32\n      jumpi\n      dup1\n      0x1f\n      lt\n      tag_33\n      jumpi\n      0x0100\n      dup1\n      dup4\n      sload\n      div\n      mul\n      dup4\n      mstore\n      swap2\n      0x20\n      add\n      swap2\n      jump(tag_32)\n    tag_33:\n      dup3\n      add\n      swap2\n      swap1\n      0x00\n      mstore\n      keccak256(0x00, 0x20)\n      swap1\n    tag_34:\n      dup2\n      sload\n      dup2\n      mstore\n      swap1\n      0x01\n      add\n      swap1\n      0x20\n      add\n      dup1\n      dup4\n      gt\n      tag_34\n      jumpi\n      dup3\n      swap1\n      sub\n      0x1f\n      and\n      dup3\n      add\n      swap2\n    tag_32:\n      pop\n      pop\n      pop\n      pop\n      pop\n      dup2\n      mstore\n      0x20\n      add\n      0x01\n      dup3\n      add\n      dup1\n      sload\n      tag_35\n      swap1\n      tag_30\n      jump\t// in\n    tag_35:\n      dup1\n      0x1f\n      add\n      0x20\n      dup1\n      swap2\n      div\n      mul\n      0x20\n      add\n      mload(0x40)\n      swap1\n      dup2\n      add\n      0x40\n      mstore\n      dup1\n      swap3\n      swap2\n      swap1\n      dup2\n      dup2\n      mstore\n      0x20\n      add\n      dup3\n      dup1\n      sload\n      tag_36\n      swap1\n      tag_30\n      jump\t// in\n    tag_36:\n      dup1\n      iszero\n      tag_37\n      jumpi\n      dup1\n      0x1f\n      lt\n      tag_38\n      jumpi\n      0x0100\n      dup1\n      dup4\n      sload\n      div\n      mul\n      dup4\n      mstore\n      swap2\n      0x20\n      add\n      swap2\n      jump(tag_37)\n    tag_38:\n      dup3\n      add\n      swap2\n      swap1\n      0x00\n      mstore\n      keccak256(0x00, 0x20)\n      swap1\n    tag_39:\n      dup2\n      sload\n      dup2\n      mstore\n      swap1\n      0x01\n      add\n      swap1\n      0x20\n      add\n      dup1\n      dup4\n      gt\n      tag_39\n      jumpi\n      dup3\n      swap1\n      sub\n      0x1f\n      and\n      dup3\n      add\n      swap2\n    tag_37:\n      pop\n      pop\n      pop\n      pop\n      pop\n      dup2\n      mstore\n      0x20\n      add\n      0x02\n      dup3\n      add\n      dup1\n      sload\n      tag_40\n      swap1\n      tag_30\n      jump\t// in\n    tag_40:\n      dup1\n      0x1f\n      add\n      0x20\n      dup1\n      swap2\n      div\n      mul\n      0x20\n      add\n      mload(0x40)\n      swap1\n      dup2\n      add\n      0x40\n      mstore\n      dup1\n      swap3\n      swap2\n      swap1\n      dup2\n      dup2\n      mstore\n      0x20\n      add\n      dup3\n      dup1\n      sload\n      tag_41\n      swap1\n      tag_30\n      jump\t// in\n    tag_41:\n      dup1\n      iszero\n      tag_42\n      jumpi\n      dup1\n      0x1f\n      lt\n      tag_43\n      jumpi\n      0x0100\n      dup1\n      dup4\n      sload\n      div\n      mul\n      dup4\n      mstore\n      swap2\n      0x20\n      add\n      swap2\n      jump(tag_42)\n    tag_43:\n      dup3\n      add\n      swap2\n      swap1\n      0x00\n      mstore\n      keccak256(0x00, 0x20)\n      swap1\n    tag_44:\n      dup2\n      sload\n      dup2\n      mstore\n      swap1\n      0x01\n      add\n      swap1\n      0x20\n      add\n      dup1\n      dup4\n      gt\n      tag_44\n      jumpi\n      dup3\n      swap1\n      sub\n      0x1f\n      and\n      dup3\n      add\n      swap2\n    tag_42:\n      pop\n      pop\n      pop\n      pop\n      pop\n      dup2\n      mstore\n      0x20\n      add\n      0x03\n      dup3\n      add\n      dup1\n      sload\n      tag_45\n      swap1\n      tag_30\n      jump\t// in\n    tag_45:\n      dup1\n      0x1f\n      add\n      0x20\n      dup1\n      swap2\n      div\n      mul\n      0x20\n      add\n      mload(0x40)\n      swap1\n      dup2\n      add\n      0x40\n      mstore\n      dup1\n      swap3\n      swap2\n      swap1\n      dup2\n      dup2\n      mstore\n      0x20\n      add\n      dup3\n      dup1\n      sload\n      tag_46\n      swap1\n      tag_30\n      jump\t// in\n    tag_46:\n      dup1\n      iszero\n      tag_47\n      jumpi\n      dup1\n      0x1f\n      lt\n      tag_48\n      jumpi\n      0x0100\n      dup1\n      dup4\n      sload\n      div\n      mul\n      dup4\n      mstore\n      swap2\n      0x20\n      add\n      swap2\n      jump(tag_47)\n    tag_48:\n      dup3\n      add\n      swap2\n      swap1\n      0x00\n      mstore\n      keccak256(0x00, 0x20)\n      swap1\n    tag_49:\n      dup2\n      sload\n      dup2\n      mstore\n      swap1\n      0x01\n      add\n      swap1\n      0x20\n      add\n      dup1\n      dup4\n      gt\n      tag_49\n      jumpi\n      dup3\n      swap1\n      sub\n      0x1f\n      and\n      dup3\n      add\n      swap2\n    tag_47:\n      pop\n      pop\n      pop\n      pop\n      pop\n      dup2\n      mstore\n      0x20\n      add\n      0x04\n      dup3\n      add\n      dup1\n      sload\n      tag_50\n      swap1\n      tag_30\n      jump\t// in\n    tag_50:\n      dup1\n      0x1f\n      add\n      0x20\n      dup1\n      swap2\n      div\n      mul\n      0x20\n      add\n      mload(0x40)\n      swap1\n      dup2\n      add\n      0x40\n      mstore\n      dup1\n      swap3\n      swap2\n      swap1\n      dup2\n      dup2\n      mstore\n      0x20\n      add\n      dup3\n      dup1\n      sload\n      tag_51\n      swap1\n      tag_30\n      jump\t// in\n    tag_51:\n      dup1\n      iszero\n      tag_52\n      jumpi\n      dup1\n      0x1f\n      lt\n      tag_53\n      jumpi\n      0x0100\n      dup1\n      dup4\n      sload\n      div\n      mul\n      dup4\n      mstore\n      swap2\n      0x20\n      add\n      swap2\n      jump(tag_52)\n    tag_53:\n      dup3\n      add\n      swap2\n      swap1\n      0x00\n      mstore\n      keccak256(0x00, 0x20)\n      swap1\n    tag_54:\n      dup2\n      sload\n      dup2\n      mstore\n      swap1\n      0x01\n      add\n      swap1\n      0x20\n      add\n      dup1\n      dup4\n      gt\n      tag_54\n      jumpi\n      dup3\n      swap1\n      sub\n      0x1f\n      and\n      dup3\n      add\n      swap2\n    tag_52:\n      pop\n      pop\n      pop\n      pop\n      pop\n      dup2\n      mstore\n      pop\n      pop\n      swap2\n      pop\n      pop\n        /* \"Verification.sol\":625:756  function sendPatch() public view returns(Details memory){... */\n      swap1\n      jump\t// out\n        /* \"Verification.sol\":262:617  function addPatch(string memory time, string memory pname, string memory vnumber,string memory fname, bytes memory data) public{... */\n    tag_13:\n        /* \"Verification.sol\":400:419  Details memory temp */\n      tag_56\n      tag_21\n      jump\t// in\n    tag_56:\n        /* \"Verification.sol\":445:449  time */\n      dup6\n        /* \"Verification.sol\":430:434  temp */\n      dup2\n        /* \"Verification.sol\":430:442  temp.time_rn */\n      0x00\n      add\n        /* \"Verification.sol\":430:449  temp.time_rn = time */\n      dup2\n      swap1\n      mstore\n      pop\n        /* \"Verification.sol\":478:483  pname */\n      dup5\n        /* \"Verification.sol\":460:464  temp */\n      dup2\n        /* \"Verification.sol\":460:475  temp.patch_name */\n      0x20\n      add\n        /* \"Verification.sol\":460:483  temp.patch_name = pname */\n      dup2\n      swap1\n      mstore\n      pop\n        /* \"Verification.sol\":516:523  vnumber */\n      dup4\n        /* \"Verification.sol\":494:498  temp */\n      dup2\n        /* \"Verification.sol\":494:513  temp.version_number */\n      0x40\n      add\n        /* \"Verification.sol\":494:523  temp.version_number = vnumber */\n      dup2\n      swap1\n      mstore\n      pop\n        /* \"Verification.sol\":551:556  fname */\n      dup3\n        /* \"Verification.sol\":534:538  temp */\n      dup2\n        /* \"Verification.sol\":534:548  temp.file_name */\n      0x60\n      add\n        /* \"Verification.sol\":534:556  temp.file_name = fname */\n      dup2\n      swap1\n      mstore\n      pop\n        /* \"Verification.sol\":580:584  data */\n      dup2\n        /* \"Verification.sol\":567:571  temp */\n      dup2\n        /* \"Verification.sol\":567:577  temp.patch */\n      0x80\n      add\n        /* \"Verification.sol\":567:584  temp.patch = data */\n      dup2\n      swap1\n      mstore\n      pop\n        /* \"Verification.sol\":595:598  arr */\n      0x00\n        /* \"Verification.sol\":604:608  temp */\n      dup2\n        /* \"Verification.sol\":595:609  arr.push(temp) */\n      swap1\n      dup1\n      0x01\n      dup2\n      sload\n      add\n      dup1\n      dup3\n      sstore\n      dup1\n      swap2\n      pop\n      pop\n      0x01\n      swap1\n      sub\n      swap1\n      0x00\n      mstore\n      keccak256(0x00, 0x20)\n      swap1\n      0x05\n      mul\n      add\n      0x00\n      swap1\n      swap2\n      swap1\n      swap2\n      swap1\n      swap2\n      pop\n      0x00\n      dup3\n      add\n      mload\n      dup2\n      0x00\n      add\n      swap1\n      dup2\n      tag_58\n      swap2\n      swap1\n      tag_59\n      jump\t// in\n    tag_58:\n      pop\n      0x20\n      dup3\n      add\n      mload\n      dup2\n      0x01\n      add\n      swap1\n      dup2\n      tag_60\n      swap2\n      swap1\n      tag_59\n      jump\t// in\n    tag_60:\n      pop\n      0x40\n      dup3\n      add\n      mload\n      dup2\n      0x02\n      add\n      swap1\n      dup2\n      tag_61\n      swap2\n      swap1\n      tag_59\n      jump\t// in\n    tag_61:\n      pop\n      0x60\n      dup3\n      add\n      mload\n      dup2\n      0x03\n      add\n      swap1\n      dup2\n      tag_62\n      swap2\n      swap1\n      tag_59\n      jump\t// in\n    tag_62:\n      pop\n      0x80\n      dup3\n      add\n      mload\n      dup2\n      0x04\n      add\n      swap1\n      dup2\n      tag_63\n      swap2\n      swap1\n      tag_64\n      jump\t// in\n    tag_63:\n      pop\n      pop\n      pop\n        /* \"Verification.sol\":389:617  {... */\n      pop\n        /* \"Verification.sol\":262:617  function addPatch(string memory time, string memory pname, string memory vnumber,string memory fname, bytes memory data) public{... */\n      pop\n      pop\n      pop\n      pop\n      pop\n      jump\t// out\n        /* \"Verification.sol\":235:255  Details[] public arr */\n    tag_17:\n      0x00\n      dup2\n      dup2\n      sload\n      dup2\n      lt\n      tag_65\n      jumpi\n      0x00\n      dup1\n      revert\n    tag_65:\n      swap1\n      0x00\n      mstore\n      keccak256(0x00, 0x20)\n      swap1\n      0x05\n      mul\n      add\n      0x00\n      swap2\n      pop\n      swap1\n      pop\n      dup1\n      0x00\n      add\n      dup1\n      sload\n      tag_67\n      swap1\n      tag_30\n      jump\t// in\n    tag_67:\n      dup1\n      0x1f\n      add\n      0x20\n      dup1\n      swap2\n      div\n      mul\n      0x20\n      add\n      mload(0x40)\n      swap1\n      dup2\n      add\n      0x40\n      mstore\n      dup1\n      swap3\n      swap2\n      swap1\n      dup2\n      dup2\n      mstore\n      0x20\n      add\n      dup3\n      dup1\n      sload\n      tag_68\n      swap1\n      tag_30\n      jump\t// in\n    tag_68:\n      dup1\n      iszero\n      tag_69\n      jumpi\n      dup1\n      0x1f\n      lt\n      tag_70\n      jumpi\n      0x0100\n      dup1\n      dup4\n      sload\n      div\n      mul\n      dup4\n      mstore\n      swap2\n      0x20\n      add\n      swap2\n      jump(tag_69)\n    tag_70:\n      dup3\n      add\n      swap2\n      swap1\n      0x00\n      mstore\n      keccak256(0x00, 0x20)\n      swap1\n    tag_71:\n      dup2\n      sload\n      dup2\n      mstore\n      swap1\n      0x01\n      add\n      swap1\n      0x20\n      add\n      dup1\n      dup4\n      gt\n      tag_71\n      jumpi\n      dup3\n      swap1\n      sub\n      0x1f\n      and\n      dup3\n      add\n      swap2\n    tag_69:\n      pop\n      pop\n      pop\n      pop\n      pop\n      swap1\n      dup1\n      0x01\n      add\n      dup1\n      sload\n      tag_72\n      swap1\n      tag_30\n      jump\t// in\n    tag_72:\n      dup1\n      0x1f\n      add\n      0x20\n      dup1\n      swap2\n      div\n      mul\n      0x20\n      add\n      mload(0x40)\n      swap1\n      dup2\n      add\n      0x40\n      mstore\n      dup1\n      swap3\n      swap2\n      swap1\n      dup2\n      dup2\n      mstore\n      0x20\n      add\n      dup3\n      dup1\n      sload\n      tag_73\n      swap1\n      tag_30\n      jump\t// in\n    tag_73:\n      dup1\n      iszero\n      tag_74\n      jumpi\n      dup1\n      0x1f\n      lt\n      tag_75\n      jumpi\n      0x0100\n      dup1\n      dup4\n      sload\n      div\n      mul\n      dup4\n      mstore\n      swap2\n      0x20\n      add\n      swap2\n      jump(tag_74)\n    tag_75:\n      dup3\n      add\n      swap2\n      swap1\n      0x00\n      mstore\n      keccak256(0x00, 0x20)\n      swap1\n    tag_76:\n      dup2\n      sload\n      dup2\n      mstore\n      swap1\n      0x01\n      add\n      swap1\n      0x20\n      add\n      dup1\n      dup4\n      gt\n      tag_76\n      jumpi\n      dup3\n      swap1\n      sub\n      0x1f\n      and\n      dup3\n      add\n      swap2\n    tag_74:\n      pop\n      pop\n      pop\n      pop\n      pop\n      swap1\n      dup1\n      0x02\n      add\n      dup1\n      sload\n      tag_77\n      swap1\n      tag_30\n      jump\t// in\n    tag_77:\n      dup1\n      0x1f\n      add\n      0x20\n      dup1\n      swap2\n      div\n      mul\n      0x20\n      add\n      mload(0x40)\n      swap1\n      dup2\n      add\n      0x40\n      mstore\n      dup1\n      swap3\n      swap2\n      swap1\n      dup2\n      dup2\n      mstore\n      0x20\n      add\n      dup3\n      dup1\n      sload\n      tag_78\n      swap1\n      tag_30\n      jump\t// in\n    tag_78:\n      dup1\n      iszero\n      tag_79\n      jumpi\n      dup1\n      0x1f\n      lt\n      tag_80\n      jumpi\n      0x0100\n      dup1\n      dup4\n      sload\n      div\n      mul\n      dup4\n      mstore\n      swap2\n      0x20\n      add\n      swap2\n      jump(tag_79)\n    tag_80:\n      dup3\n      add\n      swap2\n      swap1\n      0x00\n      mstore\n      keccak256(0x00, 0x20)\n      swap1\n    tag_81:\n      dup2\n      sload\n      dup2\n      mstore\n      swap1\n      0x01\n      add\n      swap1\n      0x20\n      add\n      dup1\n      dup4\n      gt\n      tag_81\n      jumpi\n      dup3\n      swap1\n      sub\n      0x1f\n      and\n      dup3\n      add\n      swap2\n    tag_79:\n      pop\n      pop\n      pop\n      pop\n      pop\n      swap1\n      dup1\n      0x03\n      add\n      dup1\n      sload\n      tag_82\n      swap1\n      tag_30\n      jump\t// in\n    tag_82:\n      dup1\n      0x1f\n      add\n      0x20\n      dup1\n      swap2\n      div\n      mul\n      0x20\n      add\n      mload(0x40)\n      swap1\n      dup2\n      add\n      0x40\n      mstore\n      dup1\n      swap3\n      swap2\n      swap1\n      dup2\n      dup2\n      mstore\n      0x20\n      add\n      dup3\n      dup1\n      sload\n      tag_83\n      swap1\n      tag_30\n      jump\t// in\n    tag_83:\n      dup1\n      iszero\n      tag_84\n      jumpi\n      dup1\n      0x1f\n      lt\n      tag_85\n      jumpi\n      0x0100\n      dup1\n      dup4\n      sload\n      div\n      mul\n      dup4\n      mstore\n      swap2\n      0x20\n      add\n      swap2\n      jump(tag_84)\n    tag_85:\n      dup3\n      add\n      swap2\n      swap1\n      0x00\n      mstore\n      keccak256(0x00, 0x20)\n      swap1\n    tag_86:\n      dup2\n      sload\n      dup2\n      mstore\n      swap1\n      0x01\n      add\n      swap1\n      0x20\n      add\n      dup1\n      dup4\n      gt\n      tag_86\n      jumpi\n      dup3\n      swap1\n      sub\n      0x1f\n      and\n      dup3\n      add\n      swap2\n    tag_84:\n      pop\n      pop\n      pop\n      pop\n      pop\n      swap1\n      dup1\n      0x04\n      add\n      dup1\n      sload\n      tag_87\n      swap1\n      tag_30\n      jump\t// in\n    tag_87:\n      dup1\n      0x1f\n      add\n      0x20\n      dup1\n      swap2\n      div\n      mul\n      0x20\n      add\n      mload(0x40)\n      swap1\n      dup2\n      add\n      0x40\n      mstore\n      dup1\n      swap3\n      swap2\n      swap1\n      dup2\n      dup2\n      mstore\n      0x20\n      add\n      dup3\n      dup1\n      sload\n      tag_88\n      swap1\n      tag_30\n      jump\t// in\n    tag_88:\n      dup1\n      iszero\n      tag_89\n      jumpi\n      dup1\n      0x1f\n      lt\n      tag_90\n      jumpi\n      0x0100\n      dup1\n      dup4\n      sload\n      div\n      mul\n      dup4\n      mstore\n      swap2\n      0x20\n      add\n      swap2\n      jump(tag_89)\n    tag_90:\n      dup3\n      add\n      swap2\n      swap1\n      0x00\n      mstore\n      keccak256(0x00, 0x20)\n      swap1\n    tag_91:\n      dup2\n      sload\n      dup2\n      mstore\n      swap1\n      0x01\n      add\n      swap1\n      0x20\n      add\n      dup1\n      dup4\n      gt\n      tag_91\n      jumpi\n      dup3\n      swap1\n      sub\n      0x1f\n      and\n      dup3\n      add\n      swap2\n    tag_89:\n      pop\n      pop\n      pop\n      pop\n      pop\n      swap1\n      pop\n      dup6\n      jump\t// out\n    tag_21:\n      mload(0x40)\n      dup1\n      0xa0\n      add\n      0x40\n      mstore\n      dup1\n      0x60\n      dup2\n      mstore\n      0x20\n      add\n      0x60\n      dup2\n      mstore\n      0x20\n      add\n      0x60\n      dup2\n      mstore\n      0x20\n      add\n      0x60\n      dup2\n      mstore\n      0x20\n      add\n      0x60\n      dup2\n      mstore\n      pop\n      swap1\n      jump\t// out\n        /* \"#utility.yul\":7:106   */\n    tag_92:\n        /* \"#utility.yul\":59:65   */\n      0x00\n        /* \"#utility.yul\":93:98   */\n      dup2\n        /* \"#utility.yul\":87:99   */\n      mload\n        /* \"#utility.yul\":77:99   */\n      swap1\n      pop\n        /* \"#utility.yul\":7:106   */\n      swap2\n      swap1\n      pop\n      jump\t// out\n        /* \"#utility.yul\":112:271   */\n    tag_93:\n        /* \"#utility.yul\":186:197   */\n      0x00\n        /* \"#utility.yul\":220:226   */\n      dup3\n        /* \"#utility.yul\":215:218   */\n      dup3\n        /* \"#utility.yul\":208:227   */\n      mstore\n        /* \"#utility.yul\":260:264   */\n      0x20\n        /* \"#utility.yul\":255:258   */\n      dup3\n        /* \"#utility.yul\":251:265   */\n      add\n        /* \"#utility.yul\":236:265   */\n      swap1\n      pop\n        /* \"#utility.yul\":112:271   */\n      swap3\n      swap2\n      pop\n      pop\n      jump\t// out\n        /* \"#utility.yul\":277:523   */\n    tag_94:\n        /* \"#utility.yul\":358:359   */\n      0x00\n        /* \"#utility.yul\":368:481   */\n    tag_146:\n        /* \"#utility.yul\":382:388   */\n      dup4\n        /* \"#utility.yul\":379:380   */\n      dup2\n        /* \"#utility.yul\":376:389   */\n      lt\n        /* \"#utility.yul\":368:481   */\n      iszero\n      tag_148\n      jumpi\n        /* \"#utility.yul\":467:468   */\n      dup1\n        /* \"#utility.yul\":462:465   */\n      dup3\n        /* \"#utility.yul\":458:469   */\n      add\n        /* \"#utility.yul\":452:470   */\n      mload\n        /* \"#utility.yul\":448:449   */\n      dup2\n        /* \"#utility.yul\":443:446   */\n      dup5\n        /* \"#utility.yul\":439:450   */\n      add\n        /* \"#utility.yul\":432:471   */\n      mstore\n        /* \"#utility.yul\":404:406   */\n      0x20\n        /* \"#utility.yul\":401:402   */\n      dup2\n        /* \"#utility.yul\":397:407   */\n      add\n        /* \"#utility.yul\":392:407   */\n      swap1\n      pop\n        /* \"#utility.yul\":368:481   */\n      jump(tag_146)\n    tag_148:\n        /* \"#utility.yul\":515:516   */\n      0x00\n        /* \"#utility.yul\":506:512   */\n      dup5\n        /* \"#utility.yul\":501:504   */\n      dup5\n        /* \"#utility.yul\":497:513   */\n      add\n        /* \"#utility.yul\":490:517   */\n      mstore\n        /* \"#utility.yul\":339:523   */\n      pop\n        /* \"#utility.yul\":277:523   */\n      pop\n      pop\n      pop\n      jump\t// out\n        /* \"#utility.yul\":529:631   */\n    tag_95:\n        /* \"#utility.yul\":570:576   */\n      0x00\n        /* \"#utility.yul\":621:623   */\n      0x1f\n        /* \"#utility.yul\":617:624   */\n      not\n        /* \"#utility.yul\":612:614   */\n      0x1f\n        /* \"#utility.yul\":605:610   */\n      dup4\n        /* \"#utility.yul\":601:615   */\n      add\n        /* \"#utility.yul\":597:625   */\n      and\n        /* \"#utility.yul\":587:625   */\n      swap1\n      pop\n        /* \"#utility.yul\":529:631   */\n      swap2\n      swap1\n      pop\n      jump\t// out\n        /* \"#utility.yul\":637:994   */\n    tag_96:\n        /* \"#utility.yul\":715:718   */\n      0x00\n        /* \"#utility.yul\":743:782   */\n      tag_151\n        /* \"#utility.yul\":776:781   */\n      dup3\n        /* \"#utility.yul\":743:782   */\n      tag_92\n      jump\t// in\n    tag_151:\n        /* \"#utility.yul\":798:859   */\n      tag_152\n        /* \"#utility.yul\":852:858   */\n      dup2\n        /* \"#utility.yul\":847:850   */\n      dup6\n        /* \"#utility.yul\":798:859   */\n      tag_93\n      jump\t// in\n    tag_152:\n        /* \"#utility.yul\":791:859   */\n      swap4\n      pop\n        /* \"#utility.yul\":868:933   */\n      tag_153\n        /* \"#utility.yul\":926:932   */\n      dup2\n        /* \"#utility.yul\":921:924   */\n      dup6\n        /* \"#utility.yul\":914:918   */\n      0x20\n        /* \"#utility.yul\":907:912   */\n      dup7\n        /* \"#utility.yul\":903:919   */\n      add\n        /* \"#utility.yul\":868:933   */\n      tag_94\n      jump\t// in\n    tag_153:\n        /* \"#utility.yul\":958:987   */\n      tag_154\n        /* \"#utility.yul\":980:986   */\n      dup2\n        /* \"#utility.yul\":958:987   */\n      tag_95\n      jump\t// in\n    tag_154:\n        /* \"#utility.yul\":953:956   */\n      dup5\n        /* \"#utility.yul\":949:988   */\n      add\n        /* \"#utility.yul\":942:988   */\n      swap2\n      pop\n        /* \"#utility.yul\":719:994   */\n      pop\n        /* \"#utility.yul\":637:994   */\n      swap3\n      swap2\n      pop\n      pop\n      jump\t// out\n        /* \"#utility.yul\":1000:1098   */\n    tag_97:\n        /* \"#utility.yul\":1051:1057   */\n      0x00\n        /* \"#utility.yul\":1085:1090   */\n      dup2\n        /* \"#utility.yul\":1079:1091   */\n      mload\n        /* \"#utility.yul\":1069:1091   */\n      swap1\n      pop\n        /* \"#utility.yul\":1000:1098   */\n      swap2\n      swap1\n      pop\n      jump\t// out\n        /* \"#utility.yul\":1104:1262   */\n    tag_98:\n        /* \"#utility.yul\":1177:1188   */\n      0x00\n        /* \"#utility.yul\":1211:1217   */\n      dup3\n        /* \"#utility.yul\":1206:1209   */\n      dup3\n        /* \"#utility.yul\":1199:1218   */\n      mstore\n        /* \"#utility.yul\":1251:1255   */\n      0x20\n        /* \"#utility.yul\":1246:1249   */\n      dup3\n        /* \"#utility.yul\":1242:1256   */\n      add\n        /* \"#utility.yul\":1227:1256   */\n      swap1\n      pop\n        /* \"#utility.yul\":1104:1262   */\n      swap3\n      swap2\n      pop\n      pop\n      jump\t// out\n        /* \"#utility.yul\":1268:1621   */\n    tag_99:\n        /* \"#utility.yul\":1344:1347   */\n      0x00\n        /* \"#utility.yul\":1372:1410   */\n      tag_158\n        /* \"#utility.yul\":1404:1409   */\n      dup3\n        /* \"#utility.yul\":1372:1410   */\n      tag_97\n      jump\t// in\n    tag_158:\n        /* \"#utility.yul\":1426:1486   */\n      tag_159\n        /* \"#utility.yul\":1479:1485   */\n      dup2\n        /* \"#utility.yul\":1474:1477   */\n      dup6\n        /* \"#utility.yul\":1426:1486   */\n      tag_98\n      jump\t// in\n    tag_159:\n        /* \"#utility.yul\":1419:1486   */\n      swap4\n      pop\n        /* \"#utility.yul\":1495:1560   */\n      tag_160\n        /* \"#utility.yul\":1553:1559   */\n      dup2\n        /* \"#utility.yul\":1548:1551   */\n      dup6\n        /* \"#utility.yul\":1541:1545   */\n      0x20\n        /* \"#utility.yul\":1534:1539   */\n      dup7\n        /* \"#utility.yul\":1530:1546   */\n      add\n        /* \"#utility.yul\":1495:1560   */\n      tag_94\n      jump\t// in\n    tag_160:\n        /* \"#utility.yul\":1585:1614   */\n      tag_161\n        /* \"#utility.yul\":1607:1613   */\n      dup2\n        /* \"#utility.yul\":1585:1614   */\n      tag_95\n      jump\t// in\n    tag_161:\n        /* \"#utility.yul\":1580:1583   */\n      dup5\n        /* \"#utility.yul\":1576:1615   */\n      add\n        /* \"#utility.yul\":1569:1615   */\n      swap2\n      pop\n        /* \"#utility.yul\":1348:1621   */\n      pop\n        /* \"#utility.yul\":1268:1621   */\n      swap3\n      swap2\n      pop\n      pop\n      jump\t// out\n        /* \"#utility.yul\":1667:3098   */\n    tag_100:\n        /* \"#utility.yul\":1782:1785   */\n      0x00\n        /* \"#utility.yul\":1818:1822   */\n      0xa0\n        /* \"#utility.yul\":1813:1816   */\n      dup4\n        /* \"#utility.yul\":1809:1823   */\n      add\n        /* \"#utility.yul\":1908:1912   */\n      0x00\n        /* \"#utility.yul\":1901:1906   */\n      dup4\n        /* \"#utility.yul\":1897:1913   */\n      add\n        /* \"#utility.yul\":1891:1914   */\n      mload\n        /* \"#utility.yul\":1961:1964   */\n      dup5\n        /* \"#utility.yul\":1955:1959   */\n      dup3\n        /* \"#utility.yul\":1951:1965   */\n      sub\n        /* \"#utility.yul\":1944:1948   */\n      0x00\n        /* \"#utility.yul\":1939:1942   */\n      dup7\n        /* \"#utility.yul\":1935:1949   */\n      add\n        /* \"#utility.yul\":1928:1966   */\n      mstore\n        /* \"#utility.yul\":1987:2060   */\n      tag_163\n        /* \"#utility.yul\":2055:2059   */\n      dup3\n        /* \"#utility.yul\":2041:2053   */\n      dup3\n        /* \"#utility.yul\":1987:2060   */\n      tag_96\n      jump\t// in\n    tag_163:\n        /* \"#utility.yul\":1979:2060   */\n      swap2\n      pop\n        /* \"#utility.yul\":1833:2071   */\n      pop\n        /* \"#utility.yul\":2159:2163   */\n      0x20\n        /* \"#utility.yul\":2152:2157   */\n      dup4\n        /* \"#utility.yul\":2148:2164   */\n      add\n        /* \"#utility.yul\":2142:2165   */\n      mload\n        /* \"#utility.yul\":2212:2215   */\n      dup5\n        /* \"#utility.yul\":2206:2210   */\n      dup3\n        /* \"#utility.yul\":2202:2216   */\n      sub\n        /* \"#utility.yul\":2195:2199   */\n      0x20\n        /* \"#utility.yul\":2190:2193   */\n      dup7\n        /* \"#utility.yul\":2186:2200   */\n      add\n        /* \"#utility.yul\":2179:2217   */\n      mstore\n        /* \"#utility.yul\":2238:2311   */\n      tag_164\n        /* \"#utility.yul\":2306:2310   */\n      dup3\n        /* \"#utility.yul\":2292:2304   */\n      dup3\n        /* \"#utility.yul\":2238:2311   */\n      tag_96\n      jump\t// in\n    tag_164:\n        /* \"#utility.yul\":2230:2311   */\n      swap2\n      pop\n        /* \"#utility.yul\":2081:2322   */\n      pop\n        /* \"#utility.yul\":2414:2418   */\n      0x40\n        /* \"#utility.yul\":2407:2412   */\n      dup4\n        /* \"#utility.yul\":2403:2419   */\n      add\n        /* \"#utility.yul\":2397:2420   */\n      mload\n        /* \"#utility.yul\":2467:2470   */\n      dup5\n        /* \"#utility.yul\":2461:2465   */\n      dup3\n        /* \"#utility.yul\":2457:2471   */\n      sub\n        /* \"#utility.yul\":2450:2454   */\n      0x40\n        /* \"#utility.yul\":2445:2448   */\n      dup7\n        /* \"#utility.yul\":2441:2455   */\n      add\n        /* \"#utility.yul\":2434:2472   */\n      mstore\n        /* \"#utility.yul\":2493:2566   */\n      tag_165\n        /* \"#utility.yul\":2561:2565   */\n      dup3\n        /* \"#utility.yul\":2547:2559   */\n      dup3\n        /* \"#utility.yul\":2493:2566   */\n      tag_96\n      jump\t// in\n    tag_165:\n        /* \"#utility.yul\":2485:2566   */\n      swap2\n      pop\n        /* \"#utility.yul\":2332:2577   */\n      pop\n        /* \"#utility.yul\":2664:2668   */\n      0x60\n        /* \"#utility.yul\":2657:2662   */\n      dup4\n        /* \"#utility.yul\":2653:2669   */\n      add\n        /* \"#utility.yul\":2647:2670   */\n      mload\n        /* \"#utility.yul\":2717:2720   */\n      dup5\n        /* \"#utility.yul\":2711:2715   */\n      dup3\n        /* \"#utility.yul\":2707:2721   */\n      sub\n        /* \"#utility.yul\":2700:2704   */\n      0x60\n        /* \"#utility.yul\":2695:2698   */\n      dup7\n        /* \"#utility.yul\":2691:2705   */\n      add\n        /* \"#utility.yul\":2684:2722   */\n      mstore\n        /* \"#utility.yul\":2743:2816   */\n      tag_166\n        /* \"#utility.yul\":2811:2815   */\n      dup3\n        /* \"#utility.yul\":2797:2809   */\n      dup3\n        /* \"#utility.yul\":2743:2816   */\n      tag_96\n      jump\t// in\n    tag_166:\n        /* \"#utility.yul\":2735:2816   */\n      swap2\n      pop\n        /* \"#utility.yul\":2587:2827   */\n      pop\n        /* \"#utility.yul\":2910:2914   */\n      0x80\n        /* \"#utility.yul\":2903:2908   */\n      dup4\n        /* \"#utility.yul\":2899:2915   */\n      add\n        /* \"#utility.yul\":2893:2916   */\n      mload\n        /* \"#utility.yul\":2963:2966   */\n      dup5\n        /* \"#utility.yul\":2957:2961   */\n      dup3\n        /* \"#utility.yul\":2953:2967   */\n      sub\n        /* \"#utility.yul\":2946:2950   */\n      0x80\n        /* \"#utility.yul\":2941:2944   */\n      dup7\n        /* \"#utility.yul\":2937:2951   */\n      add\n        /* \"#utility.yul\":2930:2968   */\n      mstore\n        /* \"#utility.yul\":2989:3060   */\n      tag_167\n        /* \"#utility.yul\":3055:3059   */\n      dup3\n        /* \"#utility.yul\":3041:3053   */\n      dup3\n        /* \"#utility.yul\":2989:3060   */\n      tag_99\n      jump\t// in\n    tag_167:\n        /* \"#utility.yul\":2981:3060   */\n      swap2\n      pop\n        /* \"#utility.yul\":2837:3071   */\n      pop\n        /* \"#utility.yul\":3088:3092   */\n      dup1\n        /* \"#utility.yul\":3081:3092   */\n      swap2\n      pop\n        /* \"#utility.yul\":1787:3098   */\n      pop\n        /* \"#utility.yul\":1667:3098   */\n      swap3\n      swap2\n      pop\n      pop\n      jump\t// out\n        /* \"#utility.yul\":3104:3469   */\n    tag_9:\n        /* \"#utility.yul\":3243:3247   */\n      0x00\n        /* \"#utility.yul\":3281:3283   */\n      0x20\n        /* \"#utility.yul\":3270:3279   */\n      dup3\n        /* \"#utility.yul\":3266:3284   */\n      add\n        /* \"#utility.yul\":3258:3284   */\n      swap1\n      pop\n        /* \"#utility.yul\":3330:3339   */\n      dup2\n        /* \"#utility.yul\":3324:3328   */\n      dup2\n        /* \"#utility.yul\":3320:3340   */\n      sub\n        /* \"#utility.yul\":3316:3317   */\n      0x00\n        /* \"#utility.yul\":3305:3314   */\n      dup4\n        /* \"#utility.yul\":3301:3318   */\n      add\n        /* \"#utility.yul\":3294:3341   */\n      mstore\n        /* \"#utility.yul\":3358:3462   */\n      tag_169\n        /* \"#utility.yul\":3457:3461   */\n      dup2\n        /* \"#utility.yul\":3448:3454   */\n      dup5\n        /* \"#utility.yul\":3358:3462   */\n      tag_100\n      jump\t// in\n    tag_169:\n        /* \"#utility.yul\":3350:3462   */\n      swap1\n      pop\n        /* \"#utility.yul\":3104:3469   */\n      swap3\n      swap2\n      pop\n      pop\n      jump\t// out\n        /* \"#utility.yul\":3475:3550   */\n    tag_101:\n        /* \"#utility.yul\":3508:3514   */\n      0x00\n        /* \"#utility.yul\":3541:3543   */\n      0x40\n        /* \"#utility.yul\":3535:3544   */\n      mload\n        /* \"#utility.yul\":3525:3544   */\n      swap1\n      pop\n        /* \"#utility.yul\":3475:3550   */\n      swap1\n      jump\t// out\n        /* \"#utility.yul\":3556:3673   */\n    tag_102:\n        /* \"#utility.yul\":3665:3666   */\n      0x00\n        /* \"#utility.yul\":3662:3663   */\n      dup1\n        /* \"#utility.yul\":3655:3667   */\n      revert\n        /* \"#utility.yul\":3679:3796   */\n    tag_103:\n        /* \"#utility.yul\":3788:3789   */\n      0x00\n        /* \"#utility.yul\":3785:3786   */\n      dup1\n        /* \"#utility.yul\":3778:3790   */\n      revert\n        /* \"#utility.yul\":3802:3919   */\n    tag_104:\n        /* \"#utility.yul\":3911:3912   */\n      0x00\n        /* \"#utility.yul\":3908:3909   */\n      dup1\n        /* \"#utility.yul\":3901:3913   */\n      revert\n        /* \"#utility.yul\":3925:4042   */\n    tag_105:\n        /* \"#utility.yul\":4034:4035   */\n      0x00\n        /* \"#utility.yul\":4031:4032   */\n      dup1\n        /* \"#utility.yul\":4024:4036   */\n      revert\n        /* \"#utility.yul\":4048:4228   */\n    tag_106:\n        /* \"#utility.yul\":4096:4173   */\n      0x4e487b7100000000000000000000000000000000000000000000000000000000\n        /* \"#utility.yul\":4093:4094   */\n      0x00\n        /* \"#utility.yul\":4086:4174   */\n      mstore\n        /* \"#utility.yul\":4193:4197   */\n      0x41\n        /* \"#utility.yul\":4190:4191   */\n      0x04\n        /* \"#utility.yul\":4183:4198   */\n      mstore\n        /* \"#utility.yul\":4217:4221   */\n      0x24\n        /* \"#utility.yul\":4214:4215   */\n      0x00\n        /* \"#utility.yul\":4207:4222   */\n      revert\n        /* \"#utility.yul\":4234:4515   */\n    tag_107:\n        /* \"#utility.yul\":4317:4344   */\n      tag_177\n        /* \"#utility.yul\":4339:4343   */\n      dup3\n        /* \"#utility.yul\":4317:4344   */\n      tag_95\n      jump\t// in\n    tag_177:\n        /* \"#utility.yul\":4309:4315   */\n      dup2\n        /* \"#utility.yul\":4305:4345   */\n      add\n        /* \"#utility.yul\":4447:4453   */\n      dup2\n        /* \"#utility.yul\":4435:4445   */\n      dup2\n        /* \"#utility.yul\":4432:4454   */\n      lt\n        /* \"#utility.yul\":4411:4429   */\n      0xffffffffffffffff\n        /* \"#utility.yul\":4399:4409   */\n      dup3\n        /* \"#utility.yul\":4396:4430   */\n      gt\n        /* \"#utility.yul\":4393:4455   */\n      or\n        /* \"#utility.yul\":4390:4478   */\n      iszero\n      tag_178\n      jumpi\n        /* \"#utility.yul\":4458:4476   */\n      tag_179\n      tag_106\n      jump\t// in\n    tag_179:\n        /* \"#utility.yul\":4390:4478   */\n    tag_178:\n        /* \"#utility.yul\":4498:4508   */\n      dup1\n        /* \"#utility.yul\":4494:4496   */\n      0x40\n        /* \"#utility.yul\":4487:4509   */\n      mstore\n        /* \"#utility.yul\":4277:4515   */\n      pop\n        /* \"#utility.yul\":4234:4515   */\n      pop\n      pop\n      jump\t// out\n        /* \"#utility.yul\":4521:4650   */\n    tag_108:\n        /* \"#utility.yul\":4555:4561   */\n      0x00\n        /* \"#utility.yul\":4582:4602   */\n      tag_181\n      tag_101\n      jump\t// in\n    tag_181:\n        /* \"#utility.yul\":4572:4602   */\n      swap1\n      pop\n        /* \"#utility.yul\":4611:4644   */\n      tag_182\n        /* \"#utility.yul\":4639:4643   */\n      dup3\n        /* \"#utility.yul\":4631:4637   */\n      dup3\n        /* \"#utility.yul\":4611:4644   */\n      tag_107\n      jump\t// in\n    tag_182:\n        /* \"#utility.yul\":4521:4650   */\n      swap2\n      swap1\n      pop\n      jump\t// out\n        /* \"#utility.yul\":4656:4964   */\n    tag_109:\n        /* \"#utility.yul\":4718:4722   */\n      0x00\n        /* \"#utility.yul\":4808:4826   */\n      0xffffffffffffffff\n        /* \"#utility.yul\":4800:4806   */\n      dup3\n        /* \"#utility.yul\":4797:4827   */\n      gt\n        /* \"#utility.yul\":4794:4850   */\n      iszero\n      tag_184\n      jumpi\n        /* \"#utility.yul\":4830:4848   */\n      tag_185\n      tag_106\n      jump\t// in\n    tag_185:\n        /* \"#utility.yul\":4794:4850   */\n    tag_184:\n        /* \"#utility.yul\":4868:4897   */\n      tag_186\n        /* \"#utility.yul\":4890:4896   */\n      dup3\n        /* \"#utility.yul\":4868:4897   */\n      tag_95\n      jump\t// in\n    tag_186:\n        /* \"#utility.yul\":4860:4897   */\n      swap1\n      pop\n        /* \"#utility.yul\":4952:4956   */\n      0x20\n        /* \"#utility.yul\":4946:4950   */\n      dup2\n        /* \"#utility.yul\":4942:4957   */\n      add\n        /* \"#utility.yul\":4934:4957   */\n      swap1\n      pop\n        /* \"#utility.yul\":4656:4964   */\n      swap2\n      swap1\n      pop\n      jump\t// out\n        /* \"#utility.yul\":4970:5116   */\n    tag_110:\n        /* \"#utility.yul\":5067:5073   */\n      dup3\n        /* \"#utility.yul\":5062:5065   */\n      dup2\n        /* \"#utility.yul\":5057:5060   */\n      dup4\n        /* \"#utility.yul\":5044:5074   */\n      calldatacopy\n        /* \"#utility.yul\":5108:5109   */\n      0x00\n        /* \"#utility.yul\":5099:5105   */\n      dup4\n        /* \"#utility.yul\":5094:5097   */\n      dup4\n        /* \"#utility.yul\":5090:5106   */\n      add\n        /* \"#utility.yul\":5083:5110   */\n      mstore\n        /* \"#utility.yul\":4970:5116   */\n      pop\n      pop\n      pop\n      jump\t// out\n        /* \"#utility.yul\":5122:5547   */\n    tag_111:\n        /* \"#utility.yul\":5200:5205   */\n      0x00\n        /* \"#utility.yul\":5225:5291   */\n      tag_189\n        /* \"#utility.yul\":5241:5290   */\n      tag_190\n        /* \"#utility.yul\":5283:5289   */\n      dup5\n        /* \"#utility.yul\":5241:5290   */\n      tag_109\n      jump\t// in\n    tag_190:\n        /* \"#utility.yul\":5225:5291   */\n      tag_108\n      jump\t// in\n    tag_189:\n        /* \"#utility.yul\":5216:5291   */\n      swap1\n      pop\n        /* \"#utility.yul\":5314:5320   */\n      dup3\n        /* \"#utility.yul\":5307:5312   */\n      dup2\n        /* \"#utility.yul\":5300:5321   */\n      mstore\n        /* \"#utility.yul\":5352:5356   */\n      0x20\n        /* \"#utility.yul\":5345:5350   */\n      dup2\n        /* \"#utility.yul\":5341:5357   */\n      add\n        /* \"#utility.yul\":5390:5393   */\n      dup5\n        /* \"#utility.yul\":5381:5387   */\n      dup5\n        /* \"#utility.yul\":5376:5379   */\n      dup5\n        /* \"#utility.yul\":5372:5388   */\n      add\n        /* \"#utility.yul\":5369:5394   */\n      gt\n        /* \"#utility.yul\":5366:5478   */\n      iszero\n      tag_191\n      jumpi\n        /* \"#utility.yul\":5397:5476   */\n      tag_192\n      tag_105\n      jump\t// in\n    tag_192:\n        /* \"#utility.yul\":5366:5478   */\n    tag_191:\n        /* \"#utility.yul\":5487:5541   */\n      tag_193\n        /* \"#utility.yul\":5534:5540   */\n      dup5\n        /* \"#utility.yul\":5529:5532   */\n      dup3\n        /* \"#utility.yul\":5524:5527   */\n      dup6\n        /* \"#utility.yul\":5487:5541   */\n      tag_110\n      jump\t// in\n    tag_193:\n        /* \"#utility.yul\":5206:5547   */\n      pop\n        /* \"#utility.yul\":5122:5547   */\n      swap4\n      swap3\n      pop\n      pop\n      pop\n      jump\t// out\n        /* \"#utility.yul\":5567:5907   */\n    tag_112:\n        /* \"#utility.yul\":5623:5628   */\n      0x00\n        /* \"#utility.yul\":5672:5675   */\n      dup3\n        /* \"#utility.yul\":5665:5669   */\n      0x1f\n        /* \"#utility.yul\":5657:5663   */\n      dup4\n        /* \"#utility.yul\":5653:5670   */\n      add\n        /* \"#utility.yul\":5649:5676   */\n      slt\n        /* \"#utility.yul\":5639:5761   */\n      tag_195\n      jumpi\n        /* \"#utility.yul\":5680:5759   */\n      tag_196\n      tag_104\n      jump\t// in\n    tag_196:\n        /* \"#utility.yul\":5639:5761   */\n    tag_195:\n        /* \"#utility.yul\":5797:5803   */\n      dup2\n        /* \"#utility.yul\":5784:5804   */\n      calldataload\n        /* \"#utility.yul\":5822:5901   */\n      tag_197\n        /* \"#utility.yul\":5897:5900   */\n      dup5\n        /* \"#utility.yul\":5889:5895   */\n      dup3\n        /* \"#utility.yul\":5882:5886   */\n      0x20\n        /* \"#utility.yul\":5874:5880   */\n      dup7\n        /* \"#utility.yul\":5870:5887   */\n      add\n        /* \"#utility.yul\":5822:5901   */\n      tag_111\n      jump\t// in\n    tag_197:\n        /* \"#utility.yul\":5813:5901   */\n      swap2\n      pop\n        /* \"#utility.yul\":5629:5907   */\n      pop\n        /* \"#utility.yul\":5567:5907   */\n      swap3\n      swap2\n      pop\n      pop\n      jump\t// out\n        /* \"#utility.yul\":5913:6220   */\n    tag_113:\n        /* \"#utility.yul\":5974:5978   */\n      0x00\n        /* \"#utility.yul\":6064:6082   */\n      0xffffffffffffffff\n        /* \"#utility.yul\":6056:6062   */\n      dup3\n        /* \"#utility.yul\":6053:6083   */\n      gt\n        /* \"#utility.yul\":6050:6106   */\n      iszero\n      tag_199\n      jumpi\n        /* \"#utility.yul\":6086:6104   */\n      tag_200\n      tag_106\n      jump\t// in\n    tag_200:\n        /* \"#utility.yul\":6050:6106   */\n    tag_199:\n        /* \"#utility.yul\":6124:6153   */\n      tag_201\n        /* \"#utility.yul\":6146:6152   */\n      dup3\n        /* \"#utility.yul\":6124:6153   */\n      tag_95\n      jump\t// in\n    tag_201:\n        /* \"#utility.yul\":6116:6153   */\n      swap1\n      pop\n        /* \"#utility.yul\":6208:6212   */\n      0x20\n        /* \"#utility.yul\":6202:6206   */\n      dup2\n        /* \"#utility.yul\":6198:6213   */\n      add\n        /* \"#utility.yul\":6190:6213   */\n      swap1\n      pop\n        /* \"#utility.yul\":5913:6220   */\n      swap2\n      swap1\n      pop\n      jump\t// out\n        /* \"#utility.yul\":6226:6649   */\n    tag_114:\n        /* \"#utility.yul\":6303:6308   */\n      0x00\n        /* \"#utility.yul\":6328:6393   */\n      tag_203\n        /* \"#utility.yul\":6344:6392   */\n      tag_204\n        /* \"#utility.yul\":6385:6391   */\n      dup5\n        /* \"#utility.yul\":6344:6392   */\n      tag_113\n      jump\t// in\n    tag_204:\n        /* \"#utility.yul\":6328:6393   */\n      tag_108\n      jump\t// in\n    tag_203:\n        /* \"#utility.yul\":6319:6393   */\n      swap1\n      pop\n        /* \"#utility.yul\":6416:6422   */\n      dup3\n        /* \"#utility.yul\":6409:6414   */\n      dup2\n        /* \"#utility.yul\":6402:6423   */\n      mstore\n        /* \"#utility.yul\":6454:6458   */\n      0x20\n        /* \"#utility.yul\":6447:6452   */\n      dup2\n        /* \"#utility.yul\":6443:6459   */\n      add\n        /* \"#utility.yul\":6492:6495   */\n      dup5\n        /* \"#utility.yul\":6483:6489   */\n      dup5\n        /* \"#utility.yul\":6478:6481   */\n      dup5\n        /* \"#utility.yul\":6474:6490   */\n      add\n        /* \"#utility.yul\":6471:6496   */\n      gt\n        /* \"#utility.yul\":6468:6580   */\n      iszero\n      tag_205\n      jumpi\n        /* \"#utility.yul\":6499:6578   */\n      tag_206\n      tag_105\n      jump\t// in\n    tag_206:\n        /* \"#utility.yul\":6468:6580   */\n    tag_205:\n        /* \"#utility.yul\":6589:6643   */\n      tag_207\n        /* \"#utility.yul\":6636:6642   */\n      dup5\n        /* \"#utility.yul\":6631:6634   */\n      dup3\n        /* \"#utility.yul\":6626:6629   */\n      dup6\n        /* \"#utility.yul\":6589:6643   */\n      tag_110\n      jump\t// in\n    tag_207:\n        /* \"#utility.yul\":6309:6649   */\n      pop\n        /* \"#utility.yul\":6226:6649   */\n      swap4\n      swap3\n      pop\n      pop\n      pop\n      jump\t// out\n        /* \"#utility.yul\":6668:7006   */\n    tag_115:\n        /* \"#utility.yul\":6723:6728   */\n      0x00\n        /* \"#utility.yul\":6772:6775   */\n      dup3\n        /* \"#utility.yul\":6765:6769   */\n      0x1f\n        /* \"#utility.yul\":6757:6763   */\n      dup4\n        /* \"#utility.yul\":6753:6770   */\n      add\n        /* \"#utility.yul\":6749:6776   */\n      slt\n        /* \"#utility.yul\":6739:6861   */\n      tag_209\n      jumpi\n        /* \"#utility.yul\":6780:6859   */\n      tag_210\n      tag_104\n      jump\t// in\n    tag_210:\n        /* \"#utility.yul\":6739:6861   */\n    tag_209:\n        /* \"#utility.yul\":6897:6903   */\n      dup2\n        /* \"#utility.yul\":6884:6904   */\n      calldataload\n        /* \"#utility.yul\":6922:7000   */\n      tag_211\n        /* \"#utility.yul\":6996:6999   */\n      dup5\n        /* \"#utility.yul\":6988:6994   */\n      dup3\n        /* \"#utility.yul\":6981:6985   */\n      0x20\n        /* \"#utility.yul\":6973:6979   */\n      dup7\n        /* \"#utility.yul\":6969:6986   */\n      add\n        /* \"#utility.yul\":6922:7000   */\n      tag_114\n      jump\t// in\n    tag_211:\n        /* \"#utility.yul\":6913:7000   */\n      swap2\n      pop\n        /* \"#utility.yul\":6729:7006   */\n      pop\n        /* \"#utility.yul\":6668:7006   */\n      swap3\n      swap2\n      pop\n      pop\n      jump\t// out\n        /* \"#utility.yul\":7012:8821   */\n    tag_12:\n        /* \"#utility.yul\":7156:7162   */\n      0x00\n        /* \"#utility.yul\":7164:7170   */\n      dup1\n        /* \"#utility.yul\":7172:7178   */\n      0x00\n        /* \"#utility.yul\":7180:7186   */\n      dup1\n        /* \"#utility.yul\":7188:7194   */\n      0x00\n        /* \"#utility.yul\":7237:7240   */\n      0xa0\n        /* \"#utility.yul\":7225:7234   */\n      dup7\n        /* \"#utility.yul\":7216:7223   */\n      dup9\n        /* \"#utility.yul\":7212:7235   */\n      sub\n        /* \"#utility.yul\":7208:7241   */\n      slt\n        /* \"#utility.yul\":7205:7325   */\n      iszero\n      tag_213\n      jumpi\n        /* \"#utility.yul\":7244:7323   */\n      tag_214\n      tag_102\n      jump\t// in\n    tag_214:\n        /* \"#utility.yul\":7205:7325   */\n    tag_213:\n        /* \"#utility.yul\":7392:7393   */\n      0x00\n        /* \"#utility.yul\":7381:7390   */\n      dup7\n        /* \"#utility.yul\":7377:7394   */\n      add\n        /* \"#utility.yul\":7364:7395   */\n      calldataload\n        /* \"#utility.yul\":7422:7440   */\n      0xffffffffffffffff\n        /* \"#utility.yul\":7414:7420   */\n      dup2\n        /* \"#utility.yul\":7411:7441   */\n      gt\n        /* \"#utility.yul\":7408:7525   */\n      iszero\n      tag_215\n      jumpi\n        /* \"#utility.yul\":7444:7523   */\n      tag_216\n      tag_103\n      jump\t// in\n    tag_216:\n        /* \"#utility.yul\":7408:7525   */\n    tag_215:\n        /* \"#utility.yul\":7549:7612   */\n      tag_217\n        /* \"#utility.yul\":7604:7611   */\n      dup9\n        /* \"#utility.yul\":7595:7601   */\n      dup3\n        /* \"#utility.yul\":7584:7593   */\n      dup10\n        /* \"#utility.yul\":7580:7602   */\n      add\n        /* \"#utility.yul\":7549:7612   */\n      tag_112\n      jump\t// in\n    tag_217:\n        /* \"#utility.yul\":7539:7612   */\n      swap6\n      pop\n        /* \"#utility.yul\":7335:7622   */\n      pop\n        /* \"#utility.yul\":7689:7691   */\n      0x20\n        /* \"#utility.yul\":7678:7687   */\n      dup7\n        /* \"#utility.yul\":7674:7692   */\n      add\n        /* \"#utility.yul\":7661:7693   */\n      calldataload\n        /* \"#utility.yul\":7720:7738   */\n      0xffffffffffffffff\n        /* \"#utility.yul\":7712:7718   */\n      dup2\n        /* \"#utility.yul\":7709:7739   */\n      gt\n        /* \"#utility.yul\":7706:7823   */\n      iszero\n      tag_218\n      jumpi\n        /* \"#utility.yul\":7742:7821   */\n      tag_219\n      tag_103\n      jump\t// in\n    tag_219:\n        /* \"#utility.yul\":7706:7823   */\n    tag_218:\n        /* \"#utility.yul\":7847:7910   */\n      tag_220\n        /* \"#utility.yul\":7902:7909   */\n      dup9\n        /* \"#utility.yul\":7893:7899   */\n      dup3\n        /* \"#utility.yul\":7882:7891   */\n      dup10\n        /* \"#utility.yul\":7878:7900   */\n      add\n        /* \"#utility.yul\":7847:7910   */\n      tag_112\n      jump\t// in\n    tag_220:\n        /* \"#utility.yul\":7837:7910   */\n      swap5\n      pop\n        /* \"#utility.yul\":7632:7920   */\n      pop\n        /* \"#utility.yul\":7987:7989   */\n      0x40\n        /* \"#utility.yul\":7976:7985   */\n      dup7\n        /* \"#utility.yul\":7972:7990   */\n      add\n        /* \"#utility.yul\":7959:7991   */\n      calldataload\n        /* \"#utility.yul\":8018:8036   */\n      0xffffffffffffffff\n        /* \"#utility.yul\":8010:8016   */\n      dup2\n        /* \"#utility.yul\":8007:8037   */\n      gt\n        /* \"#utility.yul\":8004:8121   */\n      iszero\n      tag_221\n      jumpi\n        /* \"#utility.yul\":8040:8119   */\n      tag_222\n      tag_103\n      jump\t// in\n    tag_222:\n        /* \"#utility.yul\":8004:8121   */\n    tag_221:\n        /* \"#utility.yul\":8145:8208   */\n      tag_223\n        /* \"#utility.yul\":8200:8207   */\n      dup9\n        /* \"#utility.yul\":8191:8197   */\n      dup3\n        /* \"#utility.yul\":8180:8189   */\n      dup10\n        /* \"#utility.yul\":8176:8198   */\n      add\n        /* \"#utility.yul\":8145:8208   */\n      tag_112\n      jump\t// in\n    tag_223:\n        /* \"#utility.yul\":8135:8208   */\n      swap4\n      pop\n        /* \"#utility.yul\":7930:8218   */\n      pop\n        /* \"#utility.yul\":8285:8287   */\n      0x60\n        /* \"#utility.yul\":8274:8283   */\n      dup7\n        /* \"#utility.yul\":8270:8288   */\n      add\n        /* \"#utility.yul\":8257:8289   */\n      calldataload\n        /* \"#utility.yul\":8316:8334   */\n      0xffffffffffffffff\n        /* \"#utility.yul\":8308:8314   */\n      dup2\n        /* \"#utility.yul\":8305:8335   */\n      gt\n        /* \"#utility.yul\":8302:8419   */\n      iszero\n      tag_224\n      jumpi\n        /* \"#utility.yul\":8338:8417   */\n      tag_225\n      tag_103\n      jump\t// in\n    tag_225:\n        /* \"#utility.yul\":8302:8419   */\n    tag_224:\n        /* \"#utility.yul\":8443:8506   */\n      tag_226\n        /* \"#utility.yul\":8498:8505   */\n      dup9\n        /* \"#utility.yul\":8489:8495   */\n      dup3\n        /* \"#utility.yul\":8478:8487   */\n      dup10\n        /* \"#utility.yul\":8474:8496   */\n      add\n        /* \"#utility.yul\":8443:8506   */\n      tag_112\n      jump\t// in\n    tag_226:\n        /* \"#utility.yul\":8433:8506   */\n      swap3\n      pop\n        /* \"#utility.yul\":8228:8516   */\n      pop\n        /* \"#utility.yul\":8583:8586   */\n      0x80\n        /* \"#utility.yul\":8572:8581   */\n      dup7\n        /* \"#utility.yul\":8568:8587   */\n      add\n        /* \"#utility.yul\":8555:8588   */\n      calldataload\n        /* \"#utility.yul\":8615:8633   */\n      0xffffffffffffffff\n        /* \"#utility.yul\":8607:8613   */\n      dup2\n        /* \"#utility.yul\":8604:8634   */\n      gt\n        /* \"#utility.yul\":8601:8718   */\n      iszero\n      tag_227\n      jumpi\n        /* \"#utility.yul\":8637:8716   */\n      tag_228\n      tag_103\n      jump\t// in\n    tag_228:\n        /* \"#utility.yul\":8601:8718   */\n    tag_227:\n        /* \"#utility.yul\":8742:8804   */\n      tag_229\n        /* \"#utility.yul\":8796:8803   */\n      dup9\n        /* \"#utility.yul\":8787:8793   */\n      dup3\n        /* \"#utility.yul\":8776:8785   */\n      dup10\n        /* \"#utility.yul\":8772:8794   */\n      add\n        /* \"#utility.yul\":8742:8804   */\n      tag_115\n      jump\t// in\n    tag_229:\n        /* \"#utility.yul\":8732:8804   */\n      swap2\n      pop\n        /* \"#utility.yul\":8526:8814   */\n      pop\n        /* \"#utility.yul\":7012:8821   */\n      swap3\n      swap6\n      pop\n      swap3\n      swap6\n      swap1\n      swap4\n      pop\n      jump\t// out\n        /* \"#utility.yul\":8827:8904   */\n    tag_116:\n        /* \"#utility.yul\":8864:8871   */\n      0x00\n        /* \"#utility.yul\":8893:8898   */\n      dup2\n        /* \"#utility.yul\":8882:8898   */\n      swap1\n      pop\n        /* \"#utility.yul\":8827:8904   */\n      swap2\n      swap1\n      pop\n      jump\t// out\n        /* \"#utility.yul\":8910:9032   */\n    tag_117:\n        /* \"#utility.yul\":8983:9007   */\n      tag_232\n        /* \"#utility.yul\":9001:9006   */\n      dup2\n        /* \"#utility.yul\":8983:9007   */\n      tag_116\n      jump\t// in\n    tag_232:\n        /* \"#utility.yul\":8976:8981   */\n      dup2\n        /* \"#utility.yul\":8973:9008   */\n      eq\n        /* \"#utility.yul\":8963:9026   */\n      tag_233\n      jumpi\n        /* \"#utility.yul\":9022:9023   */\n      0x00\n        /* \"#utility.yul\":9019:9020   */\n      dup1\n        /* \"#utility.yul\":9012:9024   */\n      revert\n        /* \"#utility.yul\":8963:9026   */\n    tag_233:\n        /* \"#utility.yul\":8910:9032   */\n      pop\n      jump\t// out\n        /* \"#utility.yul\":9038:9177   */\n    tag_118:\n        /* \"#utility.yul\":9084:9089   */\n      0x00\n        /* \"#utility.yul\":9122:9128   */\n      dup2\n        /* \"#utility.yul\":9109:9129   */\n      calldataload\n        /* \"#utility.yul\":9100:9129   */\n      swap1\n      pop\n        /* \"#utility.yul\":9138:9171   */\n      tag_235\n        /* \"#utility.yul\":9165:9170   */\n      dup2\n        /* \"#utility.yul\":9138:9171   */\n      tag_117\n      jump\t// in\n    tag_235:\n        /* \"#utility.yul\":9038:9177   */\n      swap3\n      swap2\n      pop\n      pop\n      jump\t// out\n        /* \"#utility.yul\":9183:9512   */\n    tag_16:\n        /* \"#utility.yul\":9242:9248   */\n      0x00\n        /* \"#utility.yul\":9291:9293   */\n      0x20\n        /* \"#utility.yul\":9279:9288   */\n      dup3\n        /* \"#utility.yul\":9270:9277   */\n      dup5\n        /* \"#utility.yul\":9266:9289   */\n      sub\n        /* \"#utility.yul\":9262:9294   */\n      slt\n        /* \"#utility.yul\":9259:9378   */\n      iszero\n      tag_237\n      jumpi\n        /* \"#utility.yul\":9297:9376   */\n      tag_238\n      tag_102\n      jump\t// in\n    tag_238:\n        /* \"#utility.yul\":9259:9378   */\n    tag_237:\n        /* \"#utility.yul\":9417:9418   */\n      0x00\n        /* \"#utility.yul\":9442:9495   */\n      tag_239\n        /* \"#utility.yul\":9487:9494   */\n      dup5\n        /* \"#utility.yul\":9478:9484   */\n      dup3\n        /* \"#utility.yul\":9467:9476   */\n      dup6\n        /* \"#utility.yul\":9463:9485   */\n      add\n        /* \"#utility.yul\":9442:9495   */\n      tag_118\n      jump\t// in\n    tag_239:\n        /* \"#utility.yul\":9432:9495   */\n      swap2\n      pop\n        /* \"#utility.yul\":9388:9505   */\n      pop\n        /* \"#utility.yul\":9183:9512   */\n      swap3\n      swap2\n      pop\n      pop\n      jump\t// out\n        /* \"#utility.yul\":9518:9687   */\n    tag_119:\n        /* \"#utility.yul\":9602:9613   */\n      0x00\n        /* \"#utility.yul\":9636:9642   */\n      dup3\n        /* \"#utility.yul\":9631:9634   */\n      dup3\n        /* \"#utility.yul\":9624:9643   */\n      mstore\n        /* \"#utility.yul\":9676:9680   */\n      0x20\n        /* \"#utility.yul\":9671:9674   */\n      dup3\n        /* \"#utility.yul\":9667:9681   */\n      add\n        /* \"#utility.yul\":9652:9681   */\n      swap1\n      pop\n        /* \"#utility.yul\":9518:9687   */\n      swap3\n      swap2\n      pop\n      pop\n      jump\t// out\n        /* \"#utility.yul\":9693:10070   */\n    tag_120:\n        /* \"#utility.yul\":9781:9784   */\n      0x00\n        /* \"#utility.yul\":9809:9848   */\n      tag_242\n        /* \"#utility.yul\":9842:9847   */\n      dup3\n        /* \"#utility.yul\":9809:9848   */\n      tag_92\n      jump\t// in\n    tag_242:\n        /* \"#utility.yul\":9864:9935   */\n      tag_243\n        /* \"#utility.yul\":9928:9934   */\n      dup2\n        /* \"#utility.yul\":9923:9926   */\n      dup6\n        /* \"#utility.yul\":9864:9935   */\n      tag_119\n      jump\t// in\n    tag_243:\n        /* \"#utility.yul\":9857:9935   */\n      swap4\n      pop\n        /* \"#utility.yul\":9944:10009   */\n      tag_244\n        /* \"#utility.yul\":10002:10008   */\n      dup2\n        /* \"#utility.yul\":9997:10000   */\n      dup6\n        /* \"#utility.yul\":9990:9994   */\n      0x20\n        /* \"#utility.yul\":9983:9988   */\n      dup7\n        /* \"#utility.yul\":9979:9995   */\n      add\n        /* \"#utility.yul\":9944:10009   */\n      tag_94\n      jump\t// in\n    tag_244:\n        /* \"#utility.yul\":10034:10063   */\n      tag_245\n        /* \"#utility.yul\":10056:10062   */\n      dup2\n        /* \"#utility.yul\":10034:10063   */\n      tag_95\n      jump\t// in\n    tag_245:\n        /* \"#utility.yul\":10029:10032   */\n      dup5\n        /* \"#utility.yul\":10025:10064   */\n      add\n        /* \"#utility.yul\":10018:10064   */\n      swap2\n      pop\n        /* \"#utility.yul\":9785:10070   */\n      pop\n        /* \"#utility.yul\":9693:10070   */\n      swap3\n      swap2\n      pop\n      pop\n      jump\t// out\n        /* \"#utility.yul\":10076:10244   */\n    tag_121:\n        /* \"#utility.yul\":10159:10170   */\n      0x00\n        /* \"#utility.yul\":10193:10199   */\n      dup3\n        /* \"#utility.yul\":10188:10191   */\n      dup3\n        /* \"#utility.yul\":10181:10200   */\n      mstore\n        /* \"#utility.yul\":10233:10237   */\n      0x20\n        /* \"#utility.yul\":10228:10231   */\n      dup3\n        /* \"#utility.yul\":10224:10238   */\n      add\n        /* \"#utility.yul\":10209:10238   */\n      swap1\n      pop\n        /* \"#utility.yul\":10076:10244   */\n      swap3\n      swap2\n      pop\n      pop\n      jump\t// out\n        /* \"#utility.yul\":10250:10623   */\n    tag_122:\n        /* \"#utility.yul\":10336:10339   */\n      0x00\n        /* \"#utility.yul\":10364:10402   */\n      tag_248\n        /* \"#utility.yul\":10396:10401   */\n      dup3\n        /* \"#utility.yul\":10364:10402   */\n      tag_97\n      jump\t// in\n    tag_248:\n        /* \"#utility.yul\":10418:10488   */\n      tag_249\n        /* \"#utility.yul\":10481:10487   */\n      dup2\n        /* \"#utility.yul\":10476:10479   */\n      dup6\n        /* \"#utility.yul\":10418:10488   */\n      tag_121\n      jump\t// in\n    tag_249:\n        /* \"#utility.yul\":10411:10488   */\n      swap4\n      pop\n        /* \"#utility.yul\":10497:10562   */\n      tag_250\n        /* \"#utility.yul\":10555:10561   */\n      dup2\n        /* \"#utility.yul\":10550:10553   */\n      dup6\n        /* \"#utility.yul\":10543:10547   */\n      0x20\n        /* \"#utility.yul\":10536:10541   */\n      dup7\n        /* \"#utility.yul\":10532:10548   */\n      add\n        /* \"#utility.yul\":10497:10562   */\n      tag_94\n      jump\t// in\n    tag_250:\n        /* \"#utility.yul\":10587:10616   */\n      tag_251\n        /* \"#utility.yul\":10609:10615   */\n      dup2\n        /* \"#utility.yul\":10587:10616   */\n      tag_95\n      jump\t// in\n    tag_251:\n        /* \"#utility.yul\":10582:10585   */\n      dup5\n        /* \"#utility.yul\":10578:10617   */\n      add\n        /* \"#utility.yul\":10571:10617   */\n      swap2\n      pop\n        /* \"#utility.yul\":10340:10623   */\n      pop\n        /* \"#utility.yul\":10250:10623   */\n      swap3\n      swap2\n      pop\n      pop\n      jump\t// out\n        /* \"#utility.yul\":10629:11744   */\n    tag_19:\n        /* \"#utility.yul\":10932:10936   */\n      0x00\n        /* \"#utility.yul\":10970:10973   */\n      0xa0\n        /* \"#utility.yul\":10959:10968   */\n      dup3\n        /* \"#utility.yul\":10955:10974   */\n      add\n        /* \"#utility.yul\":10947:10974   */\n      swap1\n      pop\n        /* \"#utility.yul\":11020:11029   */\n      dup2\n        /* \"#utility.yul\":11014:11018   */\n      dup2\n        /* \"#utility.yul\":11010:11030   */\n      sub\n        /* \"#utility.yul\":11006:11007   */\n      0x00\n        /* \"#utility.yul\":10995:11004   */\n      dup4\n        /* \"#utility.yul\":10991:11008   */\n      add\n        /* \"#utility.yul\":10984:11031   */\n      mstore\n        /* \"#utility.yul\":11048:11126   */\n      tag_253\n        /* \"#utility.yul\":11121:11125   */\n      dup2\n        /* \"#utility.yul\":11112:11118   */\n      dup9\n        /* \"#utility.yul\":11048:11126   */\n      tag_120\n      jump\t// in\n    tag_253:\n        /* \"#utility.yul\":11040:11126   */\n      swap1\n      pop\n        /* \"#utility.yul\":11173:11182   */\n      dup2\n        /* \"#utility.yul\":11167:11171   */\n      dup2\n        /* \"#utility.yul\":11163:11183   */\n      sub\n        /* \"#utility.yul\":11158:11160   */\n      0x20\n        /* \"#utility.yul\":11147:11156   */\n      dup4\n        /* \"#utility.yul\":11143:11161   */\n      add\n        /* \"#utility.yul\":11136:11184   */\n      mstore\n        /* \"#utility.yul\":11201:11279   */\n      tag_254\n        /* \"#utility.yul\":11274:11278   */\n      dup2\n        /* \"#utility.yul\":11265:11271   */\n      dup8\n        /* \"#utility.yul\":11201:11279   */\n      tag_120\n      jump\t// in\n    tag_254:\n        /* \"#utility.yul\":11193:11279   */\n      swap1\n      pop\n        /* \"#utility.yul\":11326:11335   */\n      dup2\n        /* \"#utility.yul\":11320:11324   */\n      dup2\n        /* \"#utility.yul\":11316:11336   */\n      sub\n        /* \"#utility.yul\":11311:11313   */\n      0x40\n        /* \"#utility.yul\":11300:11309   */\n      dup4\n        /* \"#utility.yul\":11296:11314   */\n      add\n        /* \"#utility.yul\":11289:11337   */\n      mstore\n        /* \"#utility.yul\":11354:11432   */\n      tag_255\n        /* \"#utility.yul\":11427:11431   */\n      dup2\n        /* \"#utility.yul\":11418:11424   */\n      dup7\n        /* \"#utility.yul\":11354:11432   */\n      tag_120\n      jump\t// in\n    tag_255:\n        /* \"#utility.yul\":11346:11432   */\n      swap1\n      pop\n        /* \"#utility.yul\":11479:11488   */\n      dup2\n        /* \"#utility.yul\":11473:11477   */\n      dup2\n        /* \"#utility.yul\":11469:11489   */\n      sub\n        /* \"#utility.yul\":11464:11466   */\n      0x60\n        /* \"#utility.yul\":11453:11462   */\n      dup4\n        /* \"#utility.yul\":11449:11467   */\n      add\n        /* \"#utility.yul\":11442:11490   */\n      mstore\n        /* \"#utility.yul\":11507:11585   */\n      tag_256\n        /* \"#utility.yul\":11580:11584   */\n      dup2\n        /* \"#utility.yul\":11571:11577   */\n      dup6\n        /* \"#utility.yul\":11507:11585   */\n      tag_120\n      jump\t// in\n    tag_256:\n        /* \"#utility.yul\":11499:11585   */\n      swap1\n      pop\n        /* \"#utility.yul\":11633:11642   */\n      dup2\n        /* \"#utility.yul\":11627:11631   */\n      dup2\n        /* \"#utility.yul\":11623:11643   */\n      sub\n        /* \"#utility.yul\":11617:11620   */\n      0x80\n        /* \"#utility.yul\":11606:11615   */\n      dup4\n        /* \"#utility.yul\":11602:11621   */\n      add\n        /* \"#utility.yul\":11595:11644   */\n      mstore\n        /* \"#utility.yul\":11661:11737   */\n      tag_257\n        /* \"#utility.yul\":11732:11736   */\n      dup2\n        /* \"#utility.yul\":11723:11729   */\n      dup5\n        /* \"#utility.yul\":11661:11737   */\n      tag_122\n      jump\t// in\n    tag_257:\n        /* \"#utility.yul\":11653:11737   */\n      swap1\n      pop\n        /* \"#utility.yul\":10629:11744   */\n      swap7\n      swap6\n      pop\n      pop\n      pop\n      pop\n      pop\n      pop\n      jump\t// out\n        /* \"#utility.yul\":11750:11930   */\n    tag_123:\n        /* \"#utility.yul\":11798:11875   */\n      0x4e487b7100000000000000000000000000000000000000000000000000000000\n        /* \"#utility.yul\":11795:11796   */\n      0x00\n        /* \"#utility.yul\":11788:11876   */\n      mstore\n        /* \"#utility.yul\":11895:11899   */\n      0x11\n        /* \"#utility.yul\":11892:11893   */\n      0x04\n        /* \"#utility.yul\":11885:11900   */\n      mstore\n        /* \"#utility.yul\":11919:11923   */\n      0x24\n        /* \"#utility.yul\":11916:11917   */\n      0x00\n        /* \"#utility.yul\":11909:11924   */\n      revert\n        /* \"#utility.yul\":11936:12130   */\n    tag_24:\n        /* \"#utility.yul\":11976:11980   */\n      0x00\n        /* \"#utility.yul\":11996:12016   */\n      tag_260\n        /* \"#utility.yul\":12014:12015   */\n      dup3\n        /* \"#utility.yul\":11996:12016   */\n      tag_116\n      jump\t// in\n    tag_260:\n        /* \"#utility.yul\":11991:12016   */\n      swap2\n      pop\n        /* \"#utility.yul\":12030:12050   */\n      tag_261\n        /* \"#utility.yul\":12048:12049   */\n      dup4\n        /* \"#utility.yul\":12030:12050   */\n      tag_116\n      jump\t// in\n    tag_261:\n        /* \"#utility.yul\":12025:12050   */\n      swap3\n      pop\n        /* \"#utility.yul\":12074:12075   */\n      dup3\n        /* \"#utility.yul\":12071:12072   */\n      dup3\n        /* \"#utility.yul\":12067:12076   */\n      sub\n        /* \"#utility.yul\":12059:12076   */\n      swap1\n      pop\n        /* \"#utility.yul\":12098:12099   */\n      dup2\n        /* \"#utility.yul\":12092:12096   */\n      dup2\n        /* \"#utility.yul\":12089:12100   */\n      gt\n        /* \"#utility.yul\":12086:12123   */\n      iszero\n      tag_262\n      jumpi\n        /* \"#utility.yul\":12103:12121   */\n      tag_263\n      tag_123\n      jump\t// in\n    tag_263:\n        /* \"#utility.yul\":12086:12123   */\n    tag_262:\n        /* \"#utility.yul\":11936:12130   */\n      swap3\n      swap2\n      pop\n      pop\n      jump\t// out\n        /* \"#utility.yul\":12136:12316   */\n    tag_27:\n        /* \"#utility.yul\":12184:12261   */\n      0x4e487b7100000000000000000000000000000000000000000000000000000000\n        /* \"#utility.yul\":12181:12182   */\n      0x00\n        /* \"#utility.yul\":12174:12262   */\n      mstore\n        /* \"#utility.yul\":12281:12285   */\n      0x32\n        /* \"#utility.yul\":12278:12279   */\n      0x04\n        /* \"#utility.yul\":12271:12286   */\n      mstore\n        /* \"#utility.yul\":12305:12309   */\n      0x24\n        /* \"#utility.yul\":12302:12303   */\n      0x00\n        /* \"#utility.yul\":12295:12310   */\n      revert\n        /* \"#utility.yul\":12322:12502   */\n    tag_124:\n        /* \"#utility.yul\":12370:12447   */\n      0x4e487b7100000000000000000000000000000000000000000000000000000000\n        /* \"#utility.yul\":12367:12368   */\n      0x00\n        /* \"#utility.yul\":12360:12448   */\n      mstore\n        /* \"#utility.yul\":12467:12471   */\n      0x22\n        /* \"#utility.yul\":12464:12465   */\n      0x04\n        /* \"#utility.yul\":12457:12472   */\n      mstore\n        /* \"#utility.yul\":12491:12495   */\n      0x24\n        /* \"#utility.yul\":12488:12489   */\n      0x00\n        /* \"#utility.yul\":12481:12496   */\n      revert\n        /* \"#utility.yul\":12508:12828   */\n    tag_30:\n        /* \"#utility.yul\":12552:12558   */\n      0x00\n        /* \"#utility.yul\":12589:12590   */\n      0x02\n        /* \"#utility.yul\":12583:12587   */\n      dup3\n        /* \"#utility.yul\":12579:12591   */\n      div\n        /* \"#utility.yul\":12569:12591   */\n      swap1\n      pop\n        /* \"#utility.yul\":12636:12637   */\n      0x01\n        /* \"#utility.yul\":12630:12634   */\n      dup3\n        /* \"#utility.yul\":12626:12638   */\n      and\n        /* \"#utility.yul\":12657:12675   */\n      dup1\n        /* \"#utility.yul\":12647:12728   */\n      tag_267\n      jumpi\n        /* \"#utility.yul\":12713:12717   */\n      0x7f\n        /* \"#utility.yul\":12705:12711   */\n      dup3\n        /* \"#utility.yul\":12701:12718   */\n      and\n        /* \"#utility.yul\":12691:12718   */\n      swap2\n      pop\n        /* \"#utility.yul\":12647:12728   */\n    tag_267:\n        /* \"#utility.yul\":12775:12777   */\n      0x20\n        /* \"#utility.yul\":12767:12773   */\n      dup3\n        /* \"#utility.yul\":12764:12778   */\n      lt\n        /* \"#utility.yul\":12744:12762   */\n      dup2\n        /* \"#utility.yul\":12741:12779   */\n      sub\n        /* \"#utility.yul\":12738:12822   */\n      tag_268\n      jumpi\n        /* \"#utility.yul\":12794:12812   */\n      tag_269\n      tag_124\n      jump\t// in\n    tag_269:\n        /* \"#utility.yul\":12738:12822   */\n    tag_268:\n        /* \"#utility.yul\":12559:12828   */\n      pop\n        /* \"#utility.yul\":12508:12828   */\n      swap2\n      swap1\n      pop\n      jump\t// out\n        /* \"#utility.yul\":12834:12975   */\n    tag_125:\n        /* \"#utility.yul\":12883:12887   */\n      0x00\n        /* \"#utility.yul\":12906:12909   */\n      dup2\n        /* \"#utility.yul\":12898:12909   */\n      swap1\n      pop\n        /* \"#utility.yul\":12929:12932   */\n      dup2\n        /* \"#utility.yul\":12926:12927   */\n      0x00\n        /* \"#utility.yul\":12919:12933   */\n      mstore\n        /* \"#utility.yul\":12963:12967   */\n      0x20\n        /* \"#utility.yul\":12960:12961   */\n      0x00\n        /* \"#utility.yul\":12950:12968   */\n      keccak256\n        /* \"#utility.yul\":12942:12968   */\n      swap1\n      pop\n        /* \"#utility.yul\":12834:12975   */\n      swap2\n      swap1\n      pop\n      jump\t// out\n        /* \"#utility.yul\":12981:13074   */\n    tag_126:\n        /* \"#utility.yul\":13018:13024   */\n      0x00\n        /* \"#utility.yul\":13065:13067   */\n      0x20\n        /* \"#utility.yul\":13060:13062   */\n      0x1f\n        /* \"#utility.yul\":13053:13058   */\n      dup4\n        /* \"#utility.yul\":13049:13063   */\n      add\n        /* \"#utility.yul\":13045:13068   */\n      div\n        /* \"#utility.yul\":13035:13068   */\n      swap1\n      pop\n        /* \"#utility.yul\":12981:13074   */\n      swap2\n      swap1\n      pop\n      jump\t// out\n        /* \"#utility.yul\":13080:13187   */\n    tag_127:\n        /* \"#utility.yul\":13124:13132   */\n      0x00\n        /* \"#utility.yul\":13174:13179   */\n      dup3\n        /* \"#utility.yul\":13168:13172   */\n      dup3\n        /* \"#utility.yul\":13164:13180   */\n      shl\n        /* \"#utility.yul\":13143:13180   */\n      swap1\n      pop\n        /* \"#utility.yul\":13080:13187   */\n      swap3\n      swap2\n      pop\n      pop\n      jump\t// out\n        /* \"#utility.yul\":13193:13586   */\n    tag_128:\n        /* \"#utility.yul\":13262:13268   */\n      0x00\n        /* \"#utility.yul\":13312:13313   */\n      0x08\n        /* \"#utility.yul\":13300:13310   */\n      dup4\n        /* \"#utility.yul\":13296:13314   */\n      mul\n        /* \"#utility.yul\":13335:13432   */\n      tag_274\n        /* \"#utility.yul\":13365:13431   */\n      0xffffffffffffffffffffffffffffffffffffffffffffffffffffffffffffffff\n        /* \"#utility.yul\":13354:13363   */\n      dup3\n        /* \"#utility.yul\":13335:13432   */\n      tag_127\n      jump\t// in\n    tag_274:\n        /* \"#utility.yul\":13453:13492   */\n      tag_275\n        /* \"#utility.yul\":13483:13491   */\n      dup7\n        /* \"#utility.yul\":13472:13481   */\n      dup4\n        /* \"#utility.yul\":13453:13492   */\n      tag_127\n      jump\t// in\n    tag_275:\n        /* \"#utility.yul\":13441:13492   */\n      swap6\n      pop\n        /* \"#utility.yul\":13525:13529   */\n      dup1\n        /* \"#utility.yul\":13521:13530   */\n      not\n        /* \"#utility.yul\":13514:13519   */\n      dup5\n        /* \"#utility.yul\":13510:13531   */\n      and\n        /* \"#utility.yul\":13501:13531   */\n      swap4\n      pop\n        /* \"#utility.yul\":13574:13578   */\n      dup1\n        /* \"#utility.yul\":13564:13572   */\n      dup7\n        /* \"#utility.yul\":13560:13579   */\n      and\n        /* \"#utility.yul\":13553:13558   */\n      dup5\n        /* \"#utility.yul\":13550:13580   */\n      or\n        /* \"#utility.yul\":13540:13580   */\n      swap3\n      pop\n        /* \"#utility.yul\":13269:13586   */\n      pop\n      pop\n        /* \"#utility.yul\":13193:13586   */\n      swap4\n      swap3\n      pop\n      pop\n      pop\n      jump\t// out\n        /* \"#utility.yul\":13592:13652   */\n    tag_129:\n        /* \"#utility.yul\":13620:13623   */\n      0x00\n        /* \"#utility.yul\":13641:13646   */\n      dup2\n        /* \"#utility.yul\":13634:13646   */\n      swap1\n      pop\n        /* \"#utility.yul\":13592:13652   */\n      swap2\n      swap1\n      pop\n      jump\t// out\n        /* \"#utility.yul\":13658:13800   */\n    tag_130:\n        /* \"#utility.yul\":13708:13717   */\n      0x00\n        /* \"#utility.yul\":13741:13794   */\n      tag_278\n        /* \"#utility.yul\":13759:13793   */\n      tag_279\n        /* \"#utility.yul\":13768:13792   */\n      tag_280\n        /* \"#utility.yul\":13786:13791   */\n      dup5\n        /* \"#utility.yul\":13768:13792   */\n      tag_116\n      jump\t// in\n    tag_280:\n        /* \"#utility.yul\":13759:13793   */\n      tag_129\n      jump\t// in\n    tag_279:\n        /* \"#utility.yul\":13741:13794   */\n      tag_116\n      jump\t// in\n    tag_278:\n        /* \"#utility.yul\":13728:13794   */\n      swap1\n      pop\n        /* \"#utility.yul\":13658:13800   */\n      swap2\n      swap1\n      pop\n      jump\t// out\n        /* \"#utility.yul\":13806:13881   */\n    tag_131:\n        /* \"#utility.yul\":13849:13852   */\n      0x00\n        /* \"#utility.yul\":13870:13875   */\n      dup2\n        /* \"#utility.yul\":13863:13875   */\n      swap1\n      pop\n        /* \"#utility.yul\":13806:13881   */\n      swap2\n      swap1\n      pop\n      jump\t// out\n        /* \"#utility.yul\":13887:14156   */\n    tag_132:\n        /* \"#utility.yul\":13997:14036   */\n      tag_283\n        /* \"#utility.yul\":14028:14035   */\n      dup4\n        /* \"#utility.yul\":13997:14036   */\n      tag_130\n      jump\t// in\n    tag_283:\n        /* \"#utility.yul\":14058:14149   */\n      tag_284\n        /* \"#utility.yul\":14107:14148   */\n      tag_285\n        /* \"#utility.yul\":14131:14147   */\n      dup3\n        /* \"#utility.yul\":14107:14148   */\n      tag_131\n      jump\t// in\n    tag_285:\n        /* \"#utility.yul\":14099:14105   */\n      dup5\n        /* \"#utility.yul\":14092:14096   */\n      dup5\n        /* \"#utility.yul\":14086:14097   */\n      sload\n        /* \"#utility.yul\":14058:14149   */\n      tag_128\n      jump\t// in\n    tag_284:\n        /* \"#utility.yul\":14052:14056   */\n      dup3\n        /* \"#utility.yul\":14045:14150   */\n      sstore\n        /* \"#utility.yul\":13963:14156   */\n      pop\n        /* \"#utility.yul\":13887:14156   */\n      pop\n      pop\n      pop\n      jump\t// out\n        /* \"#utility.yul\":14162:14235   */\n    tag_133:\n        /* \"#utility.yul\":14207:14210   */\n      0x00\n        /* \"#utility.yul\":14162:14235   */\n      swap1\n      jump\t// out\n        /* \"#utility.yul\":14241:14430   */\n    tag_134:\n        /* \"#utility.yul\":14318:14350   */\n      tag_288\n      tag_133\n      jump\t// in\n    tag_288:\n        /* \"#utility.yul\":14359:14424   */\n      tag_289\n        /* \"#utility.yul\":14417:14423   */\n      dup2\n        /* \"#utility.yul\":14409:14415   */\n      dup5\n        /* \"#utility.yul\":14403:14407   */\n      dup5\n        /* \"#utility.yul\":14359:14424   */\n      tag_132\n      jump\t// in\n    tag_289:\n        /* \"#utility.yul\":14294:14430   */\n      pop\n        /* \"#utility.yul\":14241:14430   */\n      pop\n      pop\n      jump\t// out\n        /* \"#utility.yul\":14436:14622   */\n    tag_135:\n        /* \"#utility.yul\":14496:14616   */\n    tag_291:\n        /* \"#utility.yul\":14513:14516   */\n      dup2\n        /* \"#utility.yul\":14506:14511   */\n      dup2\n        /* \"#utility.yul\":14503:14517   */\n      lt\n        /* \"#utility.yul\":14496:14616   */\n      iszero\n      tag_293\n      jumpi\n        /* \"#utility.yul\":14567:14606   */\n      tag_294\n        /* \"#utility.yul\":14604:14605   */\n      0x00\n        /* \"#utility.yul\":14597:14602   */\n      dup3\n        /* \"#utility.yul\":14567:14606   */\n      tag_134\n      jump\t// in\n    tag_294:\n        /* \"#utility.yul\":14540:14541   */\n      0x01\n        /* \"#utility.yul\":14533:14538   */\n      dup2\n        /* \"#utility.yul\":14529:14542   */\n      add\n        /* \"#utility.yul\":14520:14542   */\n      swap1\n      pop\n        /* \"#utility.yul\":14496:14616   */\n      jump(tag_291)\n    tag_293:\n        /* \"#utility.yul\":14436:14622   */\n      pop\n      pop\n      jump\t// out\n        /* \"#utility.yul\":14628:15171   */\n    tag_136:\n        /* \"#utility.yul\":14729:14731   */\n      0x1f\n        /* \"#utility.yul\":14724:14727   */\n      dup3\n        /* \"#utility.yul\":14721:14732   */\n      gt\n        /* \"#utility.yul\":14718:15164   */\n      iszero\n      tag_296\n      jumpi\n        /* \"#utility.yul\":14763:14801   */\n      tag_297\n        /* \"#utility.yul\":14795:14800   */\n      dup2\n        /* \"#utility.yul\":14763:14801   */\n      tag_125\n      jump\t// in\n    tag_297:\n        /* \"#utility.yul\":14847:14876   */\n      tag_298\n        /* \"#utility.yul\":14865:14875   */\n      dup5\n        /* \"#utility.yul\":14847:14876   */\n      tag_126\n      jump\t// in\n    tag_298:\n        /* \"#utility.yul\":14837:14845   */\n      dup2\n        /* \"#utility.yul\":14833:14877   */\n      add\n        /* \"#utility.yul\":15030:15032   */\n      0x20\n        /* \"#utility.yul\":15018:15028   */\n      dup6\n        /* \"#utility.yul\":15015:15033   */\n      lt\n        /* \"#utility.yul\":15012:15061   */\n      iszero\n      tag_299\n      jumpi\n        /* \"#utility.yul\":15051:15059   */\n      dup2\n        /* \"#utility.yul\":15036:15059   */\n      swap1\n      pop\n        /* \"#utility.yul\":15012:15061   */\n    tag_299:\n        /* \"#utility.yul\":15074:15154   */\n      tag_300\n        /* \"#utility.yul\":15130:15152   */\n      tag_301\n        /* \"#utility.yul\":15148:15151   */\n      dup6\n        /* \"#utility.yul\":15130:15152   */\n      tag_126\n      jump\t// in\n    tag_301:\n        /* \"#utility.yul\":15120:15128   */\n      dup4\n        /* \"#utility.yul\":15116:15153   */\n      add\n        /* \"#utility.yul\":15103:15114   */\n      dup3\n        /* \"#utility.yul\":15074:15154   */\n      tag_135\n      jump\t// in\n    tag_300:\n        /* \"#utility.yul\":14733:15164   */\n      pop\n      pop\n        /* \"#utility.yul\":14718:15164   */\n    tag_296:\n        /* \"#utility.yul\":14628:15171   */\n      pop\n      pop\n      pop\n      jump\t// out\n        /* \"#utility.yul\":15177:15294   */\n    tag_137:\n        /* \"#utility.yul\":15231:15239   */\n      0x00\n        /* \"#utility.yul\":15281:15286   */\n      dup3\n        /* \"#utility.yul\":15275:15279   */\n      dup3\n        /* \"#utility.yul\":15271:15287   */\n      shr\n        /* \"#utility.yul\":15250:15287   */\n      swap1\n      pop\n        /* \"#utility.yul\":15177:15294   */\n      swap3\n      swap2\n      pop\n      pop\n      jump\t// out\n        /* \"#utility.yul\":15300:15469   */\n    tag_138:\n        /* \"#utility.yul\":15344:15350   */\n      0x00\n        /* \"#utility.yul\":15377:15428   */\n      tag_304\n        /* \"#utility.yul\":15425:15426   */\n      0x00\n        /* \"#utility.yul\":15421:15427   */\n      not\n        /* \"#utility.yul\":15413:15418   */\n      dup5\n        /* \"#utility.yul\":15410:15411   */\n      0x08\n        /* \"#utility.yul\":15406:15419   */\n      mul\n        /* \"#utility.yul\":15377:15428   */\n      tag_137\n      jump\t// in\n    tag_304:\n        /* \"#utility.yul\":15373:15429   */\n      not\n        /* \"#utility.yul\":15458:15462   */\n      dup1\n        /* \"#utility.yul\":15452:15456   */\n      dup4\n        /* \"#utility.yul\":15448:15463   */\n      and\n        /* \"#utility.yul\":15438:15463   */\n      swap2\n      pop\n        /* \"#utility.yul\":15351:15469   */\n      pop\n        /* \"#utility.yul\":15300:15469   */\n      swap3\n      swap2\n      pop\n      pop\n      jump\t// out\n        /* \"#utility.yul\":15474:15769   */\n    tag_139:\n        /* \"#utility.yul\":15550:15554   */\n      0x00\n        /* \"#utility.yul\":15696:15725   */\n      tag_306\n        /* \"#utility.yul\":15721:15724   */\n      dup4\n        /* \"#utility.yul\":15715:15719   */\n      dup4\n        /* \"#utility.yul\":15696:15725   */\n      tag_138\n      jump\t// in\n    tag_306:\n        /* \"#utility.yul\":15688:15725   */\n      swap2\n      pop\n        /* \"#utility.yul\":15758:15761   */\n      dup3\n        /* \"#utility.yul\":15755:15756   */\n      0x02\n        /* \"#utility.yul\":15751:15762   */\n      mul\n        /* \"#utility.yul\":15745:15749   */\n      dup3\n        /* \"#utility.yul\":15742:15763   */\n      or\n        /* \"#utility.yul\":15734:15763   */\n      swap1\n      pop\n        /* \"#utility.yul\":15474:15769   */\n      swap3\n      swap2\n      pop\n      pop\n      jump\t// out\n        /* \"#utility.yul\":15774:17169   */\n    tag_59:\n        /* \"#utility.yul\":15891:15928   */\n      tag_308\n        /* \"#utility.yul\":15924:15927   */\n      dup3\n        /* \"#utility.yul\":15891:15928   */\n      tag_92\n      jump\t// in\n    tag_308:\n        /* \"#utility.yul\":15993:16011   */\n      0xffffffffffffffff\n        /* \"#utility.yul\":15985:15991   */\n      dup2\n        /* \"#utility.yul\":15982:16012   */\n      gt\n        /* \"#utility.yul\":15979:16035   */\n      iszero\n      tag_309\n      jumpi\n        /* \"#utility.yul\":16015:16033   */\n      tag_310\n      tag_106\n      jump\t// in\n    tag_310:\n        /* \"#utility.yul\":15979:16035   */\n    tag_309:\n        /* \"#utility.yul\":16059:16097   */\n      tag_311\n        /* \"#utility.yul\":16091:16095   */\n      dup3\n        /* \"#utility.yul\":16085:16096   */\n      sload\n        /* \"#utility.yul\":16059:16097   */\n      tag_30\n      jump\t// in\n    tag_311:\n        /* \"#utility.yul\":16144:16211   */\n      tag_312\n        /* \"#utility.yul\":16204:16210   */\n      dup3\n        /* \"#utility.yul\":16196:16202   */\n      dup3\n        /* \"#utility.yul\":16190:16194   */\n      dup6\n        /* \"#utility.yul\":16144:16211   */\n      tag_136\n      jump\t// in\n    tag_312:\n        /* \"#utility.yul\":16238:16239   */\n      0x00\n        /* \"#utility.yul\":16262:16266   */\n      0x20\n        /* \"#utility.yul\":16249:16266   */\n      swap1\n      pop\n        /* \"#utility.yul\":16294:16296   */\n      0x1f\n        /* \"#utility.yul\":16286:16292   */\n      dup4\n        /* \"#utility.yul\":16283:16297   */\n      gt\n        /* \"#utility.yul\":16311:16312   */\n      0x01\n        /* \"#utility.yul\":16306:16924   */\n      dup2\n      eq\n      tag_314\n      jumpi\n        /* \"#utility.yul\":16968:16969   */\n      0x00\n        /* \"#utility.yul\":16985:16991   */\n      dup5\n        /* \"#utility.yul\":16982:17059   */\n      iszero\n      tag_315\n      jumpi\n        /* \"#utility.yul\":17034:17043   */\n      dup3\n        /* \"#utility.yul\":17029:17032   */\n      dup8\n        /* \"#utility.yul\":17025:17044   */\n      add\n        /* \"#utility.yul\":17019:17045   */\n      mload\n        /* \"#utility.yul\":17010:17045   */\n      swap1\n      pop\n        /* \"#utility.yul\":16982:17059   */\n    tag_315:\n        /* \"#utility.yul\":17085:17152   */\n      tag_316\n        /* \"#utility.yul\":17145:17151   */\n      dup6\n        /* \"#utility.yul\":17138:17143   */\n      dup3\n        /* \"#utility.yul\":17085:17152   */\n      tag_139\n      jump\t// in\n    tag_316:\n        /* \"#utility.yul\":17079:17083   */\n      dup7\n        /* \"#utility.yul\":17072:17153   */\n      sstore\n        /* \"#utility.yul\":16941:17163   */\n      pop\n        /* \"#utility.yul\":16276:17163   */\n      jump(tag_313)\n        /* \"#utility.yul\":16306:16924   */\n    tag_314:\n        /* \"#utility.yul\":16358:16362   */\n      0x1f\n        /* \"#utility.yul\":16354:16363   */\n      not\n        /* \"#utility.yul\":16346:16352   */\n      dup5\n        /* \"#utility.yul\":16342:16364   */\n      and\n        /* \"#utility.yul\":16392:16429   */\n      tag_317\n        /* \"#utility.yul\":16424:16428   */\n      dup7\n        /* \"#utility.yul\":16392:16429   */\n      tag_125\n      jump\t// in\n    tag_317:\n        /* \"#utility.yul\":16451:16452   */\n      0x00\n        /* \"#utility.yul\":16465:16673   */\n    tag_318:\n        /* \"#utility.yul\":16479:16486   */\n      dup3\n        /* \"#utility.yul\":16476:16477   */\n      dup2\n        /* \"#utility.yul\":16473:16487   */\n      lt\n        /* \"#utility.yul\":16465:16673   */\n      iszero\n      tag_320\n      jumpi\n        /* \"#utility.yul\":16558:16567   */\n      dup5\n        /* \"#utility.yul\":16553:16556   */\n      dup10\n        /* \"#utility.yul\":16549:16568   */\n      add\n        /* \"#utility.yul\":16543:16569   */\n      mload\n        /* \"#utility.yul\":16535:16541   */\n      dup3\n        /* \"#utility.yul\":16528:16570   */\n      sstore\n        /* \"#utility.yul\":16609:16610   */\n      0x01\n        /* \"#utility.yul\":16601:16607   */\n      dup3\n        /* \"#utility.yul\":16597:16611   */\n      add\n        /* \"#utility.yul\":16587:16611   */\n      swap2\n      pop\n        /* \"#utility.yul\":16656:16658   */\n      0x20\n        /* \"#utility.yul\":16645:16654   */\n      dup6\n        /* \"#utility.yul\":16641:16659   */\n      add\n        /* \"#utility.yul\":16628:16659   */\n      swap5\n      pop\n        /* \"#utility.yul\":16502:16506   */\n      0x20\n        /* \"#utility.yul\":16499:16500   */\n      dup2\n        /* \"#utility.yul\":16495:16507   */\n      add\n        /* \"#utility.yul\":16490:16507   */\n      swap1\n      pop\n        /* \"#utility.yul\":16465:16673   */\n      jump(tag_318)\n    tag_320:\n        /* \"#utility.yul\":16701:16707   */\n      dup7\n        /* \"#utility.yul\":16692:16699   */\n      dup4\n        /* \"#utility.yul\":16689:16708   */\n      lt\n        /* \"#utility.yul\":16686:16865   */\n      iszero\n      tag_321\n      jumpi\n        /* \"#utility.yul\":16759:16768   */\n      dup5\n        /* \"#utility.yul\":16754:16757   */\n      dup10\n        /* \"#utility.yul\":16750:16769   */\n      add\n        /* \"#utility.yul\":16744:16770   */\n      mload\n        /* \"#utility.yul\":16802:16850   */\n      tag_322\n        /* \"#utility.yul\":16844:16848   */\n      0x1f\n        /* \"#utility.yul\":16836:16842   */\n      dup10\n        /* \"#utility.yul\":16832:16849   */\n      and\n        /* \"#utility.yul\":16821:16830   */\n      dup3\n        /* \"#utility.yul\":16802:16850   */\n      tag_138\n      jump\t// in\n    tag_322:\n        /* \"#utility.yul\":16794:16800   */\n      dup4\n        /* \"#utility.yul\":16787:16851   */\n      sstore\n        /* \"#utility.yul\":16709:16865   */\n      pop\n        /* \"#utility.yul\":16686:16865   */\n    tag_321:\n        /* \"#utility.yul\":16911:16912   */\n      0x01\n        /* \"#utility.yul\":16907:16908   */\n      0x02\n        /* \"#utility.yul\":16899:16905   */\n      dup9\n        /* \"#utility.yul\":16895:16909   */\n      mul\n        /* \"#utility.yul\":16891:16913   */\n      add\n        /* \"#utility.yul\":16885:16889   */\n      dup9\n        /* \"#utility.yul\":16878:16914   */\n      sstore\n        /* \"#utility.yul\":16313:16924   */\n      pop\n      pop\n      pop\n        /* \"#utility.yul\":16276:17163   */\n    tag_313:\n      pop\n        /* \"#utility.yul\":15866:17169   */\n      pop\n      pop\n      pop\n        /* \"#utility.yul\":15774:17169   */\n      pop\n      pop\n      jump\t// out\n        /* \"#utility.yul\":17175:17315   */\n    tag_140:\n        /* \"#utility.yul\":17223:17227   */\n      0x00\n        /* \"#utility.yul\":17246:17249   */\n      dup2\n        /* \"#utility.yul\":17238:17249   */\n      swap1\n      pop\n        /* \"#utility.yul\":17269:17272   */\n      dup2\n        /* \"#utility.yul\":17266:17267   */\n      0x00\n        /* \"#utility.yul\":17259:17273   */\n      mstore\n        /* \"#utility.yul\":17303:17307   */\n      0x20\n        /* \"#utility.yul\":17300:17301   */\n      0x00\n        /* \"#utility.yul\":17290:17308   */\n      keccak256\n        /* \"#utility.yul\":17282:17308   */\n      swap1\n      pop\n        /* \"#utility.yul\":17175:17315   */\n      swap2\n      swap1\n      pop\n      jump\t// out\n        /* \"#utility.yul\":17321:17862   */\n    tag_141:\n        /* \"#utility.yul\":17421:17423   */\n      0x1f\n        /* \"#utility.yul\":17416:17419   */\n      dup3\n        /* \"#utility.yul\":17413:17424   */\n      gt\n        /* \"#utility.yul\":17410:17855   */\n      iszero\n      tag_325\n      jumpi\n        /* \"#utility.yul\":17455:17492   */\n      tag_326\n        /* \"#utility.yul\":17486:17491   */\n      dup2\n        /* \"#utility.yul\":17455:17492   */\n      tag_140\n      jump\t// in\n    tag_326:\n        /* \"#utility.yul\":17538:17567   */\n      tag_327\n        /* \"#utility.yul\":17556:17566   */\n      dup5\n        /* \"#utility.yul\":17538:17567   */\n      tag_126\n      jump\t// in\n    tag_327:\n        /* \"#utility.yul\":17528:17536   */\n      dup2\n        /* \"#utility.yul\":17524:17568   */\n      add\n        /* \"#utility.yul\":17721:17723   */\n      0x20\n        /* \"#utility.yul\":17709:17719   */\n      dup6\n        /* \"#utility.yul\":17706:17724   */\n      lt\n        /* \"#utility.yul\":17703:17752   */\n      iszero\n      tag_328\n      jumpi\n        /* \"#utility.yul\":17742:17750   */\n      dup2\n        /* \"#utility.yul\":17727:17750   */\n      swap1\n      pop\n        /* \"#utility.yul\":17703:17752   */\n    tag_328:\n        /* \"#utility.yul\":17765:17845   */\n      tag_329\n        /* \"#utility.yul\":17821:17843   */\n      tag_330\n        /* \"#utility.yul\":17839:17842   */\n      dup6\n        /* \"#utility.yul\":17821:17843   */\n      tag_126\n      jump\t// in\n    tag_330:\n        /* \"#utility.yul\":17811:17819   */\n      dup4\n        /* \"#utility.yul\":17807:17844   */\n      add\n        /* \"#utility.yul\":17794:17805   */\n      dup3\n        /* \"#utility.yul\":17765:17845   */\n      tag_135\n      jump\t// in\n    tag_329:\n        /* \"#utility.yul\":17425:17855   */\n      pop\n      pop\n        /* \"#utility.yul\":17410:17855   */\n    tag_325:\n        /* \"#utility.yul\":17321:17862   */\n      pop\n      pop\n      pop\n      jump\t// out\n        /* \"#utility.yul\":17868:19258   */\n    tag_64:\n        /* \"#utility.yul\":17983:18019   */\n      tag_332\n        /* \"#utility.yul\":18015:18018   */\n      dup3\n        /* \"#utility.yul\":17983:18019   */\n      tag_97\n      jump\t// in\n    tag_332:\n        /* \"#utility.yul\":18084:18102   */\n      0xffffffffffffffff\n        /* \"#utility.yul\":18076:18082   */\n      dup2\n        /* \"#utility.yul\":18073:18103   */\n      gt\n        /* \"#utility.yul\":18070:18126   */\n      iszero\n      tag_333\n      jumpi\n        /* \"#utility.yul\":18106:18124   */\n      tag_334\n      tag_106\n      jump\t// in\n    tag_334:\n        /* \"#utility.yul\":18070:18126   */\n    tag_333:\n        /* \"#utility.yul\":18150:18188   */\n      tag_335\n        /* \"#utility.yul\":18182:18186   */\n      dup3\n        /* \"#utility.yul\":18176:18187   */\n      sload\n        /* \"#utility.yul\":18150:18188   */\n      tag_30\n      jump\t// in\n    tag_335:\n        /* \"#utility.yul\":18235:18301   */\n      tag_336\n        /* \"#utility.yul\":18294:18300   */\n      dup3\n        /* \"#utility.yul\":18286:18292   */\n      dup3\n        /* \"#utility.yul\":18280:18284   */\n      dup6\n        /* \"#utility.yul\":18235:18301   */\n      tag_141\n      jump\t// in\n    tag_336:\n        /* \"#utility.yul\":18328:18329   */\n      0x00\n        /* \"#utility.yul\":18352:18356   */\n      0x20\n        /* \"#utility.yul\":18339:18356   */\n      swap1\n      pop\n        /* \"#utility.yul\":18384:18386   */\n      0x1f\n        /* \"#utility.yul\":18376:18382   */\n      dup4\n        /* \"#utility.yul\":18373:18387   */\n      gt\n        /* \"#utility.yul\":18401:18402   */\n      0x01\n        /* \"#utility.yul\":18396:19013   */\n      dup2\n      eq\n      tag_338\n      jumpi\n        /* \"#utility.yul\":19057:19058   */\n      0x00\n        /* \"#utility.yul\":19074:19080   */\n      dup5\n        /* \"#utility.yul\":19071:19148   */\n      iszero\n      tag_339\n      jumpi\n        /* \"#utility.yul\":19123:19132   */\n      dup3\n        /* \"#utility.yul\":19118:19121   */\n      dup8\n        /* \"#utility.yul\":19114:19133   */\n      add\n        /* \"#utility.yul\":19108:19134   */\n      mload\n        /* \"#utility.yul\":19099:19134   */\n      swap1\n      pop\n        /* \"#utility.yul\":19071:19148   */\n    tag_339:\n        /* \"#utility.yul\":19174:19241   */\n      tag_340\n        /* \"#utility.yul\":19234:19240   */\n      dup6\n        /* \"#utility.yul\":19227:19232   */\n      dup3\n        /* \"#utility.yul\":19174:19241   */\n      tag_139\n      jump\t// in\n    tag_340:\n        /* \"#utility.yul\":19168:19172   */\n      dup7\n        /* \"#utility.yul\":19161:19242   */\n      sstore\n        /* \"#utility.yul\":19030:19252   */\n      pop\n        /* \"#utility.yul\":18366:19252   */\n      jump(tag_337)\n        /* \"#utility.yul\":18396:19013   */\n    tag_338:\n        /* \"#utility.yul\":18448:18452   */\n      0x1f\n        /* \"#utility.yul\":18444:18453   */\n      not\n        /* \"#utility.yul\":18436:18442   */\n      dup5\n        /* \"#utility.yul\":18432:18454   */\n      and\n        /* \"#utility.yul\":18482:18518   */\n      tag_341\n        /* \"#utility.yul\":18513:18517   */\n      dup7\n        /* \"#utility.yul\":18482:18518   */\n      tag_140\n      jump\t// in\n    tag_341:\n        /* \"#utility.yul\":18540:18541   */\n      0x00\n        /* \"#utility.yul\":18554:18762   */\n    tag_342:\n        /* \"#utility.yul\":18568:18575   */\n      dup3\n        /* \"#utility.yul\":18565:18566   */\n      dup2\n        /* \"#utility.yul\":18562:18576   */\n      lt\n        /* \"#utility.yul\":18554:18762   */\n      iszero\n      tag_344\n      jumpi\n        /* \"#utility.yul\":18647:18656   */\n      dup5\n        /* \"#utility.yul\":18642:18645   */\n      dup10\n        /* \"#utility.yul\":18638:18657   */\n      add\n        /* \"#utility.yul\":18632:18658   */\n      mload\n        /* \"#utility.yul\":18624:18630   */\n      dup3\n        /* \"#utility.yul\":18617:18659   */\n      sstore\n        /* \"#utility.yul\":18698:18699   */\n      0x01\n        /* \"#utility.yul\":18690:18696   */\n      dup3\n        /* \"#utility.yul\":18686:18700   */\n      add\n        /* \"#utility.yul\":18676:18700   */\n      swap2\n      pop\n        /* \"#utility.yul\":18745:18747   */\n      0x20\n        /* \"#utility.yul\":18734:18743   */\n      dup6\n        /* \"#utility.yul\":18730:18748   */\n      add\n        /* \"#utility.yul\":18717:18748   */\n      swap5\n      pop\n        /* \"#utility.yul\":18591:18595   */\n      0x20\n        /* \"#utility.yul\":18588:18589   */\n      dup2\n        /* \"#utility.yul\":18584:18596   */\n      add\n        /* \"#utility.yul\":18579:18596   */\n      swap1\n      pop\n        /* \"#utility.yul\":18554:18762   */\n      jump(tag_342)\n    tag_344:\n        /* \"#utility.yul\":18790:18796   */\n      dup7\n        /* \"#utility.yul\":18781:18788   */\n      dup4\n        /* \"#utility.yul\":18778:18797   */\n      lt\n        /* \"#utility.yul\":18775:18954   */\n      iszero\n      tag_345\n      jumpi\n        /* \"#utility.yul\":18848:18857   */\n      dup5\n        /* \"#utility.yul\":18843:18846   */\n      dup10\n        /* \"#utility.yul\":18839:18858   */\n      add\n        /* \"#utility.yul\":18833:18859   */\n      mload\n        /* \"#utility.yul\":18891:18939   */\n      tag_346\n        /* \"#utility.yul\":18933:18937   */\n      0x1f\n        /* \"#utility.yul\":18925:18931   */\n      dup10\n        /* \"#utility.yul\":18921:18938   */\n      and\n        /* \"#utility.yul\":18910:18919   */\n      dup3\n        /* \"#utility.yul\":18891:18939   */\n      tag_138\n      jump\t// in\n    tag_346:\n        /* \"#utility.yul\":18883:18889   */\n      dup4\n        /* \"#utility.yul\":18876:18940   */\n      sstore\n        /* \"#utility.yul\":18798:18954   */\n      pop\n        /* \"#utility.yul\":18775:18954   */\n    tag_345:\n        /* \"#utility.yul\":19000:19001   */\n      0x01\n        /* \"#utility.yul\":18996:18997   */\n      0x02\n        /* \"#utility.yul\":18988:18994   */\n      dup9\n        /* \"#utility.yul\":18984:18998   */\n      mul\n        /* \"#utility.yul\":18980:19002   */\n      add\n        /* \"#utility.yul\":18974:18978   */\n      dup9\n        /* \"#utility.yul\":18967:19003   */\n      sstore\n        /* \"#utility.yul\":18403:19013   */\n      pop\n      pop\n      pop\n        /* \"#utility.yul\":18366:19252   */\n    tag_337:\n      pop\n        /* \"#utility.yul\":17958:19258   */\n      pop\n      pop\n      pop\n        /* \"#utility.yul\":17868:19258   */\n      pop\n      pop\n      jump\t// out\n\n    auxdata: 0xa2646970667358221220ac4dd95d07a20e0415243c32a6a4ba47c94d7d3f95165389185e344e80192f9f64736f6c63430008120033\n}\n",
				"bytecode": {
					"linkReferences": {},
					"object": "608060405234801561001057600080fd5b5061129f806100206000396000f3fe608060405234801561001057600080fd5b50600436106100415760003560e01c806328f1cd7c146100465780636674ec7c1461006457806371e5ee5f14610080575b600080fd5b61004e6100b4565b60405161005b919061094c565b60405180910390f35b61007e60048036038101906100799190610b58565b6103df565b005b61009a60048036038101906100959190610c95565b6104b8565b6040516100ab959493929190610d56565b60405180910390f35b6100bc6107a6565b600060016000805490506100d09190610dfb565b9050600081815481106100e6576100e5610e2f565b5b90600052602060002090600502016040518060a001604052908160008201805461010f90610e8d565b80601f016020809104026020016040519081016040528092919081815260200182805461013b90610e8d565b80156101885780601f1061015d57610100808354040283529160200191610188565b820191906000526020600020905b81548152906001019060200180831161016b57829003601f168201915b505050505081526020016001820180546101a190610e8d565b80601f01602080910402602001604051908101604052809291908181526020018280546101cd90610e8d565b801561021a5780601f106101ef5761010080835404028352916020019161021a565b820191906000526020600020905b8154815290600101906020018083116101fd57829003601f168201915b5050505050815260200160028201805461023390610e8d565b80601f016020809104026020016040519081016040528092919081815260200182805461025f90610e8d565b80156102ac5780601f10610281576101008083540402835291602001916102ac565b820191906000526020600020905b81548152906001019060200180831161028f57829003601f168201915b505050505081526020016003820180546102c590610e8d565b80601f01602080910402602001604051908101604052809291908181526020018280546102f190610e8d565b801561033e5780601f106103135761010080835404028352916020019161033e565b820191906000526020600020905b81548152906001019060200180831161032157829003601f168201915b5050505050815260200160048201805461035790610e8d565b80601f016020809104026020016040519081016040528092919081815260200182805461038390610e8d565b80156103d05780601f106103a5576101008083540402835291602001916103d0565b820191906000526020600020905b8154815290600101906020018083116103b357829003601f168201915b50505050508152505091505090565b6103e76107a6565b85816000018190525084816020018190525083816040018190525082816060018190525081816080018190525060008190806001815401808255809150506001900390600052602060002090600502016000909190919091506000820151816000019081610455919061106a565b50602082015181600101908161046b919061106a565b506040820151816002019081610481919061106a565b506060820151816003019081610497919061106a565b5060808201518160040190816104ad9190611197565b505050505050505050565b600081815481106104c857600080fd5b90600052602060002090600502016000915090508060000180546104eb90610e8d565b80601f016020809104026020016040519081016040528092919081815260200182805461051790610e8d565b80156105645780601f1061053957610100808354040283529160200191610564565b820191906000526020600020905b81548152906001019060200180831161054757829003601f168201915b50505050509080600101805461057990610e8d565b80601f01602080910402602001604051908101604052809291908181526020018280546105a590610e8d565b80156105f25780601f106105c7576101008083540402835291602001916105f2565b820191906000526020600020905b8154815290600101906020018083116105d557829003601f168201915b50505050509080600201805461060790610e8d565b80601f016020809104026020016040519081016040528092919081815260200182805461063390610e8d565b80156106805780601f1061065557610100808354040283529160200191610680565b820191906000526020600020905b81548152906001019060200180831161066357829003601f168201915b50505050509080600301805461069590610e8d565b80601f01602080910402602001604051908101604052809291908181526020018280546106c190610e8d565b801561070e5780601f106106e35761010080835404028352916020019161070e565b820191906000526020600020905b8154815290600101906020018083116106f157829003601f168201915b50505050509080600401805461072390610e8d565b80601f016020809104026020016040519081016040528092919081815260200182805461074f90610e8d565b801561079c5780601f106107715761010080835404028352916020019161079c565b820191906000526020600020905b81548152906001019060200180831161077f57829003601f168201915b5050505050905085565b6040518060a0016040528060608152602001606081526020016060815260200160608152602001606081525090565b600081519050919050565b600082825260208201905092915050565b60005b8381101561080f5780820151818401526020810190506107f4565b60008484015250505050565b6000601f19601f8301169050919050565b6000610837826107d5565b61084181856107e0565b93506108518185602086016107f1565b61085a8161081b565b840191505092915050565b600081519050919050565b600082825260208201905092915050565b600061088c82610865565b6108968185610870565b93506108a68185602086016107f1565b6108af8161081b565b840191505092915050565b600060a08301600083015184820360008601526108d7828261082c565b915050602083015184820360208601526108f1828261082c565b9150506040830151848203604086015261090b828261082c565b91505060608301518482036060860152610925828261082c565b9150506080830151848203608086015261093f8282610881565b9150508091505092915050565b6000602082019050818103600083015261096681846108ba565b905092915050565b6000604051905090565b600080fd5b600080fd5b600080fd5b600080fd5b7f4e487b7100000000000000000000000000000000000000000000000000000000600052604160045260246000fd5b6109c48261081b565b810181811067ffffffffffffffff821117156109e3576109e261098c565b5b80604052505050565b60006109f661096e565b9050610a0282826109bb565b919050565b600067ffffffffffffffff821115610a2257610a2161098c565b5b610a2b8261081b565b9050602081019050919050565b82818337600083830152505050565b6000610a5a610a5584610a07565b6109ec565b905082815260208101848484011115610a7657610a75610987565b5b610a81848285610a38565b509392505050565b600082601f830112610a9e57610a9d610982565b5b8135610aae848260208601610a47565b91505092915050565b600067ffffffffffffffff821115610ad257610ad161098c565b5b610adb8261081b565b9050602081019050919050565b6000610afb610af684610ab7565b6109ec565b905082815260208101848484011115610b1757610b16610987565b5b610b22848285610a38565b509392505050565b600082601f830112610b3f57610b3e610982565b5b8135610b4f848260208601610ae8565b91505092915050565b600080600080600060a08688031215610b7457610b73610978565b5b600086013567ffffffffffffffff811115610b9257610b9161097d565b5b610b9e88828901610a89565b955050602086013567ffffffffffffffff811115610bbf57610bbe61097d565b5b610bcb88828901610a89565b945050604086013567ffffffffffffffff811115610bec57610beb61097d565b5b610bf888828901610a89565b935050606086013567ffffffffffffffff811115610c1957610c1861097d565b5b610c2588828901610a89565b925050608086013567ffffffffffffffff811115610c4657610c4561097d565b5b610c5288828901610b2a565b9150509295509295909350565b6000819050919050565b610c7281610c5f565b8114610c7d57600080fd5b50565b600081359050610c8f81610c69565b92915050565b600060208284031215610cab57610caa610978565b5b6000610cb984828501610c80565b91505092915050565b600082825260208201905092915050565b6000610cde826107d5565b610ce88185610cc2565b9350610cf88185602086016107f1565b610d018161081b565b840191505092915050565b600082825260208201905092915050565b6000610d2882610865565b610d328185610d0c565b9350610d428185602086016107f1565b610d4b8161081b565b840191505092915050565b600060a0820190508181036000830152610d708188610cd3565b90508181036020830152610d848187610cd3565b90508181036040830152610d988186610cd3565b90508181036060830152610dac8185610cd3565b90508181036080830152610dc08184610d1d565b90509695505050505050565b7f4e487b7100000000000000000000000000000000000000000000000000000000600052601160045260246000fd5b6000610e0682610c5f565b9150610e1183610c5f565b9250828203905081811115610e2957610e28610dcc565b5b92915050565b7f4e487b7100000000000000000000000000000000000000000000000000000000600052603260045260246000fd5b7f4e487b7100000000000000000000000000000000000000000000000000000000600052602260045260246000fd5b60006002820490506001821680610ea557607f821691505b602082108103610eb857610eb7610e5e565b5b50919050565b60008190508160005260206000209050919050565b60006020601f8301049050919050565b600082821b905092915050565b600060088302610f207fffffffffffffffffffffffffffffffffffffffffffffffffffffffffffffffff82610ee3565b610f2a8683610ee3565b95508019841693508086168417925050509392505050565b6000819050919050565b6000610f67610f62610f5d84610c5f565b610f42565b610c5f565b9050919050565b6000819050919050565b610f8183610f4c565b610f95610f8d82610f6e565b848454610ef0565b825550505050565b600090565b610faa610f9d565b610fb5818484610f78565b505050565b5b81811015610fd957610fce600082610fa2565b600181019050610fbb565b5050565b601f82111561101e57610fef81610ebe565b610ff884610ed3565b81016020851015611007578190505b61101b61101385610ed3565b830182610fba565b50505b505050565b600082821c905092915050565b600061104160001984600802611023565b1980831691505092915050565b600061105a8383611030565b9150826002028217905092915050565b611073826107d5565b67ffffffffffffffff81111561108c5761108b61098c565b5b6110968254610e8d565b6110a1828285610fdd565b600060209050601f8311600181146110d457600084156110c2578287015190505b6110cc858261104e565b865550611134565b601f1984166110e286610ebe565b60005b8281101561110a578489015182556001820191506020850194506020810190506110e5565b868310156111275784890151611123601f891682611030565b8355505b6001600288020188555050505b505050505050565b60008190508160005260206000209050919050565b601f821115611192576111638161113c565b61116c84610ed3565b8101602085101561117b578190505b61118f61118785610ed3565b830182610fba565b50505b505050565b6111a082610865565b67ffffffffffffffff8111156111b9576111b861098c565b5b6111c38254610e8d565b6111ce828285611151565b600060209050601f83116001811461120157600084156111ef578287015190505b6111f9858261104e565b865550611261565b601f19841661120f8661113c565b60005b8281101561123757848901518255600182019150602085019450602081019050611212565b868310156112545784890151611250601f891682611030565b8355505b6001600288020188555050505b50505050505056fea2646970667358221220ac4dd95d07a20e0415243c32a6a4ba47c94d7d3f95165389185e344e80192f9f64736f6c63430008120033",
					"opcodes": "PUSH1 0x80 PUSH1 0x40 MSTORE CALLVALUE DUP1 ISZERO PUSH2 0x10 JUMPI PUSH1 0x0 DUP1 REVERT JUMPDEST POP PUSH2 0x129F DUP1 PUSH2 0x20 PUSH1 0x0 CODECOPY PUSH1 0x0 RETURN INVALID PUSH1 0x80 PUSH1 0x40 MSTORE CALLVALUE DUP1 ISZERO PUSH2 0x10 JUMPI PUSH1 0x0 DUP1 REVERT JUMPDEST POP PUSH1 0x4 CALLDATASIZE LT PUSH2 0x41 JUMPI PUSH1 0x0 CALLDATALOAD PUSH1 0xE0 SHR DUP1 PUSH4 0x28F1CD7C EQ PUSH2 0x46 JUMPI DUP1 PUSH4 0x6674EC7C EQ PUSH2 0x64 JUMPI DUP1 PUSH4 0x71E5EE5F EQ PUSH2 0x80 JUMPI JUMPDEST PUSH1 0x0 DUP1 REVERT JUMPDEST PUSH2 0x4E PUSH2 0xB4 JUMP JUMPDEST PUSH1 0x40 MLOAD PUSH2 0x5B SWAP2 SWAP1 PUSH2 0x94C JUMP JUMPDEST PUSH1 0x40 MLOAD DUP1 SWAP2 SUB SWAP1 RETURN JUMPDEST PUSH2 0x7E PUSH1 0x4 DUP1 CALLDATASIZE SUB DUP2 ADD SWAP1 PUSH2 0x79 SWAP2 SWAP1 PUSH2 0xB58 JUMP JUMPDEST PUSH2 0x3DF JUMP JUMPDEST STOP JUMPDEST PUSH2 0x9A PUSH1 0x4 DUP1 CALLDATASIZE SUB DUP2 ADD SWAP1 PUSH2 0x95 SWAP2 SWAP1 PUSH2 0xC95 JUMP JUMPDEST PUSH2 0x4B8 JUMP JUMPDEST PUSH1 0x40 MLOAD PUSH2 0xAB SWAP6 SWAP5 SWAP4 SWAP3 SWAP2 SWAP1 PUSH2 0xD56 JUMP JUMPDEST PUSH1 0x40 MLOAD DUP1 SWAP2 SUB SWAP1 RETURN JUMPDEST PUSH2 0xBC PUSH2 0x7A6 JUMP JUMPDEST PUSH1 0x0 PUSH1 0x1 PUSH1 0x0 DUP1 SLOAD SWAP1 POP PUSH2 0xD0 SWAP2 SWAP1 PUSH2 0xDFB JUMP JUMPDEST SWAP1 POP PUSH1 0x0 DUP2 DUP2 SLOAD DUP2 LT PUSH2 0xE6 JUMPI PUSH2 0xE5 PUSH2 0xE2F JUMP JUMPDEST JUMPDEST SWAP1 PUSH1 0x0 MSTORE PUSH1 0x20 PUSH1 0x0 KECCAK256 SWAP1 PUSH1 0x5 MUL ADD PUSH1 0x40 MLOAD DUP1 PUSH1 0xA0 ADD PUSH1 0x40 MSTORE SWAP1 DUP2 PUSH1 0x0 DUP3 ADD DUP1 SLOAD PUSH2 0x10F SWAP1 PUSH2 0xE8D JUMP JUMPDEST DUP1 PUSH1 0x1F ADD PUSH1 0x20 DUP1 SWAP2 DIV MUL PUSH1 0x20 ADD PUSH1 0x40 MLOAD SWAP1 DUP2 ADD PUSH1 0x40 MSTORE DUP1 SWAP3 SWAP2 SWAP1 DUP2 DUP2 MSTORE PUSH1 0x20 ADD DUP3 DUP1 SLOAD PUSH2 0x13B SWAP1 PUSH2 0xE8D JUMP JUMPDEST DUP1 ISZERO PUSH2 0x188 JUMPI DUP1 PUSH1 0x1F LT PUSH2 0x15D JUMPI PUSH2 0x100 DUP1 DUP4 SLOAD DIV MUL DUP4 MSTORE SWAP2 PUSH1 0x20 ADD SWAP2 PUSH2 0x188 JUMP JUMPDEST DUP3 ADD SWAP2 SWAP1 PUSH1 0x0 MSTORE PUSH1 0x20 PUSH1 0x0 KECCAK256 SWAP1 JUMPDEST DUP2 SLOAD DUP2 MSTORE SWAP1 PUSH1 0x1 ADD SWAP1 PUSH1 0x20 ADD DUP1 DUP4 GT PUSH2 0x16B JUMPI DUP3 SWAP1 SUB PUSH1 0x1F AND DUP3 ADD SWAP2 JUMPDEST POP POP POP POP POP DUP2 MSTORE PUSH1 0x20 ADD PUSH1 0x1 DUP3 ADD DUP1 SLOAD PUSH2 0x1A1 SWAP1 PUSH2 0xE8D JUMP JUMPDEST DUP1 PUSH1 0x1F ADD PUSH1 0x20 DUP1 SWAP2 DIV MUL PUSH1 0x20 ADD PUSH1 0x40 MLOAD SWAP1 DUP2 ADD PUSH1 0x40 MSTORE DUP1 SWAP3 SWAP2 SWAP1 DUP2 DUP2 MSTORE PUSH1 0x20 ADD DUP3 DUP1 SLOAD PUSH2 0x1CD SWAP1 PUSH2 0xE8D JUMP JUMPDEST DUP1 ISZERO PUSH2 0x21A JUMPI DUP1 PUSH1 0x1F LT PUSH2 0x1EF JUMPI PUSH2 0x100 DUP1 DUP4 SLOAD DIV MUL DUP4 MSTORE SWAP2 PUSH1 0x20 ADD SWAP2 PUSH2 0x21A JUMP JUMPDEST DUP3 ADD SWAP2 SWAP1 PUSH1 0x0 MSTORE PUSH1 0x20 PUSH1 0x0 KECCAK256 SWAP1 JUMPDEST DUP2 SLOAD DUP2 MSTORE SWAP1 PUSH1 0x1 ADD SWAP1 PUSH1 0x20 ADD DUP1 DUP4 GT PUSH2 0x1FD JUMPI DUP3 SWAP1 SUB PUSH1 0x1F AND DUP3 ADD SWAP2 JUMPDEST POP POP POP POP POP DUP2 MSTORE PUSH1 0x20 ADD PUSH1 0x2 DUP3 ADD DUP1 SLOAD PUSH2 0x233 SWAP1 PUSH2 0xE8D JUMP JUMPDEST DUP1 PUSH1 0x1F ADD PUSH1 0x20 DUP1 SWAP2 DIV MUL PUSH1 0x20 ADD PUSH1 0x40 MLOAD SWAP1 DUP2 ADD PUSH1 0x40 MSTORE DUP1 SWAP3 SWAP2 SWAP1 DUP2 DUP2 MSTORE PUSH1 0x20 ADD DUP3 DUP1 SLOAD PUSH2 0x25F SWAP1 PUSH2 0xE8D JUMP JUMPDEST DUP1 ISZERO PUSH2 0x2AC JUMPI DUP1 PUSH1 0x1F LT PUSH2 0x281 JUMPI PUSH2 0x100 DUP1 DUP4 SLOAD DIV MUL DUP4 MSTORE SWAP2 PUSH1 0x20 ADD SWAP2 PUSH2 0x2AC JUMP JUMPDEST DUP3 ADD SWAP2 SWAP1 PUSH1 0x0 MSTORE PUSH1 0x20 PUSH1 0x0 KECCAK256 SWAP1 JUMPDEST DUP2 SLOAD DUP2 MSTORE SWAP1 PUSH1 0x1 ADD SWAP1 PUSH1 0x20 ADD DUP1 DUP4 GT PUSH2 0x28F JUMPI DUP3 SWAP1 SUB PUSH1 0x1F AND DUP3 ADD SWAP2 JUMPDEST POP POP POP POP POP DUP2 MSTORE PUSH1 0x20 ADD PUSH1 0x3 DUP3 ADD DUP1 SLOAD PUSH2 0x2C5 SWAP1 PUSH2 0xE8D JUMP JUMPDEST DUP1 PUSH1 0x1F ADD PUSH1 0x20 DUP1 SWAP2 DIV MUL PUSH1 0x20 ADD PUSH1 0x40 MLOAD SWAP1 DUP2 ADD PUSH1 0x40 MSTORE DUP1 SWAP3 SWAP2 SWAP1 DUP2 DUP2 MSTORE PUSH1 0x20 ADD DUP3 DUP1 SLOAD PUSH2 0x2F1 SWAP1 PUSH2 0xE8D JUMP JUMPDEST DUP1 ISZERO PUSH2 0x33E JUMPI DUP1 PUSH1 0x1F LT PUSH2 0x313 JUMPI PUSH2 0x100 DUP1 DUP4 SLOAD DIV MUL DUP4 MSTORE SWAP2 PUSH1 0x20 ADD SWAP2 PUSH2 0x33E JUMP JUMPDEST DUP3 ADD SWAP2 SWAP1 PUSH1 0x0 MSTORE PUSH1 0x20 PUSH1 0x0 KECCAK256 SWAP1 JUMPDEST DUP2 SLOAD DUP2 MSTORE SWAP1 PUSH1 0x1 ADD SWAP1 PUSH1 0x20 ADD DUP1 DUP4 GT PUSH2 0x321 JUMPI DUP3 SWAP1 SUB PUSH1 0x1F AND DUP3 ADD SWAP2 JUMPDEST POP POP POP POP POP DUP2 MSTORE PUSH1 0x20 ADD PUSH1 0x4 DUP3 ADD DUP1 SLOAD PUSH2 0x357 SWAP1 PUSH2 0xE8D JUMP JUMPDEST DUP1 PUSH1 0x1F ADD PUSH1 0x20 DUP1 SWAP2 DIV MUL PUSH1 0x20 ADD PUSH1 0x40 MLOAD SWAP1 DUP2 ADD PUSH1 0x40 MSTORE DUP1 SWAP3 SWAP2 SWAP1 DUP2 DUP2 MSTORE PUSH1 0x20 ADD DUP3 DUP1 SLOAD PUSH2 0x383 SWAP1 PUSH2 0xE8D JUMP JUMPDEST DUP1 ISZERO PUSH2 0x3D0 JUMPI DUP1 PUSH1 0x1F LT PUSH2 0x3A5 JUMPI PUSH2 0x100 DUP1 DUP4 SLOAD DIV MUL DUP4 MSTORE SWAP2 PUSH1 0x20 ADD SWAP2 PUSH2 0x3D0 JUMP JUMPDEST DUP3 ADD SWAP2 SWAP1 PUSH1 0x0 MSTORE PUSH1 0x20 PUSH1 0x0 KECCAK256 SWAP1 JUMPDEST DUP2 SLOAD DUP2 MSTORE SWAP1 PUSH1 0x1 ADD SWAP1 PUSH1 0x20 ADD DUP1 DUP4 GT PUSH2 0x3B3 JUMPI DUP3 SWAP1 SUB PUSH1 0x1F AND DUP3 ADD SWAP2 JUMPDEST POP POP POP POP POP DUP2 MSTORE POP POP SWAP2 POP POP SWAP1 JUMP JUMPDEST PUSH2 0x3E7 PUSH2 0x7A6 JUMP JUMPDEST DUP6 DUP2 PUSH1 0x0 ADD DUP2 SWAP1 MSTORE POP DUP5 DUP2 PUSH1 0x20 ADD DUP2 SWAP1 MSTORE POP DUP4 DUP2 PUSH1 0x40 ADD DUP2 SWAP1 MSTORE POP DUP3 DUP2 PUSH1 0x60 ADD DUP2 SWAP1 MSTORE POP DUP2 DUP2 PUSH1 0x80 ADD DUP2 SWAP1 MSTORE POP PUSH1 0x0 DUP2 SWAP1 DUP1 PUSH1 0x1 DUP2 SLOAD ADD DUP1 DUP3 SSTORE DUP1 SWAP2 POP POP PUSH1 0x1 SWAP1 SUB SWAP1 PUSH1 0x0 MSTORE PUSH1 0x20 PUSH1 0x0 KECCAK256 SWAP1 PUSH1 0x5 MUL ADD PUSH1 0x0 SWAP1 SWAP2 SWAP1 SWAP2 SWAP1 SWAP2 POP PUSH1 0x0 DUP3 ADD MLOAD DUP2 PUSH1 0x0 ADD SWAP1 DUP2 PUSH2 0x455 SWAP2 SWAP1 PUSH2 0x106A JUMP JUMPDEST POP PUSH1 0x20 DUP3 ADD MLOAD DUP2 PUSH1 0x1 ADD SWAP1 DUP2 PUSH2 0x46B SWAP2 SWAP1 PUSH2 0x106A JUMP JUMPDEST POP PUSH1 0x40 DUP3 ADD MLOAD DUP2 PUSH1 0x2 ADD SWAP1 DUP2 PUSH2 0x481 SWAP2 SWAP1 PUSH2 0x106A JUMP JUMPDEST POP PUSH1 0x60 DUP3 ADD MLOAD DUP2 PUSH1 0x3 ADD SWAP1 DUP2 PUSH2 0x497 SWAP2 SWAP1 PUSH2 0x106A JUMP JUMPDEST POP PUSH1 0x80 DUP3 ADD MLOAD DUP2 PUSH1 0x4 ADD SWAP1 DUP2 PUSH2 0x4AD SWAP2 SWAP1 PUSH2 0x1197 JUMP JUMPDEST POP POP POP POP POP POP POP POP POP JUMP JUMPDEST PUSH1 0x0 DUP2 DUP2 SLOAD DUP2 LT PUSH2 0x4C8 JUMPI PUSH1 0x0 DUP1 REVERT JUMPDEST SWAP1 PUSH1 0x0 MSTORE PUSH1 0x20 PUSH1 0x0 KECCAK256 SWAP1 PUSH1 0x5 MUL ADD PUSH1 0x0 SWAP2 POP SWAP1 POP DUP1 PUSH1 0x0 ADD DUP1 SLOAD PUSH2 0x4EB SWAP1 PUSH2 0xE8D JUMP JUMPDEST DUP1 PUSH1 0x1F ADD PUSH1 0x20 DUP1 SWAP2 DIV MUL PUSH1 0x20 ADD PUSH1 0x40 MLOAD SWAP1 DUP2 ADD PUSH1 0x40 MSTORE DUP1 SWAP3 SWAP2 SWAP1 DUP2 DUP2 MSTORE PUSH1 0x20 ADD DUP3 DUP1 SLOAD PUSH2 0x517 SWAP1 PUSH2 0xE8D JUMP JUMPDEST DUP1 ISZERO PUSH2 0x564 JUMPI DUP1 PUSH1 0x1F LT PUSH2 0x539 JUMPI PUSH2 0x100 DUP1 DUP4 SLOAD DIV MUL DUP4 MSTORE SWAP2 PUSH1 0x20 ADD SWAP2 PUSH2 0x564 JUMP JUMPDEST DUP3 ADD SWAP2 SWAP1 PUSH1 0x0 MSTORE PUSH1 0x20 PUSH1 0x0 KECCAK256 SWAP1 JUMPDEST DUP2 SLOAD DUP2 MSTORE SWAP1 PUSH1 0x1 ADD SWAP1 PUSH1 0x20 ADD DUP1 DUP4 GT PUSH2 0x547 JUMPI DUP3 SWAP1 SUB PUSH1 0x1F AND DUP3 ADD SWAP2 JUMPDEST POP POP POP POP POP SWAP1 DUP1 PUSH1 0x1 ADD DUP1 SLOAD PUSH2 0x579 SWAP1 PUSH2 0xE8D JUMP JUMPDEST DUP1 PUSH1 0x1F ADD PUSH1 0x20 DUP1 SWAP2 DIV MUL PUSH1 0x20 ADD PUSH1 0x40 MLOAD SWAP1 DUP2 ADD PUSH1 0x40 MSTORE DUP1 SWAP3 SWAP2 SWAP1 DUP2 DUP2 MSTORE PUSH1 0x20 ADD DUP3 DUP1 SLOAD PUSH2 0x5A5 SWAP1 PUSH2 0xE8D JUMP JUMPDEST DUP1 ISZERO PUSH2 0x5F2 JUMPI DUP1 PUSH1 0x1F LT PUSH2 0x5C7 JUMPI PUSH2 0x100 DUP1 DUP4 SLOAD DIV MUL DUP4 MSTORE SWAP2 PUSH1 0x20 ADD SWAP2 PUSH2 0x5F2 JUMP JUMPDEST DUP3 ADD SWAP2 SWAP1 PUSH1 0x0 MSTORE PUSH1 0x20 PUSH1 0x0 KECCAK256 SWAP1 JUMPDEST DUP2 SLOAD DUP2 MSTORE SWAP1 PUSH1 0x1 ADD SWAP1 PUSH1 0x20 ADD DUP1 DUP4 GT PUSH2 0x5D5 JUMPI DUP3 SWAP1 SUB PUSH1 0x1F AND DUP3 ADD SWAP2 JUMPDEST POP POP POP POP POP SWAP1 DUP1 PUSH1 0x2 ADD DUP1 SLOAD PUSH2 0x607 SWAP1 PUSH2 0xE8D JUMP JUMPDEST DUP1 PUSH1 0x1F ADD PUSH1 0x20 DUP1 SWAP2 DIV MUL PUSH1 0x20 ADD PUSH1 0x40 MLOAD SWAP1 DUP2 ADD PUSH1 0x40 MSTORE DUP1 SWAP3 SWAP2 SWAP1 DUP2 DUP2 MSTORE PUSH1 0x20 ADD DUP3 DUP1 SLOAD PUSH2 0x633 SWAP1 PUSH2 0xE8D JUMP JUMPDEST DUP1 ISZERO PUSH2 0x680 JUMPI DUP1 PUSH1 0x1F LT PUSH2 0x655 JUMPI PUSH2 0x100 DUP1 DUP4 SLOAD DIV MUL DUP4 MSTORE SWAP2 PUSH1 0x20 ADD SWAP2 PUSH2 0x680 JUMP JUMPDEST DUP3 ADD SWAP2 SWAP1 PUSH1 0x0 MSTORE PUSH1 0x20 PUSH1 0x0 KECCAK256 SWAP1 JUMPDEST DUP2 SLOAD DUP2 MSTORE SWAP1 PUSH1 0x1 ADD SWAP1 PUSH1 0x20 ADD DUP1 DUP4 GT PUSH2 0x663 JUMPI DUP3 SWAP1 SUB PUSH1 0x1F AND DUP3 ADD SWAP2 JUMPDEST POP POP POP POP POP SWAP1 DUP1 PUSH1 0x3 ADD DUP1 SLOAD PUSH2 0x695 SWAP1 PUSH2 0xE8D JUMP JUMPDEST DUP1 PUSH1 0x1F ADD PUSH1 0x20 DUP1 SWAP2 DIV MUL PUSH1 0x20 ADD PUSH1 0x40 MLOAD SWAP1 DUP2 ADD PUSH1 0x40 MSTORE DUP1 SWAP3 SWAP2 SWAP1 DUP2 DUP2 MSTORE PUSH1 0x20 ADD DUP3 DUP1 SLOAD PUSH2 0x6C1 SWAP1 PUSH2 0xE8D JUMP JUMPDEST DUP1 ISZERO PUSH2 0x70E JUMPI DUP1 PUSH1 0x1F LT PUSH2 0x6E3 JUMPI PUSH2 0x100 DUP1 DUP4 SLOAD DIV MUL DUP4 MSTORE SWAP2 PUSH1 0x20 ADD SWAP2 PUSH2 0x70E JUMP JUMPDEST DUP3 ADD SWAP2 SWAP1 PUSH1 0x0 MSTORE PUSH1 0x20 PUSH1 0x0 KECCAK256 SWAP1 JUMPDEST DUP2 SLOAD DUP2 MSTORE SWAP1 PUSH1 0x1 ADD SWAP1 PUSH1 0x20 ADD DUP1 DUP4 GT PUSH2 0x6F1 JUMPI DUP3 SWAP1 SUB PUSH1 0x1F AND DUP3 ADD SWAP2 JUMPDEST POP POP POP POP POP SWAP1 DUP1 PUSH1 0x4 ADD DUP1 SLOAD PUSH2 0x723 SWAP1 PUSH2 0xE8D JUMP JUMPDEST DUP1 PUSH1 0x1F ADD PUSH1 0x20 DUP1 SWAP2 DIV MUL PUSH1 0x20 ADD PUSH1 0x40 MLOAD SWAP1 DUP2 ADD PUSH1 0x40 MSTORE DUP1 SWAP3 SWAP2 SWAP1 DUP2 DUP2 MSTORE PUSH1 0x20 ADD DUP3 DUP1 SLOAD PUSH2 0x74F SWAP1 PUSH2 0xE8D JUMP JUMPDEST DUP1 ISZERO PUSH2 0x79C JUMPI DUP1 PUSH1 0x1F LT PUSH2 0x771 JUMPI PUSH2 0x100 DUP1 DUP4 SLOAD DIV MUL DUP4 MSTORE SWAP2 PUSH1 0x20 ADD SWAP2 PUSH2 0x79C JUMP JUMPDEST DUP3 ADD SWAP2 SWAP1 PUSH1 0x0 MSTORE PUSH1 0x20 PUSH1 0x0 KECCAK256 SWAP1 JUMPDEST DUP2 SLOAD DUP2 MSTORE SWAP1 PUSH1 0x1 ADD SWAP1 PUSH1 0x20 ADD DUP1 DUP4 GT PUSH2 0x77F JUMPI DUP3 SWAP1 SUB PUSH1 0x1F AND DUP3 ADD SWAP2 JUMPDEST POP POP POP POP POP SWAP1 POP DUP6 JUMP JUMPDEST PUSH1 0x40 MLOAD DUP1 PUSH1 0xA0 ADD PUSH1 0x40 MSTORE DUP1 PUSH1 0x60 DUP2 MSTORE PUSH1 0x20 ADD PUSH1 0x60 DUP2 MSTORE PUSH1 0x20 ADD PUSH1 0x60 DUP2 MSTORE PUSH1 0x20 ADD PUSH1 0x60 DUP2 MSTORE PUSH1 0x20 ADD PUSH1 0x60 DUP2 MSTORE POP SWAP1 JUMP JUMPDEST PUSH1 0x0 DUP2 MLOAD SWAP1 POP SWAP2 SWAP1 POP JUMP JUMPDEST PUSH1 0x0 DUP3 DUP3 MSTORE PUSH1 0x20 DUP3 ADD SWAP1 POP SWAP3 SWAP2 POP POP JUMP JUMPDEST PUSH1 0x0 JUMPDEST DUP4 DUP2 LT ISZERO PUSH2 0x80F JUMPI DUP1 DUP3 ADD MLOAD DUP2 DUP5 ADD MSTORE PUSH1 0x20 DUP2 ADD SWAP1 POP PUSH2 0x7F4 JUMP JUMPDEST PUSH1 0x0 DUP5 DUP5 ADD MSTORE POP POP POP POP JUMP JUMPDEST PUSH1 0x0 PUSH1 0x1F NOT PUSH1 0x1F DUP4 ADD AND SWAP1 POP SWAP2 SWAP1 POP JUMP JUMPDEST PUSH1 0x0 PUSH2 0x837 DUP3 PUSH2 0x7D5 JUMP JUMPDEST PUSH2 0x841 DUP2 DUP6 PUSH2 0x7E0 JUMP JUMPDEST SWAP4 POP PUSH2 0x851 DUP2 DUP6 PUSH1 0x20 DUP7 ADD PUSH2 0x7F1 JUMP JUMPDEST PUSH2 0x85A DUP2 PUSH2 0x81B JUMP JUMPDEST DUP5 ADD SWAP2 POP POP SWAP3 SWAP2 POP POP JUMP JUMPDEST PUSH1 0x0 DUP2 MLOAD SWAP1 POP SWAP2 SWAP1 POP JUMP JUMPDEST PUSH1 0x0 DUP3 DUP3 MSTORE PUSH1 0x20 DUP3 ADD SWAP1 POP SWAP3 SWAP2 POP POP JUMP JUMPDEST PUSH1 0x0 PUSH2 0x88C DUP3 PUSH2 0x865 JUMP JUMPDEST PUSH2 0x896 DUP2 DUP6 PUSH2 0x870 JUMP JUMPDEST SWAP4 POP PUSH2 0x8A6 DUP2 DUP6 PUSH1 0x20 DUP7 ADD PUSH2 0x7F1 JUMP JUMPDEST PUSH2 0x8AF DUP2 PUSH2 0x81B JUMP JUMPDEST DUP5 ADD SWAP2 POP POP SWAP3 SWAP2 POP POP JUMP JUMPDEST PUSH1 0x0 PUSH1 0xA0 DUP4 ADD PUSH1 0x0 DUP4 ADD MLOAD DUP5 DUP3 SUB PUSH1 0x0 DUP7 ADD MSTORE PUSH2 0x8D7 DUP3 DUP3 PUSH2 0x82C JUMP JUMPDEST SWAP2 POP POP PUSH1 0x20 DUP4 ADD MLOAD DUP5 DUP3 SUB PUSH1 0x20 DUP7 ADD MSTORE PUSH2 0x8F1 DUP3 DUP3 PUSH2 0x82C JUMP JUMPDEST SWAP2 POP POP PUSH1 0x40 DUP4 ADD MLOAD DUP5 DUP3 SUB PUSH1 0x40 DUP7 ADD MSTORE PUSH2 0x90B DUP3 DUP3 PUSH2 0x82C JUMP JUMPDEST SWAP2 POP POP PUSH1 0x60 DUP4 ADD MLOAD DUP5 DUP3 SUB PUSH1 0x60 DUP7 ADD MSTORE PUSH2 0x925 DUP3 DUP3 PUSH2 0x82C JUMP JUMPDEST SWAP2 POP POP PUSH1 0x80 DUP4 ADD MLOAD DUP5 DUP3 SUB PUSH1 0x80 DUP7 ADD MSTORE PUSH2 0x93F DUP3 DUP3 PUSH2 0x881 JUMP JUMPDEST SWAP2 POP POP DUP1 SWAP2 POP POP SWAP3 SWAP2 POP POP JUMP JUMPDEST PUSH1 0x0 PUSH1 0x20 DUP3 ADD SWAP1 POP DUP2 DUP2 SUB PUSH1 0x0 DUP4 ADD MSTORE PUSH2 0x966 DUP2 DUP5 PUSH2 0x8BA JUMP JUMPDEST SWAP1 POP SWAP3 SWAP2 POP POP JUMP JUMPDEST PUSH1 0x0 PUSH1 0x40 MLOAD SWAP1 POP SWAP1 JUMP JUMPDEST PUSH1 0x0 DUP1 REVERT JUMPDEST PUSH1 0x0 DUP1 REVERT JUMPDEST PUSH1 0x0 DUP1 REVERT JUMPDEST PUSH1 0x0 DUP1 REVERT JUMPDEST PUSH32 0x4E487B7100000000000000000000000000000000000000000000000000000000 PUSH1 0x0 MSTORE PUSH1 0x41 PUSH1 0x4 MSTORE PUSH1 0x24 PUSH1 0x0 REVERT JUMPDEST PUSH2 0x9C4 DUP3 PUSH2 0x81B JUMP JUMPDEST DUP2 ADD DUP2 DUP2 LT PUSH8 0xFFFFFFFFFFFFFFFF DUP3 GT OR ISZERO PUSH2 0x9E3 JUMPI PUSH2 0x9E2 PUSH2 0x98C JUMP JUMPDEST JUMPDEST DUP1 PUSH1 0x40 MSTORE POP POP POP JUMP JUMPDEST PUSH1 0x0 PUSH2 0x9F6 PUSH2 0x96E JUMP JUMPDEST SWAP1 POP PUSH2 0xA02 DUP3 DUP3 PUSH2 0x9BB JUMP JUMPDEST SWAP2 SWAP1 POP JUMP JUMPDEST PUSH1 0x0 PUSH8 0xFFFFFFFFFFFFFFFF DUP3 GT ISZERO PUSH2 0xA22 JUMPI PUSH2 0xA21 PUSH2 0x98C JUMP JUMPDEST JUMPDEST PUSH2 0xA2B DUP3 PUSH2 0x81B JUMP JUMPDEST SWAP1 POP PUSH1 0x20 DUP2 ADD SWAP1 POP SWAP2 SWAP1 POP JUMP JUMPDEST DUP3 DUP2 DUP4 CALLDATACOPY PUSH1 0x0 DUP4 DUP4 ADD MSTORE POP POP POP JUMP JUMPDEST PUSH1 0x0 PUSH2 0xA5A PUSH2 0xA55 DUP5 PUSH2 0xA07 JUMP JUMPDEST PUSH2 0x9EC JUMP JUMPDEST SWAP1 POP DUP3 DUP2 MSTORE PUSH1 0x20 DUP2 ADD DUP5 DUP5 DUP5 ADD GT ISZERO PUSH2 0xA76 JUMPI PUSH2 0xA75 PUSH2 0x987 JUMP JUMPDEST JUMPDEST PUSH2 0xA81 DUP5 DUP3 DUP6 PUSH2 0xA38 JUMP JUMPDEST POP SWAP4 SWAP3 POP POP POP JUMP JUMPDEST PUSH1 0x0 DUP3 PUSH1 0x1F DUP4 ADD SLT PUSH2 0xA9E JUMPI PUSH2 0xA9D PUSH2 0x982 JUMP JUMPDEST JUMPDEST DUP2 CALLDATALOAD PUSH2 0xAAE DUP5 DUP3 PUSH1 0x20 DUP7 ADD PUSH2 0xA47 JUMP JUMPDEST SWAP2 POP POP SWAP3 SWAP2 POP POP JUMP JUMPDEST PUSH1 0x0 PUSH8 0xFFFFFFFFFFFFFFFF DUP3 GT ISZERO PUSH2 0xAD2 JUMPI PUSH2 0xAD1 PUSH2 0x98C JUMP JUMPDEST JUMPDEST PUSH2 0xADB DUP3 PUSH2 0x81B JUMP JUMPDEST SWAP1 POP PUSH1 0x20 DUP2 ADD SWAP1 POP SWAP2 SWAP1 POP JUMP JUMPDEST PUSH1 0x0 PUSH2 0xAFB PUSH2 0xAF6 DUP5 PUSH2 0xAB7 JUMP JUMPDEST PUSH2 0x9EC JUMP JUMPDEST SWAP1 POP DUP3 DUP2 MSTORE PUSH1 0x20 DUP2 ADD DUP5 DUP5 DUP5 ADD GT ISZERO PUSH2 0xB17 JUMPI PUSH2 0xB16 PUSH2 0x987 JUMP JUMPDEST JUMPDEST PUSH2 0xB22 DUP5 DUP3 DUP6 PUSH2 0xA38 JUMP JUMPDEST POP SWAP4 SWAP3 POP POP POP JUMP JUMPDEST PUSH1 0x0 DUP3 PUSH1 0x1F DUP4 ADD SLT PUSH2 0xB3F JUMPI PUSH2 0xB3E PUSH2 0x982 JUMP JUMPDEST JUMPDEST DUP2 CALLDATALOAD PUSH2 0xB4F DUP5 DUP3 PUSH1 0x20 DUP7 ADD PUSH2 0xAE8 JUMP JUMPDEST SWAP2 POP POP SWAP3 SWAP2 POP POP JUMP JUMPDEST PUSH1 0x0 DUP1 PUSH1 0x0 DUP1 PUSH1 0x0 PUSH1 0xA0 DUP7 DUP9 SUB SLT ISZERO PUSH2 0xB74 JUMPI PUSH2 0xB73 PUSH2 0x978 JUMP JUMPDEST JUMPDEST PUSH1 0x0 DUP7 ADD CALLDATALOAD PUSH8 0xFFFFFFFFFFFFFFFF DUP2 GT ISZERO PUSH2 0xB92 JUMPI PUSH2 0xB91 PUSH2 0x97D JUMP JUMPDEST JUMPDEST PUSH2 0xB9E DUP9 DUP3 DUP10 ADD PUSH2 0xA89 JUMP JUMPDEST SWAP6 POP POP PUSH1 0x20 DUP7 ADD CALLDATALOAD PUSH8 0xFFFFFFFFFFFFFFFF DUP2 GT ISZERO PUSH2 0xBBF JUMPI PUSH2 0xBBE PUSH2 0x97D JUMP JUMPDEST JUMPDEST PUSH2 0xBCB DUP9 DUP3 DUP10 ADD PUSH2 0xA89 JUMP JUMPDEST SWAP5 POP POP PUSH1 0x40 DUP7 ADD CALLDATALOAD PUSH8 0xFFFFFFFFFFFFFFFF DUP2 GT ISZERO PUSH2 0xBEC JUMPI PUSH2 0xBEB PUSH2 0x97D JUMP JUMPDEST JUMPDEST PUSH2 0xBF8 DUP9 DUP3 DUP10 ADD PUSH2 0xA89 JUMP JUMPDEST SWAP4 POP POP PUSH1 0x60 DUP7 ADD CALLDATALOAD PUSH8 0xFFFFFFFFFFFFFFFF DUP2 GT ISZERO PUSH2 0xC19 JUMPI PUSH2 0xC18 PUSH2 0x97D JUMP JUMPDEST JUMPDEST PUSH2 0xC25 DUP9 DUP3 DUP10 ADD PUSH2 0xA89 JUMP JUMPDEST SWAP3 POP POP PUSH1 0x80 DUP7 ADD CALLDATALOAD PUSH8 0xFFFFFFFFFFFFFFFF DUP2 GT ISZERO PUSH2 0xC46 JUMPI PUSH2 0xC45 PUSH2 0x97D JUMP JUMPDEST JUMPDEST PUSH2 0xC52 DUP9 DUP3 DUP10 ADD PUSH2 0xB2A JUMP JUMPDEST SWAP2 POP POP SWAP3 SWAP6 POP SWAP3 SWAP6 SWAP1 SWAP4 POP JUMP JUMPDEST PUSH1 0x0 DUP2 SWAP1 POP SWAP2 SWAP1 POP JUMP JUMPDEST PUSH2 0xC72 DUP2 PUSH2 0xC5F JUMP JUMPDEST DUP2 EQ PUSH2 0xC7D JUMPI PUSH1 0x0 DUP1 REVERT JUMPDEST POP JUMP JUMPDEST PUSH1 0x0 DUP2 CALLDATALOAD SWAP1 POP PUSH2 0xC8F DUP2 PUSH2 0xC69 JUMP JUMPDEST SWAP3 SWAP2 POP POP JUMP JUMPDEST PUSH1 0x0 PUSH1 0x20 DUP3 DUP5 SUB SLT ISZERO PUSH2 0xCAB JUMPI PUSH2 0xCAA PUSH2 0x978 JUMP JUMPDEST JUMPDEST PUSH1 0x0 PUSH2 0xCB9 DUP5 DUP3 DUP6 ADD PUSH2 0xC80 JUMP JUMPDEST SWAP2 POP POP SWAP3 SWAP2 POP POP JUMP JUMPDEST PUSH1 0x0 DUP3 DUP3 MSTORE PUSH1 0x20 DUP3 ADD SWAP1 POP SWAP3 SWAP2 POP POP JUMP JUMPDEST PUSH1 0x0 PUSH2 0xCDE DUP3 PUSH2 0x7D5 JUMP JUMPDEST PUSH2 0xCE8 DUP2 DUP6 PUSH2 0xCC2 JUMP JUMPDEST SWAP4 POP PUSH2 0xCF8 DUP2 DUP6 PUSH1 0x20 DUP7 ADD PUSH2 0x7F1 JUMP JUMPDEST PUSH2 0xD01 DUP2 PUSH2 0x81B JUMP JUMPDEST DUP5 ADD SWAP2 POP POP SWAP3 SWAP2 POP POP JUMP JUMPDEST PUSH1 0x0 DUP3 DUP3 MSTORE PUSH1 0x20 DUP3 ADD SWAP1 POP SWAP3 SWAP2 POP POP JUMP JUMPDEST PUSH1 0x0 PUSH2 0xD28 DUP3 PUSH2 0x865 JUMP JUMPDEST PUSH2 0xD32 DUP2 DUP6 PUSH2 0xD0C JUMP JUMPDEST SWAP4 POP PUSH2 0xD42 DUP2 DUP6 PUSH1 0x20 DUP7 ADD PUSH2 0x7F1 JUMP JUMPDEST PUSH2 0xD4B DUP2 PUSH2 0x81B JUMP JUMPDEST DUP5 ADD SWAP2 POP POP SWAP3 SWAP2 POP POP JUMP JUMPDEST PUSH1 0x0 PUSH1 0xA0 DUP3 ADD SWAP1 POP DUP2 DUP2 SUB PUSH1 0x0 DUP4 ADD MSTORE PUSH2 0xD70 DUP2 DUP9 PUSH2 0xCD3 JUMP JUMPDEST SWAP1 POP DUP2 DUP2 SUB PUSH1 0x20 DUP4 ADD MSTORE PUSH2 0xD84 DUP2 DUP8 PUSH2 0xCD3 JUMP JUMPDEST SWAP1 POP DUP2 DUP2 SUB PUSH1 0x40 DUP4 ADD MSTORE PUSH2 0xD98 DUP2 DUP7 PUSH2 0xCD3 JUMP JUMPDEST SWAP1 POP DUP2 DUP2 SUB PUSH1 0x60 DUP4 ADD MSTORE PUSH2 0xDAC DUP2 DUP6 PUSH2 0xCD3 JUMP JUMPDEST SWAP1 POP DUP2 DUP2 SUB PUSH1 0x80 DUP4 ADD MSTORE PUSH2 0xDC0 DUP2 DUP5 PUSH2 0xD1D JUMP JUMPDEST SWAP1 POP SWAP7 SWAP6 POP POP POP POP POP POP JUMP JUMPDEST PUSH32 0x4E487B7100000000000000000000000000000000000000000000000000000000 PUSH1 0x0 MSTORE PUSH1 0x11 PUSH1 0x4 MSTORE PUSH1 0x24 PUSH1 0x0 REVERT JUMPDEST PUSH1 0x0 PUSH2 0xE06 DUP3 PUSH2 0xC5F JUMP JUMPDEST SWAP2 POP PUSH2 0xE11 DUP4 PUSH2 0xC5F JUMP JUMPDEST SWAP3 POP DUP3 DUP3 SUB SWAP1 POP DUP2 DUP2 GT ISZERO PUSH2 0xE29 JUMPI PUSH2 0xE28 PUSH2 0xDCC JUMP JUMPDEST JUMPDEST SWAP3 SWAP2 POP POP JUMP JUMPDEST PUSH32 0x4E487B7100000000000000000000000000000000000000000000000000000000 PUSH1 0x0 MSTORE PUSH1 0x32 PUSH1 0x4 MSTORE PUSH1 0x24 PUSH1 0x0 REVERT JUMPDEST PUSH32 0x4E487B7100000000000000000000000000000000000000000000000000000000 PUSH1 0x0 MSTORE PUSH1 0x22 PUSH1 0x4 MSTORE PUSH1 0x24 PUSH1 0x0 REVERT JUMPDEST PUSH1 0x0 PUSH1 0x2 DUP3 DIV SWAP1 POP PUSH1 0x1 DUP3 AND DUP1 PUSH2 0xEA5 JUMPI PUSH1 0x7F DUP3 AND SWAP2 POP JUMPDEST PUSH1 0x20 DUP3 LT DUP2 SUB PUSH2 0xEB8 JUMPI PUSH2 0xEB7 PUSH2 0xE5E JUMP JUMPDEST JUMPDEST POP SWAP2 SWAP1 POP JUMP JUMPDEST PUSH1 0x0 DUP2 SWAP1 POP DUP2 PUSH1 0x0 MSTORE PUSH1 0x20 PUSH1 0x0 KECCAK256 SWAP1 POP SWAP2 SWAP1 POP JUMP JUMPDEST PUSH1 0x0 PUSH1 0x20 PUSH1 0x1F DUP4 ADD DIV SWAP1 POP SWAP2 SWAP1 POP JUMP JUMPDEST PUSH1 0x0 DUP3 DUP3 SHL SWAP1 POP SWAP3 SWAP2 POP POP JUMP JUMPDEST PUSH1 0x0 PUSH1 0x8 DUP4 MUL PUSH2 0xF20 PUSH32 0xFFFFFFFFFFFFFFFFFFFFFFFFFFFFFFFFFFFFFFFFFFFFFFFFFFFFFFFFFFFFFFFF DUP3 PUSH2 0xEE3 JUMP JUMPDEST PUSH2 0xF2A DUP7 DUP4 PUSH2 0xEE3 JUMP JUMPDEST SWAP6 POP DUP1 NOT DUP5 AND SWAP4 POP DUP1 DUP7 AND DUP5 OR SWAP3 POP POP POP SWAP4 SWAP3 POP POP POP JUMP JUMPDEST PUSH1 0x0 DUP2 SWAP1 POP SWAP2 SWAP1 POP JUMP JUMPDEST PUSH1 0x0 PUSH2 0xF67 PUSH2 0xF62 PUSH2 0xF5D DUP5 PUSH2 0xC5F JUMP JUMPDEST PUSH2 0xF42 JUMP JUMPDEST PUSH2 0xC5F JUMP JUMPDEST SWAP1 POP SWAP2 SWAP1 POP JUMP JUMPDEST PUSH1 0x0 DUP2 SWAP1 POP SWAP2 SWAP1 POP JUMP JUMPDEST PUSH2 0xF81 DUP4 PUSH2 0xF4C JUMP JUMPDEST PUSH2 0xF95 PUSH2 0xF8D DUP3 PUSH2 0xF6E JUMP JUMPDEST DUP5 DUP5 SLOAD PUSH2 0xEF0 JUMP JUMPDEST DUP3 SSTORE POP POP POP POP JUMP JUMPDEST PUSH1 0x0 SWAP1 JUMP JUMPDEST PUSH2 0xFAA PUSH2 0xF9D JUMP JUMPDEST PUSH2 0xFB5 DUP2 DUP5 DUP5 PUSH2 0xF78 JUMP JUMPDEST POP POP POP JUMP JUMPDEST JUMPDEST DUP2 DUP2 LT ISZERO PUSH2 0xFD9 JUMPI PUSH2 0xFCE PUSH1 0x0 DUP3 PUSH2 0xFA2 JUMP JUMPDEST PUSH1 0x1 DUP2 ADD SWAP1 POP PUSH2 0xFBB JUMP JUMPDEST POP POP JUMP JUMPDEST PUSH1 0x1F DUP3 GT ISZERO PUSH2 0x101E JUMPI PUSH2 0xFEF DUP2 PUSH2 0xEBE JUMP JUMPDEST PUSH2 0xFF8 DUP5 PUSH2 0xED3 JUMP JUMPDEST DUP2 ADD PUSH1 0x20 DUP6 LT ISZERO PUSH2 0x1007 JUMPI DUP2 SWAP1 POP JUMPDEST PUSH2 0x101B PUSH2 0x1013 DUP6 PUSH2 0xED3 JUMP JUMPDEST DUP4 ADD DUP3 PUSH2 0xFBA JUMP JUMPDEST POP POP JUMPDEST POP POP POP JUMP JUMPDEST PUSH1 0x0 DUP3 DUP3 SHR SWAP1 POP SWAP3 SWAP2 POP POP JUMP JUMPDEST PUSH1 0x0 PUSH2 0x1041 PUSH1 0x0 NOT DUP5 PUSH1 0x8 MUL PUSH2 0x1023 JUMP JUMPDEST NOT DUP1 DUP4 AND SWAP2 POP POP SWAP3 SWAP2 POP POP JUMP JUMPDEST PUSH1 0x0 PUSH2 0x105A DUP4 DUP4 PUSH2 0x1030 JUMP JUMPDEST SWAP2 POP DUP3 PUSH1 0x2 MUL DUP3 OR SWAP1 POP SWAP3 SWAP2 POP POP JUMP JUMPDEST PUSH2 0x1073 DUP3 PUSH2 0x7D5 JUMP JUMPDEST PUSH8 0xFFFFFFFFFFFFFFFF DUP2 GT ISZERO PUSH2 0x108C JUMPI PUSH2 0x108B PUSH2 0x98C JUMP JUMPDEST JUMPDEST PUSH2 0x1096 DUP3 SLOAD PUSH2 0xE8D JUMP JUMPDEST PUSH2 0x10A1 DUP3 DUP3 DUP6 PUSH2 0xFDD JUMP JUMPDEST PUSH1 0x0 PUSH1 0x20 SWAP1 POP PUSH1 0x1F DUP4 GT PUSH1 0x1 DUP2 EQ PUSH2 0x10D4 JUMPI PUSH1 0x0 DUP5 ISZERO PUSH2 0x10C2 JUMPI DUP3 DUP8 ADD MLOAD SWAP1 POP JUMPDEST PUSH2 0x10CC DUP6 DUP3 PUSH2 0x104E JUMP JUMPDEST DUP7 SSTORE POP PUSH2 0x1134 JUMP JUMPDEST PUSH1 0x1F NOT DUP5 AND PUSH2 0x10E2 DUP7 PUSH2 0xEBE JUMP JUMPDEST PUSH1 0x0 JUMPDEST DUP3 DUP2 LT ISZERO PUSH2 0x110A JUMPI DUP5 DUP10 ADD MLOAD DUP3 SSTORE PUSH1 0x1 DUP3 ADD SWAP2 POP PUSH1 0x20 DUP6 ADD SWAP5 POP PUSH1 0x20 DUP2 ADD SWAP1 POP PUSH2 0x10E5 JUMP JUMPDEST DUP7 DUP4 LT ISZERO PUSH2 0x1127 JUMPI DUP5 DUP10 ADD MLOAD PUSH2 0x1123 PUSH1 0x1F DUP10 AND DUP3 PUSH2 0x1030 JUMP JUMPDEST DUP4 SSTORE POP JUMPDEST PUSH1 0x1 PUSH1 0x2 DUP9 MUL ADD DUP9 SSTORE POP POP POP JUMPDEST POP POP POP POP POP POP JUMP JUMPDEST PUSH1 0x0 DUP2 SWAP1 POP DUP2 PUSH1 0x0 MSTORE PUSH1 0x20 PUSH1 0x0 KECCAK256 SWAP1 POP SWAP2 SWAP1 POP JUMP JUMPDEST PUSH1 0x1F DUP3 GT ISZERO PUSH2 0x1192 JUMPI PUSH2 0x1163 DUP2 PUSH2 0x113C JUMP JUMPDEST PUSH2 0x116C DUP5 PUSH2 0xED3 JUMP JUMPDEST DUP2 ADD PUSH1 0x20 DUP6 LT ISZERO PUSH2 0x117B JUMPI DUP2 SWAP1 POP JUMPDEST PUSH2 0x118F PUSH2 0x1187 DUP6 PUSH2 0xED3 JUMP JUMPDEST DUP4 ADD DUP3 PUSH2 0xFBA JUMP JUMPDEST POP POP JUMPDEST POP POP POP JUMP JUMPDEST PUSH2 0x11A0 DUP3 PUSH2 0x865 JUMP JUMPDEST PUSH8 0xFFFFFFFFFFFFFFFF DUP2 GT ISZERO PUSH2 0x11B9 JUMPI PUSH2 0x11B8 PUSH2 0x98C JUMP JUMPDEST JUMPDEST PUSH2 0x11C3 DUP3 SLOAD PUSH2 0xE8D JUMP JUMPDEST PUSH2 0x11CE DUP3 DUP3 DUP6 PUSH2 0x1151 JUMP JUMPDEST PUSH1 0x0 PUSH1 0x20 SWAP1 POP PUSH1 0x1F DUP4 GT PUSH1 0x1 DUP2 EQ PUSH2 0x1201 JUMPI PUSH1 0x0 DUP5 ISZERO PUSH2 0x11EF JUMPI DUP3 DUP8 ADD MLOAD SWAP1 POP JUMPDEST PUSH2 0x11F9 DUP6 DUP3 PUSH2 0x104E JUMP JUMPDEST DUP7 SSTORE POP PUSH2 0x1261 JUMP JUMPDEST PUSH1 0x1F NOT DUP5 AND PUSH2 0x120F DUP7 PUSH2 0x113C JUMP JUMPDEST PUSH1 0x0 JUMPDEST DUP3 DUP2 LT ISZERO PUSH2 0x1237 JUMPI DUP5 DUP10 ADD MLOAD DUP3 SSTORE PUSH1 0x1 DUP3 ADD SWAP2 POP PUSH1 0x20 DUP6 ADD SWAP5 POP PUSH1 0x20 DUP2 ADD SWAP1 POP PUSH2 0x1212 JUMP JUMPDEST DUP7 DUP4 LT ISZERO PUSH2 0x1254 JUMPI DUP5 DUP10 ADD MLOAD PUSH2 0x1250 PUSH1 0x1F DUP10 AND DUP3 PUSH2 0x1030 JUMP JUMPDEST DUP4 SSTORE POP JUMPDEST PUSH1 0x1 PUSH1 0x2 DUP9 MUL ADD DUP9 SSTORE POP POP POP JUMPDEST POP POP POP POP POP POP JUMP INVALID LOG2 PUSH5 0x6970667358 0x22 SLT KECCAK256 0xAC 0x4D 0xD9 0x5D SMOD LOG2 0xE DIV ISZERO 0x24 EXTCODECOPY ORIGIN 0xA6 LOG4 0xBA SELFBALANCE 0xC9 0x4D PUSH30 0x3F95165389185E344E80192F9F64736F6C63430008120033000000000000 "
				},
				"gasEstimates": {
					"creation": {
						"codeDepositCost": "953400",
						"executionCost": "988",
						"totalCost": "954388"
					},
					"external": {
						"addPatch(string,string,string,string,bytes)": "infinite",
						"arr(uint256)": "infinite",
						"sendPatch()": "infinite"
					}
				},
				"methodIdentifiers": {
					"addPatch(string,string,string,string,bytes)": "6674ec7c",
					"arr(uint256)": "71e5ee5f",
					"sendPatch()": "28f1cd7c"
				}
			},
			"storageLayout": {
				"storage": [
					{
						"astId": 16,
						"contract": "Verification.sol:PatchUpload",
						"label": "arr",
						"offset": 0,
						"slot": "0",
						"type": "t_array(t_struct(Details)12_storage)dyn_storage"
					}
				],
				"types": {
					"t_array(t_struct(Details)12_storage)dyn_storage": {
						"base": "t_struct(Details)12_storage",
						"encoding": "dynamic_array",
						"label": "struct Details[]",
						"numberOfBytes": "32"
					},
					"t_bytes_storage": {
						"encoding": "bytes",
						"label": "bytes",
						"numberOfBytes": "32"
					},
					"t_string_storage": {
						"encoding": "bytes",
						"label": "string",
						"numberOfBytes": "32"
					},
					"t_struct(Details)12_storage": {
						"encoding": "inplace",
						"label": "struct Details",
						"members": [
							{
								"astId": 3,
								"contract": "Verification.sol:PatchUpload",
								"label": "time_rn",
								"offset": 0,
								"slot": "0",
								"type": "t_string_storage"
							},
							{
								"astId": 5,
								"contract": "Verification.sol:PatchUpload",
								"label": "patch_name",
								"offset": 0,
								"slot": "1",
								"type": "t_string_storage"
							},
							{
								"astId": 7,
								"contract": "Verification.sol:PatchUpload",
								"label": "version_number",
								"offset": 0,
								"slot": "2",
								"type": "t_string_storage"
							},
							{
								"astId": 9,
								"contract": "Verification.sol:PatchUpload",
								"label": "file_name",
								"offset": 0,
								"slot": "3",
								"type": "t_string_storage"
							},
							{
								"astId": 11,
								"contract": "Verification.sol:PatchUpload",
								"label": "patch",
								"offset": 0,
								"slot": "4",
								"type": "t_bytes_storage"
							}
						],
						"numberOfBytes": "160"
					}
				}
			},
			"userdoc": {
				"kind": "user",
				"methods": {},
				"version": 1
			}
		}
	}
}