{
	"Patches.sol": {
		"Patch": {
			"abi": [
				{
					"inputs": [
						{
							"internalType": "uint256",
							"name": "",
							"type": "uint256"
						}
					],
					"name": "bugs_arr",
					"outputs": [
						{
							"internalType": "string",
							"name": "bug_name",
							"type": "string"
						},
						{
							"internalType": "string",
							"name": "bug_description",
							"type": "string"
						},
						{
							"internalType": "string",
							"name": "bug_priority",
							"type": "string"
						}
					],
					"stateMutability": "view",
					"type": "function"
				},
				{
					"inputs": [
						{
							"internalType": "uint256",
							"name": "",
							"type": "uint256"
						}
					],
					"name": "features_arr",
					"outputs": [
						{
							"internalType": "string",
							"name": "feature_name",
							"type": "string"
						},
						{
							"internalType": "string",
							"name": "feature_description",
							"type": "string"
						},
						{
							"internalType": "string",
							"name": "feature_priority",
							"type": "string"
						}
					],
					"stateMutability": "view",
					"type": "function"
				},
				{
					"inputs": [
						{
							"internalType": "string[][]",
							"name": "new_b",
							"type": "string[][]"
						},
						{
							"internalType": "string[][]",
							"name": "new_f",
							"type": "string[][]"
						}
					],
					"name": "get_list",
					"outputs": [],
					"stateMutability": "nonpayable",
					"type": "function"
				},
				{
					"inputs": [],
					"name": "send_list",
					"outputs": [
						{
							"components": [
								{
									"internalType": "string",
									"name": "bug_name",
									"type": "string"
								},
								{
									"internalType": "string",
									"name": "bug_description",
									"type": "string"
								},
								{
									"internalType": "string",
									"name": "bug_priority",
									"type": "string"
								}
							],
							"internalType": "struct Bugs[]",
							"name": "",
							"type": "tuple[]"
						},
						{
							"components": [
								{
									"internalType": "string",
									"name": "feature_name",
									"type": "string"
								},
								{
									"internalType": "string",
									"name": "feature_description",
									"type": "string"
								},
								{
									"internalType": "string",
									"name": "feature_priority",
									"type": "string"
								}
							],
							"internalType": "struct Features[]",
							"name": "",
							"type": "tuple[]"
						}
					],
					"stateMutability": "view",
					"type": "function"
				}
			],
			"devdoc": {
				"kind": "dev",
				"methods": {},
				"version": 1
			},
			"evm": {
				"assembly": "    /* \"Patches.sol\":278:1187  contract Patch{... */\n  mstore(0x40, 0x80)\n    /* \"Patches.sol\":295:310  string h=\"HIGH\" */\n  mload(0x40)\n  dup1\n  0x40\n  add\n  0x40\n  mstore\n  dup1\n  0x04\n  dup2\n  mstore\n  0x20\n  add\n  0x4849474800000000000000000000000000000000000000000000000000000000\n  dup2\n  mstore\n  pop\n  0x00\n  swap1\n  dup2\n  tag_1\n  swap2\n  swap1\n  tag_2\n  jump\t// in\ntag_1:\n  pop\n    /* \"Patches.sol\":278:1187  contract Patch{... */\n  callvalue\n  dup1\n  iszero\n  tag_3\n  jumpi\n  0x00\n  dup1\n  revert\ntag_3:\n  pop\n  jump(tag_4)\n    /* \"#utility.yul\":7:106   */\ntag_5:\n    /* \"#utility.yul\":59:65   */\n  0x00\n    /* \"#utility.yul\":93:98   */\n  dup2\n    /* \"#utility.yul\":87:99   */\n  mload\n    /* \"#utility.yul\":77:99   */\n  swap1\n  pop\n    /* \"#utility.yul\":7:106   */\n  swap2\n  swap1\n  pop\n  jump\t// out\n    /* \"#utility.yul\":112:292   */\ntag_6:\n    /* \"#utility.yul\":160:237   */\n  0x4e487b7100000000000000000000000000000000000000000000000000000000\n    /* \"#utility.yul\":157:158   */\n  0x00\n    /* \"#utility.yul\":150:238   */\n  mstore\n    /* \"#utility.yul\":257:261   */\n  0x41\n    /* \"#utility.yul\":254:255   */\n  0x04\n    /* \"#utility.yul\":247:262   */\n  mstore\n    /* \"#utility.yul\":281:285   */\n  0x24\n    /* \"#utility.yul\":278:279   */\n  0x00\n    /* \"#utility.yul\":271:286   */\n  revert\n    /* \"#utility.yul\":298:478   */\ntag_7:\n    /* \"#utility.yul\":346:423   */\n  0x4e487b7100000000000000000000000000000000000000000000000000000000\n    /* \"#utility.yul\":343:344   */\n  0x00\n    /* \"#utility.yul\":336:424   */\n  mstore\n    /* \"#utility.yul\":443:447   */\n  0x22\n    /* \"#utility.yul\":440:441   */\n  0x04\n    /* \"#utility.yul\":433:448   */\n  mstore\n    /* \"#utility.yul\":467:471   */\n  0x24\n    /* \"#utility.yul\":464:465   */\n  0x00\n    /* \"#utility.yul\":457:472   */\n  revert\n    /* \"#utility.yul\":484:804   */\ntag_8:\n    /* \"#utility.yul\":528:534   */\n  0x00\n    /* \"#utility.yul\":565:566   */\n  0x02\n    /* \"#utility.yul\":559:563   */\n  dup3\n    /* \"#utility.yul\":555:567   */\n  div\n    /* \"#utility.yul\":545:567   */\n  swap1\n  pop\n    /* \"#utility.yul\":612:613   */\n  0x01\n    /* \"#utility.yul\":606:610   */\n  dup3\n    /* \"#utility.yul\":602:614   */\n  and\n    /* \"#utility.yul\":633:651   */\n  dup1\n    /* \"#utility.yul\":623:704   */\n  tag_30\n  jumpi\n    /* \"#utility.yul\":689:693   */\n  0x7f\n    /* \"#utility.yul\":681:687   */\n  dup3\n    /* \"#utility.yul\":677:694   */\n  and\n    /* \"#utility.yul\":667:694   */\n  swap2\n  pop\n    /* \"#utility.yul\":623:704   */\ntag_30:\n    /* \"#utility.yul\":751:753   */\n  0x20\n    /* \"#utility.yul\":743:749   */\n  dup3\n    /* \"#utility.yul\":740:754   */\n  lt\n    /* \"#utility.yul\":720:738   */\n  dup2\n    /* \"#utility.yul\":717:755   */\n  sub\n    /* \"#utility.yul\":714:798   */\n  tag_31\n  jumpi\n    /* \"#utility.yul\":770:788   */\n  tag_32\n  tag_7\n  jump\t// in\ntag_32:\n    /* \"#utility.yul\":714:798   */\ntag_31:\n    /* \"#utility.yul\":535:804   */\n  pop\n    /* \"#utility.yul\":484:804   */\n  swap2\n  swap1\n  pop\n  jump\t// out\n    /* \"#utility.yul\":810:951   */\ntag_9:\n    /* \"#utility.yul\":859:863   */\n  0x00\n    /* \"#utility.yul\":882:885   */\n  dup2\n    /* \"#utility.yul\":874:885   */\n  swap1\n  pop\n    /* \"#utility.yul\":905:908   */\n  dup2\n    /* \"#utility.yul\":902:903   */\n  0x00\n    /* \"#utility.yul\":895:909   */\n  mstore\n    /* \"#utility.yul\":939:943   */\n  0x20\n    /* \"#utility.yul\":936:937   */\n  0x00\n    /* \"#utility.yul\":926:944   */\n  keccak256\n    /* \"#utility.yul\":918:944   */\n  swap1\n  pop\n    /* \"#utility.yul\":810:951   */\n  swap2\n  swap1\n  pop\n  jump\t// out\n    /* \"#utility.yul\":957:1050   */\ntag_10:\n    /* \"#utility.yul\":994:1000   */\n  0x00\n    /* \"#utility.yul\":1041:1043   */\n  0x20\n    /* \"#utility.yul\":1036:1038   */\n  0x1f\n    /* \"#utility.yul\":1029:1034   */\n  dup4\n    /* \"#utility.yul\":1025:1039   */\n  add\n    /* \"#utility.yul\":1021:1044   */\n  div\n    /* \"#utility.yul\":1011:1044   */\n  swap1\n  pop\n    /* \"#utility.yul\":957:1050   */\n  swap2\n  swap1\n  pop\n  jump\t// out\n    /* \"#utility.yul\":1056:1163   */\ntag_11:\n    /* \"#utility.yul\":1100:1108   */\n  0x00\n    /* \"#utility.yul\":1150:1155   */\n  dup3\n    /* \"#utility.yul\":1144:1148   */\n  dup3\n    /* \"#utility.yul\":1140:1156   */\n  shl\n    /* \"#utility.yul\":1119:1156   */\n  swap1\n  pop\n    /* \"#utility.yul\":1056:1163   */\n  swap3\n  swap2\n  pop\n  pop\n  jump\t// out\n    /* \"#utility.yul\":1169:1562   */\ntag_12:\n    /* \"#utility.yul\":1238:1244   */\n  0x00\n    /* \"#utility.yul\":1288:1289   */\n  0x08\n    /* \"#utility.yul\":1276:1286   */\n  dup4\n    /* \"#utility.yul\":1272:1290   */\n  mul\n    /* \"#utility.yul\":1311:1408   */\n  tag_37\n    /* \"#utility.yul\":1341:1407   */\n  0xffffffffffffffffffffffffffffffffffffffffffffffffffffffffffffffff\n    /* \"#utility.yul\":1330:1339   */\n  dup3\n    /* \"#utility.yul\":1311:1408   */\n  tag_11\n  jump\t// in\ntag_37:\n    /* \"#utility.yul\":1429:1468   */\n  tag_38\n    /* \"#utility.yul\":1459:1467   */\n  dup7\n    /* \"#utility.yul\":1448:1457   */\n  dup4\n    /* \"#utility.yul\":1429:1468   */\n  tag_11\n  jump\t// in\ntag_38:\n    /* \"#utility.yul\":1417:1468   */\n  swap6\n  pop\n    /* \"#utility.yul\":1501:1505   */\n  dup1\n    /* \"#utility.yul\":1497:1506   */\n  not\n    /* \"#utility.yul\":1490:1495   */\n  dup5\n    /* \"#utility.yul\":1486:1507   */\n  and\n    /* \"#utility.yul\":1477:1507   */\n  swap4\n  pop\n    /* \"#utility.yul\":1550:1554   */\n  dup1\n    /* \"#utility.yul\":1540:1548   */\n  dup7\n    /* \"#utility.yul\":1536:1555   */\n  and\n    /* \"#utility.yul\":1529:1534   */\n  dup5\n    /* \"#utility.yul\":1526:1556   */\n  or\n    /* \"#utility.yul\":1516:1556   */\n  swap3\n  pop\n    /* \"#utility.yul\":1245:1562   */\n  pop\n  pop\n    /* \"#utility.yul\":1169:1562   */\n  swap4\n  swap3\n  pop\n  pop\n  pop\n  jump\t// out\n    /* \"#utility.yul\":1568:1645   */\ntag_13:\n    /* \"#utility.yul\":1605:1612   */\n  0x00\n    /* \"#utility.yul\":1634:1639   */\n  dup2\n    /* \"#utility.yul\":1623:1639   */\n  swap1\n  pop\n    /* \"#utility.yul\":1568:1645   */\n  swap2\n  swap1\n  pop\n  jump\t// out\n    /* \"#utility.yul\":1651:1711   */\ntag_14:\n    /* \"#utility.yul\":1679:1682   */\n  0x00\n    /* \"#utility.yul\":1700:1705   */\n  dup2\n    /* \"#utility.yul\":1693:1705   */\n  swap1\n  pop\n    /* \"#utility.yul\":1651:1711   */\n  swap2\n  swap1\n  pop\n  jump\t// out\n    /* \"#utility.yul\":1717:1859   */\ntag_15:\n    /* \"#utility.yul\":1767:1776   */\n  0x00\n    /* \"#utility.yul\":1800:1853   */\n  tag_42\n    /* \"#utility.yul\":1818:1852   */\n  tag_43\n    /* \"#utility.yul\":1827:1851   */\n  tag_44\n    /* \"#utility.yul\":1845:1850   */\n  dup5\n    /* \"#utility.yul\":1827:1851   */\n  tag_13\n  jump\t// in\ntag_44:\n    /* \"#utility.yul\":1818:1852   */\n  tag_14\n  jump\t// in\ntag_43:\n    /* \"#utility.yul\":1800:1853   */\n  tag_13\n  jump\t// in\ntag_42:\n    /* \"#utility.yul\":1787:1853   */\n  swap1\n  pop\n    /* \"#utility.yul\":1717:1859   */\n  swap2\n  swap1\n  pop\n  jump\t// out\n    /* \"#utility.yul\":1865:1940   */\ntag_16:\n    /* \"#utility.yul\":1908:1911   */\n  0x00\n    /* \"#utility.yul\":1929:1934   */\n  dup2\n    /* \"#utility.yul\":1922:1934   */\n  swap1\n  pop\n    /* \"#utility.yul\":1865:1940   */\n  swap2\n  swap1\n  pop\n  jump\t// out\n    /* \"#utility.yul\":1946:2215   */\ntag_17:\n    /* \"#utility.yul\":2056:2095   */\n  tag_47\n    /* \"#utility.yul\":2087:2094   */\n  dup4\n    /* \"#utility.yul\":2056:2095   */\n  tag_15\n  jump\t// in\ntag_47:\n    /* \"#utility.yul\":2117:2208   */\n  tag_48\n    /* \"#utility.yul\":2166:2207   */\n  tag_49\n    /* \"#utility.yul\":2190:2206   */\n  dup3\n    /* \"#utility.yul\":2166:2207   */\n  tag_16\n  jump\t// in\ntag_49:\n    /* \"#utility.yul\":2158:2164   */\n  dup5\n    /* \"#utility.yul\":2151:2155   */\n  dup5\n    /* \"#utility.yul\":2145:2156   */\n  sload\n    /* \"#utility.yul\":2117:2208   */\n  tag_12\n  jump\t// in\ntag_48:\n    /* \"#utility.yul\":2111:2115   */\n  dup3\n    /* \"#utility.yul\":2104:2209   */\n  sstore\n    /* \"#utility.yul\":2022:2215   */\n  pop\n    /* \"#utility.yul\":1946:2215   */\n  pop\n  pop\n  pop\n  jump\t// out\n    /* \"#utility.yul\":2221:2294   */\ntag_18:\n    /* \"#utility.yul\":2266:2269   */\n  0x00\n    /* \"#utility.yul\":2221:2294   */\n  swap1\n  jump\t// out\n    /* \"#utility.yul\":2300:2489   */\ntag_19:\n    /* \"#utility.yul\":2377:2409   */\n  tag_52\n  tag_18\n  jump\t// in\ntag_52:\n    /* \"#utility.yul\":2418:2483   */\n  tag_53\n    /* \"#utility.yul\":2476:2482   */\n  dup2\n    /* \"#utility.yul\":2468:2474   */\n  dup5\n    /* \"#utility.yul\":2462:2466   */\n  dup5\n    /* \"#utility.yul\":2418:2483   */\n  tag_17\n  jump\t// in\ntag_53:\n    /* \"#utility.yul\":2353:2489   */\n  pop\n    /* \"#utility.yul\":2300:2489   */\n  pop\n  pop\n  jump\t// out\n    /* \"#utility.yul\":2495:2681   */\ntag_20:\n    /* \"#utility.yul\":2555:2675   */\ntag_55:\n    /* \"#utility.yul\":2572:2575   */\n  dup2\n    /* \"#utility.yul\":2565:2570   */\n  dup2\n    /* \"#utility.yul\":2562:2576   */\n  lt\n    /* \"#utility.yul\":2555:2675   */\n  iszero\n  tag_57\n  jumpi\n    /* \"#utility.yul\":2626:2665   */\n  tag_58\n    /* \"#utility.yul\":2663:2664   */\n  0x00\n    /* \"#utility.yul\":2656:2661   */\n  dup3\n    /* \"#utility.yul\":2626:2665   */\n  tag_19\n  jump\t// in\ntag_58:\n    /* \"#utility.yul\":2599:2600   */\n  0x01\n    /* \"#utility.yul\":2592:2597   */\n  dup2\n    /* \"#utility.yul\":2588:2601   */\n  add\n    /* \"#utility.yul\":2579:2601   */\n  swap1\n  pop\n    /* \"#utility.yul\":2555:2675   */\n  jump(tag_55)\ntag_57:\n    /* \"#utility.yul\":2495:2681   */\n  pop\n  pop\n  jump\t// out\n    /* \"#utility.yul\":2687:3230   */\ntag_21:\n    /* \"#utility.yul\":2788:2790   */\n  0x1f\n    /* \"#utility.yul\":2783:2786   */\n  dup3\n    /* \"#utility.yul\":2780:2791   */\n  gt\n    /* \"#utility.yul\":2777:3223   */\n  iszero\n  tag_60\n  jumpi\n    /* \"#utility.yul\":2822:2860   */\n  tag_61\n    /* \"#utility.yul\":2854:2859   */\n  dup2\n    /* \"#utility.yul\":2822:2860   */\n  tag_9\n  jump\t// in\ntag_61:\n    /* \"#utility.yul\":2906:2935   */\n  tag_62\n    /* \"#utility.yul\":2924:2934   */\n  dup5\n    /* \"#utility.yul\":2906:2935   */\n  tag_10\n  jump\t// in\ntag_62:\n    /* \"#utility.yul\":2896:2904   */\n  dup2\n    /* \"#utility.yul\":2892:2936   */\n  add\n    /* \"#utility.yul\":3089:3091   */\n  0x20\n    /* \"#utility.yul\":3077:3087   */\n  dup6\n    /* \"#utility.yul\":3074:3092   */\n  lt\n    /* \"#utility.yul\":3071:3120   */\n  iszero\n  tag_63\n  jumpi\n    /* \"#utility.yul\":3110:3118   */\n  dup2\n    /* \"#utility.yul\":3095:3118   */\n  swap1\n  pop\n    /* \"#utility.yul\":3071:3120   */\ntag_63:\n    /* \"#utility.yul\":3133:3213   */\n  tag_64\n    /* \"#utility.yul\":3189:3211   */\n  tag_65\n    /* \"#utility.yul\":3207:3210   */\n  dup6\n    /* \"#utility.yul\":3189:3211   */\n  tag_10\n  jump\t// in\ntag_65:\n    /* \"#utility.yul\":3179:3187   */\n  dup4\n    /* \"#utility.yul\":3175:3212   */\n  add\n    /* \"#utility.yul\":3162:3173   */\n  dup3\n    /* \"#utility.yul\":3133:3213   */\n  tag_20\n  jump\t// in\ntag_64:\n    /* \"#utility.yul\":2792:3223   */\n  pop\n  pop\n    /* \"#utility.yul\":2777:3223   */\ntag_60:\n    /* \"#utility.yul\":2687:3230   */\n  pop\n  pop\n  pop\n  jump\t// out\n    /* \"#utility.yul\":3236:3353   */\ntag_22:\n    /* \"#utility.yul\":3290:3298   */\n  0x00\n    /* \"#utility.yul\":3340:3345   */\n  dup3\n    /* \"#utility.yul\":3334:3338   */\n  dup3\n    /* \"#utility.yul\":3330:3346   */\n  shr\n    /* \"#utility.yul\":3309:3346   */\n  swap1\n  pop\n    /* \"#utility.yul\":3236:3353   */\n  swap3\n  swap2\n  pop\n  pop\n  jump\t// out\n    /* \"#utility.yul\":3359:3528   */\ntag_23:\n    /* \"#utility.yul\":3403:3409   */\n  0x00\n    /* \"#utility.yul\":3436:3487   */\n  tag_68\n    /* \"#utility.yul\":3484:3485   */\n  0x00\n    /* \"#utility.yul\":3480:3486   */\n  not\n    /* \"#utility.yul\":3472:3477   */\n  dup5\n    /* \"#utility.yul\":3469:3470   */\n  0x08\n    /* \"#utility.yul\":3465:3478   */\n  mul\n    /* \"#utility.yul\":3436:3487   */\n  tag_22\n  jump\t// in\ntag_68:\n    /* \"#utility.yul\":3432:3488   */\n  not\n    /* \"#utility.yul\":3517:3521   */\n  dup1\n    /* \"#utility.yul\":3511:3515   */\n  dup4\n    /* \"#utility.yul\":3507:3522   */\n  and\n    /* \"#utility.yul\":3497:3522   */\n  swap2\n  pop\n    /* \"#utility.yul\":3410:3528   */\n  pop\n    /* \"#utility.yul\":3359:3528   */\n  swap3\n  swap2\n  pop\n  pop\n  jump\t// out\n    /* \"#utility.yul\":3533:3828   */\ntag_24:\n    /* \"#utility.yul\":3609:3613   */\n  0x00\n    /* \"#utility.yul\":3755:3784   */\n  tag_70\n    /* \"#utility.yul\":3780:3783   */\n  dup4\n    /* \"#utility.yul\":3774:3778   */\n  dup4\n    /* \"#utility.yul\":3755:3784   */\n  tag_23\n  jump\t// in\ntag_70:\n    /* \"#utility.yul\":3747:3784   */\n  swap2\n  pop\n    /* \"#utility.yul\":3817:3820   */\n  dup3\n    /* \"#utility.yul\":3814:3815   */\n  0x02\n    /* \"#utility.yul\":3810:3821   */\n  mul\n    /* \"#utility.yul\":3804:3808   */\n  dup3\n    /* \"#utility.yul\":3801:3822   */\n  or\n    /* \"#utility.yul\":3793:3822   */\n  swap1\n  pop\n    /* \"#utility.yul\":3533:3828   */\n  swap3\n  swap2\n  pop\n  pop\n  jump\t// out\n    /* \"#utility.yul\":3833:5228   */\ntag_2:\n    /* \"#utility.yul\":3950:3987   */\n  tag_72\n    /* \"#utility.yul\":3983:3986   */\n  dup3\n    /* \"#utility.yul\":3950:3987   */\n  tag_5\n  jump\t// in\ntag_72:\n    /* \"#utility.yul\":4052:4070   */\n  0xffffffffffffffff\n    /* \"#utility.yul\":4044:4050   */\n  dup2\n    /* \"#utility.yul\":4041:4071   */\n  gt\n    /* \"#utility.yul\":4038:4094   */\n  iszero\n  tag_73\n  jumpi\n    /* \"#utility.yul\":4074:4092   */\n  tag_74\n  tag_6\n  jump\t// in\ntag_74:\n    /* \"#utility.yul\":4038:4094   */\ntag_73:\n    /* \"#utility.yul\":4118:4156   */\n  tag_75\n    /* \"#utility.yul\":4150:4154   */\n  dup3\n    /* \"#utility.yul\":4144:4155   */\n  sload\n    /* \"#utility.yul\":4118:4156   */\n  tag_8\n  jump\t// in\ntag_75:\n    /* \"#utility.yul\":4203:4270   */\n  tag_76\n    /* \"#utility.yul\":4263:4269   */\n  dup3\n    /* \"#utility.yul\":4255:4261   */\n  dup3\n    /* \"#utility.yul\":4249:4253   */\n  dup6\n    /* \"#utility.yul\":4203:4270   */\n  tag_21\n  jump\t// in\ntag_76:\n    /* \"#utility.yul\":4297:4298   */\n  0x00\n    /* \"#utility.yul\":4321:4325   */\n  0x20\n    /* \"#utility.yul\":4308:4325   */\n  swap1\n  pop\n    /* \"#utility.yul\":4353:4355   */\n  0x1f\n    /* \"#utility.yul\":4345:4351   */\n  dup4\n    /* \"#utility.yul\":4342:4356   */\n  gt\n    /* \"#utility.yul\":4370:4371   */\n  0x01\n    /* \"#utility.yul\":4365:4983   */\n  dup2\n  eq\n  tag_78\n  jumpi\n    /* \"#utility.yul\":5027:5028   */\n  0x00\n    /* \"#utility.yul\":5044:5050   */\n  dup5\n    /* \"#utility.yul\":5041:5118   */\n  iszero\n  tag_79\n  jumpi\n    /* \"#utility.yul\":5093:5102   */\n  dup3\n    /* \"#utility.yul\":5088:5091   */\n  dup8\n    /* \"#utility.yul\":5084:5103   */\n  add\n    /* \"#utility.yul\":5078:5104   */\n  mload\n    /* \"#utility.yul\":5069:5104   */\n  swap1\n  pop\n    /* \"#utility.yul\":5041:5118   */\ntag_79:\n    /* \"#utility.yul\":5144:5211   */\n  tag_80\n    /* \"#utility.yul\":5204:5210   */\n  dup6\n    /* \"#utility.yul\":5197:5202   */\n  dup3\n    /* \"#utility.yul\":5144:5211   */\n  tag_24\n  jump\t// in\ntag_80:\n    /* \"#utility.yul\":5138:5142   */\n  dup7\n    /* \"#utility.yul\":5131:5212   */\n  sstore\n    /* \"#utility.yul\":5000:5222   */\n  pop\n    /* \"#utility.yul\":4335:5222   */\n  jump(tag_77)\n    /* \"#utility.yul\":4365:4983   */\ntag_78:\n    /* \"#utility.yul\":4417:4421   */\n  0x1f\n    /* \"#utility.yul\":4413:4422   */\n  not\n    /* \"#utility.yul\":4405:4411   */\n  dup5\n    /* \"#utility.yul\":4401:4423   */\n  and\n    /* \"#utility.yul\":4451:4488   */\n  tag_81\n    /* \"#utility.yul\":4483:4487   */\n  dup7\n    /* \"#utility.yul\":4451:4488   */\n  tag_9\n  jump\t// in\ntag_81:\n    /* \"#utility.yul\":4510:4511   */\n  0x00\n    /* \"#utility.yul\":4524:4732   */\ntag_82:\n    /* \"#utility.yul\":4538:4545   */\n  dup3\n    /* \"#utility.yul\":4535:4536   */\n  dup2\n    /* \"#utility.yul\":4532:4546   */\n  lt\n    /* \"#utility.yul\":4524:4732   */\n  iszero\n  tag_84\n  jumpi\n    /* \"#utility.yul\":4617:4626   */\n  dup5\n    /* \"#utility.yul\":4612:4615   */\n  dup10\n    /* \"#utility.yul\":4608:4627   */\n  add\n    /* \"#utility.yul\":4602:4628   */\n  mload\n    /* \"#utility.yul\":4594:4600   */\n  dup3\n    /* \"#utility.yul\":4587:4629   */\n  sstore\n    /* \"#utility.yul\":4668:4669   */\n  0x01\n    /* \"#utility.yul\":4660:4666   */\n  dup3\n    /* \"#utility.yul\":4656:4670   */\n  add\n    /* \"#utility.yul\":4646:4670   */\n  swap2\n  pop\n    /* \"#utility.yul\":4715:4717   */\n  0x20\n    /* \"#utility.yul\":4704:4713   */\n  dup6\n    /* \"#utility.yul\":4700:4718   */\n  add\n    /* \"#utility.yul\":4687:4718   */\n  swap5\n  pop\n    /* \"#utility.yul\":4561:4565   */\n  0x20\n    /* \"#utility.yul\":4558:4559   */\n  dup2\n    /* \"#utility.yul\":4554:4566   */\n  add\n    /* \"#utility.yul\":4549:4566   */\n  swap1\n  pop\n    /* \"#utility.yul\":4524:4732   */\n  jump(tag_82)\ntag_84:\n    /* \"#utility.yul\":4760:4766   */\n  dup7\n    /* \"#utility.yul\":4751:4758   */\n  dup4\n    /* \"#utility.yul\":4748:4767   */\n  lt\n    /* \"#utility.yul\":4745:4924   */\n  iszero\n  tag_85\n  jumpi\n    /* \"#utility.yul\":4818:4827   */\n  dup5\n    /* \"#utility.yul\":4813:4816   */\n  dup10\n    /* \"#utility.yul\":4809:4828   */\n  add\n    /* \"#utility.yul\":4803:4829   */\n  mload\n    /* \"#utility.yul\":4861:4909   */\n  tag_86\n    /* \"#utility.yul\":4903:4907   */\n  0x1f\n    /* \"#utility.yul\":4895:4901   */\n  dup10\n    /* \"#utility.yul\":4891:4908   */\n  and\n    /* \"#utility.yul\":4880:4889   */\n  dup3\n    /* \"#utility.yul\":4861:4909   */\n  tag_23\n  jump\t// in\ntag_86:\n    /* \"#utility.yul\":4853:4859   */\n  dup4\n    /* \"#utility.yul\":4846:4910   */\n  sstore\n    /* \"#utility.yul\":4768:4924   */\n  pop\n    /* \"#utility.yul\":4745:4924   */\ntag_85:\n    /* \"#utility.yul\":4970:4971   */\n  0x01\n    /* \"#utility.yul\":4966:4967   */\n  0x02\n    /* \"#utility.yul\":4958:4964   */\n  dup9\n    /* \"#utility.yul\":4954:4968   */\n  mul\n    /* \"#utility.yul\":4950:4972   */\n  add\n    /* \"#utility.yul\":4944:4948   */\n  dup9\n    /* \"#utility.yul\":4937:4973   */\n  sstore\n    /* \"#utility.yul\":4372:4983   */\n  pop\n  pop\n  pop\n    /* \"#utility.yul\":4335:5222   */\ntag_77:\n  pop\n    /* \"#utility.yul\":3925:5228   */\n  pop\n  pop\n  pop\n    /* \"#utility.yul\":3833:5228   */\n  pop\n  pop\n  jump\t// out\n    /* \"Patches.sol\":278:1187  contract Patch{... */\ntag_4:\n  dataSize(sub_0)\n  dup1\n  dataOffset(sub_0)\n  0x00\n  codecopy\n  0x00\n  return\nstop\n\nsub_0: assembly {\n        /* \"Patches.sol\":278:1187  contract Patch{... */\n      mstore(0x40, 0x80)\n      callvalue\n      dup1\n      iszero\n      tag_1\n      jumpi\n      0x00\n      dup1\n      revert\n    tag_1:\n      pop\n      jumpi(tag_2, lt(calldatasize, 0x04))\n      shr(0xe0, calldataload(0x00))\n      dup1\n      0x5faa043d\n      eq\n      tag_3\n      jumpi\n      dup1\n      0x88f80098\n      eq\n      tag_4\n      jumpi\n      dup1\n      0xb87dff89\n      eq\n      tag_5\n      jumpi\n      dup1\n      0xded1166c\n      eq\n      tag_6\n      jumpi\n    tag_2:\n      0x00\n      dup1\n      revert\n        /* \"Patches.sol\":346:376  Features[] public features_arr */\n    tag_3:\n      tag_7\n      0x04\n      dup1\n      calldatasize\n      sub\n      dup2\n      add\n      swap1\n      tag_8\n      swap2\n      swap1\n      tag_9\n      jump\t// in\n    tag_8:\n      tag_10\n      jump\t// in\n    tag_7:\n      mload(0x40)\n      tag_11\n      swap4\n      swap3\n      swap2\n      swap1\n      tag_12\n      jump\t// in\n    tag_11:\n      mload(0x40)\n      dup1\n      swap2\n      sub\n      swap1\n      return\n        /* \"Patches.sol\":383:1052  function get_list(string[][] memory new_b,string[][] memory new_f) public{... */\n    tag_4:\n      tag_13\n      0x04\n      dup1\n      calldatasize\n      sub\n      dup2\n      add\n      swap1\n      tag_14\n      swap2\n      swap1\n      tag_15\n      jump\t// in\n    tag_14:\n      tag_16\n      jump\t// in\n    tag_13:\n      stop\n        /* \"Patches.sol\":1058:1182  function send_list() public view returns(Bugs[] memory, Features[] memory ){... */\n    tag_5:\n      tag_17\n      tag_18\n      jump\t// in\n    tag_17:\n      mload(0x40)\n      tag_19\n      swap3\n      swap2\n      swap1\n      tag_20\n      jump\t// in\n    tag_19:\n      mload(0x40)\n      dup1\n      swap2\n      sub\n      swap1\n      return\n        /* \"Patches.sol\":317:339  Bugs[] public bugs_arr */\n    tag_6:\n      tag_21\n      0x04\n      dup1\n      calldatasize\n      sub\n      dup2\n      add\n      swap1\n      tag_22\n      swap2\n      swap1\n      tag_9\n      jump\t// in\n    tag_22:\n      tag_23\n      jump\t// in\n    tag_21:\n      mload(0x40)\n      tag_24\n      swap4\n      swap3\n      swap2\n      swap1\n      tag_12\n      jump\t// in\n    tag_24:\n      mload(0x40)\n      dup1\n      swap2\n      sub\n      swap1\n      return\n        /* \"Patches.sol\":346:376  Features[] public features_arr */\n    tag_10:\n      0x02\n      dup2\n      dup2\n      sload\n      dup2\n      lt\n      tag_25\n      jumpi\n      0x00\n      dup1\n      revert\n    tag_25:\n      swap1\n      0x00\n      mstore\n      keccak256(0x00, 0x20)\n      swap1\n      0x03\n      mul\n      add\n      0x00\n      swap2\n      pop\n      swap1\n      pop\n      dup1\n      0x00\n      add\n      dup1\n      sload\n      tag_27\n      swap1\n      tag_28\n      jump\t// in\n    tag_27:\n      dup1\n      0x1f\n      add\n      0x20\n      dup1\n      swap2\n      div\n      mul\n      0x20\n      add\n      mload(0x40)\n      swap1\n      dup2\n      add\n      0x40\n      mstore\n      dup1\n      swap3\n      swap2\n      swap1\n      dup2\n      dup2\n      mstore\n      0x20\n      add\n      dup3\n      dup1\n      sload\n      tag_29\n      swap1\n      tag_28\n      jump\t// in\n    tag_29:\n      dup1\n      iszero\n      tag_30\n      jumpi\n      dup1\n      0x1f\n      lt\n      tag_31\n      jumpi\n      0x0100\n      dup1\n      dup4\n      sload\n      div\n      mul\n      dup4\n      mstore\n      swap2\n      0x20\n      add\n      swap2\n      jump(tag_30)\n    tag_31:\n      dup3\n      add\n      swap2\n      swap1\n      0x00\n      mstore\n      keccak256(0x00, 0x20)\n      swap1\n    tag_32:\n      dup2\n      sload\n      dup2\n      mstore\n      swap1\n      0x01\n      add\n      swap1\n      0x20\n      add\n      dup1\n      dup4\n      gt\n      tag_32\n      jumpi\n      dup3\n      swap1\n      sub\n      0x1f\n      and\n      dup3\n      add\n      swap2\n    tag_30:\n      pop\n      pop\n      pop\n      pop\n      pop\n      swap1\n      dup1\n      0x01\n      add\n      dup1\n      sload\n      tag_33\n      swap1\n      tag_28\n      jump\t// in\n    tag_33:\n      dup1\n      0x1f\n      add\n      0x20\n      dup1\n      swap2\n      div\n      mul\n      0x20\n      add\n      mload(0x40)\n      swap1\n      dup2\n      add\n      0x40\n      mstore\n      dup1\n      swap3\n      swap2\n      swap1\n      dup2\n      dup2\n      mstore\n      0x20\n      add\n      dup3\n      dup1\n      sload\n      tag_34\n      swap1\n      tag_28\n      jump\t// in\n    tag_34:\n      dup1\n      iszero\n      tag_35\n      jumpi\n      dup1\n      0x1f\n      lt\n      tag_36\n      jumpi\n      0x0100\n      dup1\n      dup4\n      sload\n      div\n      mul\n      dup4\n      mstore\n      swap2\n      0x20\n      add\n      swap2\n      jump(tag_35)\n    tag_36:\n      dup3\n      add\n      swap2\n      swap1\n      0x00\n      mstore\n      keccak256(0x00, 0x20)\n      swap1\n    tag_37:\n      dup2\n      sload\n      dup2\n      mstore\n      swap1\n      0x01\n      add\n      swap1\n      0x20\n      add\n      dup1\n      dup4\n      gt\n      tag_37\n      jumpi\n      dup3\n      swap1\n      sub\n      0x1f\n      and\n      dup3\n      add\n      swap2\n    tag_35:\n      pop\n      pop\n      pop\n      pop\n      pop\n      swap1\n      dup1\n      0x02\n      add\n      dup1\n      sload\n      tag_38\n      swap1\n      tag_28\n      jump\t// in\n    tag_38:\n      dup1\n      0x1f\n      add\n      0x20\n      dup1\n      swap2\n      div\n      mul\n      0x20\n      add\n      mload(0x40)\n      swap1\n      dup2\n      add\n      0x40\n      mstore\n      dup1\n      swap3\n      swap2\n      swap1\n      dup2\n      dup2\n      mstore\n      0x20\n      add\n      dup3\n      dup1\n      sload\n      tag_39\n      swap1\n      tag_28\n      jump\t// in\n    tag_39:\n      dup1\n      iszero\n      tag_40\n      jumpi\n      dup1\n      0x1f\n      lt\n      tag_41\n      jumpi\n      0x0100\n      dup1\n      dup4\n      sload\n      div\n      mul\n      dup4\n      mstore\n      swap2\n      0x20\n      add\n      swap2\n      jump(tag_40)\n    tag_41:\n      dup3\n      add\n      swap2\n      swap1\n      0x00\n      mstore\n      keccak256(0x00, 0x20)\n      swap1\n    tag_42:\n      dup2\n      sload\n      dup2\n      mstore\n      swap1\n      0x01\n      add\n      swap1\n      0x20\n      add\n      dup1\n      dup4\n      gt\n      tag_42\n      jumpi\n      dup3\n      swap1\n      sub\n      0x1f\n      and\n      dup3\n      add\n      swap2\n    tag_40:\n      pop\n      pop\n      pop\n      pop\n      pop\n      swap1\n      pop\n      dup4\n      jump\t// out\n        /* \"Patches.sol\":383:1052  function get_list(string[][] memory new_b,string[][] memory new_f) public{... */\n    tag_16:\n        /* \"Patches.sol\":474:482  bugs_arr */\n      0x01\n      0x00\n        /* \"Patches.sol\":467:482  delete bugs_arr */\n      tag_44\n      swap2\n      swap1\n      tag_45\n      jump\t// in\n    tag_44:\n        /* \"Patches.sol\":497:503  uint i */\n      0x00\n        /* \"Patches.sol\":493:739  for(uint i=0;i<new_b.length;i++){... */\n    tag_46:\n        /* \"Patches.sol\":508:513  new_b */\n      dup3\n        /* \"Patches.sol\":508:520  new_b.length */\n      mload\n        /* \"Patches.sol\":506:507  i */\n      dup2\n        /* \"Patches.sol\":506:520  i<new_b.length */\n      lt\n        /* \"Patches.sol\":493:739  for(uint i=0;i<new_b.length;i++){... */\n      iszero\n      tag_47\n      jumpi\n        /* \"Patches.sol\":540:556  Bugs memory temp */\n      tag_49\n      tag_50\n      jump\t// in\n    tag_49:\n        /* \"Patches.sol\":587:592  new_b */\n      dup4\n        /* \"Patches.sol\":593:594  i */\n      dup3\n        /* \"Patches.sol\":587:595  new_b[i] */\n      dup2\n      mload\n      dup2\n      lt\n      tag_51\n      jumpi\n      tag_52\n      tag_53\n      jump\t// in\n    tag_52:\n    tag_51:\n      0x20\n      mul\n      0x20\n      add\n      add\n      mload\n        /* \"Patches.sol\":596:597  0 */\n      0x00\n        /* \"Patches.sol\":587:598  new_b[i][0] */\n      dup2\n      mload\n      dup2\n      lt\n      tag_54\n      jumpi\n      tag_55\n      tag_53\n      jump\t// in\n    tag_55:\n    tag_54:\n      0x20\n      mul\n      0x20\n      add\n      add\n      mload\n        /* \"Patches.sol\":571:575  temp */\n      dup2\n        /* \"Patches.sol\":571:584  temp.bug_name */\n      0x00\n      add\n        /* \"Patches.sol\":571:598  temp.bug_name = new_b[i][0] */\n      dup2\n      swap1\n      mstore\n      pop\n        /* \"Patches.sol\":636:641  new_b */\n      dup4\n        /* \"Patches.sol\":642:643  i */\n      dup3\n        /* \"Patches.sol\":636:644  new_b[i] */\n      dup2\n      mload\n      dup2\n      lt\n      tag_56\n      jumpi\n      tag_57\n      tag_53\n      jump\t// in\n    tag_57:\n    tag_56:\n      0x20\n      mul\n      0x20\n      add\n      add\n      mload\n        /* \"Patches.sol\":645:646  1 */\n      0x01\n        /* \"Patches.sol\":636:647  new_b[i][1] */\n      dup2\n      mload\n      dup2\n      lt\n      tag_58\n      jumpi\n      tag_59\n      tag_53\n      jump\t// in\n    tag_59:\n    tag_58:\n      0x20\n      mul\n      0x20\n      add\n      add\n      mload\n        /* \"Patches.sol\":613:617  temp */\n      dup2\n        /* \"Patches.sol\":613:633  temp.bug_description */\n      0x20\n      add\n        /* \"Patches.sol\":613:647  temp.bug_description = new_b[i][1] */\n      dup2\n      swap1\n      mstore\n      pop\n        /* \"Patches.sol\":682:687  new_b */\n      dup4\n        /* \"Patches.sol\":688:689  i */\n      dup3\n        /* \"Patches.sol\":682:690  new_b[i] */\n      dup2\n      mload\n      dup2\n      lt\n      tag_60\n      jumpi\n      tag_61\n      tag_53\n      jump\t// in\n    tag_61:\n    tag_60:\n      0x20\n      mul\n      0x20\n      add\n      add\n      mload\n        /* \"Patches.sol\":691:692  2 */\n      0x02\n        /* \"Patches.sol\":682:693  new_b[i][2] */\n      dup2\n      mload\n      dup2\n      lt\n      tag_62\n      jumpi\n      tag_63\n      tag_53\n      jump\t// in\n    tag_63:\n    tag_62:\n      0x20\n      mul\n      0x20\n      add\n      add\n      mload\n        /* \"Patches.sol\":662:666  temp */\n      dup2\n        /* \"Patches.sol\":662:679  temp.bug_priority */\n      0x40\n      add\n        /* \"Patches.sol\":662:693  temp.bug_priority = new_b[i][2] */\n      dup2\n      swap1\n      mstore\n      pop\n        /* \"Patches.sol\":708:716  bugs_arr */\n      0x01\n        /* \"Patches.sol\":722:726  temp */\n      dup2\n        /* \"Patches.sol\":708:727  bugs_arr.push(temp) */\n      swap1\n      dup1\n      0x01\n      dup2\n      sload\n      add\n      dup1\n      dup3\n      sstore\n      dup1\n      swap2\n      pop\n      pop\n      0x01\n      swap1\n      sub\n      swap1\n      0x00\n      mstore\n      keccak256(0x00, 0x20)\n      swap1\n      0x03\n      mul\n      add\n      0x00\n      swap1\n      swap2\n      swap1\n      swap2\n      swap1\n      swap2\n      pop\n      0x00\n      dup3\n      add\n      mload\n      dup2\n      0x00\n      add\n      swap1\n      dup2\n      tag_65\n      swap2\n      swap1\n      tag_66\n      jump\t// in\n    tag_65:\n      pop\n      0x20\n      dup3\n      add\n      mload\n      dup2\n      0x01\n      add\n      swap1\n      dup2\n      tag_67\n      swap2\n      swap1\n      tag_66\n      jump\t// in\n    tag_67:\n      pop\n      0x40\n      dup3\n      add\n      mload\n      dup2\n      0x02\n      add\n      swap1\n      dup2\n      tag_68\n      swap2\n      swap1\n      tag_66\n      jump\t// in\n    tag_68:\n      pop\n      pop\n      pop\n        /* \"Patches.sol\":525:739  {... */\n      pop\n        /* \"Patches.sol\":521:524  i++ */\n      dup1\n      dup1\n      tag_69\n      swap1\n      tag_70\n      jump\t// in\n    tag_69:\n      swap2\n      pop\n      pop\n        /* \"Patches.sol\":493:739  for(uint i=0;i<new_b.length;i++){... */\n      jump(tag_46)\n    tag_47:\n      pop\n        /* \"Patches.sol\":756:768  features_arr */\n      0x02\n      0x00\n        /* \"Patches.sol\":749:768  delete features_arr */\n      tag_71\n      swap2\n      swap1\n      tag_72\n      jump\t// in\n    tag_71:\n        /* \"Patches.sol\":783:789  uint i */\n      0x00\n        /* \"Patches.sol\":779:1045  for(uint i=0;i<new_f.length;i++){... */\n    tag_73:\n        /* \"Patches.sol\":794:799  new_f */\n      dup2\n        /* \"Patches.sol\":794:806  new_f.length */\n      mload\n        /* \"Patches.sol\":792:793  i */\n      dup2\n        /* \"Patches.sol\":792:806  i<new_f.length */\n      lt\n        /* \"Patches.sol\":779:1045  for(uint i=0;i<new_f.length;i++){... */\n      iszero\n      tag_74\n      jumpi\n        /* \"Patches.sol\":826:846  Features memory temp */\n      tag_76\n      tag_77\n      jump\t// in\n    tag_76:\n        /* \"Patches.sol\":881:886  new_f */\n      dup3\n        /* \"Patches.sol\":887:888  i */\n      dup3\n        /* \"Patches.sol\":881:889  new_f[i] */\n      dup2\n      mload\n      dup2\n      lt\n      tag_78\n      jumpi\n      tag_79\n      tag_53\n      jump\t// in\n    tag_79:\n    tag_78:\n      0x20\n      mul\n      0x20\n      add\n      add\n      mload\n        /* \"Patches.sol\":890:891  0 */\n      0x00\n        /* \"Patches.sol\":881:892  new_f[i][0] */\n      dup2\n      mload\n      dup2\n      lt\n      tag_80\n      jumpi\n      tag_81\n      tag_53\n      jump\t// in\n    tag_81:\n    tag_80:\n      0x20\n      mul\n      0x20\n      add\n      add\n      mload\n        /* \"Patches.sol\":861:865  temp */\n      dup2\n        /* \"Patches.sol\":861:878  temp.feature_name */\n      0x00\n      add\n        /* \"Patches.sol\":861:892  temp.feature_name = new_f[i][0] */\n      dup2\n      swap1\n      mstore\n      pop\n        /* \"Patches.sol\":934:939  new_f */\n      dup3\n        /* \"Patches.sol\":940:941  i */\n      dup3\n        /* \"Patches.sol\":934:942  new_f[i] */\n      dup2\n      mload\n      dup2\n      lt\n      tag_82\n      jumpi\n      tag_83\n      tag_53\n      jump\t// in\n    tag_83:\n    tag_82:\n      0x20\n      mul\n      0x20\n      add\n      add\n      mload\n        /* \"Patches.sol\":943:944  1 */\n      0x01\n        /* \"Patches.sol\":934:945  new_f[i][1] */\n      dup2\n      mload\n      dup2\n      lt\n      tag_84\n      jumpi\n      tag_85\n      tag_53\n      jump\t// in\n    tag_85:\n    tag_84:\n      0x20\n      mul\n      0x20\n      add\n      add\n      mload\n        /* \"Patches.sol\":907:911  temp */\n      dup2\n        /* \"Patches.sol\":907:931  temp.feature_description */\n      0x20\n      add\n        /* \"Patches.sol\":907:945  temp.feature_description = new_f[i][1] */\n      dup2\n      swap1\n      mstore\n      pop\n        /* \"Patches.sol\":984:989  new_f */\n      dup3\n        /* \"Patches.sol\":990:991  i */\n      dup3\n        /* \"Patches.sol\":984:992  new_f[i] */\n      dup2\n      mload\n      dup2\n      lt\n      tag_86\n      jumpi\n      tag_87\n      tag_53\n      jump\t// in\n    tag_87:\n    tag_86:\n      0x20\n      mul\n      0x20\n      add\n      add\n      mload\n        /* \"Patches.sol\":993:994  2 */\n      0x02\n        /* \"Patches.sol\":984:995  new_f[i][2] */\n      dup2\n      mload\n      dup2\n      lt\n      tag_88\n      jumpi\n      tag_89\n      tag_53\n      jump\t// in\n    tag_89:\n    tag_88:\n      0x20\n      mul\n      0x20\n      add\n      add\n      mload\n        /* \"Patches.sol\":960:964  temp */\n      dup2\n        /* \"Patches.sol\":960:981  temp.feature_priority */\n      0x40\n      add\n        /* \"Patches.sol\":960:995  temp.feature_priority = new_f[i][2] */\n      dup2\n      swap1\n      mstore\n      pop\n        /* \"Patches.sol\":1010:1022  features_arr */\n      0x02\n        /* \"Patches.sol\":1028:1032  temp */\n      dup2\n        /* \"Patches.sol\":1010:1033  features_arr.push(temp) */\n      swap1\n      dup1\n      0x01\n      dup2\n      sload\n      add\n      dup1\n      dup3\n      sstore\n      dup1\n      swap2\n      pop\n      pop\n      0x01\n      swap1\n      sub\n      swap1\n      0x00\n      mstore\n      keccak256(0x00, 0x20)\n      swap1\n      0x03\n      mul\n      add\n      0x00\n      swap1\n      swap2\n      swap1\n      swap2\n      swap1\n      swap2\n      pop\n      0x00\n      dup3\n      add\n      mload\n      dup2\n      0x00\n      add\n      swap1\n      dup2\n      tag_91\n      swap2\n      swap1\n      tag_66\n      jump\t// in\n    tag_91:\n      pop\n      0x20\n      dup3\n      add\n      mload\n      dup2\n      0x01\n      add\n      swap1\n      dup2\n      tag_92\n      swap2\n      swap1\n      tag_66\n      jump\t// in\n    tag_92:\n      pop\n      0x40\n      dup3\n      add\n      mload\n      dup2\n      0x02\n      add\n      swap1\n      dup2\n      tag_93\n      swap2\n      swap1\n      tag_66\n      jump\t// in\n    tag_93:\n      pop\n      pop\n      pop\n        /* \"Patches.sol\":811:1045  {... */\n      pop\n        /* \"Patches.sol\":807:810  i++ */\n      dup1\n      dup1\n      tag_94\n      swap1\n      tag_70\n      jump\t// in\n    tag_94:\n      swap2\n      pop\n      pop\n        /* \"Patches.sol\":779:1045  for(uint i=0;i<new_f.length;i++){... */\n      jump(tag_73)\n    tag_74:\n      pop\n        /* \"Patches.sol\":383:1052  function get_list(string[][] memory new_b,string[][] memory new_f) public{... */\n      pop\n      pop\n      jump\t// out\n        /* \"Patches.sol\":1058:1182  function send_list() public view returns(Bugs[] memory, Features[] memory ){... */\n    tag_18:\n        /* \"Patches.sol\":1099:1112  Bugs[] memory */\n      0x60\n        /* \"Patches.sol\":1114:1131  Features[] memory */\n      dup1\n        /* \"Patches.sol\":1152:1160  bugs_arr */\n      0x01\n        /* \"Patches.sol\":1161:1173  features_arr */\n      0x02\n        /* \"Patches.sol\":1144:1174  return (bugs_arr,features_arr) */\n      dup2\n      dup1\n      sload\n      dup1\n      0x20\n      mul\n      0x20\n      add\n      mload(0x40)\n      swap1\n      dup2\n      add\n      0x40\n      mstore\n      dup1\n      swap3\n      swap2\n      swap1\n      dup2\n      dup2\n      mstore\n      0x20\n      add\n      0x00\n      swap1\n    tag_96:\n      dup3\n      dup3\n      lt\n      iszero\n      tag_97\n      jumpi\n      dup4\n      dup3\n      swap1\n      0x00\n      mstore\n      keccak256(0x00, 0x20)\n      swap1\n      0x03\n      mul\n      add\n      mload(0x40)\n      dup1\n      0x60\n      add\n      0x40\n      mstore\n      swap1\n      dup2\n      0x00\n      dup3\n      add\n      dup1\n      sload\n      tag_99\n      swap1\n      tag_28\n      jump\t// in\n    tag_99:\n      dup1\n      0x1f\n      add\n      0x20\n      dup1\n      swap2\n      div\n      mul\n      0x20\n      add\n      mload(0x40)\n      swap1\n      dup2\n      add\n      0x40\n      mstore\n      dup1\n      swap3\n      swap2\n      swap1\n      dup2\n      dup2\n      mstore\n      0x20\n      add\n      dup3\n      dup1\n      sload\n      tag_100\n      swap1\n      tag_28\n      jump\t// in\n    tag_100:\n      dup1\n      iszero\n      tag_101\n      jumpi\n      dup1\n      0x1f\n      lt\n      tag_102\n      jumpi\n      0x0100\n      dup1\n      dup4\n      sload\n      div\n      mul\n      dup4\n      mstore\n      swap2\n      0x20\n      add\n      swap2\n      jump(tag_101)\n    tag_102:\n      dup3\n      add\n      swap2\n      swap1\n      0x00\n      mstore\n      keccak256(0x00, 0x20)\n      swap1\n    tag_103:\n      dup2\n      sload\n      dup2\n      mstore\n      swap1\n      0x01\n      add\n      swap1\n      0x20\n      add\n      dup1\n      dup4\n      gt\n      tag_103\n      jumpi\n      dup3\n      swap1\n      sub\n      0x1f\n      and\n      dup3\n      add\n      swap2\n    tag_101:\n      pop\n      pop\n      pop\n      pop\n      pop\n      dup2\n      mstore\n      0x20\n      add\n      0x01\n      dup3\n      add\n      dup1\n      sload\n      tag_104\n      swap1\n      tag_28\n      jump\t// in\n    tag_104:\n      dup1\n      0x1f\n      add\n      0x20\n      dup1\n      swap2\n      div\n      mul\n      0x20\n      add\n      mload(0x40)\n      swap1\n      dup2\n      add\n      0x40\n      mstore\n      dup1\n      swap3\n      swap2\n      swap1\n      dup2\n      dup2\n      mstore\n      0x20\n      add\n      dup3\n      dup1\n      sload\n      tag_105\n      swap1\n      tag_28\n      jump\t// in\n    tag_105:\n      dup1\n      iszero\n      tag_106\n      jumpi\n      dup1\n      0x1f\n      lt\n      tag_107\n      jumpi\n      0x0100\n      dup1\n      dup4\n      sload\n      div\n      mul\n      dup4\n      mstore\n      swap2\n      0x20\n      add\n      swap2\n      jump(tag_106)\n    tag_107:\n      dup3\n      add\n      swap2\n      swap1\n      0x00\n      mstore\n      keccak256(0x00, 0x20)\n      swap1\n    tag_108:\n      dup2\n      sload\n      dup2\n      mstore\n      swap1\n      0x01\n      add\n      swap1\n      0x20\n      add\n      dup1\n      dup4\n      gt\n      tag_108\n      jumpi\n      dup3\n      swap1\n      sub\n      0x1f\n      and\n      dup3\n      add\n      swap2\n    tag_106:\n      pop\n      pop\n      pop\n      pop\n      pop\n      dup2\n      mstore\n      0x20\n      add\n      0x02\n      dup3\n      add\n      dup1\n      sload\n      tag_109\n      swap1\n      tag_28\n      jump\t// in\n    tag_109:\n      dup1\n      0x1f\n      add\n      0x20\n      dup1\n      swap2\n      div\n      mul\n      0x20\n      add\n      mload(0x40)\n      swap1\n      dup2\n      add\n      0x40\n      mstore\n      dup1\n      swap3\n      swap2\n      swap1\n      dup2\n      dup2\n      mstore\n      0x20\n      add\n      dup3\n      dup1\n      sload\n      tag_110\n      swap1\n      tag_28\n      jump\t// in\n    tag_110:\n      dup1\n      iszero\n      tag_111\n      jumpi\n      dup1\n      0x1f\n      lt\n      tag_112\n      jumpi\n      0x0100\n      dup1\n      dup4\n      sload\n      div\n      mul\n      dup4\n      mstore\n      swap2\n      0x20\n      add\n      swap2\n      jump(tag_111)\n    tag_112:\n      dup3\n      add\n      swap2\n      swap1\n      0x00\n      mstore\n      keccak256(0x00, 0x20)\n      swap1\n    tag_113:\n      dup2\n      sload\n      dup2\n      mstore\n      swap1\n      0x01\n      add\n      swap1\n      0x20\n      add\n      dup1\n      dup4\n      gt\n      tag_113\n      jumpi\n      dup3\n      swap1\n      sub\n      0x1f\n      and\n      dup3\n      add\n      swap2\n    tag_111:\n      pop\n      pop\n      pop\n      pop\n      pop\n      dup2\n      mstore\n      pop\n      pop\n      dup2\n      mstore\n      0x20\n      add\n      swap1\n      0x01\n      add\n      swap1\n      jump(tag_96)\n    tag_97:\n      pop\n      pop\n      pop\n      pop\n      swap2\n      pop\n      dup1\n      dup1\n      sload\n      dup1\n      0x20\n      mul\n      0x20\n      add\n      mload(0x40)\n      swap1\n      dup2\n      add\n      0x40\n      mstore\n      dup1\n      swap3\n      swap2\n      swap1\n      dup2\n      dup2\n      mstore\n      0x20\n      add\n      0x00\n      swap1\n    tag_114:\n      dup3\n      dup3\n      lt\n      iszero\n      tag_115\n      jumpi\n      dup4\n      dup3\n      swap1\n      0x00\n      mstore\n      keccak256(0x00, 0x20)\n      swap1\n      0x03\n      mul\n      add\n      mload(0x40)\n      dup1\n      0x60\n      add\n      0x40\n      mstore\n      swap1\n      dup2\n      0x00\n      dup3\n      add\n      dup1\n      sload\n      tag_117\n      swap1\n      tag_28\n      jump\t// in\n    tag_117:\n      dup1\n      0x1f\n      add\n      0x20\n      dup1\n      swap2\n      div\n      mul\n      0x20\n      add\n      mload(0x40)\n      swap1\n      dup2\n      add\n      0x40\n      mstore\n      dup1\n      swap3\n      swap2\n      swap1\n      dup2\n      dup2\n      mstore\n      0x20\n      add\n      dup3\n      dup1\n      sload\n      tag_118\n      swap1\n      tag_28\n      jump\t// in\n    tag_118:\n      dup1\n      iszero\n      tag_119\n      jumpi\n      dup1\n      0x1f\n      lt\n      tag_120\n      jumpi\n      0x0100\n      dup1\n      dup4\n      sload\n      div\n      mul\n      dup4\n      mstore\n      swap2\n      0x20\n      add\n      swap2\n      jump(tag_119)\n    tag_120:\n      dup3\n      add\n      swap2\n      swap1\n      0x00\n      mstore\n      keccak256(0x00, 0x20)\n      swap1\n    tag_121:\n      dup2\n      sload\n      dup2\n      mstore\n      swap1\n      0x01\n      add\n      swap1\n      0x20\n      add\n      dup1\n      dup4\n      gt\n      tag_121\n      jumpi\n      dup3\n      swap1\n      sub\n      0x1f\n      and\n      dup3\n      add\n      swap2\n    tag_119:\n      pop\n      pop\n      pop\n      pop\n      pop\n      dup2\n      mstore\n      0x20\n      add\n      0x01\n      dup3\n      add\n      dup1\n      sload\n      tag_122\n      swap1\n      tag_28\n      jump\t// in\n    tag_122:\n      dup1\n      0x1f\n      add\n      0x20\n      dup1\n      swap2\n      div\n      mul\n      0x20\n      add\n      mload(0x40)\n      swap1\n      dup2\n      add\n      0x40\n      mstore\n      dup1\n      swap3\n      swap2\n      swap1\n      dup2\n      dup2\n      mstore\n      0x20\n      add\n      dup3\n      dup1\n      sload\n      tag_123\n      swap1\n      tag_28\n      jump\t// in\n    tag_123:\n      dup1\n      iszero\n      tag_124\n      jumpi\n      dup1\n      0x1f\n      lt\n      tag_125\n      jumpi\n      0x0100\n      dup1\n      dup4\n      sload\n      div\n      mul\n      dup4\n      mstore\n      swap2\n      0x20\n      add\n      swap2\n      jump(tag_124)\n    tag_125:\n      dup3\n      add\n      swap2\n      swap1\n      0x00\n      mstore\n      keccak256(0x00, 0x20)\n      swap1\n    tag_126:\n      dup2\n      sload\n      dup2\n      mstore\n      swap1\n      0x01\n      add\n      swap1\n      0x20\n      add\n      dup1\n      dup4\n      gt\n      tag_126\n      jumpi\n      dup3\n      swap1\n      sub\n      0x1f\n      and\n      dup3\n      add\n      swap2\n    tag_124:\n      pop\n      pop\n      pop\n      pop\n      pop\n      dup2\n      mstore\n      0x20\n      add\n      0x02\n      dup3\n      add\n      dup1\n      sload\n      tag_127\n      swap1\n      tag_28\n      jump\t// in\n    tag_127:\n      dup1\n      0x1f\n      add\n      0x20\n      dup1\n      swap2\n      div\n      mul\n      0x20\n      add\n      mload(0x40)\n      swap1\n      dup2\n      add\n      0x40\n      mstore\n      dup1\n      swap3\n      swap2\n      swap1\n      dup2\n      dup2\n      mstore\n      0x20\n      add\n      dup3\n      dup1\n      sload\n      tag_128\n      swap1\n      tag_28\n      jump\t// in\n    tag_128:\n      dup1\n      iszero\n      tag_129\n      jumpi\n      dup1\n      0x1f\n      lt\n      tag_130\n      jumpi\n      0x0100\n      dup1\n      dup4\n      sload\n      div\n      mul\n      dup4\n      mstore\n      swap2\n      0x20\n      add\n      swap2\n      jump(tag_129)\n    tag_130:\n      dup3\n      add\n      swap2\n      swap1\n      0x00\n      mstore\n      keccak256(0x00, 0x20)\n      swap1\n    tag_131:\n      dup2\n      sload\n      dup2\n      mstore\n      swap1\n      0x01\n      add\n      swap1\n      0x20\n      add\n      dup1\n      dup4\n      gt\n      tag_131\n      jumpi\n      dup3\n      swap1\n      sub\n      0x1f\n      and\n      dup3\n      add\n      swap2\n    tag_129:\n      pop\n      pop\n      pop\n      pop\n      pop\n      dup2\n      mstore\n      pop\n      pop\n      dup2\n      mstore\n      0x20\n      add\n      swap1\n      0x01\n      add\n      swap1\n      jump(tag_114)\n    tag_115:\n      pop\n      pop\n      pop\n      pop\n      swap1\n      pop\n      swap2\n      pop\n      swap2\n      pop\n        /* \"Patches.sol\":1058:1182  function send_list() public view returns(Bugs[] memory, Features[] memory ){... */\n      swap1\n      swap2\n      jump\t// out\n        /* \"Patches.sol\":317:339  Bugs[] public bugs_arr */\n    tag_23:\n      0x01\n      dup2\n      dup2\n      sload\n      dup2\n      lt\n      tag_132\n      jumpi\n      0x00\n      dup1\n      revert\n    tag_132:\n      swap1\n      0x00\n      mstore\n      keccak256(0x00, 0x20)\n      swap1\n      0x03\n      mul\n      add\n      0x00\n      swap2\n      pop\n      swap1\n      pop\n      dup1\n      0x00\n      add\n      dup1\n      sload\n      tag_134\n      swap1\n      tag_28\n      jump\t// in\n    tag_134:\n      dup1\n      0x1f\n      add\n      0x20\n      dup1\n      swap2\n      div\n      mul\n      0x20\n      add\n      mload(0x40)\n      swap1\n      dup2\n      add\n      0x40\n      mstore\n      dup1\n      swap3\n      swap2\n      swap1\n      dup2\n      dup2\n      mstore\n      0x20\n      add\n      dup3\n      dup1\n      sload\n      tag_135\n      swap1\n      tag_28\n      jump\t// in\n    tag_135:\n      dup1\n      iszero\n      tag_136\n      jumpi\n      dup1\n      0x1f\n      lt\n      tag_137\n      jumpi\n      0x0100\n      dup1\n      dup4\n      sload\n      div\n      mul\n      dup4\n      mstore\n      swap2\n      0x20\n      add\n      swap2\n      jump(tag_136)\n    tag_137:\n      dup3\n      add\n      swap2\n      swap1\n      0x00\n      mstore\n      keccak256(0x00, 0x20)\n      swap1\n    tag_138:\n      dup2\n      sload\n      dup2\n      mstore\n      swap1\n      0x01\n      add\n      swap1\n      0x20\n      add\n      dup1\n      dup4\n      gt\n      tag_138\n      jumpi\n      dup3\n      swap1\n      sub\n      0x1f\n      and\n      dup3\n      add\n      swap2\n    tag_136:\n      pop\n      pop\n      pop\n      pop\n      pop\n      swap1\n      dup1\n      0x01\n      add\n      dup1\n      sload\n      tag_139\n      swap1\n      tag_28\n      jump\t// in\n    tag_139:\n      dup1\n      0x1f\n      add\n      0x20\n      dup1\n      swap2\n      div\n      mul\n      0x20\n      add\n      mload(0x40)\n      swap1\n      dup2\n      add\n      0x40\n      mstore\n      dup1\n      swap3\n      swap2\n      swap1\n      dup2\n      dup2\n      mstore\n      0x20\n      add\n      dup3\n      dup1\n      sload\n      tag_140\n      swap1\n      tag_28\n      jump\t// in\n    tag_140:\n      dup1\n      iszero\n      tag_141\n      jumpi\n      dup1\n      0x1f\n      lt\n      tag_142\n      jumpi\n      0x0100\n      dup1\n      dup4\n      sload\n      div\n      mul\n      dup4\n      mstore\n      swap2\n      0x20\n      add\n      swap2\n      jump(tag_141)\n    tag_142:\n      dup3\n      add\n      swap2\n      swap1\n      0x00\n      mstore\n      keccak256(0x00, 0x20)\n      swap1\n    tag_143:\n      dup2\n      sload\n      dup2\n      mstore\n      swap1\n      0x01\n      add\n      swap1\n      0x20\n      add\n      dup1\n      dup4\n      gt\n      tag_143\n      jumpi\n      dup3\n      swap1\n      sub\n      0x1f\n      and\n      dup3\n      add\n      swap2\n    tag_141:\n      pop\n      pop\n      pop\n      pop\n      pop\n      swap1\n      dup1\n      0x02\n      add\n      dup1\n      sload\n      tag_144\n      swap1\n      tag_28\n      jump\t// in\n    tag_144:\n      dup1\n      0x1f\n      add\n      0x20\n      dup1\n      swap2\n      div\n      mul\n      0x20\n      add\n      mload(0x40)\n      swap1\n      dup2\n      add\n      0x40\n      mstore\n      dup1\n      swap3\n      swap2\n      swap1\n      dup2\n      dup2\n      mstore\n      0x20\n      add\n      dup3\n      dup1\n      sload\n      tag_145\n      swap1\n      tag_28\n      jump\t// in\n    tag_145:\n      dup1\n      iszero\n      tag_146\n      jumpi\n      dup1\n      0x1f\n      lt\n      tag_147\n      jumpi\n      0x0100\n      dup1\n      dup4\n      sload\n      div\n      mul\n      dup4\n      mstore\n      swap2\n      0x20\n      add\n      swap2\n      jump(tag_146)\n    tag_147:\n      dup3\n      add\n      swap2\n      swap1\n      0x00\n      mstore\n      keccak256(0x00, 0x20)\n      swap1\n    tag_148:\n      dup2\n      sload\n      dup2\n      mstore\n      swap1\n      0x01\n      add\n      swap1\n      0x20\n      add\n      dup1\n      dup4\n      gt\n      tag_148\n      jumpi\n      dup3\n      swap1\n      sub\n      0x1f\n      and\n      dup3\n      add\n      swap2\n    tag_146:\n      pop\n      pop\n      pop\n      pop\n      pop\n      swap1\n      pop\n      dup4\n      jump\t// out\n    tag_45:\n      pop\n      dup1\n      sload\n      0x00\n      dup3\n      sstore\n      0x03\n      mul\n      swap1\n      0x00\n      mstore\n      keccak256(0x00, 0x20)\n      swap1\n      dup2\n      add\n      swap1\n      tag_150\n      swap2\n      swap1\n      tag_151\n      jump\t// in\n    tag_150:\n      pop\n      jump\t// out\n    tag_50:\n      mload(0x40)\n      dup1\n      0x60\n      add\n      0x40\n      mstore\n      dup1\n      0x60\n      dup2\n      mstore\n      0x20\n      add\n      0x60\n      dup2\n      mstore\n      0x20\n      add\n      0x60\n      dup2\n      mstore\n      pop\n      swap1\n      jump\t// out\n    tag_72:\n      pop\n      dup1\n      sload\n      0x00\n      dup3\n      sstore\n      0x03\n      mul\n      swap1\n      0x00\n      mstore\n      keccak256(0x00, 0x20)\n      swap1\n      dup2\n      add\n      swap1\n      tag_153\n      swap2\n      swap1\n      tag_154\n      jump\t// in\n    tag_153:\n      pop\n      jump\t// out\n    tag_77:\n      mload(0x40)\n      dup1\n      0x60\n      add\n      0x40\n      mstore\n      dup1\n      0x60\n      dup2\n      mstore\n      0x20\n      add\n      0x60\n      dup2\n      mstore\n      0x20\n      add\n      0x60\n      dup2\n      mstore\n      pop\n      swap1\n      jump\t// out\n    tag_151:\n    tag_155:\n      dup1\n      dup3\n      gt\n      iszero\n      tag_156\n      jumpi\n      0x00\n      dup1\n      dup3\n      add\n      0x00\n      tag_157\n      swap2\n      swap1\n      tag_158\n      jump\t// in\n    tag_157:\n      0x01\n      dup3\n      add\n      0x00\n      tag_159\n      swap2\n      swap1\n      tag_158\n      jump\t// in\n    tag_159:\n      0x02\n      dup3\n      add\n      0x00\n      tag_160\n      swap2\n      swap1\n      tag_158\n      jump\t// in\n    tag_160:\n      pop\n      0x03\n      add\n      jump(tag_155)\n    tag_156:\n      pop\n      swap1\n      jump\t// out\n    tag_154:\n    tag_161:\n      dup1\n      dup3\n      gt\n      iszero\n      tag_162\n      jumpi\n      0x00\n      dup1\n      dup3\n      add\n      0x00\n      tag_163\n      swap2\n      swap1\n      tag_158\n      jump\t// in\n    tag_163:\n      0x01\n      dup3\n      add\n      0x00\n      tag_164\n      swap2\n      swap1\n      tag_158\n      jump\t// in\n    tag_164:\n      0x02\n      dup3\n      add\n      0x00\n      tag_165\n      swap2\n      swap1\n      tag_158\n      jump\t// in\n    tag_165:\n      pop\n      0x03\n      add\n      jump(tag_161)\n    tag_162:\n      pop\n      swap1\n      jump\t// out\n    tag_158:\n      pop\n      dup1\n      sload\n      tag_166\n      swap1\n      tag_28\n      jump\t// in\n    tag_166:\n      0x00\n      dup3\n      sstore\n      dup1\n      0x1f\n      lt\n      tag_168\n      jumpi\n      pop\n      jump(tag_167)\n    tag_168:\n      0x1f\n      add\n      0x20\n      swap1\n      div\n      swap1\n      0x00\n      mstore\n      keccak256(0x00, 0x20)\n      swap1\n      dup2\n      add\n      swap1\n      tag_169\n      swap2\n      swap1\n      tag_170\n      jump\t// in\n    tag_169:\n    tag_167:\n      pop\n      jump\t// out\n    tag_170:\n    tag_171:\n      dup1\n      dup3\n      gt\n      iszero\n      tag_172\n      jumpi\n      0x00\n      dup2\n      0x00\n      swap1\n      sstore\n      pop\n      0x01\n      add\n      jump(tag_171)\n    tag_172:\n      pop\n      swap1\n      jump\t// out\n        /* \"#utility.yul\":7:82   */\n    tag_173:\n        /* \"#utility.yul\":40:46   */\n      0x00\n        /* \"#utility.yul\":73:75   */\n      0x40\n        /* \"#utility.yul\":67:76   */\n      mload\n        /* \"#utility.yul\":57:76   */\n      swap1\n      pop\n        /* \"#utility.yul\":7:82   */\n      swap1\n      jump\t// out\n        /* \"#utility.yul\":88:205   */\n    tag_174:\n        /* \"#utility.yul\":197:198   */\n      0x00\n        /* \"#utility.yul\":194:195   */\n      dup1\n        /* \"#utility.yul\":187:199   */\n      revert\n        /* \"#utility.yul\":211:328   */\n    tag_175:\n        /* \"#utility.yul\":320:321   */\n      0x00\n        /* \"#utility.yul\":317:318   */\n      dup1\n        /* \"#utility.yul\":310:322   */\n      revert\n        /* \"#utility.yul\":334:411   */\n    tag_176:\n        /* \"#utility.yul\":371:378   */\n      0x00\n        /* \"#utility.yul\":400:405   */\n      dup2\n        /* \"#utility.yul\":389:405   */\n      swap1\n      pop\n        /* \"#utility.yul\":334:411   */\n      swap2\n      swap1\n      pop\n      jump\t// out\n        /* \"#utility.yul\":417:539   */\n    tag_177:\n        /* \"#utility.yul\":490:514   */\n      tag_239\n        /* \"#utility.yul\":508:513   */\n      dup2\n        /* \"#utility.yul\":490:514   */\n      tag_176\n      jump\t// in\n    tag_239:\n        /* \"#utility.yul\":483:488   */\n      dup2\n        /* \"#utility.yul\":480:515   */\n      eq\n        /* \"#utility.yul\":470:533   */\n      tag_240\n      jumpi\n        /* \"#utility.yul\":529:530   */\n      0x00\n        /* \"#utility.yul\":526:527   */\n      dup1\n        /* \"#utility.yul\":519:531   */\n      revert\n        /* \"#utility.yul\":470:533   */\n    tag_240:\n        /* \"#utility.yul\":417:539   */\n      pop\n      jump\t// out\n        /* \"#utility.yul\":545:684   */\n    tag_178:\n        /* \"#utility.yul\":591:596   */\n      0x00\n        /* \"#utility.yul\":629:635   */\n      dup2\n        /* \"#utility.yul\":616:636   */\n      calldataload\n        /* \"#utility.yul\":607:636   */\n      swap1\n      pop\n        /* \"#utility.yul\":645:678   */\n      tag_242\n        /* \"#utility.yul\":672:677   */\n      dup2\n        /* \"#utility.yul\":645:678   */\n      tag_177\n      jump\t// in\n    tag_242:\n        /* \"#utility.yul\":545:684   */\n      swap3\n      swap2\n      pop\n      pop\n      jump\t// out\n        /* \"#utility.yul\":690:1019   */\n    tag_9:\n        /* \"#utility.yul\":749:755   */\n      0x00\n        /* \"#utility.yul\":798:800   */\n      0x20\n        /* \"#utility.yul\":786:795   */\n      dup3\n        /* \"#utility.yul\":777:784   */\n      dup5\n        /* \"#utility.yul\":773:796   */\n      sub\n        /* \"#utility.yul\":769:801   */\n      slt\n        /* \"#utility.yul\":766:885   */\n      iszero\n      tag_244\n      jumpi\n        /* \"#utility.yul\":804:883   */\n      tag_245\n      tag_174\n      jump\t// in\n    tag_245:\n        /* \"#utility.yul\":766:885   */\n    tag_244:\n        /* \"#utility.yul\":924:925   */\n      0x00\n        /* \"#utility.yul\":949:1002   */\n      tag_246\n        /* \"#utility.yul\":994:1001   */\n      dup5\n        /* \"#utility.yul\":985:991   */\n      dup3\n        /* \"#utility.yul\":974:983   */\n      dup6\n        /* \"#utility.yul\":970:992   */\n      add\n        /* \"#utility.yul\":949:1002   */\n      tag_178\n      jump\t// in\n    tag_246:\n        /* \"#utility.yul\":939:1002   */\n      swap2\n      pop\n        /* \"#utility.yul\":895:1012   */\n      pop\n        /* \"#utility.yul\":690:1019   */\n      swap3\n      swap2\n      pop\n      pop\n      jump\t// out\n        /* \"#utility.yul\":1025:1124   */\n    tag_179:\n        /* \"#utility.yul\":1077:1083   */\n      0x00\n        /* \"#utility.yul\":1111:1116   */\n      dup2\n        /* \"#utility.yul\":1105:1117   */\n      mload\n        /* \"#utility.yul\":1095:1117   */\n      swap1\n      pop\n        /* \"#utility.yul\":1025:1124   */\n      swap2\n      swap1\n      pop\n      jump\t// out\n        /* \"#utility.yul\":1130:1299   */\n    tag_180:\n        /* \"#utility.yul\":1214:1225   */\n      0x00\n        /* \"#utility.yul\":1248:1254   */\n      dup3\n        /* \"#utility.yul\":1243:1246   */\n      dup3\n        /* \"#utility.yul\":1236:1255   */\n      mstore\n        /* \"#utility.yul\":1288:1292   */\n      0x20\n        /* \"#utility.yul\":1283:1286   */\n      dup3\n        /* \"#utility.yul\":1279:1293   */\n      add\n        /* \"#utility.yul\":1264:1293   */\n      swap1\n      pop\n        /* \"#utility.yul\":1130:1299   */\n      swap3\n      swap2\n      pop\n      pop\n      jump\t// out\n        /* \"#utility.yul\":1305:1551   */\n    tag_181:\n        /* \"#utility.yul\":1386:1387   */\n      0x00\n        /* \"#utility.yul\":1396:1509   */\n    tag_250:\n        /* \"#utility.yul\":1410:1416   */\n      dup4\n        /* \"#utility.yul\":1407:1408   */\n      dup2\n        /* \"#utility.yul\":1404:1417   */\n      lt\n        /* \"#utility.yul\":1396:1509   */\n      iszero\n      tag_252\n      jumpi\n        /* \"#utility.yul\":1495:1496   */\n      dup1\n        /* \"#utility.yul\":1490:1493   */\n      dup3\n        /* \"#utility.yul\":1486:1497   */\n      add\n        /* \"#utility.yul\":1480:1498   */\n      mload\n        /* \"#utility.yul\":1476:1477   */\n      dup2\n        /* \"#utility.yul\":1471:1474   */\n      dup5\n        /* \"#utility.yul\":1467:1478   */\n      add\n        /* \"#utility.yul\":1460:1499   */\n      mstore\n        /* \"#utility.yul\":1432:1434   */\n      0x20\n        /* \"#utility.yul\":1429:1430   */\n      dup2\n        /* \"#utility.yul\":1425:1435   */\n      add\n        /* \"#utility.yul\":1420:1435   */\n      swap1\n      pop\n        /* \"#utility.yul\":1396:1509   */\n      jump(tag_250)\n    tag_252:\n        /* \"#utility.yul\":1543:1544   */\n      0x00\n        /* \"#utility.yul\":1534:1540   */\n      dup5\n        /* \"#utility.yul\":1529:1532   */\n      dup5\n        /* \"#utility.yul\":1525:1541   */\n      add\n        /* \"#utility.yul\":1518:1545   */\n      mstore\n        /* \"#utility.yul\":1367:1551   */\n      pop\n        /* \"#utility.yul\":1305:1551   */\n      pop\n      pop\n      pop\n      jump\t// out\n        /* \"#utility.yul\":1557:1659   */\n    tag_182:\n        /* \"#utility.yul\":1598:1604   */\n      0x00\n        /* \"#utility.yul\":1649:1651   */\n      0x1f\n        /* \"#utility.yul\":1645:1652   */\n      not\n        /* \"#utility.yul\":1640:1642   */\n      0x1f\n        /* \"#utility.yul\":1633:1638   */\n      dup4\n        /* \"#utility.yul\":1629:1643   */\n      add\n        /* \"#utility.yul\":1625:1653   */\n      and\n        /* \"#utility.yul\":1615:1653   */\n      swap1\n      pop\n        /* \"#utility.yul\":1557:1659   */\n      swap2\n      swap1\n      pop\n      jump\t// out\n        /* \"#utility.yul\":1665:2042   */\n    tag_183:\n        /* \"#utility.yul\":1753:1756   */\n      0x00\n        /* \"#utility.yul\":1781:1820   */\n      tag_255\n        /* \"#utility.yul\":1814:1819   */\n      dup3\n        /* \"#utility.yul\":1781:1820   */\n      tag_179\n      jump\t// in\n    tag_255:\n        /* \"#utility.yul\":1836:1907   */\n      tag_256\n        /* \"#utility.yul\":1900:1906   */\n      dup2\n        /* \"#utility.yul\":1895:1898   */\n      dup6\n        /* \"#utility.yul\":1836:1907   */\n      tag_180\n      jump\t// in\n    tag_256:\n        /* \"#utility.yul\":1829:1907   */\n      swap4\n      pop\n        /* \"#utility.yul\":1916:1981   */\n      tag_257\n        /* \"#utility.yul\":1974:1980   */\n      dup2\n        /* \"#utility.yul\":1969:1972   */\n      dup6\n        /* \"#utility.yul\":1962:1966   */\n      0x20\n        /* \"#utility.yul\":1955:1960   */\n      dup7\n        /* \"#utility.yul\":1951:1967   */\n      add\n        /* \"#utility.yul\":1916:1981   */\n      tag_181\n      jump\t// in\n    tag_257:\n        /* \"#utility.yul\":2006:2035   */\n      tag_258\n        /* \"#utility.yul\":2028:2034   */\n      dup2\n        /* \"#utility.yul\":2006:2035   */\n      tag_182\n      jump\t// in\n    tag_258:\n        /* \"#utility.yul\":2001:2004   */\n      dup5\n        /* \"#utility.yul\":1997:2036   */\n      add\n        /* \"#utility.yul\":1990:2036   */\n      swap2\n      pop\n        /* \"#utility.yul\":1757:2042   */\n      pop\n        /* \"#utility.yul\":1665:2042   */\n      swap3\n      swap2\n      pop\n      pop\n      jump\t// out\n        /* \"#utility.yul\":2048:2763   */\n    tag_12:\n        /* \"#utility.yul\":2257:2261   */\n      0x00\n        /* \"#utility.yul\":2295:2297   */\n      0x60\n        /* \"#utility.yul\":2284:2293   */\n      dup3\n        /* \"#utility.yul\":2280:2298   */\n      add\n        /* \"#utility.yul\":2272:2298   */\n      swap1\n      pop\n        /* \"#utility.yul\":2344:2353   */\n      dup2\n        /* \"#utility.yul\":2338:2342   */\n      dup2\n        /* \"#utility.yul\":2334:2354   */\n      sub\n        /* \"#utility.yul\":2330:2331   */\n      0x00\n        /* \"#utility.yul\":2319:2328   */\n      dup4\n        /* \"#utility.yul\":2315:2332   */\n      add\n        /* \"#utility.yul\":2308:2355   */\n      mstore\n        /* \"#utility.yul\":2372:2450   */\n      tag_260\n        /* \"#utility.yul\":2445:2449   */\n      dup2\n        /* \"#utility.yul\":2436:2442   */\n      dup7\n        /* \"#utility.yul\":2372:2450   */\n      tag_183\n      jump\t// in\n    tag_260:\n        /* \"#utility.yul\":2364:2450   */\n      swap1\n      pop\n        /* \"#utility.yul\":2497:2506   */\n      dup2\n        /* \"#utility.yul\":2491:2495   */\n      dup2\n        /* \"#utility.yul\":2487:2507   */\n      sub\n        /* \"#utility.yul\":2482:2484   */\n      0x20\n        /* \"#utility.yul\":2471:2480   */\n      dup4\n        /* \"#utility.yul\":2467:2485   */\n      add\n        /* \"#utility.yul\":2460:2508   */\n      mstore\n        /* \"#utility.yul\":2525:2603   */\n      tag_261\n        /* \"#utility.yul\":2598:2602   */\n      dup2\n        /* \"#utility.yul\":2589:2595   */\n      dup6\n        /* \"#utility.yul\":2525:2603   */\n      tag_183\n      jump\t// in\n    tag_261:\n        /* \"#utility.yul\":2517:2603   */\n      swap1\n      pop\n        /* \"#utility.yul\":2650:2659   */\n      dup2\n        /* \"#utility.yul\":2644:2648   */\n      dup2\n        /* \"#utility.yul\":2640:2660   */\n      sub\n        /* \"#utility.yul\":2635:2637   */\n      0x40\n        /* \"#utility.yul\":2624:2633   */\n      dup4\n        /* \"#utility.yul\":2620:2638   */\n      add\n        /* \"#utility.yul\":2613:2661   */\n      mstore\n        /* \"#utility.yul\":2678:2756   */\n      tag_262\n        /* \"#utility.yul\":2751:2755   */\n      dup2\n        /* \"#utility.yul\":2742:2748   */\n      dup5\n        /* \"#utility.yul\":2678:2756   */\n      tag_183\n      jump\t// in\n    tag_262:\n        /* \"#utility.yul\":2670:2756   */\n      swap1\n      pop\n        /* \"#utility.yul\":2048:2763   */\n      swap5\n      swap4\n      pop\n      pop\n      pop\n      pop\n      jump\t// out\n        /* \"#utility.yul\":2769:2886   */\n    tag_184:\n        /* \"#utility.yul\":2878:2879   */\n      0x00\n        /* \"#utility.yul\":2875:2876   */\n      dup1\n        /* \"#utility.yul\":2868:2880   */\n      revert\n        /* \"#utility.yul\":2892:3072   */\n    tag_185:\n        /* \"#utility.yul\":2940:3017   */\n      0x4e487b7100000000000000000000000000000000000000000000000000000000\n        /* \"#utility.yul\":2937:2938   */\n      0x00\n        /* \"#utility.yul\":2930:3018   */\n      mstore\n        /* \"#utility.yul\":3037:3041   */\n      0x41\n        /* \"#utility.yul\":3034:3035   */\n      0x04\n        /* \"#utility.yul\":3027:3042   */\n      mstore\n        /* \"#utility.yul\":3061:3065   */\n      0x24\n        /* \"#utility.yul\":3058:3059   */\n      0x00\n        /* \"#utility.yul\":3051:3066   */\n      revert\n        /* \"#utility.yul\":3078:3359   */\n    tag_186:\n        /* \"#utility.yul\":3161:3188   */\n      tag_266\n        /* \"#utility.yul\":3183:3187   */\n      dup3\n        /* \"#utility.yul\":3161:3188   */\n      tag_182\n      jump\t// in\n    tag_266:\n        /* \"#utility.yul\":3153:3159   */\n      dup2\n        /* \"#utility.yul\":3149:3189   */\n      add\n        /* \"#utility.yul\":3291:3297   */\n      dup2\n        /* \"#utility.yul\":3279:3289   */\n      dup2\n        /* \"#utility.yul\":3276:3298   */\n      lt\n        /* \"#utility.yul\":3255:3273   */\n      0xffffffffffffffff\n        /* \"#utility.yul\":3243:3253   */\n      dup3\n        /* \"#utility.yul\":3240:3274   */\n      gt\n        /* \"#utility.yul\":3237:3299   */\n      or\n        /* \"#utility.yul\":3234:3322   */\n      iszero\n      tag_267\n      jumpi\n        /* \"#utility.yul\":3302:3320   */\n      tag_268\n      tag_185\n      jump\t// in\n    tag_268:\n        /* \"#utility.yul\":3234:3322   */\n    tag_267:\n        /* \"#utility.yul\":3342:3352   */\n      dup1\n        /* \"#utility.yul\":3338:3340   */\n      0x40\n        /* \"#utility.yul\":3331:3353   */\n      mstore\n        /* \"#utility.yul\":3121:3359   */\n      pop\n        /* \"#utility.yul\":3078:3359   */\n      pop\n      pop\n      jump\t// out\n        /* \"#utility.yul\":3365:3494   */\n    tag_187:\n        /* \"#utility.yul\":3399:3405   */\n      0x00\n        /* \"#utility.yul\":3426:3446   */\n      tag_270\n      tag_173\n      jump\t// in\n    tag_270:\n        /* \"#utility.yul\":3416:3446   */\n      swap1\n      pop\n        /* \"#utility.yul\":3455:3488   */\n      tag_271\n        /* \"#utility.yul\":3483:3487   */\n      dup3\n        /* \"#utility.yul\":3475:3481   */\n      dup3\n        /* \"#utility.yul\":3455:3488   */\n      tag_186\n      jump\t// in\n    tag_271:\n        /* \"#utility.yul\":3365:3494   */\n      swap2\n      swap1\n      pop\n      jump\t// out\n        /* \"#utility.yul\":3500:3846   */\n    tag_188:\n        /* \"#utility.yul\":3612:3616   */\n      0x00\n        /* \"#utility.yul\":3702:3720   */\n      0xffffffffffffffff\n        /* \"#utility.yul\":3694:3700   */\n      dup3\n        /* \"#utility.yul\":3691:3721   */\n      gt\n        /* \"#utility.yul\":3688:3744   */\n      iszero\n      tag_273\n      jumpi\n        /* \"#utility.yul\":3724:3742   */\n      tag_274\n      tag_185\n      jump\t// in\n    tag_274:\n        /* \"#utility.yul\":3688:3744   */\n    tag_273:\n        /* \"#utility.yul\":3774:3778   */\n      0x20\n        /* \"#utility.yul\":3766:3772   */\n      dup3\n        /* \"#utility.yul\":3762:3779   */\n      mul\n        /* \"#utility.yul\":3754:3779   */\n      swap1\n      pop\n        /* \"#utility.yul\":3834:3838   */\n      0x20\n        /* \"#utility.yul\":3828:3832   */\n      dup2\n        /* \"#utility.yul\":3824:3839   */\n      add\n        /* \"#utility.yul\":3816:3839   */\n      swap1\n      pop\n        /* \"#utility.yul\":3500:3846   */\n      swap2\n      swap1\n      pop\n      jump\t// out\n        /* \"#utility.yul\":3852:3969   */\n    tag_189:\n        /* \"#utility.yul\":3961:3962   */\n      0x00\n        /* \"#utility.yul\":3958:3959   */\n      dup1\n        /* \"#utility.yul\":3951:3963   */\n      revert\n        /* \"#utility.yul\":3975:4296   */\n    tag_190:\n        /* \"#utility.yul\":4062:4066   */\n      0x00\n        /* \"#utility.yul\":4152:4170   */\n      0xffffffffffffffff\n        /* \"#utility.yul\":4144:4150   */\n      dup3\n        /* \"#utility.yul\":4141:4171   */\n      gt\n        /* \"#utility.yul\":4138:4194   */\n      iszero\n      tag_277\n      jumpi\n        /* \"#utility.yul\":4174:4192   */\n      tag_278\n      tag_185\n      jump\t// in\n    tag_278:\n        /* \"#utility.yul\":4138:4194   */\n    tag_277:\n        /* \"#utility.yul\":4224:4228   */\n      0x20\n        /* \"#utility.yul\":4216:4222   */\n      dup3\n        /* \"#utility.yul\":4212:4229   */\n      mul\n        /* \"#utility.yul\":4204:4229   */\n      swap1\n      pop\n        /* \"#utility.yul\":4284:4288   */\n      0x20\n        /* \"#utility.yul\":4278:4282   */\n      dup2\n        /* \"#utility.yul\":4274:4289   */\n      add\n        /* \"#utility.yul\":4266:4289   */\n      swap1\n      pop\n        /* \"#utility.yul\":3975:4296   */\n      swap2\n      swap1\n      pop\n      jump\t// out\n        /* \"#utility.yul\":4302:4419   */\n    tag_191:\n        /* \"#utility.yul\":4411:4412   */\n      0x00\n        /* \"#utility.yul\":4408:4409   */\n      dup1\n        /* \"#utility.yul\":4401:4413   */\n      revert\n        /* \"#utility.yul\":4425:4733   */\n    tag_192:\n        /* \"#utility.yul\":4487:4491   */\n      0x00\n        /* \"#utility.yul\":4577:4595   */\n      0xffffffffffffffff\n        /* \"#utility.yul\":4569:4575   */\n      dup3\n        /* \"#utility.yul\":4566:4596   */\n      gt\n        /* \"#utility.yul\":4563:4619   */\n      iszero\n      tag_281\n      jumpi\n        /* \"#utility.yul\":4599:4617   */\n      tag_282\n      tag_185\n      jump\t// in\n    tag_282:\n        /* \"#utility.yul\":4563:4619   */\n    tag_281:\n        /* \"#utility.yul\":4637:4666   */\n      tag_283\n        /* \"#utility.yul\":4659:4665   */\n      dup3\n        /* \"#utility.yul\":4637:4666   */\n      tag_182\n      jump\t// in\n    tag_283:\n        /* \"#utility.yul\":4629:4666   */\n      swap1\n      pop\n        /* \"#utility.yul\":4721:4725   */\n      0x20\n        /* \"#utility.yul\":4715:4719   */\n      dup2\n        /* \"#utility.yul\":4711:4726   */\n      add\n        /* \"#utility.yul\":4703:4726   */\n      swap1\n      pop\n        /* \"#utility.yul\":4425:4733   */\n      swap2\n      swap1\n      pop\n      jump\t// out\n        /* \"#utility.yul\":4739:4885   */\n    tag_193:\n        /* \"#utility.yul\":4836:4842   */\n      dup3\n        /* \"#utility.yul\":4831:4834   */\n      dup2\n        /* \"#utility.yul\":4826:4829   */\n      dup4\n        /* \"#utility.yul\":4813:4843   */\n      calldatacopy\n        /* \"#utility.yul\":4877:4878   */\n      0x00\n        /* \"#utility.yul\":4868:4874   */\n      dup4\n        /* \"#utility.yul\":4863:4866   */\n      dup4\n        /* \"#utility.yul\":4859:4875   */\n      add\n        /* \"#utility.yul\":4852:4879   */\n      mstore\n        /* \"#utility.yul\":4739:4885   */\n      pop\n      pop\n      pop\n      jump\t// out\n        /* \"#utility.yul\":4891:5316   */\n    tag_194:\n        /* \"#utility.yul\":4969:4974   */\n      0x00\n        /* \"#utility.yul\":4994:5060   */\n      tag_286\n        /* \"#utility.yul\":5010:5059   */\n      tag_287\n        /* \"#utility.yul\":5052:5058   */\n      dup5\n        /* \"#utility.yul\":5010:5059   */\n      tag_192\n      jump\t// in\n    tag_287:\n        /* \"#utility.yul\":4994:5060   */\n      tag_187\n      jump\t// in\n    tag_286:\n        /* \"#utility.yul\":4985:5060   */\n      swap1\n      pop\n        /* \"#utility.yul\":5083:5089   */\n      dup3\n        /* \"#utility.yul\":5076:5081   */\n      dup2\n        /* \"#utility.yul\":5069:5090   */\n      mstore\n        /* \"#utility.yul\":5121:5125   */\n      0x20\n        /* \"#utility.yul\":5114:5119   */\n      dup2\n        /* \"#utility.yul\":5110:5126   */\n      add\n        /* \"#utility.yul\":5159:5162   */\n      dup5\n        /* \"#utility.yul\":5150:5156   */\n      dup5\n        /* \"#utility.yul\":5145:5148   */\n      dup5\n        /* \"#utility.yul\":5141:5157   */\n      add\n        /* \"#utility.yul\":5138:5163   */\n      gt\n        /* \"#utility.yul\":5135:5247   */\n      iszero\n      tag_288\n      jumpi\n        /* \"#utility.yul\":5166:5245   */\n      tag_289\n      tag_191\n      jump\t// in\n    tag_289:\n        /* \"#utility.yul\":5135:5247   */\n    tag_288:\n        /* \"#utility.yul\":5256:5310   */\n      tag_290\n        /* \"#utility.yul\":5303:5309   */\n      dup5\n        /* \"#utility.yul\":5298:5301   */\n      dup3\n        /* \"#utility.yul\":5293:5296   */\n      dup6\n        /* \"#utility.yul\":5256:5310   */\n      tag_193\n      jump\t// in\n    tag_290:\n        /* \"#utility.yul\":4975:5316   */\n      pop\n        /* \"#utility.yul\":4891:5316   */\n      swap4\n      swap3\n      pop\n      pop\n      pop\n      jump\t// out\n        /* \"#utility.yul\":5336:5676   */\n    tag_195:\n        /* \"#utility.yul\":5392:5397   */\n      0x00\n        /* \"#utility.yul\":5441:5444   */\n      dup3\n        /* \"#utility.yul\":5434:5438   */\n      0x1f\n        /* \"#utility.yul\":5426:5432   */\n      dup4\n        /* \"#utility.yul\":5422:5439   */\n      add\n        /* \"#utility.yul\":5418:5445   */\n      slt\n        /* \"#utility.yul\":5408:5530   */\n      tag_292\n      jumpi\n        /* \"#utility.yul\":5449:5528   */\n      tag_293\n      tag_184\n      jump\t// in\n    tag_293:\n        /* \"#utility.yul\":5408:5530   */\n    tag_292:\n        /* \"#utility.yul\":5566:5572   */\n      dup2\n        /* \"#utility.yul\":5553:5573   */\n      calldataload\n        /* \"#utility.yul\":5591:5670   */\n      tag_294\n        /* \"#utility.yul\":5666:5669   */\n      dup5\n        /* \"#utility.yul\":5658:5664   */\n      dup3\n        /* \"#utility.yul\":5651:5655   */\n      0x20\n        /* \"#utility.yul\":5643:5649   */\n      dup7\n        /* \"#utility.yul\":5639:5656   */\n      add\n        /* \"#utility.yul\":5591:5670   */\n      tag_194\n      jump\t// in\n    tag_294:\n        /* \"#utility.yul\":5582:5670   */\n      swap2\n      pop\n        /* \"#utility.yul\":5398:5676   */\n      pop\n        /* \"#utility.yul\":5336:5676   */\n      swap3\n      swap2\n      pop\n      pop\n      jump\t// out\n        /* \"#utility.yul\":5698:6643   */\n    tag_196:\n        /* \"#utility.yul\":5804:5809   */\n      0x00\n        /* \"#utility.yul\":5829:5920   */\n      tag_296\n        /* \"#utility.yul\":5845:5919   */\n      tag_297\n        /* \"#utility.yul\":5912:5918   */\n      dup5\n        /* \"#utility.yul\":5845:5919   */\n      tag_190\n      jump\t// in\n    tag_297:\n        /* \"#utility.yul\":5829:5920   */\n      tag_187\n      jump\t// in\n    tag_296:\n        /* \"#utility.yul\":5820:5920   */\n      swap1\n      pop\n        /* \"#utility.yul\":5940:5945   */\n      dup1\n        /* \"#utility.yul\":5969:5975   */\n      dup4\n        /* \"#utility.yul\":5962:5967   */\n      dup3\n        /* \"#utility.yul\":5955:5976   */\n      mstore\n        /* \"#utility.yul\":6003:6007   */\n      0x20\n        /* \"#utility.yul\":5996:6001   */\n      dup3\n        /* \"#utility.yul\":5992:6008   */\n      add\n        /* \"#utility.yul\":5985:6008   */\n      swap1\n      pop\n        /* \"#utility.yul\":6056:6060   */\n      0x20\n        /* \"#utility.yul\":6048:6054   */\n      dup5\n        /* \"#utility.yul\":6044:6061   */\n      mul\n        /* \"#utility.yul\":6036:6042   */\n      dup4\n        /* \"#utility.yul\":6032:6062   */\n      add\n        /* \"#utility.yul\":6085:6088   */\n      dup6\n        /* \"#utility.yul\":6077:6083   */\n      dup2\n        /* \"#utility.yul\":6074:6089   */\n      gt\n        /* \"#utility.yul\":6071:6193   */\n      iszero\n      tag_298\n      jumpi\n        /* \"#utility.yul\":6104:6183   */\n      tag_299\n      tag_189\n      jump\t// in\n    tag_299:\n        /* \"#utility.yul\":6071:6193   */\n    tag_298:\n        /* \"#utility.yul\":6219:6225   */\n      dup4\n        /* \"#utility.yul\":6202:6637   */\n    tag_300:\n        /* \"#utility.yul\":6236:6242   */\n      dup2\n        /* \"#utility.yul\":6231:6234   */\n      dup2\n        /* \"#utility.yul\":6228:6243   */\n      lt\n        /* \"#utility.yul\":6202:6637   */\n      iszero\n      tag_302\n      jumpi\n        /* \"#utility.yul\":6325:6328   */\n      dup1\n        /* \"#utility.yul\":6312:6329   */\n      calldataload\n        /* \"#utility.yul\":6361:6379   */\n      0xffffffffffffffff\n        /* \"#utility.yul\":6348:6359   */\n      dup2\n        /* \"#utility.yul\":6345:6380   */\n      gt\n        /* \"#utility.yul\":6342:6464   */\n      iszero\n      tag_303\n      jumpi\n        /* \"#utility.yul\":6383:6462   */\n      tag_304\n      tag_184\n      jump\t// in\n    tag_304:\n        /* \"#utility.yul\":6342:6464   */\n    tag_303:\n        /* \"#utility.yul\":6507:6518   */\n      dup1\n        /* \"#utility.yul\":6499:6505   */\n      dup7\n        /* \"#utility.yul\":6495:6519   */\n      add\n        /* \"#utility.yul\":6545:6592   */\n      tag_305\n        /* \"#utility.yul\":6588:6591   */\n      dup10\n        /* \"#utility.yul\":6576:6586   */\n      dup3\n        /* \"#utility.yul\":6545:6592   */\n      tag_195\n      jump\t// in\n    tag_305:\n        /* \"#utility.yul\":6540:6543   */\n      dup6\n        /* \"#utility.yul\":6533:6593   */\n      mstore\n        /* \"#utility.yul\":6622:6626   */\n      0x20\n        /* \"#utility.yul\":6617:6620   */\n      dup6\n        /* \"#utility.yul\":6613:6627   */\n      add\n        /* \"#utility.yul\":6606:6627   */\n      swap5\n      pop\n        /* \"#utility.yul\":6278:6637   */\n      pop\n      pop\n        /* \"#utility.yul\":6262:6266   */\n      0x20\n        /* \"#utility.yul\":6257:6260   */\n      dup2\n        /* \"#utility.yul\":6253:6267   */\n      add\n        /* \"#utility.yul\":6246:6267   */\n      swap1\n      pop\n        /* \"#utility.yul\":6202:6637   */\n      jump(tag_300)\n    tag_302:\n        /* \"#utility.yul\":6206:6227   */\n      pop\n        /* \"#utility.yul\":5810:6643   */\n      pop\n      pop\n        /* \"#utility.yul\":5698:6643   */\n      swap4\n      swap3\n      pop\n      pop\n      pop\n      jump\t// out\n        /* \"#utility.yul\":6665:7055   */\n    tag_197:\n        /* \"#utility.yul\":6746:6751   */\n      0x00\n        /* \"#utility.yul\":6795:6798   */\n      dup3\n        /* \"#utility.yul\":6788:6792   */\n      0x1f\n        /* \"#utility.yul\":6780:6786   */\n      dup4\n        /* \"#utility.yul\":6776:6793   */\n      add\n        /* \"#utility.yul\":6772:6799   */\n      slt\n        /* \"#utility.yul\":6762:6884   */\n      tag_307\n      jumpi\n        /* \"#utility.yul\":6803:6882   */\n      tag_308\n      tag_184\n      jump\t// in\n    tag_308:\n        /* \"#utility.yul\":6762:6884   */\n    tag_307:\n        /* \"#utility.yul\":6920:6926   */\n      dup2\n        /* \"#utility.yul\":6907:6927   */\n      calldataload\n        /* \"#utility.yul\":6945:7049   */\n      tag_309\n        /* \"#utility.yul\":7045:7048   */\n      dup5\n        /* \"#utility.yul\":7037:7043   */\n      dup3\n        /* \"#utility.yul\":7030:7034   */\n      0x20\n        /* \"#utility.yul\":7022:7028   */\n      dup7\n        /* \"#utility.yul\":7018:7035   */\n      add\n        /* \"#utility.yul\":6945:7049   */\n      tag_196\n      jump\t// in\n    tag_309:\n        /* \"#utility.yul\":6936:7049   */\n      swap2\n      pop\n        /* \"#utility.yul\":6752:7055   */\n      pop\n        /* \"#utility.yul\":6665:7055   */\n      swap3\n      swap2\n      pop\n      pop\n      jump\t// out\n        /* \"#utility.yul\":7079:8099   */\n    tag_198:\n        /* \"#utility.yul\":7210:7215   */\n      0x00\n        /* \"#utility.yul\":7235:7351   */\n      tag_311\n        /* \"#utility.yul\":7251:7350   */\n      tag_312\n        /* \"#utility.yul\":7343:7349   */\n      dup5\n        /* \"#utility.yul\":7251:7350   */\n      tag_188\n      jump\t// in\n    tag_312:\n        /* \"#utility.yul\":7235:7351   */\n      tag_187\n      jump\t// in\n    tag_311:\n        /* \"#utility.yul\":7226:7351   */\n      swap1\n      pop\n        /* \"#utility.yul\":7371:7376   */\n      dup1\n        /* \"#utility.yul\":7400:7406   */\n      dup4\n        /* \"#utility.yul\":7393:7398   */\n      dup3\n        /* \"#utility.yul\":7386:7407   */\n      mstore\n        /* \"#utility.yul\":7434:7438   */\n      0x20\n        /* \"#utility.yul\":7427:7432   */\n      dup3\n        /* \"#utility.yul\":7423:7439   */\n      add\n        /* \"#utility.yul\":7416:7439   */\n      swap1\n      pop\n        /* \"#utility.yul\":7487:7491   */\n      0x20\n        /* \"#utility.yul\":7479:7485   */\n      dup5\n        /* \"#utility.yul\":7475:7492   */\n      mul\n        /* \"#utility.yul\":7467:7473   */\n      dup4\n        /* \"#utility.yul\":7463:7493   */\n      add\n        /* \"#utility.yul\":7516:7519   */\n      dup6\n        /* \"#utility.yul\":7508:7514   */\n      dup2\n        /* \"#utility.yul\":7505:7520   */\n      gt\n        /* \"#utility.yul\":7502:7624   */\n      iszero\n      tag_313\n      jumpi\n        /* \"#utility.yul\":7535:7614   */\n      tag_314\n      tag_189\n      jump\t// in\n    tag_314:\n        /* \"#utility.yul\":7502:7624   */\n    tag_313:\n        /* \"#utility.yul\":7650:7656   */\n      dup4\n        /* \"#utility.yul\":7633:8093   */\n    tag_315:\n        /* \"#utility.yul\":7667:7673   */\n      dup2\n        /* \"#utility.yul\":7662:7665   */\n      dup2\n        /* \"#utility.yul\":7659:7674   */\n      lt\n        /* \"#utility.yul\":7633:8093   */\n      iszero\n      tag_317\n      jumpi\n        /* \"#utility.yul\":7756:7759   */\n      dup1\n        /* \"#utility.yul\":7743:7760   */\n      calldataload\n        /* \"#utility.yul\":7792:7810   */\n      0xffffffffffffffff\n        /* \"#utility.yul\":7779:7790   */\n      dup2\n        /* \"#utility.yul\":7776:7811   */\n      gt\n        /* \"#utility.yul\":7773:7895   */\n      iszero\n      tag_318\n      jumpi\n        /* \"#utility.yul\":7814:7893   */\n      tag_319\n      tag_184\n      jump\t// in\n    tag_319:\n        /* \"#utility.yul\":7773:7895   */\n    tag_318:\n        /* \"#utility.yul\":7938:7949   */\n      dup1\n        /* \"#utility.yul\":7930:7936   */\n      dup7\n        /* \"#utility.yul\":7926:7950   */\n      add\n        /* \"#utility.yul\":7976:8048   */\n      tag_320\n        /* \"#utility.yul\":8044:8047   */\n      dup10\n        /* \"#utility.yul\":8032:8042   */\n      dup3\n        /* \"#utility.yul\":7976:8048   */\n      tag_197\n      jump\t// in\n    tag_320:\n        /* \"#utility.yul\":7971:7974   */\n      dup6\n        /* \"#utility.yul\":7964:8049   */\n      mstore\n        /* \"#utility.yul\":8078:8082   */\n      0x20\n        /* \"#utility.yul\":8073:8076   */\n      dup6\n        /* \"#utility.yul\":8069:8083   */\n      add\n        /* \"#utility.yul\":8062:8083   */\n      swap5\n      pop\n        /* \"#utility.yul\":7709:8093   */\n      pop\n      pop\n        /* \"#utility.yul\":7693:7697   */\n      0x20\n        /* \"#utility.yul\":7688:7691   */\n      dup2\n        /* \"#utility.yul\":7684:7698   */\n      add\n        /* \"#utility.yul\":7677:7698   */\n      swap1\n      pop\n        /* \"#utility.yul\":7633:8093   */\n      jump(tag_315)\n    tag_317:\n        /* \"#utility.yul\":7637:7658   */\n      pop\n        /* \"#utility.yul\":7216:8099   */\n      pop\n      pop\n        /* \"#utility.yul\":7079:8099   */\n      swap4\n      swap3\n      pop\n      pop\n      pop\n      jump\t// out\n        /* \"#utility.yul\":8123:8563   */\n    tag_199:\n        /* \"#utility.yul\":8229:8234   */\n      0x00\n        /* \"#utility.yul\":8278:8281   */\n      dup3\n        /* \"#utility.yul\":8271:8275   */\n      0x1f\n        /* \"#utility.yul\":8263:8269   */\n      dup4\n        /* \"#utility.yul\":8259:8276   */\n      add\n        /* \"#utility.yul\":8255:8282   */\n      slt\n        /* \"#utility.yul\":8245:8367   */\n      tag_322\n      jumpi\n        /* \"#utility.yul\":8286:8365   */\n      tag_323\n      tag_184\n      jump\t// in\n    tag_323:\n        /* \"#utility.yul\":8245:8367   */\n    tag_322:\n        /* \"#utility.yul\":8403:8409   */\n      dup2\n        /* \"#utility.yul\":8390:8410   */\n      calldataload\n        /* \"#utility.yul\":8428:8557   */\n      tag_324\n        /* \"#utility.yul\":8553:8556   */\n      dup5\n        /* \"#utility.yul\":8545:8551   */\n      dup3\n        /* \"#utility.yul\":8538:8542   */\n      0x20\n        /* \"#utility.yul\":8530:8536   */\n      dup7\n        /* \"#utility.yul\":8526:8543   */\n      add\n        /* \"#utility.yul\":8428:8557   */\n      tag_198\n      jump\t// in\n    tag_324:\n        /* \"#utility.yul\":8419:8557   */\n      swap2\n      pop\n        /* \"#utility.yul\":8235:8563   */\n      pop\n        /* \"#utility.yul\":8123:8563   */\n      swap3\n      swap2\n      pop\n      pop\n      jump\t// out\n        /* \"#utility.yul\":8569:9603   */\n    tag_15:\n        /* \"#utility.yul\":8757:8763   */\n      0x00\n        /* \"#utility.yul\":8765:8771   */\n      dup1\n        /* \"#utility.yul\":8814:8816   */\n      0x40\n        /* \"#utility.yul\":8802:8811   */\n      dup4\n        /* \"#utility.yul\":8793:8800   */\n      dup6\n        /* \"#utility.yul\":8789:8812   */\n      sub\n        /* \"#utility.yul\":8785:8817   */\n      slt\n        /* \"#utility.yul\":8782:8901   */\n      iszero\n      tag_326\n      jumpi\n        /* \"#utility.yul\":8820:8899   */\n      tag_327\n      tag_174\n      jump\t// in\n    tag_327:\n        /* \"#utility.yul\":8782:8901   */\n    tag_326:\n        /* \"#utility.yul\":8968:8969   */\n      0x00\n        /* \"#utility.yul\":8957:8966   */\n      dup4\n        /* \"#utility.yul\":8953:8970   */\n      add\n        /* \"#utility.yul\":8940:8971   */\n      calldataload\n        /* \"#utility.yul\":8998:9016   */\n      0xffffffffffffffff\n        /* \"#utility.yul\":8990:8996   */\n      dup2\n        /* \"#utility.yul\":8987:9017   */\n      gt\n        /* \"#utility.yul\":8984:9101   */\n      iszero\n      tag_328\n      jumpi\n        /* \"#utility.yul\":9020:9099   */\n      tag_329\n      tag_175\n      jump\t// in\n    tag_329:\n        /* \"#utility.yul\":8984:9101   */\n    tag_328:\n        /* \"#utility.yul\":9125:9238   */\n      tag_330\n        /* \"#utility.yul\":9230:9237   */\n      dup6\n        /* \"#utility.yul\":9221:9227   */\n      dup3\n        /* \"#utility.yul\":9210:9219   */\n      dup7\n        /* \"#utility.yul\":9206:9228   */\n      add\n        /* \"#utility.yul\":9125:9238   */\n      tag_199\n      jump\t// in\n    tag_330:\n        /* \"#utility.yul\":9115:9238   */\n      swap3\n      pop\n        /* \"#utility.yul\":8911:9248   */\n      pop\n        /* \"#utility.yul\":9315:9317   */\n      0x20\n        /* \"#utility.yul\":9304:9313   */\n      dup4\n        /* \"#utility.yul\":9300:9318   */\n      add\n        /* \"#utility.yul\":9287:9319   */\n      calldataload\n        /* \"#utility.yul\":9346:9364   */\n      0xffffffffffffffff\n        /* \"#utility.yul\":9338:9344   */\n      dup2\n        /* \"#utility.yul\":9335:9365   */\n      gt\n        /* \"#utility.yul\":9332:9449   */\n      iszero\n      tag_331\n      jumpi\n        /* \"#utility.yul\":9368:9447   */\n      tag_332\n      tag_175\n      jump\t// in\n    tag_332:\n        /* \"#utility.yul\":9332:9449   */\n    tag_331:\n        /* \"#utility.yul\":9473:9586   */\n      tag_333\n        /* \"#utility.yul\":9578:9585   */\n      dup6\n        /* \"#utility.yul\":9569:9575   */\n      dup3\n        /* \"#utility.yul\":9558:9567   */\n      dup7\n        /* \"#utility.yul\":9554:9576   */\n      add\n        /* \"#utility.yul\":9473:9586   */\n      tag_199\n      jump\t// in\n    tag_333:\n        /* \"#utility.yul\":9463:9586   */\n      swap2\n      pop\n        /* \"#utility.yul\":9258:9596   */\n      pop\n        /* \"#utility.yul\":8569:9603   */\n      swap3\n      pop\n      swap3\n      swap1\n      pop\n      jump\t// out\n        /* \"#utility.yul\":9609:9742   */\n    tag_200:\n        /* \"#utility.yul\":9695:9701   */\n      0x00\n        /* \"#utility.yul\":9729:9734   */\n      dup2\n        /* \"#utility.yul\":9723:9735   */\n      mload\n        /* \"#utility.yul\":9713:9735   */\n      swap1\n      pop\n        /* \"#utility.yul\":9609:9742   */\n      swap2\n      swap1\n      pop\n      jump\t// out\n        /* \"#utility.yul\":9748:9951   */\n    tag_201:\n        /* \"#utility.yul\":9866:9877   */\n      0x00\n        /* \"#utility.yul\":9900:9906   */\n      dup3\n        /* \"#utility.yul\":9895:9898   */\n      dup3\n        /* \"#utility.yul\":9888:9907   */\n      mstore\n        /* \"#utility.yul\":9940:9944   */\n      0x20\n        /* \"#utility.yul\":9935:9938   */\n      dup3\n        /* \"#utility.yul\":9931:9945   */\n      add\n        /* \"#utility.yul\":9916:9945   */\n      swap1\n      pop\n        /* \"#utility.yul\":9748:9951   */\n      swap3\n      swap2\n      pop\n      pop\n      jump\t// out\n        /* \"#utility.yul\":9957:10108   */\n    tag_202:\n        /* \"#utility.yul\":10043:10047   */\n      0x00\n        /* \"#utility.yul\":10066:10069   */\n      dup2\n        /* \"#utility.yul\":10058:10069   */\n      swap1\n      pop\n        /* \"#utility.yul\":10096:10100   */\n      0x20\n        /* \"#utility.yul\":10091:10094   */\n      dup3\n        /* \"#utility.yul\":10087:10101   */\n      add\n        /* \"#utility.yul\":10079:10101   */\n      swap1\n      pop\n        /* \"#utility.yul\":9957:10108   */\n      swap2\n      swap1\n      pop\n      jump\t// out\n        /* \"#utility.yul\":10114:10273   */\n    tag_203:\n        /* \"#utility.yul\":10188:10199   */\n      0x00\n        /* \"#utility.yul\":10222:10228   */\n      dup3\n        /* \"#utility.yul\":10217:10220   */\n      dup3\n        /* \"#utility.yul\":10210:10229   */\n      mstore\n        /* \"#utility.yul\":10262:10266   */\n      0x20\n        /* \"#utility.yul\":10257:10260   */\n      dup3\n        /* \"#utility.yul\":10253:10267   */\n      add\n        /* \"#utility.yul\":10238:10267   */\n      swap1\n      pop\n        /* \"#utility.yul\":10114:10273   */\n      swap3\n      swap2\n      pop\n      pop\n      jump\t// out\n        /* \"#utility.yul\":10279:10636   */\n    tag_204:\n        /* \"#utility.yul\":10357:10360   */\n      0x00\n        /* \"#utility.yul\":10385:10424   */\n      tag_339\n        /* \"#utility.yul\":10418:10423   */\n      dup3\n        /* \"#utility.yul\":10385:10424   */\n      tag_179\n      jump\t// in\n    tag_339:\n        /* \"#utility.yul\":10440:10501   */\n      tag_340\n        /* \"#utility.yul\":10494:10500   */\n      dup2\n        /* \"#utility.yul\":10489:10492   */\n      dup6\n        /* \"#utility.yul\":10440:10501   */\n      tag_203\n      jump\t// in\n    tag_340:\n        /* \"#utility.yul\":10433:10501   */\n      swap4\n      pop\n        /* \"#utility.yul\":10510:10575   */\n      tag_341\n        /* \"#utility.yul\":10568:10574   */\n      dup2\n        /* \"#utility.yul\":10563:10566   */\n      dup6\n        /* \"#utility.yul\":10556:10560   */\n      0x20\n        /* \"#utility.yul\":10549:10554   */\n      dup7\n        /* \"#utility.yul\":10545:10561   */\n      add\n        /* \"#utility.yul\":10510:10575   */\n      tag_181\n      jump\t// in\n    tag_341:\n        /* \"#utility.yul\":10600:10629   */\n      tag_342\n        /* \"#utility.yul\":10622:10628   */\n      dup2\n        /* \"#utility.yul\":10600:10629   */\n      tag_182\n      jump\t// in\n    tag_342:\n        /* \"#utility.yul\":10595:10598   */\n      dup5\n        /* \"#utility.yul\":10591:10630   */\n      add\n        /* \"#utility.yul\":10584:10630   */\n      swap2\n      pop\n        /* \"#utility.yul\":10361:10636   */\n      pop\n        /* \"#utility.yul\":10279:10636   */\n      swap3\n      swap2\n      pop\n      pop\n      jump\t// out\n        /* \"#utility.yul\":10676:11599   */\n    tag_205:\n        /* \"#utility.yul\":10773:10776   */\n      0x00\n        /* \"#utility.yul\":10809:10813   */\n      0x60\n        /* \"#utility.yul\":10804:10807   */\n      dup4\n        /* \"#utility.yul\":10800:10814   */\n      add\n        /* \"#utility.yul\":10900:10904   */\n      0x00\n        /* \"#utility.yul\":10893:10898   */\n      dup4\n        /* \"#utility.yul\":10889:10905   */\n      add\n        /* \"#utility.yul\":10883:10906   */\n      mload\n        /* \"#utility.yul\":10953:10956   */\n      dup5\n        /* \"#utility.yul\":10947:10951   */\n      dup3\n        /* \"#utility.yul\":10943:10957   */\n      sub\n        /* \"#utility.yul\":10936:10940   */\n      0x00\n        /* \"#utility.yul\":10931:10934   */\n      dup7\n        /* \"#utility.yul\":10927:10941   */\n      add\n        /* \"#utility.yul\":10920:10958   */\n      mstore\n        /* \"#utility.yul\":10979:11052   */\n      tag_344\n        /* \"#utility.yul\":11047:11051   */\n      dup3\n        /* \"#utility.yul\":11033:11045   */\n      dup3\n        /* \"#utility.yul\":10979:11052   */\n      tag_204\n      jump\t// in\n    tag_344:\n        /* \"#utility.yul\":10971:11052   */\n      swap2\n      pop\n        /* \"#utility.yul\":10824:11063   */\n      pop\n        /* \"#utility.yul\":11156:11160   */\n      0x20\n        /* \"#utility.yul\":11149:11154   */\n      dup4\n        /* \"#utility.yul\":11145:11161   */\n      add\n        /* \"#utility.yul\":11139:11162   */\n      mload\n        /* \"#utility.yul\":11209:11212   */\n      dup5\n        /* \"#utility.yul\":11203:11207   */\n      dup3\n        /* \"#utility.yul\":11199:11213   */\n      sub\n        /* \"#utility.yul\":11192:11196   */\n      0x20\n        /* \"#utility.yul\":11187:11190   */\n      dup7\n        /* \"#utility.yul\":11183:11197   */\n      add\n        /* \"#utility.yul\":11176:11214   */\n      mstore\n        /* \"#utility.yul\":11235:11308   */\n      tag_345\n        /* \"#utility.yul\":11303:11307   */\n      dup3\n        /* \"#utility.yul\":11289:11301   */\n      dup3\n        /* \"#utility.yul\":11235:11308   */\n      tag_204\n      jump\t// in\n    tag_345:\n        /* \"#utility.yul\":11227:11308   */\n      swap2\n      pop\n        /* \"#utility.yul\":11073:11319   */\n      pop\n        /* \"#utility.yul\":11409:11413   */\n      0x40\n        /* \"#utility.yul\":11402:11407   */\n      dup4\n        /* \"#utility.yul\":11398:11414   */\n      add\n        /* \"#utility.yul\":11392:11415   */\n      mload\n        /* \"#utility.yul\":11462:11465   */\n      dup5\n        /* \"#utility.yul\":11456:11460   */\n      dup3\n        /* \"#utility.yul\":11452:11466   */\n      sub\n        /* \"#utility.yul\":11445:11449   */\n      0x40\n        /* \"#utility.yul\":11440:11443   */\n      dup7\n        /* \"#utility.yul\":11436:11450   */\n      add\n        /* \"#utility.yul\":11429:11467   */\n      mstore\n        /* \"#utility.yul\":11488:11561   */\n      tag_346\n        /* \"#utility.yul\":11556:11560   */\n      dup3\n        /* \"#utility.yul\":11542:11554   */\n      dup3\n        /* \"#utility.yul\":11488:11561   */\n      tag_204\n      jump\t// in\n    tag_346:\n        /* \"#utility.yul\":11480:11561   */\n      swap2\n      pop\n        /* \"#utility.yul\":11329:11572   */\n      pop\n        /* \"#utility.yul\":11589:11593   */\n      dup1\n        /* \"#utility.yul\":11582:11593   */\n      swap2\n      pop\n        /* \"#utility.yul\":10778:11599   */\n      pop\n        /* \"#utility.yul\":10676:11599   */\n      swap3\n      swap2\n      pop\n      pop\n      jump\t// out\n        /* \"#utility.yul\":11605:11837   */\n    tag_206:\n        /* \"#utility.yul\":11712:11722   */\n      0x00\n        /* \"#utility.yul\":11747:11831   */\n      tag_348\n        /* \"#utility.yul\":11827:11830   */\n      dup4\n        /* \"#utility.yul\":11819:11825   */\n      dup4\n        /* \"#utility.yul\":11747:11831   */\n      tag_205\n      jump\t// in\n    tag_348:\n        /* \"#utility.yul\":11733:11831   */\n      swap1\n      pop\n        /* \"#utility.yul\":11605:11837   */\n      swap3\n      swap2\n      pop\n      pop\n      jump\t// out\n        /* \"#utility.yul\":11843:11975   */\n    tag_207:\n        /* \"#utility.yul\":11932:11936   */\n      0x00\n        /* \"#utility.yul\":11964:11968   */\n      0x20\n        /* \"#utility.yul\":11959:11962   */\n      dup3\n        /* \"#utility.yul\":11955:11969   */\n      add\n        /* \"#utility.yul\":11947:11969   */\n      swap1\n      pop\n        /* \"#utility.yul\":11843:11975   */\n      swap2\n      swap1\n      pop\n      jump\t// out\n        /* \"#utility.yul\":12019:13082   */\n    tag_208:\n        /* \"#utility.yul\":12176:12179   */\n      0x00\n        /* \"#utility.yul\":12205:12278   */\n      tag_351\n        /* \"#utility.yul\":12272:12277   */\n      dup3\n        /* \"#utility.yul\":12205:12278   */\n      tag_200\n      jump\t// in\n    tag_351:\n        /* \"#utility.yul\":12294:12399   */\n      tag_352\n        /* \"#utility.yul\":12392:12398   */\n      dup2\n        /* \"#utility.yul\":12387:12390   */\n      dup6\n        /* \"#utility.yul\":12294:12399   */\n      tag_201\n      jump\t// in\n    tag_352:\n        /* \"#utility.yul\":12287:12399   */\n      swap4\n      pop\n        /* \"#utility.yul\":12425:12428   */\n      dup4\n        /* \"#utility.yul\":12470:12474   */\n      0x20\n        /* \"#utility.yul\":12462:12468   */\n      dup3\n        /* \"#utility.yul\":12458:12475   */\n      mul\n        /* \"#utility.yul\":12453:12456   */\n      dup6\n        /* \"#utility.yul\":12449:12476   */\n      add\n        /* \"#utility.yul\":12500:12575   */\n      tag_353\n        /* \"#utility.yul\":12569:12574   */\n      dup6\n        /* \"#utility.yul\":12500:12575   */\n      tag_202\n      jump\t// in\n    tag_353:\n        /* \"#utility.yul\":12598:12605   */\n      dup1\n        /* \"#utility.yul\":12629:12630   */\n      0x00\n        /* \"#utility.yul\":12614:13037   */\n    tag_354:\n        /* \"#utility.yul\":12639:12645   */\n      dup6\n        /* \"#utility.yul\":12636:12637   */\n      dup2\n        /* \"#utility.yul\":12633:12646   */\n      lt\n        /* \"#utility.yul\":12614:13037   */\n      iszero\n      tag_356\n      jumpi\n        /* \"#utility.yul\":12710:12719   */\n      dup5\n        /* \"#utility.yul\":12704:12708   */\n      dup5\n        /* \"#utility.yul\":12700:12720   */\n      sub\n        /* \"#utility.yul\":12695:12698   */\n      dup10\n        /* \"#utility.yul\":12688:12721   */\n      mstore\n        /* \"#utility.yul\":12761:12767   */\n      dup2\n        /* \"#utility.yul\":12755:12768   */\n      mload\n        /* \"#utility.yul\":12789:12891   */\n      tag_357\n        /* \"#utility.yul\":12886:12890   */\n      dup6\n        /* \"#utility.yul\":12871:12884   */\n      dup3\n        /* \"#utility.yul\":12789:12891   */\n      tag_206\n      jump\t// in\n    tag_357:\n        /* \"#utility.yul\":12781:12891   */\n      swap5\n      pop\n        /* \"#utility.yul\":12914:12993   */\n      tag_358\n        /* \"#utility.yul\":12986:12992   */\n      dup4\n        /* \"#utility.yul\":12914:12993   */\n      tag_207\n      jump\t// in\n    tag_358:\n        /* \"#utility.yul\":12904:12993   */\n      swap3\n      pop\n        /* \"#utility.yul\":13022:13026   */\n      0x20\n        /* \"#utility.yul\":13017:13020   */\n      dup11\n        /* \"#utility.yul\":13013:13027   */\n      add\n        /* \"#utility.yul\":13006:13027   */\n      swap10\n      pop\n        /* \"#utility.yul\":12674:13037   */\n      pop\n        /* \"#utility.yul\":12661:12662   */\n      0x01\n        /* \"#utility.yul\":12658:12659   */\n      dup2\n        /* \"#utility.yul\":12654:12663   */\n      add\n        /* \"#utility.yul\":12649:12663   */\n      swap1\n      pop\n        /* \"#utility.yul\":12614:13037   */\n      jump(tag_354)\n    tag_356:\n        /* \"#utility.yul\":12618:12632   */\n      pop\n        /* \"#utility.yul\":13053:13057   */\n      dup3\n        /* \"#utility.yul\":13046:13057   */\n      swap8\n      pop\n        /* \"#utility.yul\":13073:13076   */\n      dup8\n        /* \"#utility.yul\":13066:13076   */\n      swap6\n      pop\n        /* \"#utility.yul\":12181:13082   */\n      pop\n      pop\n      pop\n      pop\n      pop\n        /* \"#utility.yul\":12019:13082   */\n      swap3\n      swap2\n      pop\n      pop\n      jump\t// out\n        /* \"#utility.yul\":13088:13226   */\n    tag_209:\n        /* \"#utility.yul\":13179:13185   */\n      0x00\n        /* \"#utility.yul\":13213:13218   */\n      dup2\n        /* \"#utility.yul\":13207:13219   */\n      mload\n        /* \"#utility.yul\":13197:13219   */\n      swap1\n      pop\n        /* \"#utility.yul\":13088:13226   */\n      swap2\n      swap1\n      pop\n      jump\t// out\n        /* \"#utility.yul\":13232:13440   */\n    tag_210:\n        /* \"#utility.yul\":13355:13366   */\n      0x00\n        /* \"#utility.yul\":13389:13395   */\n      dup3\n        /* \"#utility.yul\":13384:13387   */\n      dup3\n        /* \"#utility.yul\":13377:13396   */\n      mstore\n        /* \"#utility.yul\":13429:13433   */\n      0x20\n        /* \"#utility.yul\":13424:13427   */\n      dup3\n        /* \"#utility.yul\":13420:13434   */\n      add\n        /* \"#utility.yul\":13405:13434   */\n      swap1\n      pop\n        /* \"#utility.yul\":13232:13440   */\n      swap3\n      swap2\n      pop\n      pop\n      jump\t// out\n        /* \"#utility.yul\":13446:13602   */\n    tag_211:\n        /* \"#utility.yul\":13537:13541   */\n      0x00\n        /* \"#utility.yul\":13560:13563   */\n      dup2\n        /* \"#utility.yul\":13552:13563   */\n      swap1\n      pop\n        /* \"#utility.yul\":13590:13594   */\n      0x20\n        /* \"#utility.yul\":13585:13588   */\n      dup3\n        /* \"#utility.yul\":13581:13595   */\n      add\n        /* \"#utility.yul\":13573:13595   */\n      swap1\n      pop\n        /* \"#utility.yul\":13446:13602   */\n      swap2\n      swap1\n      pop\n      jump\t// out\n        /* \"#utility.yul\":13650:14595   */\n    tag_212:\n        /* \"#utility.yul\":13757:13760   */\n      0x00\n        /* \"#utility.yul\":13793:13797   */\n      0x60\n        /* \"#utility.yul\":13788:13791   */\n      dup4\n        /* \"#utility.yul\":13784:13798   */\n      add\n        /* \"#utility.yul\":13888:13892   */\n      0x00\n        /* \"#utility.yul\":13881:13886   */\n      dup4\n        /* \"#utility.yul\":13877:13893   */\n      add\n        /* \"#utility.yul\":13871:13894   */\n      mload\n        /* \"#utility.yul\":13941:13944   */\n      dup5\n        /* \"#utility.yul\":13935:13939   */\n      dup3\n        /* \"#utility.yul\":13931:13945   */\n      sub\n        /* \"#utility.yul\":13924:13928   */\n      0x00\n        /* \"#utility.yul\":13919:13922   */\n      dup7\n        /* \"#utility.yul\":13915:13929   */\n      add\n        /* \"#utility.yul\":13908:13946   */\n      mstore\n        /* \"#utility.yul\":13967:14040   */\n      tag_363\n        /* \"#utility.yul\":14035:14039   */\n      dup3\n        /* \"#utility.yul\":14021:14033   */\n      dup3\n        /* \"#utility.yul\":13967:14040   */\n      tag_204\n      jump\t// in\n    tag_363:\n        /* \"#utility.yul\":13959:14040   */\n      swap2\n      pop\n        /* \"#utility.yul\":13808:14051   */\n      pop\n        /* \"#utility.yul\":14148:14152   */\n      0x20\n        /* \"#utility.yul\":14141:14146   */\n      dup4\n        /* \"#utility.yul\":14137:14153   */\n      add\n        /* \"#utility.yul\":14131:14154   */\n      mload\n        /* \"#utility.yul\":14201:14204   */\n      dup5\n        /* \"#utility.yul\":14195:14199   */\n      dup3\n        /* \"#utility.yul\":14191:14205   */\n      sub\n        /* \"#utility.yul\":14184:14188   */\n      0x20\n        /* \"#utility.yul\":14179:14182   */\n      dup7\n        /* \"#utility.yul\":14175:14189   */\n      add\n        /* \"#utility.yul\":14168:14206   */\n      mstore\n        /* \"#utility.yul\":14227:14300   */\n      tag_364\n        /* \"#utility.yul\":14295:14299   */\n      dup3\n        /* \"#utility.yul\":14281:14293   */\n      dup3\n        /* \"#utility.yul\":14227:14300   */\n      tag_204\n      jump\t// in\n    tag_364:\n        /* \"#utility.yul\":14219:14300   */\n      swap2\n      pop\n        /* \"#utility.yul\":14061:14311   */\n      pop\n        /* \"#utility.yul\":14405:14409   */\n      0x40\n        /* \"#utility.yul\":14398:14403   */\n      dup4\n        /* \"#utility.yul\":14394:14410   */\n      add\n        /* \"#utility.yul\":14388:14411   */\n      mload\n        /* \"#utility.yul\":14458:14461   */\n      dup5\n        /* \"#utility.yul\":14452:14456   */\n      dup3\n        /* \"#utility.yul\":14448:14462   */\n      sub\n        /* \"#utility.yul\":14441:14445   */\n      0x40\n        /* \"#utility.yul\":14436:14439   */\n      dup7\n        /* \"#utility.yul\":14432:14446   */\n      add\n        /* \"#utility.yul\":14425:14463   */\n      mstore\n        /* \"#utility.yul\":14484:14557   */\n      tag_365\n        /* \"#utility.yul\":14552:14556   */\n      dup3\n        /* \"#utility.yul\":14538:14550   */\n      dup3\n        /* \"#utility.yul\":14484:14557   */\n      tag_204\n      jump\t// in\n    tag_365:\n        /* \"#utility.yul\":14476:14557   */\n      swap2\n      pop\n        /* \"#utility.yul\":14321:14568   */\n      pop\n        /* \"#utility.yul\":14585:14589   */\n      dup1\n        /* \"#utility.yul\":14578:14589   */\n      swap2\n      pop\n        /* \"#utility.yul\":13762:14595   */\n      pop\n        /* \"#utility.yul\":13650:14595   */\n      swap3\n      swap2\n      pop\n      pop\n      jump\t// out\n        /* \"#utility.yul\":14601:14853   */\n    tag_213:\n        /* \"#utility.yul\":14718:14728   */\n      0x00\n        /* \"#utility.yul\":14753:14847   */\n      tag_367\n        /* \"#utility.yul\":14843:14846   */\n      dup4\n        /* \"#utility.yul\":14835:14841   */\n      dup4\n        /* \"#utility.yul\":14753:14847   */\n      tag_212\n      jump\t// in\n    tag_367:\n        /* \"#utility.yul\":14739:14847   */\n      swap1\n      pop\n        /* \"#utility.yul\":14601:14853   */\n      swap3\n      swap2\n      pop\n      pop\n      jump\t// out\n        /* \"#utility.yul\":14859:14996   */\n    tag_214:\n        /* \"#utility.yul\":14953:14957   */\n      0x00\n        /* \"#utility.yul\":14985:14989   */\n      0x20\n        /* \"#utility.yul\":14980:14983   */\n      dup3\n        /* \"#utility.yul\":14976:14990   */\n      add\n        /* \"#utility.yul\":14968:14990   */\n      swap1\n      pop\n        /* \"#utility.yul\":14859:14996   */\n      swap2\n      swap1\n      pop\n      jump\t// out\n        /* \"#utility.yul\":15048:16151   */\n    tag_215:\n        /* \"#utility.yul\":15215:15218   */\n      0x00\n        /* \"#utility.yul\":15244:15322   */\n      tag_370\n        /* \"#utility.yul\":15316:15321   */\n      dup3\n        /* \"#utility.yul\":15244:15322   */\n      tag_209\n      jump\t// in\n    tag_370:\n        /* \"#utility.yul\":15338:15448   */\n      tag_371\n        /* \"#utility.yul\":15441:15447   */\n      dup2\n        /* \"#utility.yul\":15436:15439   */\n      dup6\n        /* \"#utility.yul\":15338:15448   */\n      tag_210\n      jump\t// in\n    tag_371:\n        /* \"#utility.yul\":15331:15448   */\n      swap4\n      pop\n        /* \"#utility.yul\":15474:15477   */\n      dup4\n        /* \"#utility.yul\":15519:15523   */\n      0x20\n        /* \"#utility.yul\":15511:15517   */\n      dup3\n        /* \"#utility.yul\":15507:15524   */\n      mul\n        /* \"#utility.yul\":15502:15505   */\n      dup6\n        /* \"#utility.yul\":15498:15525   */\n      add\n        /* \"#utility.yul\":15549:15629   */\n      tag_372\n        /* \"#utility.yul\":15623:15628   */\n      dup6\n        /* \"#utility.yul\":15549:15629   */\n      tag_211\n      jump\t// in\n    tag_372:\n        /* \"#utility.yul\":15652:15659   */\n      dup1\n        /* \"#utility.yul\":15683:15684   */\n      0x00\n        /* \"#utility.yul\":15668:16106   */\n    tag_373:\n        /* \"#utility.yul\":15693:15699   */\n      dup6\n        /* \"#utility.yul\":15690:15691   */\n      dup2\n        /* \"#utility.yul\":15687:15700   */\n      lt\n        /* \"#utility.yul\":15668:16106   */\n      iszero\n      tag_375\n      jumpi\n        /* \"#utility.yul\":15764:15773   */\n      dup5\n        /* \"#utility.yul\":15758:15762   */\n      dup5\n        /* \"#utility.yul\":15754:15774   */\n      sub\n        /* \"#utility.yul\":15749:15752   */\n      dup10\n        /* \"#utility.yul\":15742:15775   */\n      mstore\n        /* \"#utility.yul\":15815:15821   */\n      dup2\n        /* \"#utility.yul\":15809:15822   */\n      mload\n        /* \"#utility.yul\":15843:15955   */\n      tag_376\n        /* \"#utility.yul\":15950:15954   */\n      dup6\n        /* \"#utility.yul\":15935:15948   */\n      dup3\n        /* \"#utility.yul\":15843:15955   */\n      tag_213\n      jump\t// in\n    tag_376:\n        /* \"#utility.yul\":15835:15955   */\n      swap5\n      pop\n        /* \"#utility.yul\":15978:16062   */\n      tag_377\n        /* \"#utility.yul\":16055:16061   */\n      dup4\n        /* \"#utility.yul\":15978:16062   */\n      tag_214\n      jump\t// in\n    tag_377:\n        /* \"#utility.yul\":15968:16062   */\n      swap3\n      pop\n        /* \"#utility.yul\":16091:16095   */\n      0x20\n        /* \"#utility.yul\":16086:16089   */\n      dup11\n        /* \"#utility.yul\":16082:16096   */\n      add\n        /* \"#utility.yul\":16075:16096   */\n      swap10\n      pop\n        /* \"#utility.yul\":15728:16106   */\n      pop\n        /* \"#utility.yul\":15715:15716   */\n      0x01\n        /* \"#utility.yul\":15712:15713   */\n      dup2\n        /* \"#utility.yul\":15708:15717   */\n      add\n        /* \"#utility.yul\":15703:15717   */\n      swap1\n      pop\n        /* \"#utility.yul\":15668:16106   */\n      jump(tag_373)\n    tag_375:\n        /* \"#utility.yul\":15672:15686   */\n      pop\n        /* \"#utility.yul\":16122:16126   */\n      dup3\n        /* \"#utility.yul\":16115:16126   */\n      swap8\n      pop\n        /* \"#utility.yul\":16142:16145   */\n      dup8\n        /* \"#utility.yul\":16135:16145   */\n      swap6\n      pop\n        /* \"#utility.yul\":15220:16151   */\n      pop\n      pop\n      pop\n      pop\n      pop\n        /* \"#utility.yul\":15048:16151   */\n      swap3\n      swap2\n      pop\n      pop\n      jump\t// out\n        /* \"#utility.yul\":16157:16963   */\n    tag_20:\n        /* \"#utility.yul\":16464:16468   */\n      0x00\n        /* \"#utility.yul\":16502:16504   */\n      0x40\n        /* \"#utility.yul\":16491:16500   */\n      dup3\n        /* \"#utility.yul\":16487:16505   */\n      add\n        /* \"#utility.yul\":16479:16505   */\n      swap1\n      pop\n        /* \"#utility.yul\":16551:16560   */\n      dup2\n        /* \"#utility.yul\":16545:16549   */\n      dup2\n        /* \"#utility.yul\":16541:16561   */\n      sub\n        /* \"#utility.yul\":16537:16538   */\n      0x00\n        /* \"#utility.yul\":16526:16535   */\n      dup4\n        /* \"#utility.yul\":16522:16539   */\n      add\n        /* \"#utility.yul\":16515:16562   */\n      mstore\n        /* \"#utility.yul\":16579:16725   */\n      tag_379\n        /* \"#utility.yul\":16720:16724   */\n      dup2\n        /* \"#utility.yul\":16711:16717   */\n      dup6\n        /* \"#utility.yul\":16579:16725   */\n      tag_208\n      jump\t// in\n    tag_379:\n        /* \"#utility.yul\":16571:16725   */\n      swap1\n      pop\n        /* \"#utility.yul\":16772:16781   */\n      dup2\n        /* \"#utility.yul\":16766:16770   */\n      dup2\n        /* \"#utility.yul\":16762:16782   */\n      sub\n        /* \"#utility.yul\":16757:16759   */\n      0x20\n        /* \"#utility.yul\":16746:16755   */\n      dup4\n        /* \"#utility.yul\":16742:16760   */\n      add\n        /* \"#utility.yul\":16735:16783   */\n      mstore\n        /* \"#utility.yul\":16800:16956   */\n      tag_380\n        /* \"#utility.yul\":16951:16955   */\n      dup2\n        /* \"#utility.yul\":16942:16948   */\n      dup5\n        /* \"#utility.yul\":16800:16956   */\n      tag_215\n      jump\t// in\n    tag_380:\n        /* \"#utility.yul\":16792:16956   */\n      swap1\n      pop\n        /* \"#utility.yul\":16157:16963   */\n      swap4\n      swap3\n      pop\n      pop\n      pop\n      jump\t// out\n        /* \"#utility.yul\":16969:17149   */\n    tag_216:\n        /* \"#utility.yul\":17017:17094   */\n      0x4e487b7100000000000000000000000000000000000000000000000000000000\n        /* \"#utility.yul\":17014:17015   */\n      0x00\n        /* \"#utility.yul\":17007:17095   */\n      mstore\n        /* \"#utility.yul\":17114:17118   */\n      0x22\n        /* \"#utility.yul\":17111:17112   */\n      0x04\n        /* \"#utility.yul\":17104:17119   */\n      mstore\n        /* \"#utility.yul\":17138:17142   */\n      0x24\n        /* \"#utility.yul\":17135:17136   */\n      0x00\n        /* \"#utility.yul\":17128:17143   */\n      revert\n        /* \"#utility.yul\":17155:17475   */\n    tag_28:\n        /* \"#utility.yul\":17199:17205   */\n      0x00\n        /* \"#utility.yul\":17236:17237   */\n      0x02\n        /* \"#utility.yul\":17230:17234   */\n      dup3\n        /* \"#utility.yul\":17226:17238   */\n      div\n        /* \"#utility.yul\":17216:17238   */\n      swap1\n      pop\n        /* \"#utility.yul\":17283:17284   */\n      0x01\n        /* \"#utility.yul\":17277:17281   */\n      dup3\n        /* \"#utility.yul\":17273:17285   */\n      and\n        /* \"#utility.yul\":17304:17322   */\n      dup1\n        /* \"#utility.yul\":17294:17375   */\n      tag_383\n      jumpi\n        /* \"#utility.yul\":17360:17364   */\n      0x7f\n        /* \"#utility.yul\":17352:17358   */\n      dup3\n        /* \"#utility.yul\":17348:17365   */\n      and\n        /* \"#utility.yul\":17338:17365   */\n      swap2\n      pop\n        /* \"#utility.yul\":17294:17375   */\n    tag_383:\n        /* \"#utility.yul\":17422:17424   */\n      0x20\n        /* \"#utility.yul\":17414:17420   */\n      dup3\n        /* \"#utility.yul\":17411:17425   */\n      lt\n        /* \"#utility.yul\":17391:17409   */\n      dup2\n        /* \"#utility.yul\":17388:17426   */\n      sub\n        /* \"#utility.yul\":17385:17469   */\n      tag_384\n      jumpi\n        /* \"#utility.yul\":17441:17459   */\n      tag_385\n      tag_216\n      jump\t// in\n    tag_385:\n        /* \"#utility.yul\":17385:17469   */\n    tag_384:\n        /* \"#utility.yul\":17206:17475   */\n      pop\n        /* \"#utility.yul\":17155:17475   */\n      swap2\n      swap1\n      pop\n      jump\t// out\n        /* \"#utility.yul\":17481:17661   */\n    tag_53:\n        /* \"#utility.yul\":17529:17606   */\n      0x4e487b7100000000000000000000000000000000000000000000000000000000\n        /* \"#utility.yul\":17526:17527   */\n      0x00\n        /* \"#utility.yul\":17519:17607   */\n      mstore\n        /* \"#utility.yul\":17626:17630   */\n      0x32\n        /* \"#utility.yul\":17623:17624   */\n      0x04\n        /* \"#utility.yul\":17616:17631   */\n      mstore\n        /* \"#utility.yul\":17650:17654   */\n      0x24\n        /* \"#utility.yul\":17647:17648   */\n      0x00\n        /* \"#utility.yul\":17640:17655   */\n      revert\n        /* \"#utility.yul\":17667:17808   */\n    tag_217:\n        /* \"#utility.yul\":17716:17720   */\n      0x00\n        /* \"#utility.yul\":17739:17742   */\n      dup2\n        /* \"#utility.yul\":17731:17742   */\n      swap1\n      pop\n        /* \"#utility.yul\":17762:17765   */\n      dup2\n        /* \"#utility.yul\":17759:17760   */\n      0x00\n        /* \"#utility.yul\":17752:17766   */\n      mstore\n        /* \"#utility.yul\":17796:17800   */\n      0x20\n        /* \"#utility.yul\":17793:17794   */\n      0x00\n        /* \"#utility.yul\":17783:17801   */\n      keccak256\n        /* \"#utility.yul\":17775:17801   */\n      swap1\n      pop\n        /* \"#utility.yul\":17667:17808   */\n      swap2\n      swap1\n      pop\n      jump\t// out\n        /* \"#utility.yul\":17814:17907   */\n    tag_218:\n        /* \"#utility.yul\":17851:17857   */\n      0x00\n        /* \"#utility.yul\":17898:17900   */\n      0x20\n        /* \"#utility.yul\":17893:17895   */\n      0x1f\n        /* \"#utility.yul\":17886:17891   */\n      dup4\n        /* \"#utility.yul\":17882:17896   */\n      add\n        /* \"#utility.yul\":17878:17901   */\n      div\n        /* \"#utility.yul\":17868:17901   */\n      swap1\n      pop\n        /* \"#utility.yul\":17814:17907   */\n      swap2\n      swap1\n      pop\n      jump\t// out\n        /* \"#utility.yul\":17913:18020   */\n    tag_219:\n        /* \"#utility.yul\":17957:17965   */\n      0x00\n        /* \"#utility.yul\":18007:18012   */\n      dup3\n        /* \"#utility.yul\":18001:18005   */\n      dup3\n        /* \"#utility.yul\":17997:18013   */\n      shl\n        /* \"#utility.yul\":17976:18013   */\n      swap1\n      pop\n        /* \"#utility.yul\":17913:18020   */\n      swap3\n      swap2\n      pop\n      pop\n      jump\t// out\n        /* \"#utility.yul\":18026:18419   */\n    tag_220:\n        /* \"#utility.yul\":18095:18101   */\n      0x00\n        /* \"#utility.yul\":18145:18146   */\n      0x08\n        /* \"#utility.yul\":18133:18143   */\n      dup4\n        /* \"#utility.yul\":18129:18147   */\n      mul\n        /* \"#utility.yul\":18168:18265   */\n      tag_391\n        /* \"#utility.yul\":18198:18264   */\n      0xffffffffffffffffffffffffffffffffffffffffffffffffffffffffffffffff\n        /* \"#utility.yul\":18187:18196   */\n      dup3\n        /* \"#utility.yul\":18168:18265   */\n      tag_219\n      jump\t// in\n    tag_391:\n        /* \"#utility.yul\":18286:18325   */\n      tag_392\n        /* \"#utility.yul\":18316:18324   */\n      dup7\n        /* \"#utility.yul\":18305:18314   */\n      dup4\n        /* \"#utility.yul\":18286:18325   */\n      tag_219\n      jump\t// in\n    tag_392:\n        /* \"#utility.yul\":18274:18325   */\n      swap6\n      pop\n        /* \"#utility.yul\":18358:18362   */\n      dup1\n        /* \"#utility.yul\":18354:18363   */\n      not\n        /* \"#utility.yul\":18347:18352   */\n      dup5\n        /* \"#utility.yul\":18343:18364   */\n      and\n        /* \"#utility.yul\":18334:18364   */\n      swap4\n      pop\n        /* \"#utility.yul\":18407:18411   */\n      dup1\n        /* \"#utility.yul\":18397:18405   */\n      dup7\n        /* \"#utility.yul\":18393:18412   */\n      and\n        /* \"#utility.yul\":18386:18391   */\n      dup5\n        /* \"#utility.yul\":18383:18413   */\n      or\n        /* \"#utility.yul\":18373:18413   */\n      swap3\n      pop\n        /* \"#utility.yul\":18102:18419   */\n      pop\n      pop\n        /* \"#utility.yul\":18026:18419   */\n      swap4\n      swap3\n      pop\n      pop\n      pop\n      jump\t// out\n        /* \"#utility.yul\":18425:18485   */\n    tag_221:\n        /* \"#utility.yul\":18453:18456   */\n      0x00\n        /* \"#utility.yul\":18474:18479   */\n      dup2\n        /* \"#utility.yul\":18467:18479   */\n      swap1\n      pop\n        /* \"#utility.yul\":18425:18485   */\n      swap2\n      swap1\n      pop\n      jump\t// out\n        /* \"#utility.yul\":18491:18633   */\n    tag_222:\n        /* \"#utility.yul\":18541:18550   */\n      0x00\n        /* \"#utility.yul\":18574:18627   */\n      tag_395\n        /* \"#utility.yul\":18592:18626   */\n      tag_396\n        /* \"#utility.yul\":18601:18625   */\n      tag_397\n        /* \"#utility.yul\":18619:18624   */\n      dup5\n        /* \"#utility.yul\":18601:18625   */\n      tag_176\n      jump\t// in\n    tag_397:\n        /* \"#utility.yul\":18592:18626   */\n      tag_221\n      jump\t// in\n    tag_396:\n        /* \"#utility.yul\":18574:18627   */\n      tag_176\n      jump\t// in\n    tag_395:\n        /* \"#utility.yul\":18561:18627   */\n      swap1\n      pop\n        /* \"#utility.yul\":18491:18633   */\n      swap2\n      swap1\n      pop\n      jump\t// out\n        /* \"#utility.yul\":18639:18714   */\n    tag_223:\n        /* \"#utility.yul\":18682:18685   */\n      0x00\n        /* \"#utility.yul\":18703:18708   */\n      dup2\n        /* \"#utility.yul\":18696:18708   */\n      swap1\n      pop\n        /* \"#utility.yul\":18639:18714   */\n      swap2\n      swap1\n      pop\n      jump\t// out\n        /* \"#utility.yul\":18720:18989   */\n    tag_224:\n        /* \"#utility.yul\":18830:18869   */\n      tag_400\n        /* \"#utility.yul\":18861:18868   */\n      dup4\n        /* \"#utility.yul\":18830:18869   */\n      tag_222\n      jump\t// in\n    tag_400:\n        /* \"#utility.yul\":18891:18982   */\n      tag_401\n        /* \"#utility.yul\":18940:18981   */\n      tag_402\n        /* \"#utility.yul\":18964:18980   */\n      dup3\n        /* \"#utility.yul\":18940:18981   */\n      tag_223\n      jump\t// in\n    tag_402:\n        /* \"#utility.yul\":18932:18938   */\n      dup5\n        /* \"#utility.yul\":18925:18929   */\n      dup5\n        /* \"#utility.yul\":18919:18930   */\n      sload\n        /* \"#utility.yul\":18891:18982   */\n      tag_220\n      jump\t// in\n    tag_401:\n        /* \"#utility.yul\":18885:18889   */\n      dup3\n        /* \"#utility.yul\":18878:18983   */\n      sstore\n        /* \"#utility.yul\":18796:18989   */\n      pop\n        /* \"#utility.yul\":18720:18989   */\n      pop\n      pop\n      pop\n      jump\t// out\n        /* \"#utility.yul\":18995:19068   */\n    tag_225:\n        /* \"#utility.yul\":19040:19043   */\n      0x00\n        /* \"#utility.yul\":18995:19068   */\n      swap1\n      jump\t// out\n        /* \"#utility.yul\":19074:19263   */\n    tag_226:\n        /* \"#utility.yul\":19151:19183   */\n      tag_405\n      tag_225\n      jump\t// in\n    tag_405:\n        /* \"#utility.yul\":19192:19257   */\n      tag_406\n        /* \"#utility.yul\":19250:19256   */\n      dup2\n        /* \"#utility.yul\":19242:19248   */\n      dup5\n        /* \"#utility.yul\":19236:19240   */\n      dup5\n        /* \"#utility.yul\":19192:19257   */\n      tag_224\n      jump\t// in\n    tag_406:\n        /* \"#utility.yul\":19127:19263   */\n      pop\n        /* \"#utility.yul\":19074:19263   */\n      pop\n      pop\n      jump\t// out\n        /* \"#utility.yul\":19269:19455   */\n    tag_227:\n        /* \"#utility.yul\":19329:19449   */\n    tag_408:\n        /* \"#utility.yul\":19346:19349   */\n      dup2\n        /* \"#utility.yul\":19339:19344   */\n      dup2\n        /* \"#utility.yul\":19336:19350   */\n      lt\n        /* \"#utility.yul\":19329:19449   */\n      iszero\n      tag_410\n      jumpi\n        /* \"#utility.yul\":19400:19439   */\n      tag_411\n        /* \"#utility.yul\":19437:19438   */\n      0x00\n        /* \"#utility.yul\":19430:19435   */\n      dup3\n        /* \"#utility.yul\":19400:19439   */\n      tag_226\n      jump\t// in\n    tag_411:\n        /* \"#utility.yul\":19373:19374   */\n      0x01\n        /* \"#utility.yul\":19366:19371   */\n      dup2\n        /* \"#utility.yul\":19362:19375   */\n      add\n        /* \"#utility.yul\":19353:19375   */\n      swap1\n      pop\n        /* \"#utility.yul\":19329:19449   */\n      jump(tag_408)\n    tag_410:\n        /* \"#utility.yul\":19269:19455   */\n      pop\n      pop\n      jump\t// out\n        /* \"#utility.yul\":19461:20004   */\n    tag_228:\n        /* \"#utility.yul\":19562:19564   */\n      0x1f\n        /* \"#utility.yul\":19557:19560   */\n      dup3\n        /* \"#utility.yul\":19554:19565   */\n      gt\n        /* \"#utility.yul\":19551:19997   */\n      iszero\n      tag_413\n      jumpi\n        /* \"#utility.yul\":19596:19634   */\n      tag_414\n        /* \"#utility.yul\":19628:19633   */\n      dup2\n        /* \"#utility.yul\":19596:19634   */\n      tag_217\n      jump\t// in\n    tag_414:\n        /* \"#utility.yul\":19680:19709   */\n      tag_415\n        /* \"#utility.yul\":19698:19708   */\n      dup5\n        /* \"#utility.yul\":19680:19709   */\n      tag_218\n      jump\t// in\n    tag_415:\n        /* \"#utility.yul\":19670:19678   */\n      dup2\n        /* \"#utility.yul\":19666:19710   */\n      add\n        /* \"#utility.yul\":19863:19865   */\n      0x20\n        /* \"#utility.yul\":19851:19861   */\n      dup6\n        /* \"#utility.yul\":19848:19866   */\n      lt\n        /* \"#utility.yul\":19845:19894   */\n      iszero\n      tag_416\n      jumpi\n        /* \"#utility.yul\":19884:19892   */\n      dup2\n        /* \"#utility.yul\":19869:19892   */\n      swap1\n      pop\n        /* \"#utility.yul\":19845:19894   */\n    tag_416:\n        /* \"#utility.yul\":19907:19987   */\n      tag_417\n        /* \"#utility.yul\":19963:19985   */\n      tag_418\n        /* \"#utility.yul\":19981:19984   */\n      dup6\n        /* \"#utility.yul\":19963:19985   */\n      tag_218\n      jump\t// in\n    tag_418:\n        /* \"#utility.yul\":19953:19961   */\n      dup4\n        /* \"#utility.yul\":19949:19986   */\n      add\n        /* \"#utility.yul\":19936:19947   */\n      dup3\n        /* \"#utility.yul\":19907:19987   */\n      tag_227\n      jump\t// in\n    tag_417:\n        /* \"#utility.yul\":19566:19997   */\n      pop\n      pop\n        /* \"#utility.yul\":19551:19997   */\n    tag_413:\n        /* \"#utility.yul\":19461:20004   */\n      pop\n      pop\n      pop\n      jump\t// out\n        /* \"#utility.yul\":20010:20127   */\n    tag_229:\n        /* \"#utility.yul\":20064:20072   */\n      0x00\n        /* \"#utility.yul\":20114:20119   */\n      dup3\n        /* \"#utility.yul\":20108:20112   */\n      dup3\n        /* \"#utility.yul\":20104:20120   */\n      shr\n        /* \"#utility.yul\":20083:20120   */\n      swap1\n      pop\n        /* \"#utility.yul\":20010:20127   */\n      swap3\n      swap2\n      pop\n      pop\n      jump\t// out\n        /* \"#utility.yul\":20133:20302   */\n    tag_230:\n        /* \"#utility.yul\":20177:20183   */\n      0x00\n        /* \"#utility.yul\":20210:20261   */\n      tag_421\n        /* \"#utility.yul\":20258:20259   */\n      0x00\n        /* \"#utility.yul\":20254:20260   */\n      not\n        /* \"#utility.yul\":20246:20251   */\n      dup5\n        /* \"#utility.yul\":20243:20244   */\n      0x08\n        /* \"#utility.yul\":20239:20252   */\n      mul\n        /* \"#utility.yul\":20210:20261   */\n      tag_229\n      jump\t// in\n    tag_421:\n        /* \"#utility.yul\":20206:20262   */\n      not\n        /* \"#utility.yul\":20291:20295   */\n      dup1\n        /* \"#utility.yul\":20285:20289   */\n      dup4\n        /* \"#utility.yul\":20281:20296   */\n      and\n        /* \"#utility.yul\":20271:20296   */\n      swap2\n      pop\n        /* \"#utility.yul\":20184:20302   */\n      pop\n        /* \"#utility.yul\":20133:20302   */\n      swap3\n      swap2\n      pop\n      pop\n      jump\t// out\n        /* \"#utility.yul\":20307:20602   */\n    tag_231:\n        /* \"#utility.yul\":20383:20387   */\n      0x00\n        /* \"#utility.yul\":20529:20558   */\n      tag_423\n        /* \"#utility.yul\":20554:20557   */\n      dup4\n        /* \"#utility.yul\":20548:20552   */\n      dup4\n        /* \"#utility.yul\":20529:20558   */\n      tag_230\n      jump\t// in\n    tag_423:\n        /* \"#utility.yul\":20521:20558   */\n      swap2\n      pop\n        /* \"#utility.yul\":20591:20594   */\n      dup3\n        /* \"#utility.yul\":20588:20589   */\n      0x02\n        /* \"#utility.yul\":20584:20595   */\n      mul\n        /* \"#utility.yul\":20578:20582   */\n      dup3\n        /* \"#utility.yul\":20575:20596   */\n      or\n        /* \"#utility.yul\":20567:20596   */\n      swap1\n      pop\n        /* \"#utility.yul\":20307:20602   */\n      swap3\n      swap2\n      pop\n      pop\n      jump\t// out\n        /* \"#utility.yul\":20607:22002   */\n    tag_66:\n        /* \"#utility.yul\":20724:20761   */\n      tag_425\n        /* \"#utility.yul\":20757:20760   */\n      dup3\n        /* \"#utility.yul\":20724:20761   */\n      tag_179\n      jump\t// in\n    tag_425:\n        /* \"#utility.yul\":20826:20844   */\n      0xffffffffffffffff\n        /* \"#utility.yul\":20818:20824   */\n      dup2\n        /* \"#utility.yul\":20815:20845   */\n      gt\n        /* \"#utility.yul\":20812:20868   */\n      iszero\n      tag_426\n      jumpi\n        /* \"#utility.yul\":20848:20866   */\n      tag_427\n      tag_185\n      jump\t// in\n    tag_427:\n        /* \"#utility.yul\":20812:20868   */\n    tag_426:\n        /* \"#utility.yul\":20892:20930   */\n      tag_428\n        /* \"#utility.yul\":20924:20928   */\n      dup3\n        /* \"#utility.yul\":20918:20929   */\n      sload\n        /* \"#utility.yul\":20892:20930   */\n      tag_28\n      jump\t// in\n    tag_428:\n        /* \"#utility.yul\":20977:21044   */\n      tag_429\n        /* \"#utility.yul\":21037:21043   */\n      dup3\n        /* \"#utility.yul\":21029:21035   */\n      dup3\n        /* \"#utility.yul\":21023:21027   */\n      dup6\n        /* \"#utility.yul\":20977:21044   */\n      tag_228\n      jump\t// in\n    tag_429:\n        /* \"#utility.yul\":21071:21072   */\n      0x00\n        /* \"#utility.yul\":21095:21099   */\n      0x20\n        /* \"#utility.yul\":21082:21099   */\n      swap1\n      pop\n        /* \"#utility.yul\":21127:21129   */\n      0x1f\n        /* \"#utility.yul\":21119:21125   */\n      dup4\n        /* \"#utility.yul\":21116:21130   */\n      gt\n        /* \"#utility.yul\":21144:21145   */\n      0x01\n        /* \"#utility.yul\":21139:21757   */\n      dup2\n      eq\n      tag_431\n      jumpi\n        /* \"#utility.yul\":21801:21802   */\n      0x00\n        /* \"#utility.yul\":21818:21824   */\n      dup5\n        /* \"#utility.yul\":21815:21892   */\n      iszero\n      tag_432\n      jumpi\n        /* \"#utility.yul\":21867:21876   */\n      dup3\n        /* \"#utility.yul\":21862:21865   */\n      dup8\n        /* \"#utility.yul\":21858:21877   */\n      add\n        /* \"#utility.yul\":21852:21878   */\n      mload\n        /* \"#utility.yul\":21843:21878   */\n      swap1\n      pop\n        /* \"#utility.yul\":21815:21892   */\n    tag_432:\n        /* \"#utility.yul\":21918:21985   */\n      tag_433\n        /* \"#utility.yul\":21978:21984   */\n      dup6\n        /* \"#utility.yul\":21971:21976   */\n      dup3\n        /* \"#utility.yul\":21918:21985   */\n      tag_231\n      jump\t// in\n    tag_433:\n        /* \"#utility.yul\":21912:21916   */\n      dup7\n        /* \"#utility.yul\":21905:21986   */\n      sstore\n        /* \"#utility.yul\":21774:21996   */\n      pop\n        /* \"#utility.yul\":21109:21996   */\n      jump(tag_430)\n        /* \"#utility.yul\":21139:21757   */\n    tag_431:\n        /* \"#utility.yul\":21191:21195   */\n      0x1f\n        /* \"#utility.yul\":21187:21196   */\n      not\n        /* \"#utility.yul\":21179:21185   */\n      dup5\n        /* \"#utility.yul\":21175:21197   */\n      and\n        /* \"#utility.yul\":21225:21262   */\n      tag_434\n        /* \"#utility.yul\":21257:21261   */\n      dup7\n        /* \"#utility.yul\":21225:21262   */\n      tag_217\n      jump\t// in\n    tag_434:\n        /* \"#utility.yul\":21284:21285   */\n      0x00\n        /* \"#utility.yul\":21298:21506   */\n    tag_435:\n        /* \"#utility.yul\":21312:21319   */\n      dup3\n        /* \"#utility.yul\":21309:21310   */\n      dup2\n        /* \"#utility.yul\":21306:21320   */\n      lt\n        /* \"#utility.yul\":21298:21506   */\n      iszero\n      tag_437\n      jumpi\n        /* \"#utility.yul\":21391:21400   */\n      dup5\n        /* \"#utility.yul\":21386:21389   */\n      dup10\n        /* \"#utility.yul\":21382:21401   */\n      add\n        /* \"#utility.yul\":21376:21402   */\n      mload\n        /* \"#utility.yul\":21368:21374   */\n      dup3\n        /* \"#utility.yul\":21361:21403   */\n      sstore\n        /* \"#utility.yul\":21442:21443   */\n      0x01\n        /* \"#utility.yul\":21434:21440   */\n      dup3\n        /* \"#utility.yul\":21430:21444   */\n      add\n        /* \"#utility.yul\":21420:21444   */\n      swap2\n      pop\n        /* \"#utility.yul\":21489:21491   */\n      0x20\n        /* \"#utility.yul\":21478:21487   */\n      dup6\n        /* \"#utility.yul\":21474:21492   */\n      add\n        /* \"#utility.yul\":21461:21492   */\n      swap5\n      pop\n        /* \"#utility.yul\":21335:21339   */\n      0x20\n        /* \"#utility.yul\":21332:21333   */\n      dup2\n        /* \"#utility.yul\":21328:21340   */\n      add\n        /* \"#utility.yul\":21323:21340   */\n      swap1\n      pop\n        /* \"#utility.yul\":21298:21506   */\n      jump(tag_435)\n    tag_437:\n        /* \"#utility.yul\":21534:21540   */\n      dup7\n        /* \"#utility.yul\":21525:21532   */\n      dup4\n        /* \"#utility.yul\":21522:21541   */\n      lt\n        /* \"#utility.yul\":21519:21698   */\n      iszero\n      tag_438\n      jumpi\n        /* \"#utility.yul\":21592:21601   */\n      dup5\n        /* \"#utility.yul\":21587:21590   */\n      dup10\n        /* \"#utility.yul\":21583:21602   */\n      add\n        /* \"#utility.yul\":21577:21603   */\n      mload\n        /* \"#utility.yul\":21635:21683   */\n      tag_439\n        /* \"#utility.yul\":21677:21681   */\n      0x1f\n        /* \"#utility.yul\":21669:21675   */\n      dup10\n        /* \"#utility.yul\":21665:21682   */\n      and\n        /* \"#utility.yul\":21654:21663   */\n      dup3\n        /* \"#utility.yul\":21635:21683   */\n      tag_230\n      jump\t// in\n    tag_439:\n        /* \"#utility.yul\":21627:21633   */\n      dup4\n        /* \"#utility.yul\":21620:21684   */\n      sstore\n        /* \"#utility.yul\":21542:21698   */\n      pop\n        /* \"#utility.yul\":21519:21698   */\n    tag_438:\n        /* \"#utility.yul\":21744:21745   */\n      0x01\n        /* \"#utility.yul\":21740:21741   */\n      0x02\n        /* \"#utility.yul\":21732:21738   */\n      dup9\n        /* \"#utility.yul\":21728:21742   */\n      mul\n        /* \"#utility.yul\":21724:21746   */\n      add\n        /* \"#utility.yul\":21718:21722   */\n      dup9\n        /* \"#utility.yul\":21711:21747   */\n      sstore\n        /* \"#utility.yul\":21146:21757   */\n      pop\n      pop\n      pop\n        /* \"#utility.yul\":21109:21996   */\n    tag_430:\n      pop\n        /* \"#utility.yul\":20699:22002   */\n      pop\n      pop\n      pop\n        /* \"#utility.yul\":20607:22002   */\n      pop\n      pop\n      jump\t// out\n        /* \"#utility.yul\":22008:22188   */\n    tag_232:\n        /* \"#utility.yul\":22056:22133   */\n      0x4e487b7100000000000000000000000000000000000000000000000000000000\n        /* \"#utility.yul\":22053:22054   */\n      0x00\n        /* \"#utility.yul\":22046:22134   */\n      mstore\n        /* \"#utility.yul\":22153:22157   */\n      0x11\n        /* \"#utility.yul\":22150:22151   */\n      0x04\n        /* \"#utility.yul\":22143:22158   */\n      mstore\n        /* \"#utility.yul\":22177:22181   */\n      0x24\n        /* \"#utility.yul\":22174:22175   */\n      0x00\n        /* \"#utility.yul\":22167:22182   */\n      revert\n        /* \"#utility.yul\":22194:22427   */\n    tag_70:\n        /* \"#utility.yul\":22233:22236   */\n      0x00\n        /* \"#utility.yul\":22256:22280   */\n      tag_442\n        /* \"#utility.yul\":22274:22279   */\n      dup3\n        /* \"#utility.yul\":22256:22280   */\n      tag_176\n      jump\t// in\n    tag_442:\n        /* \"#utility.yul\":22247:22280   */\n      swap2\n      pop\n        /* \"#utility.yul\":22302:22368   */\n      0xffffffffffffffffffffffffffffffffffffffffffffffffffffffffffffffff\n        /* \"#utility.yul\":22295:22300   */\n      dup3\n        /* \"#utility.yul\":22292:22369   */\n      sub\n        /* \"#utility.yul\":22289:22392   */\n      tag_443\n      jumpi\n        /* \"#utility.yul\":22372:22390   */\n      tag_444\n      tag_232\n      jump\t// in\n    tag_444:\n        /* \"#utility.yul\":22289:22392   */\n    tag_443:\n        /* \"#utility.yul\":22419:22420   */\n      0x01\n        /* \"#utility.yul\":22412:22417   */\n      dup3\n        /* \"#utility.yul\":22408:22421   */\n      add\n        /* \"#utility.yul\":22401:22421   */\n      swap1\n      pop\n        /* \"#utility.yul\":22194:22427   */\n      swap2\n      swap1\n      pop\n      jump\t// out\n\n    auxdata: 0xa26469706673582212208bcafdae5dfe8d1a9063f40b9fa97ef4e2d351718e05bd0f538dc2c26fa0910764736f6c63430008120033\n}\n",
				"bytecode": {
					"linkReferences": {},
					"object": "60806040526040518060400160405280600481526020017f4849474800000000000000000000000000000000000000000000000000000000815250600090816200004a9190620002d9565b503480156200005857600080fd5b50620003c0565b600081519050919050565b7f4e487b7100000000000000000000000000000000000000000000000000000000600052604160045260246000fd5b7f4e487b7100000000000000000000000000000000000000000000000000000000600052602260045260246000fd5b60006002820490506001821680620000e157607f821691505b602082108103620000f757620000f662000099565b5b50919050565b60008190508160005260206000209050919050565b60006020601f8301049050919050565b600082821b905092915050565b600060088302620001617fffffffffffffffffffffffffffffffffffffffffffffffffffffffffffffffff8262000122565b6200016d868362000122565b95508019841693508086168417925050509392505050565b6000819050919050565b6000819050919050565b6000620001ba620001b4620001ae8462000185565b6200018f565b62000185565b9050919050565b6000819050919050565b620001d68362000199565b620001ee620001e582620001c1565b8484546200012f565b825550505050565b600090565b62000205620001f6565b62000212818484620001cb565b505050565b5b818110156200023a576200022e600082620001fb565b60018101905062000218565b5050565b601f82111562000289576200025381620000fd565b6200025e8462000112565b810160208510156200026e578190505b620002866200027d8562000112565b83018262000217565b50505b505050565b600082821c905092915050565b6000620002ae600019846008026200028e565b1980831691505092915050565b6000620002c983836200029b565b9150826002028217905092915050565b620002e4826200005f565b67ffffffffffffffff8111156200030057620002ff6200006a565b5b6200030c8254620000c8565b620003198282856200023e565b600060209050601f8311600181146200035157600084156200033c578287015190505b620003488582620002bb565b865550620003b8565b601f1984166200036186620000fd565b60005b828110156200038b5784890151825560018201915060208501945060208101905062000364565b86831015620003ab5784890151620003a7601f8916826200029b565b8355505b6001600288020188555050505b505050505050565b61183e80620003d06000396000f3fe608060405234801561001057600080fd5b506004361061004c5760003560e01c80635faa043d1461005157806388f8009814610083578063b87dff891461009f578063ded1166c146100be575b600080fd5b61006b60048036038101906100669190610d46565b6100f0565b60405161007a93929190610e03565b60405180910390f35b61009d6004803603810190610098919061114b565b6102c2565b005b6100a7610588565b6040516100b592919061144d565b60405180910390f35b6100d860048036038101906100d39190610d46565b6109b5565b6040516100e793929190610e03565b60405180910390f35b6002818154811061010057600080fd5b9060005260206000209060030201600091509050806000018054610123906114b3565b80601f016020809104026020016040519081016040528092919081815260200182805461014f906114b3565b801561019c5780601f106101715761010080835404028352916020019161019c565b820191906000526020600020905b81548152906001019060200180831161017f57829003601f168201915b5050505050908060010180546101b1906114b3565b80601f01602080910402602001604051908101604052809291908181526020018280546101dd906114b3565b801561022a5780601f106101ff5761010080835404028352916020019161022a565b820191906000526020600020905b81548152906001019060200180831161020d57829003601f168201915b50505050509080600201805461023f906114b3565b80601f016020809104026020016040519081016040528092919081815260200182805461026b906114b3565b80156102b85780601f1061028d576101008083540402835291602001916102b8565b820191906000526020600020905b81548152906001019060200180831161029b57829003601f168201915b5050505050905083565b600160006102d09190610b87565b60005b8251811015610422576102e4610bab565b8382815181106102f7576102f66114e4565b5b6020026020010151600081518110610312576103116114e4565b5b60200260200101518160000181905250838281518110610335576103346114e4565b5b60200260200101516001815181106103505761034f6114e4565b5b60200260200101518160200181905250838281518110610373576103726114e4565b5b602002602001015160028151811061038e5761038d6114e4565b5b60200260200101518160400181905250600181908060018154018082558091505060019003906000526020600020906003020160009091909190915060008201518160000190816103df91906116bf565b5060208201518160010190816103f591906116bf565b50604082015181600201908161040b91906116bf565b50505050808061041a906117c0565b9150506102d3565b50600260006104319190610bcc565b60005b815181101561058357610445610bf0565b828281518110610458576104576114e4565b5b6020026020010151600081518110610473576104726114e4565b5b60200260200101518160000181905250828281518110610496576104956114e4565b5b60200260200101516001815181106104b1576104b06114e4565b5b602002602001015181602001819052508282815181106104d4576104d36114e4565b5b60200260200101516002815181106104ef576104ee6114e4565b5b602002602001015181604001819052506002819080600181540180825580915050600190039060005260206000209060030201600090919091909150600082015181600001908161054091906116bf565b50602082015181600101908161055691906116bf565b50604082015181600201908161056c91906116bf565b50505050808061057b906117c0565b915050610434565b505050565b6060806001600281805480602002602001604051908101604052809291908181526020016000905b8282101561079857838290600052602060002090600302016040518060600160405290816000820180546105e3906114b3565b80601f016020809104026020016040519081016040528092919081815260200182805461060f906114b3565b801561065c5780601f106106315761010080835404028352916020019161065c565b820191906000526020600020905b81548152906001019060200180831161063f57829003601f168201915b50505050508152602001600182018054610675906114b3565b80601f01602080910402602001604051908101604052809291908181526020018280546106a1906114b3565b80156106ee5780601f106106c3576101008083540402835291602001916106ee565b820191906000526020600020905b8154815290600101906020018083116106d157829003601f168201915b50505050508152602001600282018054610707906114b3565b80601f0160208091040260200160405190810160405280929190818152602001828054610733906114b3565b80156107805780601f1061075557610100808354040283529160200191610780565b820191906000526020600020905b81548152906001019060200180831161076357829003601f168201915b505050505081525050815260200190600101906105b0565b50505050915080805480602002602001604051908101604052809291908181526020016000905b828210156109a757838290600052602060002090600302016040518060600160405290816000820180546107f2906114b3565b80601f016020809104026020016040519081016040528092919081815260200182805461081e906114b3565b801561086b5780601f106108405761010080835404028352916020019161086b565b820191906000526020600020905b81548152906001019060200180831161084e57829003601f168201915b50505050508152602001600182018054610884906114b3565b80601f01602080910402602001604051908101604052809291908181526020018280546108b0906114b3565b80156108fd5780601f106108d2576101008083540402835291602001916108fd565b820191906000526020600020905b8154815290600101906020018083116108e057829003601f168201915b50505050508152602001600282018054610916906114b3565b80601f0160208091040260200160405190810160405280929190818152602001828054610942906114b3565b801561098f5780601f106109645761010080835404028352916020019161098f565b820191906000526020600020905b81548152906001019060200180831161097257829003601f168201915b505050505081525050815260200190600101906107bf565b505050509050915091509091565b600181815481106109c557600080fd5b90600052602060002090600302016000915090508060000180546109e8906114b3565b80601f0160208091040260200160405190810160405280929190818152602001828054610a14906114b3565b8015610a615780601f10610a3657610100808354040283529160200191610a61565b820191906000526020600020905b815481529060010190602001808311610a4457829003601f168201915b505050505090806001018054610a76906114b3565b80601f0160208091040260200160405190810160405280929190818152602001828054610aa2906114b3565b8015610aef5780601f10610ac457610100808354040283529160200191610aef565b820191906000526020600020905b815481529060010190602001808311610ad257829003601f168201915b505050505090806002018054610b04906114b3565b80601f0160208091040260200160405190810160405280929190818152602001828054610b30906114b3565b8015610b7d5780601f10610b5257610100808354040283529160200191610b7d565b820191906000526020600020905b815481529060010190602001808311610b6057829003601f168201915b5050505050905083565b5080546000825560030290600052602060002090810190610ba89190610c11565b50565b60405180606001604052806060815260200160608152602001606081525090565b5080546000825560030290600052602060002090810190610bed9190610c58565b50565b60405180606001604052806060815260200160608152602001606081525090565b5b80821115610c545760008082016000610c2b9190610c9f565b600182016000610c3b9190610c9f565b600282016000610c4b9190610c9f565b50600301610c12565b5090565b5b80821115610c9b5760008082016000610c729190610c9f565b600182016000610c829190610c9f565b600282016000610c929190610c9f565b50600301610c59565b5090565b508054610cab906114b3565b6000825580601f10610cbd5750610cdc565b601f016020900490600052602060002090810190610cdb9190610cdf565b5b50565b5b80821115610cf8576000816000905550600101610ce0565b5090565b6000604051905090565b600080fd5b600080fd5b6000819050919050565b610d2381610d10565b8114610d2e57600080fd5b50565b600081359050610d4081610d1a565b92915050565b600060208284031215610d5c57610d5b610d06565b5b6000610d6a84828501610d31565b91505092915050565b600081519050919050565b600082825260208201905092915050565b60005b83811015610dad578082015181840152602081019050610d92565b60008484015250505050565b6000601f19601f8301169050919050565b6000610dd582610d73565b610ddf8185610d7e565b9350610def818560208601610d8f565b610df881610db9565b840191505092915050565b60006060820190508181036000830152610e1d8186610dca565b90508181036020830152610e318185610dca565b90508181036040830152610e458184610dca565b9050949350505050565b600080fd5b7f4e487b7100000000000000000000000000000000000000000000000000000000600052604160045260246000fd5b610e8c82610db9565b810181811067ffffffffffffffff82111715610eab57610eaa610e54565b5b80604052505050565b6000610ebe610cfc565b9050610eca8282610e83565b919050565b600067ffffffffffffffff821115610eea57610ee9610e54565b5b602082029050602081019050919050565b600080fd5b600067ffffffffffffffff821115610f1b57610f1a610e54565b5b602082029050602081019050919050565b600080fd5b600067ffffffffffffffff821115610f4c57610f4b610e54565b5b610f5582610db9565b9050602081019050919050565b82818337600083830152505050565b6000610f84610f7f84610f31565b610eb4565b905082815260208101848484011115610fa057610f9f610f2c565b5b610fab848285610f62565b509392505050565b600082601f830112610fc857610fc7610e4f565b5b8135610fd8848260208601610f71565b91505092915050565b6000610ff4610fef84610f00565b610eb4565b9050808382526020820190506020840283018581111561101757611016610efb565b5b835b8181101561105e57803567ffffffffffffffff81111561103c5761103b610e4f565b5b8086016110498982610fb3565b85526020850194505050602081019050611019565b5050509392505050565b600082601f83011261107d5761107c610e4f565b5b813561108d848260208601610fe1565b91505092915050565b60006110a96110a484610ecf565b610eb4565b905080838252602082019050602084028301858111156110cc576110cb610efb565b5b835b8181101561111357803567ffffffffffffffff8111156110f1576110f0610e4f565b5b8086016110fe8982611068565b855260208501945050506020810190506110ce565b5050509392505050565b600082601f83011261113257611131610e4f565b5b8135611142848260208601611096565b91505092915050565b6000806040838503121561116257611161610d06565b5b600083013567ffffffffffffffff8111156111805761117f610d0b565b5b61118c8582860161111d565b925050602083013567ffffffffffffffff8111156111ad576111ac610d0b565b5b6111b98582860161111d565b9150509250929050565b600081519050919050565b600082825260208201905092915050565b6000819050602082019050919050565b600082825260208201905092915050565b600061120b82610d73565b61121581856111ef565b9350611225818560208601610d8f565b61122e81610db9565b840191505092915050565b600060608301600083015184820360008601526112568282611200565b915050602083015184820360208601526112708282611200565b9150506040830151848203604086015261128a8282611200565b9150508091505092915050565b60006112a38383611239565b905092915050565b6000602082019050919050565b60006112c3826111c3565b6112cd81856111ce565b9350836020820285016112df856111df565b8060005b8581101561131b57848403895281516112fc8582611297565b9450611307836112ab565b925060208a019950506001810190506112e3565b50829750879550505050505092915050565b600081519050919050565b600082825260208201905092915050565b6000819050602082019050919050565b600060608301600083015184820360008601526113768282611200565b915050602083015184820360208601526113908282611200565b915050604083015184820360408601526113aa8282611200565b9150508091505092915050565b60006113c38383611359565b905092915050565b6000602082019050919050565b60006113e38261132d565b6113ed8185611338565b9350836020820285016113ff85611349565b8060005b8581101561143b578484038952815161141c85826113b7565b9450611427836113cb565b925060208a01995050600181019050611403565b50829750879550505050505092915050565b6000604082019050818103600083015261146781856112b8565b9050818103602083015261147b81846113d8565b90509392505050565b7f4e487b7100000000000000000000000000000000000000000000000000000000600052602260045260246000fd5b600060028204905060018216806114cb57607f821691505b6020821081036114de576114dd611484565b5b50919050565b7f4e487b7100000000000000000000000000000000000000000000000000000000600052603260045260246000fd5b60008190508160005260206000209050919050565b60006020601f8301049050919050565b600082821b905092915050565b6000600883026115757fffffffffffffffffffffffffffffffffffffffffffffffffffffffffffffffff82611538565b61157f8683611538565b95508019841693508086168417925050509392505050565b6000819050919050565b60006115bc6115b76115b284610d10565b611597565b610d10565b9050919050565b6000819050919050565b6115d6836115a1565b6115ea6115e2826115c3565b848454611545565b825550505050565b600090565b6115ff6115f2565b61160a8184846115cd565b505050565b5b8181101561162e576116236000826115f7565b600181019050611610565b5050565b601f8211156116735761164481611513565b61164d84611528565b8101602085101561165c578190505b61167061166885611528565b83018261160f565b50505b505050565b600082821c905092915050565b600061169660001984600802611678565b1980831691505092915050565b60006116af8383611685565b9150826002028217905092915050565b6116c882610d73565b67ffffffffffffffff8111156116e1576116e0610e54565b5b6116eb82546114b3565b6116f6828285611632565b600060209050601f8311600181146117295760008415611717578287015190505b61172185826116a3565b865550611789565b601f19841661173786611513565b60005b8281101561175f5784890151825560018201915060208501945060208101905061173a565b8683101561177c5784890151611778601f891682611685565b8355505b6001600288020188555050505b505050505050565b7f4e487b7100000000000000000000000000000000000000000000000000000000600052601160045260246000fd5b60006117cb82610d10565b91507fffffffffffffffffffffffffffffffffffffffffffffffffffffffffffffffff82036117fd576117fc611791565b5b60018201905091905056fea26469706673582212208bcafdae5dfe8d1a9063f40b9fa97ef4e2d351718e05bd0f538dc2c26fa0910764736f6c63430008120033",
					"opcodes": "PUSH1 0x80 PUSH1 0x40 MSTORE PUSH1 0x40 MLOAD DUP1 PUSH1 0x40 ADD PUSH1 0x40 MSTORE DUP1 PUSH1 0x4 DUP2 MSTORE PUSH1 0x20 ADD PUSH32 0x4849474800000000000000000000000000000000000000000000000000000000 DUP2 MSTORE POP PUSH1 0x0 SWAP1 DUP2 PUSH3 0x4A SWAP2 SWAP1 PUSH3 0x2D9 JUMP JUMPDEST POP CALLVALUE DUP1 ISZERO PUSH3 0x58 JUMPI PUSH1 0x0 DUP1 REVERT JUMPDEST POP PUSH3 0x3C0 JUMP JUMPDEST PUSH1 0x0 DUP2 MLOAD SWAP1 POP SWAP2 SWAP1 POP JUMP JUMPDEST PUSH32 0x4E487B7100000000000000000000000000000000000000000000000000000000 PUSH1 0x0 MSTORE PUSH1 0x41 PUSH1 0x4 MSTORE PUSH1 0x24 PUSH1 0x0 REVERT JUMPDEST PUSH32 0x4E487B7100000000000000000000000000000000000000000000000000000000 PUSH1 0x0 MSTORE PUSH1 0x22 PUSH1 0x4 MSTORE PUSH1 0x24 PUSH1 0x0 REVERT JUMPDEST PUSH1 0x0 PUSH1 0x2 DUP3 DIV SWAP1 POP PUSH1 0x1 DUP3 AND DUP1 PUSH3 0xE1 JUMPI PUSH1 0x7F DUP3 AND SWAP2 POP JUMPDEST PUSH1 0x20 DUP3 LT DUP2 SUB PUSH3 0xF7 JUMPI PUSH3 0xF6 PUSH3 0x99 JUMP JUMPDEST JUMPDEST POP SWAP2 SWAP1 POP JUMP JUMPDEST PUSH1 0x0 DUP2 SWAP1 POP DUP2 PUSH1 0x0 MSTORE PUSH1 0x20 PUSH1 0x0 KECCAK256 SWAP1 POP SWAP2 SWAP1 POP JUMP JUMPDEST PUSH1 0x0 PUSH1 0x20 PUSH1 0x1F DUP4 ADD DIV SWAP1 POP SWAP2 SWAP1 POP JUMP JUMPDEST PUSH1 0x0 DUP3 DUP3 SHL SWAP1 POP SWAP3 SWAP2 POP POP JUMP JUMPDEST PUSH1 0x0 PUSH1 0x8 DUP4 MUL PUSH3 0x161 PUSH32 0xFFFFFFFFFFFFFFFFFFFFFFFFFFFFFFFFFFFFFFFFFFFFFFFFFFFFFFFFFFFFFFFF DUP3 PUSH3 0x122 JUMP JUMPDEST PUSH3 0x16D DUP7 DUP4 PUSH3 0x122 JUMP JUMPDEST SWAP6 POP DUP1 NOT DUP5 AND SWAP4 POP DUP1 DUP7 AND DUP5 OR SWAP3 POP POP POP SWAP4 SWAP3 POP POP POP JUMP JUMPDEST PUSH1 0x0 DUP2 SWAP1 POP SWAP2 SWAP1 POP JUMP JUMPDEST PUSH1 0x0 DUP2 SWAP1 POP SWAP2 SWAP1 POP JUMP JUMPDEST PUSH1 0x0 PUSH3 0x1BA PUSH3 0x1B4 PUSH3 0x1AE DUP5 PUSH3 0x185 JUMP JUMPDEST PUSH3 0x18F JUMP JUMPDEST PUSH3 0x185 JUMP JUMPDEST SWAP1 POP SWAP2 SWAP1 POP JUMP JUMPDEST PUSH1 0x0 DUP2 SWAP1 POP SWAP2 SWAP1 POP JUMP JUMPDEST PUSH3 0x1D6 DUP4 PUSH3 0x199 JUMP JUMPDEST PUSH3 0x1EE PUSH3 0x1E5 DUP3 PUSH3 0x1C1 JUMP JUMPDEST DUP5 DUP5 SLOAD PUSH3 0x12F JUMP JUMPDEST DUP3 SSTORE POP POP POP POP JUMP JUMPDEST PUSH1 0x0 SWAP1 JUMP JUMPDEST PUSH3 0x205 PUSH3 0x1F6 JUMP JUMPDEST PUSH3 0x212 DUP2 DUP5 DUP5 PUSH3 0x1CB JUMP JUMPDEST POP POP POP JUMP JUMPDEST JUMPDEST DUP2 DUP2 LT ISZERO PUSH3 0x23A JUMPI PUSH3 0x22E PUSH1 0x0 DUP3 PUSH3 0x1FB JUMP JUMPDEST PUSH1 0x1 DUP2 ADD SWAP1 POP PUSH3 0x218 JUMP JUMPDEST POP POP JUMP JUMPDEST PUSH1 0x1F DUP3 GT ISZERO PUSH3 0x289 JUMPI PUSH3 0x253 DUP2 PUSH3 0xFD JUMP JUMPDEST PUSH3 0x25E DUP5 PUSH3 0x112 JUMP JUMPDEST DUP2 ADD PUSH1 0x20 DUP6 LT ISZERO PUSH3 0x26E JUMPI DUP2 SWAP1 POP JUMPDEST PUSH3 0x286 PUSH3 0x27D DUP6 PUSH3 0x112 JUMP JUMPDEST DUP4 ADD DUP3 PUSH3 0x217 JUMP JUMPDEST POP POP JUMPDEST POP POP POP JUMP JUMPDEST PUSH1 0x0 DUP3 DUP3 SHR SWAP1 POP SWAP3 SWAP2 POP POP JUMP JUMPDEST PUSH1 0x0 PUSH3 0x2AE PUSH1 0x0 NOT DUP5 PUSH1 0x8 MUL PUSH3 0x28E JUMP JUMPDEST NOT DUP1 DUP4 AND SWAP2 POP POP SWAP3 SWAP2 POP POP JUMP JUMPDEST PUSH1 0x0 PUSH3 0x2C9 DUP4 DUP4 PUSH3 0x29B JUMP JUMPDEST SWAP2 POP DUP3 PUSH1 0x2 MUL DUP3 OR SWAP1 POP SWAP3 SWAP2 POP POP JUMP JUMPDEST PUSH3 0x2E4 DUP3 PUSH3 0x5F JUMP JUMPDEST PUSH8 0xFFFFFFFFFFFFFFFF DUP2 GT ISZERO PUSH3 0x300 JUMPI PUSH3 0x2FF PUSH3 0x6A JUMP JUMPDEST JUMPDEST PUSH3 0x30C DUP3 SLOAD PUSH3 0xC8 JUMP JUMPDEST PUSH3 0x319 DUP3 DUP3 DUP6 PUSH3 0x23E JUMP JUMPDEST PUSH1 0x0 PUSH1 0x20 SWAP1 POP PUSH1 0x1F DUP4 GT PUSH1 0x1 DUP2 EQ PUSH3 0x351 JUMPI PUSH1 0x0 DUP5 ISZERO PUSH3 0x33C JUMPI DUP3 DUP8 ADD MLOAD SWAP1 POP JUMPDEST PUSH3 0x348 DUP6 DUP3 PUSH3 0x2BB JUMP JUMPDEST DUP7 SSTORE POP PUSH3 0x3B8 JUMP JUMPDEST PUSH1 0x1F NOT DUP5 AND PUSH3 0x361 DUP7 PUSH3 0xFD JUMP JUMPDEST PUSH1 0x0 JUMPDEST DUP3 DUP2 LT ISZERO PUSH3 0x38B JUMPI DUP5 DUP10 ADD MLOAD DUP3 SSTORE PUSH1 0x1 DUP3 ADD SWAP2 POP PUSH1 0x20 DUP6 ADD SWAP5 POP PUSH1 0x20 DUP2 ADD SWAP1 POP PUSH3 0x364 JUMP JUMPDEST DUP7 DUP4 LT ISZERO PUSH3 0x3AB JUMPI DUP5 DUP10 ADD MLOAD PUSH3 0x3A7 PUSH1 0x1F DUP10 AND DUP3 PUSH3 0x29B JUMP JUMPDEST DUP4 SSTORE POP JUMPDEST PUSH1 0x1 PUSH1 0x2 DUP9 MUL ADD DUP9 SSTORE POP POP POP JUMPDEST POP POP POP POP POP POP JUMP JUMPDEST PUSH2 0x183E DUP1 PUSH3 0x3D0 PUSH1 0x0 CODECOPY PUSH1 0x0 RETURN INVALID PUSH1 0x80 PUSH1 0x40 MSTORE CALLVALUE DUP1 ISZERO PUSH2 0x10 JUMPI PUSH1 0x0 DUP1 REVERT JUMPDEST POP PUSH1 0x4 CALLDATASIZE LT PUSH2 0x4C JUMPI PUSH1 0x0 CALLDATALOAD PUSH1 0xE0 SHR DUP1 PUSH4 0x5FAA043D EQ PUSH2 0x51 JUMPI DUP1 PUSH4 0x88F80098 EQ PUSH2 0x83 JUMPI DUP1 PUSH4 0xB87DFF89 EQ PUSH2 0x9F JUMPI DUP1 PUSH4 0xDED1166C EQ PUSH2 0xBE JUMPI JUMPDEST PUSH1 0x0 DUP1 REVERT JUMPDEST PUSH2 0x6B PUSH1 0x4 DUP1 CALLDATASIZE SUB DUP2 ADD SWAP1 PUSH2 0x66 SWAP2 SWAP1 PUSH2 0xD46 JUMP JUMPDEST PUSH2 0xF0 JUMP JUMPDEST PUSH1 0x40 MLOAD PUSH2 0x7A SWAP4 SWAP3 SWAP2 SWAP1 PUSH2 0xE03 JUMP JUMPDEST PUSH1 0x40 MLOAD DUP1 SWAP2 SUB SWAP1 RETURN JUMPDEST PUSH2 0x9D PUSH1 0x4 DUP1 CALLDATASIZE SUB DUP2 ADD SWAP1 PUSH2 0x98 SWAP2 SWAP1 PUSH2 0x114B JUMP JUMPDEST PUSH2 0x2C2 JUMP JUMPDEST STOP JUMPDEST PUSH2 0xA7 PUSH2 0x588 JUMP JUMPDEST PUSH1 0x40 MLOAD PUSH2 0xB5 SWAP3 SWAP2 SWAP1 PUSH2 0x144D JUMP JUMPDEST PUSH1 0x40 MLOAD DUP1 SWAP2 SUB SWAP1 RETURN JUMPDEST PUSH2 0xD8 PUSH1 0x4 DUP1 CALLDATASIZE SUB DUP2 ADD SWAP1 PUSH2 0xD3 SWAP2 SWAP1 PUSH2 0xD46 JUMP JUMPDEST PUSH2 0x9B5 JUMP JUMPDEST PUSH1 0x40 MLOAD PUSH2 0xE7 SWAP4 SWAP3 SWAP2 SWAP1 PUSH2 0xE03 JUMP JUMPDEST PUSH1 0x40 MLOAD DUP1 SWAP2 SUB SWAP1 RETURN JUMPDEST PUSH1 0x2 DUP2 DUP2 SLOAD DUP2 LT PUSH2 0x100 JUMPI PUSH1 0x0 DUP1 REVERT JUMPDEST SWAP1 PUSH1 0x0 MSTORE PUSH1 0x20 PUSH1 0x0 KECCAK256 SWAP1 PUSH1 0x3 MUL ADD PUSH1 0x0 SWAP2 POP SWAP1 POP DUP1 PUSH1 0x0 ADD DUP1 SLOAD PUSH2 0x123 SWAP1 PUSH2 0x14B3 JUMP JUMPDEST DUP1 PUSH1 0x1F ADD PUSH1 0x20 DUP1 SWAP2 DIV MUL PUSH1 0x20 ADD PUSH1 0x40 MLOAD SWAP1 DUP2 ADD PUSH1 0x40 MSTORE DUP1 SWAP3 SWAP2 SWAP1 DUP2 DUP2 MSTORE PUSH1 0x20 ADD DUP3 DUP1 SLOAD PUSH2 0x14F SWAP1 PUSH2 0x14B3 JUMP JUMPDEST DUP1 ISZERO PUSH2 0x19C JUMPI DUP1 PUSH1 0x1F LT PUSH2 0x171 JUMPI PUSH2 0x100 DUP1 DUP4 SLOAD DIV MUL DUP4 MSTORE SWAP2 PUSH1 0x20 ADD SWAP2 PUSH2 0x19C JUMP JUMPDEST DUP3 ADD SWAP2 SWAP1 PUSH1 0x0 MSTORE PUSH1 0x20 PUSH1 0x0 KECCAK256 SWAP1 JUMPDEST DUP2 SLOAD DUP2 MSTORE SWAP1 PUSH1 0x1 ADD SWAP1 PUSH1 0x20 ADD DUP1 DUP4 GT PUSH2 0x17F JUMPI DUP3 SWAP1 SUB PUSH1 0x1F AND DUP3 ADD SWAP2 JUMPDEST POP POP POP POP POP SWAP1 DUP1 PUSH1 0x1 ADD DUP1 SLOAD PUSH2 0x1B1 SWAP1 PUSH2 0x14B3 JUMP JUMPDEST DUP1 PUSH1 0x1F ADD PUSH1 0x20 DUP1 SWAP2 DIV MUL PUSH1 0x20 ADD PUSH1 0x40 MLOAD SWAP1 DUP2 ADD PUSH1 0x40 MSTORE DUP1 SWAP3 SWAP2 SWAP1 DUP2 DUP2 MSTORE PUSH1 0x20 ADD DUP3 DUP1 SLOAD PUSH2 0x1DD SWAP1 PUSH2 0x14B3 JUMP JUMPDEST DUP1 ISZERO PUSH2 0x22A JUMPI DUP1 PUSH1 0x1F LT PUSH2 0x1FF JUMPI PUSH2 0x100 DUP1 DUP4 SLOAD DIV MUL DUP4 MSTORE SWAP2 PUSH1 0x20 ADD SWAP2 PUSH2 0x22A JUMP JUMPDEST DUP3 ADD SWAP2 SWAP1 PUSH1 0x0 MSTORE PUSH1 0x20 PUSH1 0x0 KECCAK256 SWAP1 JUMPDEST DUP2 SLOAD DUP2 MSTORE SWAP1 PUSH1 0x1 ADD SWAP1 PUSH1 0x20 ADD DUP1 DUP4 GT PUSH2 0x20D JUMPI DUP3 SWAP1 SUB PUSH1 0x1F AND DUP3 ADD SWAP2 JUMPDEST POP POP POP POP POP SWAP1 DUP1 PUSH1 0x2 ADD DUP1 SLOAD PUSH2 0x23F SWAP1 PUSH2 0x14B3 JUMP JUMPDEST DUP1 PUSH1 0x1F ADD PUSH1 0x20 DUP1 SWAP2 DIV MUL PUSH1 0x20 ADD PUSH1 0x40 MLOAD SWAP1 DUP2 ADD PUSH1 0x40 MSTORE DUP1 SWAP3 SWAP2 SWAP1 DUP2 DUP2 MSTORE PUSH1 0x20 ADD DUP3 DUP1 SLOAD PUSH2 0x26B SWAP1 PUSH2 0x14B3 JUMP JUMPDEST DUP1 ISZERO PUSH2 0x2B8 JUMPI DUP1 PUSH1 0x1F LT PUSH2 0x28D JUMPI PUSH2 0x100 DUP1 DUP4 SLOAD DIV MUL DUP4 MSTORE SWAP2 PUSH1 0x20 ADD SWAP2 PUSH2 0x2B8 JUMP JUMPDEST DUP3 ADD SWAP2 SWAP1 PUSH1 0x0 MSTORE PUSH1 0x20 PUSH1 0x0 KECCAK256 SWAP1 JUMPDEST DUP2 SLOAD DUP2 MSTORE SWAP1 PUSH1 0x1 ADD SWAP1 PUSH1 0x20 ADD DUP1 DUP4 GT PUSH2 0x29B JUMPI DUP3 SWAP1 SUB PUSH1 0x1F AND DUP3 ADD SWAP2 JUMPDEST POP POP POP POP POP SWAP1 POP DUP4 JUMP JUMPDEST PUSH1 0x1 PUSH1 0x0 PUSH2 0x2D0 SWAP2 SWAP1 PUSH2 0xB87 JUMP JUMPDEST PUSH1 0x0 JUMPDEST DUP3 MLOAD DUP2 LT ISZERO PUSH2 0x422 JUMPI PUSH2 0x2E4 PUSH2 0xBAB JUMP JUMPDEST DUP4 DUP3 DUP2 MLOAD DUP2 LT PUSH2 0x2F7 JUMPI PUSH2 0x2F6 PUSH2 0x14E4 JUMP JUMPDEST JUMPDEST PUSH1 0x20 MUL PUSH1 0x20 ADD ADD MLOAD PUSH1 0x0 DUP2 MLOAD DUP2 LT PUSH2 0x312 JUMPI PUSH2 0x311 PUSH2 0x14E4 JUMP JUMPDEST JUMPDEST PUSH1 0x20 MUL PUSH1 0x20 ADD ADD MLOAD DUP2 PUSH1 0x0 ADD DUP2 SWAP1 MSTORE POP DUP4 DUP3 DUP2 MLOAD DUP2 LT PUSH2 0x335 JUMPI PUSH2 0x334 PUSH2 0x14E4 JUMP JUMPDEST JUMPDEST PUSH1 0x20 MUL PUSH1 0x20 ADD ADD MLOAD PUSH1 0x1 DUP2 MLOAD DUP2 LT PUSH2 0x350 JUMPI PUSH2 0x34F PUSH2 0x14E4 JUMP JUMPDEST JUMPDEST PUSH1 0x20 MUL PUSH1 0x20 ADD ADD MLOAD DUP2 PUSH1 0x20 ADD DUP2 SWAP1 MSTORE POP DUP4 DUP3 DUP2 MLOAD DUP2 LT PUSH2 0x373 JUMPI PUSH2 0x372 PUSH2 0x14E4 JUMP JUMPDEST JUMPDEST PUSH1 0x20 MUL PUSH1 0x20 ADD ADD MLOAD PUSH1 0x2 DUP2 MLOAD DUP2 LT PUSH2 0x38E JUMPI PUSH2 0x38D PUSH2 0x14E4 JUMP JUMPDEST JUMPDEST PUSH1 0x20 MUL PUSH1 0x20 ADD ADD MLOAD DUP2 PUSH1 0x40 ADD DUP2 SWAP1 MSTORE POP PUSH1 0x1 DUP2 SWAP1 DUP1 PUSH1 0x1 DUP2 SLOAD ADD DUP1 DUP3 SSTORE DUP1 SWAP2 POP POP PUSH1 0x1 SWAP1 SUB SWAP1 PUSH1 0x0 MSTORE PUSH1 0x20 PUSH1 0x0 KECCAK256 SWAP1 PUSH1 0x3 MUL ADD PUSH1 0x0 SWAP1 SWAP2 SWAP1 SWAP2 SWAP1 SWAP2 POP PUSH1 0x0 DUP3 ADD MLOAD DUP2 PUSH1 0x0 ADD SWAP1 DUP2 PUSH2 0x3DF SWAP2 SWAP1 PUSH2 0x16BF JUMP JUMPDEST POP PUSH1 0x20 DUP3 ADD MLOAD DUP2 PUSH1 0x1 ADD SWAP1 DUP2 PUSH2 0x3F5 SWAP2 SWAP1 PUSH2 0x16BF JUMP JUMPDEST POP PUSH1 0x40 DUP3 ADD MLOAD DUP2 PUSH1 0x2 ADD SWAP1 DUP2 PUSH2 0x40B SWAP2 SWAP1 PUSH2 0x16BF JUMP JUMPDEST POP POP POP POP DUP1 DUP1 PUSH2 0x41A SWAP1 PUSH2 0x17C0 JUMP JUMPDEST SWAP2 POP POP PUSH2 0x2D3 JUMP JUMPDEST POP PUSH1 0x2 PUSH1 0x0 PUSH2 0x431 SWAP2 SWAP1 PUSH2 0xBCC JUMP JUMPDEST PUSH1 0x0 JUMPDEST DUP2 MLOAD DUP2 LT ISZERO PUSH2 0x583 JUMPI PUSH2 0x445 PUSH2 0xBF0 JUMP JUMPDEST DUP3 DUP3 DUP2 MLOAD DUP2 LT PUSH2 0x458 JUMPI PUSH2 0x457 PUSH2 0x14E4 JUMP JUMPDEST JUMPDEST PUSH1 0x20 MUL PUSH1 0x20 ADD ADD MLOAD PUSH1 0x0 DUP2 MLOAD DUP2 LT PUSH2 0x473 JUMPI PUSH2 0x472 PUSH2 0x14E4 JUMP JUMPDEST JUMPDEST PUSH1 0x20 MUL PUSH1 0x20 ADD ADD MLOAD DUP2 PUSH1 0x0 ADD DUP2 SWAP1 MSTORE POP DUP3 DUP3 DUP2 MLOAD DUP2 LT PUSH2 0x496 JUMPI PUSH2 0x495 PUSH2 0x14E4 JUMP JUMPDEST JUMPDEST PUSH1 0x20 MUL PUSH1 0x20 ADD ADD MLOAD PUSH1 0x1 DUP2 MLOAD DUP2 LT PUSH2 0x4B1 JUMPI PUSH2 0x4B0 PUSH2 0x14E4 JUMP JUMPDEST JUMPDEST PUSH1 0x20 MUL PUSH1 0x20 ADD ADD MLOAD DUP2 PUSH1 0x20 ADD DUP2 SWAP1 MSTORE POP DUP3 DUP3 DUP2 MLOAD DUP2 LT PUSH2 0x4D4 JUMPI PUSH2 0x4D3 PUSH2 0x14E4 JUMP JUMPDEST JUMPDEST PUSH1 0x20 MUL PUSH1 0x20 ADD ADD MLOAD PUSH1 0x2 DUP2 MLOAD DUP2 LT PUSH2 0x4EF JUMPI PUSH2 0x4EE PUSH2 0x14E4 JUMP JUMPDEST JUMPDEST PUSH1 0x20 MUL PUSH1 0x20 ADD ADD MLOAD DUP2 PUSH1 0x40 ADD DUP2 SWAP1 MSTORE POP PUSH1 0x2 DUP2 SWAP1 DUP1 PUSH1 0x1 DUP2 SLOAD ADD DUP1 DUP3 SSTORE DUP1 SWAP2 POP POP PUSH1 0x1 SWAP1 SUB SWAP1 PUSH1 0x0 MSTORE PUSH1 0x20 PUSH1 0x0 KECCAK256 SWAP1 PUSH1 0x3 MUL ADD PUSH1 0x0 SWAP1 SWAP2 SWAP1 SWAP2 SWAP1 SWAP2 POP PUSH1 0x0 DUP3 ADD MLOAD DUP2 PUSH1 0x0 ADD SWAP1 DUP2 PUSH2 0x540 SWAP2 SWAP1 PUSH2 0x16BF JUMP JUMPDEST POP PUSH1 0x20 DUP3 ADD MLOAD DUP2 PUSH1 0x1 ADD SWAP1 DUP2 PUSH2 0x556 SWAP2 SWAP1 PUSH2 0x16BF JUMP JUMPDEST POP PUSH1 0x40 DUP3 ADD MLOAD DUP2 PUSH1 0x2 ADD SWAP1 DUP2 PUSH2 0x56C SWAP2 SWAP1 PUSH2 0x16BF JUMP JUMPDEST POP POP POP POP DUP1 DUP1 PUSH2 0x57B SWAP1 PUSH2 0x17C0 JUMP JUMPDEST SWAP2 POP POP PUSH2 0x434 JUMP JUMPDEST POP POP POP JUMP JUMPDEST PUSH1 0x60 DUP1 PUSH1 0x1 PUSH1 0x2 DUP2 DUP1 SLOAD DUP1 PUSH1 0x20 MUL PUSH1 0x20 ADD PUSH1 0x40 MLOAD SWAP1 DUP2 ADD PUSH1 0x40 MSTORE DUP1 SWAP3 SWAP2 SWAP1 DUP2 DUP2 MSTORE PUSH1 0x20 ADD PUSH1 0x0 SWAP1 JUMPDEST DUP3 DUP3 LT ISZERO PUSH2 0x798 JUMPI DUP4 DUP3 SWAP1 PUSH1 0x0 MSTORE PUSH1 0x20 PUSH1 0x0 KECCAK256 SWAP1 PUSH1 0x3 MUL ADD PUSH1 0x40 MLOAD DUP1 PUSH1 0x60 ADD PUSH1 0x40 MSTORE SWAP1 DUP2 PUSH1 0x0 DUP3 ADD DUP1 SLOAD PUSH2 0x5E3 SWAP1 PUSH2 0x14B3 JUMP JUMPDEST DUP1 PUSH1 0x1F ADD PUSH1 0x20 DUP1 SWAP2 DIV MUL PUSH1 0x20 ADD PUSH1 0x40 MLOAD SWAP1 DUP2 ADD PUSH1 0x40 MSTORE DUP1 SWAP3 SWAP2 SWAP1 DUP2 DUP2 MSTORE PUSH1 0x20 ADD DUP3 DUP1 SLOAD PUSH2 0x60F SWAP1 PUSH2 0x14B3 JUMP JUMPDEST DUP1 ISZERO PUSH2 0x65C JUMPI DUP1 PUSH1 0x1F LT PUSH2 0x631 JUMPI PUSH2 0x100 DUP1 DUP4 SLOAD DIV MUL DUP4 MSTORE SWAP2 PUSH1 0x20 ADD SWAP2 PUSH2 0x65C JUMP JUMPDEST DUP3 ADD SWAP2 SWAP1 PUSH1 0x0 MSTORE PUSH1 0x20 PUSH1 0x0 KECCAK256 SWAP1 JUMPDEST DUP2 SLOAD DUP2 MSTORE SWAP1 PUSH1 0x1 ADD SWAP1 PUSH1 0x20 ADD DUP1 DUP4 GT PUSH2 0x63F JUMPI DUP3 SWAP1 SUB PUSH1 0x1F AND DUP3 ADD SWAP2 JUMPDEST POP POP POP POP POP DUP2 MSTORE PUSH1 0x20 ADD PUSH1 0x1 DUP3 ADD DUP1 SLOAD PUSH2 0x675 SWAP1 PUSH2 0x14B3 JUMP JUMPDEST DUP1 PUSH1 0x1F ADD PUSH1 0x20 DUP1 SWAP2 DIV MUL PUSH1 0x20 ADD PUSH1 0x40 MLOAD SWAP1 DUP2 ADD PUSH1 0x40 MSTORE DUP1 SWAP3 SWAP2 SWAP1 DUP2 DUP2 MSTORE PUSH1 0x20 ADD DUP3 DUP1 SLOAD PUSH2 0x6A1 SWAP1 PUSH2 0x14B3 JUMP JUMPDEST DUP1 ISZERO PUSH2 0x6EE JUMPI DUP1 PUSH1 0x1F LT PUSH2 0x6C3 JUMPI PUSH2 0x100 DUP1 DUP4 SLOAD DIV MUL DUP4 MSTORE SWAP2 PUSH1 0x20 ADD SWAP2 PUSH2 0x6EE JUMP JUMPDEST DUP3 ADD SWAP2 SWAP1 PUSH1 0x0 MSTORE PUSH1 0x20 PUSH1 0x0 KECCAK256 SWAP1 JUMPDEST DUP2 SLOAD DUP2 MSTORE SWAP1 PUSH1 0x1 ADD SWAP1 PUSH1 0x20 ADD DUP1 DUP4 GT PUSH2 0x6D1 JUMPI DUP3 SWAP1 SUB PUSH1 0x1F AND DUP3 ADD SWAP2 JUMPDEST POP POP POP POP POP DUP2 MSTORE PUSH1 0x20 ADD PUSH1 0x2 DUP3 ADD DUP1 SLOAD PUSH2 0x707 SWAP1 PUSH2 0x14B3 JUMP JUMPDEST DUP1 PUSH1 0x1F ADD PUSH1 0x20 DUP1 SWAP2 DIV MUL PUSH1 0x20 ADD PUSH1 0x40 MLOAD SWAP1 DUP2 ADD PUSH1 0x40 MSTORE DUP1 SWAP3 SWAP2 SWAP1 DUP2 DUP2 MSTORE PUSH1 0x20 ADD DUP3 DUP1 SLOAD PUSH2 0x733 SWAP1 PUSH2 0x14B3 JUMP JUMPDEST DUP1 ISZERO PUSH2 0x780 JUMPI DUP1 PUSH1 0x1F LT PUSH2 0x755 JUMPI PUSH2 0x100 DUP1 DUP4 SLOAD DIV MUL DUP4 MSTORE SWAP2 PUSH1 0x20 ADD SWAP2 PUSH2 0x780 JUMP JUMPDEST DUP3 ADD SWAP2 SWAP1 PUSH1 0x0 MSTORE PUSH1 0x20 PUSH1 0x0 KECCAK256 SWAP1 JUMPDEST DUP2 SLOAD DUP2 MSTORE SWAP1 PUSH1 0x1 ADD SWAP1 PUSH1 0x20 ADD DUP1 DUP4 GT PUSH2 0x763 JUMPI DUP3 SWAP1 SUB PUSH1 0x1F AND DUP3 ADD SWAP2 JUMPDEST POP POP POP POP POP DUP2 MSTORE POP POP DUP2 MSTORE PUSH1 0x20 ADD SWAP1 PUSH1 0x1 ADD SWAP1 PUSH2 0x5B0 JUMP JUMPDEST POP POP POP POP SWAP2 POP DUP1 DUP1 SLOAD DUP1 PUSH1 0x20 MUL PUSH1 0x20 ADD PUSH1 0x40 MLOAD SWAP1 DUP2 ADD PUSH1 0x40 MSTORE DUP1 SWAP3 SWAP2 SWAP1 DUP2 DUP2 MSTORE PUSH1 0x20 ADD PUSH1 0x0 SWAP1 JUMPDEST DUP3 DUP3 LT ISZERO PUSH2 0x9A7 JUMPI DUP4 DUP3 SWAP1 PUSH1 0x0 MSTORE PUSH1 0x20 PUSH1 0x0 KECCAK256 SWAP1 PUSH1 0x3 MUL ADD PUSH1 0x40 MLOAD DUP1 PUSH1 0x60 ADD PUSH1 0x40 MSTORE SWAP1 DUP2 PUSH1 0x0 DUP3 ADD DUP1 SLOAD PUSH2 0x7F2 SWAP1 PUSH2 0x14B3 JUMP JUMPDEST DUP1 PUSH1 0x1F ADD PUSH1 0x20 DUP1 SWAP2 DIV MUL PUSH1 0x20 ADD PUSH1 0x40 MLOAD SWAP1 DUP2 ADD PUSH1 0x40 MSTORE DUP1 SWAP3 SWAP2 SWAP1 DUP2 DUP2 MSTORE PUSH1 0x20 ADD DUP3 DUP1 SLOAD PUSH2 0x81E SWAP1 PUSH2 0x14B3 JUMP JUMPDEST DUP1 ISZERO PUSH2 0x86B JUMPI DUP1 PUSH1 0x1F LT PUSH2 0x840 JUMPI PUSH2 0x100 DUP1 DUP4 SLOAD DIV MUL DUP4 MSTORE SWAP2 PUSH1 0x20 ADD SWAP2 PUSH2 0x86B JUMP JUMPDEST DUP3 ADD SWAP2 SWAP1 PUSH1 0x0 MSTORE PUSH1 0x20 PUSH1 0x0 KECCAK256 SWAP1 JUMPDEST DUP2 SLOAD DUP2 MSTORE SWAP1 PUSH1 0x1 ADD SWAP1 PUSH1 0x20 ADD DUP1 DUP4 GT PUSH2 0x84E JUMPI DUP3 SWAP1 SUB PUSH1 0x1F AND DUP3 ADD SWAP2 JUMPDEST POP POP POP POP POP DUP2 MSTORE PUSH1 0x20 ADD PUSH1 0x1 DUP3 ADD DUP1 SLOAD PUSH2 0x884 SWAP1 PUSH2 0x14B3 JUMP JUMPDEST DUP1 PUSH1 0x1F ADD PUSH1 0x20 DUP1 SWAP2 DIV MUL PUSH1 0x20 ADD PUSH1 0x40 MLOAD SWAP1 DUP2 ADD PUSH1 0x40 MSTORE DUP1 SWAP3 SWAP2 SWAP1 DUP2 DUP2 MSTORE PUSH1 0x20 ADD DUP3 DUP1 SLOAD PUSH2 0x8B0 SWAP1 PUSH2 0x14B3 JUMP JUMPDEST DUP1 ISZERO PUSH2 0x8FD JUMPI DUP1 PUSH1 0x1F LT PUSH2 0x8D2 JUMPI PUSH2 0x100 DUP1 DUP4 SLOAD DIV MUL DUP4 MSTORE SWAP2 PUSH1 0x20 ADD SWAP2 PUSH2 0x8FD JUMP JUMPDEST DUP3 ADD SWAP2 SWAP1 PUSH1 0x0 MSTORE PUSH1 0x20 PUSH1 0x0 KECCAK256 SWAP1 JUMPDEST DUP2 SLOAD DUP2 MSTORE SWAP1 PUSH1 0x1 ADD SWAP1 PUSH1 0x20 ADD DUP1 DUP4 GT PUSH2 0x8E0 JUMPI DUP3 SWAP1 SUB PUSH1 0x1F AND DUP3 ADD SWAP2 JUMPDEST POP POP POP POP POP DUP2 MSTORE PUSH1 0x20 ADD PUSH1 0x2 DUP3 ADD DUP1 SLOAD PUSH2 0x916 SWAP1 PUSH2 0x14B3 JUMP JUMPDEST DUP1 PUSH1 0x1F ADD PUSH1 0x20 DUP1 SWAP2 DIV MUL PUSH1 0x20 ADD PUSH1 0x40 MLOAD SWAP1 DUP2 ADD PUSH1 0x40 MSTORE DUP1 SWAP3 SWAP2 SWAP1 DUP2 DUP2 MSTORE PUSH1 0x20 ADD DUP3 DUP1 SLOAD PUSH2 0x942 SWAP1 PUSH2 0x14B3 JUMP JUMPDEST DUP1 ISZERO PUSH2 0x98F JUMPI DUP1 PUSH1 0x1F LT PUSH2 0x964 JUMPI PUSH2 0x100 DUP1 DUP4 SLOAD DIV MUL DUP4 MSTORE SWAP2 PUSH1 0x20 ADD SWAP2 PUSH2 0x98F JUMP JUMPDEST DUP3 ADD SWAP2 SWAP1 PUSH1 0x0 MSTORE PUSH1 0x20 PUSH1 0x0 KECCAK256 SWAP1 JUMPDEST DUP2 SLOAD DUP2 MSTORE SWAP1 PUSH1 0x1 ADD SWAP1 PUSH1 0x20 ADD DUP1 DUP4 GT PUSH2 0x972 JUMPI DUP3 SWAP1 SUB PUSH1 0x1F AND DUP3 ADD SWAP2 JUMPDEST POP POP POP POP POP DUP2 MSTORE POP POP DUP2 MSTORE PUSH1 0x20 ADD SWAP1 PUSH1 0x1 ADD SWAP1 PUSH2 0x7BF JUMP JUMPDEST POP POP POP POP SWAP1 POP SWAP2 POP SWAP2 POP SWAP1 SWAP2 JUMP JUMPDEST PUSH1 0x1 DUP2 DUP2 SLOAD DUP2 LT PUSH2 0x9C5 JUMPI PUSH1 0x0 DUP1 REVERT JUMPDEST SWAP1 PUSH1 0x0 MSTORE PUSH1 0x20 PUSH1 0x0 KECCAK256 SWAP1 PUSH1 0x3 MUL ADD PUSH1 0x0 SWAP2 POP SWAP1 POP DUP1 PUSH1 0x0 ADD DUP1 SLOAD PUSH2 0x9E8 SWAP1 PUSH2 0x14B3 JUMP JUMPDEST DUP1 PUSH1 0x1F ADD PUSH1 0x20 DUP1 SWAP2 DIV MUL PUSH1 0x20 ADD PUSH1 0x40 MLOAD SWAP1 DUP2 ADD PUSH1 0x40 MSTORE DUP1 SWAP3 SWAP2 SWAP1 DUP2 DUP2 MSTORE PUSH1 0x20 ADD DUP3 DUP1 SLOAD PUSH2 0xA14 SWAP1 PUSH2 0x14B3 JUMP JUMPDEST DUP1 ISZERO PUSH2 0xA61 JUMPI DUP1 PUSH1 0x1F LT PUSH2 0xA36 JUMPI PUSH2 0x100 DUP1 DUP4 SLOAD DIV MUL DUP4 MSTORE SWAP2 PUSH1 0x20 ADD SWAP2 PUSH2 0xA61 JUMP JUMPDEST DUP3 ADD SWAP2 SWAP1 PUSH1 0x0 MSTORE PUSH1 0x20 PUSH1 0x0 KECCAK256 SWAP1 JUMPDEST DUP2 SLOAD DUP2 MSTORE SWAP1 PUSH1 0x1 ADD SWAP1 PUSH1 0x20 ADD DUP1 DUP4 GT PUSH2 0xA44 JUMPI DUP3 SWAP1 SUB PUSH1 0x1F AND DUP3 ADD SWAP2 JUMPDEST POP POP POP POP POP SWAP1 DUP1 PUSH1 0x1 ADD DUP1 SLOAD PUSH2 0xA76 SWAP1 PUSH2 0x14B3 JUMP JUMPDEST DUP1 PUSH1 0x1F ADD PUSH1 0x20 DUP1 SWAP2 DIV MUL PUSH1 0x20 ADD PUSH1 0x40 MLOAD SWAP1 DUP2 ADD PUSH1 0x40 MSTORE DUP1 SWAP3 SWAP2 SWAP1 DUP2 DUP2 MSTORE PUSH1 0x20 ADD DUP3 DUP1 SLOAD PUSH2 0xAA2 SWAP1 PUSH2 0x14B3 JUMP JUMPDEST DUP1 ISZERO PUSH2 0xAEF JUMPI DUP1 PUSH1 0x1F LT PUSH2 0xAC4 JUMPI PUSH2 0x100 DUP1 DUP4 SLOAD DIV MUL DUP4 MSTORE SWAP2 PUSH1 0x20 ADD SWAP2 PUSH2 0xAEF JUMP JUMPDEST DUP3 ADD SWAP2 SWAP1 PUSH1 0x0 MSTORE PUSH1 0x20 PUSH1 0x0 KECCAK256 SWAP1 JUMPDEST DUP2 SLOAD DUP2 MSTORE SWAP1 PUSH1 0x1 ADD SWAP1 PUSH1 0x20 ADD DUP1 DUP4 GT PUSH2 0xAD2 JUMPI DUP3 SWAP1 SUB PUSH1 0x1F AND DUP3 ADD SWAP2 JUMPDEST POP POP POP POP POP SWAP1 DUP1 PUSH1 0x2 ADD DUP1 SLOAD PUSH2 0xB04 SWAP1 PUSH2 0x14B3 JUMP JUMPDEST DUP1 PUSH1 0x1F ADD PUSH1 0x20 DUP1 SWAP2 DIV MUL PUSH1 0x20 ADD PUSH1 0x40 MLOAD SWAP1 DUP2 ADD PUSH1 0x40 MSTORE DUP1 SWAP3 SWAP2 SWAP1 DUP2 DUP2 MSTORE PUSH1 0x20 ADD DUP3 DUP1 SLOAD PUSH2 0xB30 SWAP1 PUSH2 0x14B3 JUMP JUMPDEST DUP1 ISZERO PUSH2 0xB7D JUMPI DUP1 PUSH1 0x1F LT PUSH2 0xB52 JUMPI PUSH2 0x100 DUP1 DUP4 SLOAD DIV MUL DUP4 MSTORE SWAP2 PUSH1 0x20 ADD SWAP2 PUSH2 0xB7D JUMP JUMPDEST DUP3 ADD SWAP2 SWAP1 PUSH1 0x0 MSTORE PUSH1 0x20 PUSH1 0x0 KECCAK256 SWAP1 JUMPDEST DUP2 SLOAD DUP2 MSTORE SWAP1 PUSH1 0x1 ADD SWAP1 PUSH1 0x20 ADD DUP1 DUP4 GT PUSH2 0xB60 JUMPI DUP3 SWAP1 SUB PUSH1 0x1F AND DUP3 ADD SWAP2 JUMPDEST POP POP POP POP POP SWAP1 POP DUP4 JUMP JUMPDEST POP DUP1 SLOAD PUSH1 0x0 DUP3 SSTORE PUSH1 0x3 MUL SWAP1 PUSH1 0x0 MSTORE PUSH1 0x20 PUSH1 0x0 KECCAK256 SWAP1 DUP2 ADD SWAP1 PUSH2 0xBA8 SWAP2 SWAP1 PUSH2 0xC11 JUMP JUMPDEST POP JUMP JUMPDEST PUSH1 0x40 MLOAD DUP1 PUSH1 0x60 ADD PUSH1 0x40 MSTORE DUP1 PUSH1 0x60 DUP2 MSTORE PUSH1 0x20 ADD PUSH1 0x60 DUP2 MSTORE PUSH1 0x20 ADD PUSH1 0x60 DUP2 MSTORE POP SWAP1 JUMP JUMPDEST POP DUP1 SLOAD PUSH1 0x0 DUP3 SSTORE PUSH1 0x3 MUL SWAP1 PUSH1 0x0 MSTORE PUSH1 0x20 PUSH1 0x0 KECCAK256 SWAP1 DUP2 ADD SWAP1 PUSH2 0xBED SWAP2 SWAP1 PUSH2 0xC58 JUMP JUMPDEST POP JUMP JUMPDEST PUSH1 0x40 MLOAD DUP1 PUSH1 0x60 ADD PUSH1 0x40 MSTORE DUP1 PUSH1 0x60 DUP2 MSTORE PUSH1 0x20 ADD PUSH1 0x60 DUP2 MSTORE PUSH1 0x20 ADD PUSH1 0x60 DUP2 MSTORE POP SWAP1 JUMP JUMPDEST JUMPDEST DUP1 DUP3 GT ISZERO PUSH2 0xC54 JUMPI PUSH1 0x0 DUP1 DUP3 ADD PUSH1 0x0 PUSH2 0xC2B SWAP2 SWAP1 PUSH2 0xC9F JUMP JUMPDEST PUSH1 0x1 DUP3 ADD PUSH1 0x0 PUSH2 0xC3B SWAP2 SWAP1 PUSH2 0xC9F JUMP JUMPDEST PUSH1 0x2 DUP3 ADD PUSH1 0x0 PUSH2 0xC4B SWAP2 SWAP1 PUSH2 0xC9F JUMP JUMPDEST POP PUSH1 0x3 ADD PUSH2 0xC12 JUMP JUMPDEST POP SWAP1 JUMP JUMPDEST JUMPDEST DUP1 DUP3 GT ISZERO PUSH2 0xC9B JUMPI PUSH1 0x0 DUP1 DUP3 ADD PUSH1 0x0 PUSH2 0xC72 SWAP2 SWAP1 PUSH2 0xC9F JUMP JUMPDEST PUSH1 0x1 DUP3 ADD PUSH1 0x0 PUSH2 0xC82 SWAP2 SWAP1 PUSH2 0xC9F JUMP JUMPDEST PUSH1 0x2 DUP3 ADD PUSH1 0x0 PUSH2 0xC92 SWAP2 SWAP1 PUSH2 0xC9F JUMP JUMPDEST POP PUSH1 0x3 ADD PUSH2 0xC59 JUMP JUMPDEST POP SWAP1 JUMP JUMPDEST POP DUP1 SLOAD PUSH2 0xCAB SWAP1 PUSH2 0x14B3 JUMP JUMPDEST PUSH1 0x0 DUP3 SSTORE DUP1 PUSH1 0x1F LT PUSH2 0xCBD JUMPI POP PUSH2 0xCDC JUMP JUMPDEST PUSH1 0x1F ADD PUSH1 0x20 SWAP1 DIV SWAP1 PUSH1 0x0 MSTORE PUSH1 0x20 PUSH1 0x0 KECCAK256 SWAP1 DUP2 ADD SWAP1 PUSH2 0xCDB SWAP2 SWAP1 PUSH2 0xCDF JUMP JUMPDEST JUMPDEST POP JUMP JUMPDEST JUMPDEST DUP1 DUP3 GT ISZERO PUSH2 0xCF8 JUMPI PUSH1 0x0 DUP2 PUSH1 0x0 SWAP1 SSTORE POP PUSH1 0x1 ADD PUSH2 0xCE0 JUMP JUMPDEST POP SWAP1 JUMP JUMPDEST PUSH1 0x0 PUSH1 0x40 MLOAD SWAP1 POP SWAP1 JUMP JUMPDEST PUSH1 0x0 DUP1 REVERT JUMPDEST PUSH1 0x0 DUP1 REVERT JUMPDEST PUSH1 0x0 DUP2 SWAP1 POP SWAP2 SWAP1 POP JUMP JUMPDEST PUSH2 0xD23 DUP2 PUSH2 0xD10 JUMP JUMPDEST DUP2 EQ PUSH2 0xD2E JUMPI PUSH1 0x0 DUP1 REVERT JUMPDEST POP JUMP JUMPDEST PUSH1 0x0 DUP2 CALLDATALOAD SWAP1 POP PUSH2 0xD40 DUP2 PUSH2 0xD1A JUMP JUMPDEST SWAP3 SWAP2 POP POP JUMP JUMPDEST PUSH1 0x0 PUSH1 0x20 DUP3 DUP5 SUB SLT ISZERO PUSH2 0xD5C JUMPI PUSH2 0xD5B PUSH2 0xD06 JUMP JUMPDEST JUMPDEST PUSH1 0x0 PUSH2 0xD6A DUP5 DUP3 DUP6 ADD PUSH2 0xD31 JUMP JUMPDEST SWAP2 POP POP SWAP3 SWAP2 POP POP JUMP JUMPDEST PUSH1 0x0 DUP2 MLOAD SWAP1 POP SWAP2 SWAP1 POP JUMP JUMPDEST PUSH1 0x0 DUP3 DUP3 MSTORE PUSH1 0x20 DUP3 ADD SWAP1 POP SWAP3 SWAP2 POP POP JUMP JUMPDEST PUSH1 0x0 JUMPDEST DUP4 DUP2 LT ISZERO PUSH2 0xDAD JUMPI DUP1 DUP3 ADD MLOAD DUP2 DUP5 ADD MSTORE PUSH1 0x20 DUP2 ADD SWAP1 POP PUSH2 0xD92 JUMP JUMPDEST PUSH1 0x0 DUP5 DUP5 ADD MSTORE POP POP POP POP JUMP JUMPDEST PUSH1 0x0 PUSH1 0x1F NOT PUSH1 0x1F DUP4 ADD AND SWAP1 POP SWAP2 SWAP1 POP JUMP JUMPDEST PUSH1 0x0 PUSH2 0xDD5 DUP3 PUSH2 0xD73 JUMP JUMPDEST PUSH2 0xDDF DUP2 DUP6 PUSH2 0xD7E JUMP JUMPDEST SWAP4 POP PUSH2 0xDEF DUP2 DUP6 PUSH1 0x20 DUP7 ADD PUSH2 0xD8F JUMP JUMPDEST PUSH2 0xDF8 DUP2 PUSH2 0xDB9 JUMP JUMPDEST DUP5 ADD SWAP2 POP POP SWAP3 SWAP2 POP POP JUMP JUMPDEST PUSH1 0x0 PUSH1 0x60 DUP3 ADD SWAP1 POP DUP2 DUP2 SUB PUSH1 0x0 DUP4 ADD MSTORE PUSH2 0xE1D DUP2 DUP7 PUSH2 0xDCA JUMP JUMPDEST SWAP1 POP DUP2 DUP2 SUB PUSH1 0x20 DUP4 ADD MSTORE PUSH2 0xE31 DUP2 DUP6 PUSH2 0xDCA JUMP JUMPDEST SWAP1 POP DUP2 DUP2 SUB PUSH1 0x40 DUP4 ADD MSTORE PUSH2 0xE45 DUP2 DUP5 PUSH2 0xDCA JUMP JUMPDEST SWAP1 POP SWAP5 SWAP4 POP POP POP POP JUMP JUMPDEST PUSH1 0x0 DUP1 REVERT JUMPDEST PUSH32 0x4E487B7100000000000000000000000000000000000000000000000000000000 PUSH1 0x0 MSTORE PUSH1 0x41 PUSH1 0x4 MSTORE PUSH1 0x24 PUSH1 0x0 REVERT JUMPDEST PUSH2 0xE8C DUP3 PUSH2 0xDB9 JUMP JUMPDEST DUP2 ADD DUP2 DUP2 LT PUSH8 0xFFFFFFFFFFFFFFFF DUP3 GT OR ISZERO PUSH2 0xEAB JUMPI PUSH2 0xEAA PUSH2 0xE54 JUMP JUMPDEST JUMPDEST DUP1 PUSH1 0x40 MSTORE POP POP POP JUMP JUMPDEST PUSH1 0x0 PUSH2 0xEBE PUSH2 0xCFC JUMP JUMPDEST SWAP1 POP PUSH2 0xECA DUP3 DUP3 PUSH2 0xE83 JUMP JUMPDEST SWAP2 SWAP1 POP JUMP JUMPDEST PUSH1 0x0 PUSH8 0xFFFFFFFFFFFFFFFF DUP3 GT ISZERO PUSH2 0xEEA JUMPI PUSH2 0xEE9 PUSH2 0xE54 JUMP JUMPDEST JUMPDEST PUSH1 0x20 DUP3 MUL SWAP1 POP PUSH1 0x20 DUP2 ADD SWAP1 POP SWAP2 SWAP1 POP JUMP JUMPDEST PUSH1 0x0 DUP1 REVERT JUMPDEST PUSH1 0x0 PUSH8 0xFFFFFFFFFFFFFFFF DUP3 GT ISZERO PUSH2 0xF1B JUMPI PUSH2 0xF1A PUSH2 0xE54 JUMP JUMPDEST JUMPDEST PUSH1 0x20 DUP3 MUL SWAP1 POP PUSH1 0x20 DUP2 ADD SWAP1 POP SWAP2 SWAP1 POP JUMP JUMPDEST PUSH1 0x0 DUP1 REVERT JUMPDEST PUSH1 0x0 PUSH8 0xFFFFFFFFFFFFFFFF DUP3 GT ISZERO PUSH2 0xF4C JUMPI PUSH2 0xF4B PUSH2 0xE54 JUMP JUMPDEST JUMPDEST PUSH2 0xF55 DUP3 PUSH2 0xDB9 JUMP JUMPDEST SWAP1 POP PUSH1 0x20 DUP2 ADD SWAP1 POP SWAP2 SWAP1 POP JUMP JUMPDEST DUP3 DUP2 DUP4 CALLDATACOPY PUSH1 0x0 DUP4 DUP4 ADD MSTORE POP POP POP JUMP JUMPDEST PUSH1 0x0 PUSH2 0xF84 PUSH2 0xF7F DUP5 PUSH2 0xF31 JUMP JUMPDEST PUSH2 0xEB4 JUMP JUMPDEST SWAP1 POP DUP3 DUP2 MSTORE PUSH1 0x20 DUP2 ADD DUP5 DUP5 DUP5 ADD GT ISZERO PUSH2 0xFA0 JUMPI PUSH2 0xF9F PUSH2 0xF2C JUMP JUMPDEST JUMPDEST PUSH2 0xFAB DUP5 DUP3 DUP6 PUSH2 0xF62 JUMP JUMPDEST POP SWAP4 SWAP3 POP POP POP JUMP JUMPDEST PUSH1 0x0 DUP3 PUSH1 0x1F DUP4 ADD SLT PUSH2 0xFC8 JUMPI PUSH2 0xFC7 PUSH2 0xE4F JUMP JUMPDEST JUMPDEST DUP2 CALLDATALOAD PUSH2 0xFD8 DUP5 DUP3 PUSH1 0x20 DUP7 ADD PUSH2 0xF71 JUMP JUMPDEST SWAP2 POP POP SWAP3 SWAP2 POP POP JUMP JUMPDEST PUSH1 0x0 PUSH2 0xFF4 PUSH2 0xFEF DUP5 PUSH2 0xF00 JUMP JUMPDEST PUSH2 0xEB4 JUMP JUMPDEST SWAP1 POP DUP1 DUP4 DUP3 MSTORE PUSH1 0x20 DUP3 ADD SWAP1 POP PUSH1 0x20 DUP5 MUL DUP4 ADD DUP6 DUP2 GT ISZERO PUSH2 0x1017 JUMPI PUSH2 0x1016 PUSH2 0xEFB JUMP JUMPDEST JUMPDEST DUP4 JUMPDEST DUP2 DUP2 LT ISZERO PUSH2 0x105E JUMPI DUP1 CALLDATALOAD PUSH8 0xFFFFFFFFFFFFFFFF DUP2 GT ISZERO PUSH2 0x103C JUMPI PUSH2 0x103B PUSH2 0xE4F JUMP JUMPDEST JUMPDEST DUP1 DUP7 ADD PUSH2 0x1049 DUP10 DUP3 PUSH2 0xFB3 JUMP JUMPDEST DUP6 MSTORE PUSH1 0x20 DUP6 ADD SWAP5 POP POP POP PUSH1 0x20 DUP2 ADD SWAP1 POP PUSH2 0x1019 JUMP JUMPDEST POP POP POP SWAP4 SWAP3 POP POP POP JUMP JUMPDEST PUSH1 0x0 DUP3 PUSH1 0x1F DUP4 ADD SLT PUSH2 0x107D JUMPI PUSH2 0x107C PUSH2 0xE4F JUMP JUMPDEST JUMPDEST DUP2 CALLDATALOAD PUSH2 0x108D DUP5 DUP3 PUSH1 0x20 DUP7 ADD PUSH2 0xFE1 JUMP JUMPDEST SWAP2 POP POP SWAP3 SWAP2 POP POP JUMP JUMPDEST PUSH1 0x0 PUSH2 0x10A9 PUSH2 0x10A4 DUP5 PUSH2 0xECF JUMP JUMPDEST PUSH2 0xEB4 JUMP JUMPDEST SWAP1 POP DUP1 DUP4 DUP3 MSTORE PUSH1 0x20 DUP3 ADD SWAP1 POP PUSH1 0x20 DUP5 MUL DUP4 ADD DUP6 DUP2 GT ISZERO PUSH2 0x10CC JUMPI PUSH2 0x10CB PUSH2 0xEFB JUMP JUMPDEST JUMPDEST DUP4 JUMPDEST DUP2 DUP2 LT ISZERO PUSH2 0x1113 JUMPI DUP1 CALLDATALOAD PUSH8 0xFFFFFFFFFFFFFFFF DUP2 GT ISZERO PUSH2 0x10F1 JUMPI PUSH2 0x10F0 PUSH2 0xE4F JUMP JUMPDEST JUMPDEST DUP1 DUP7 ADD PUSH2 0x10FE DUP10 DUP3 PUSH2 0x1068 JUMP JUMPDEST DUP6 MSTORE PUSH1 0x20 DUP6 ADD SWAP5 POP POP POP PUSH1 0x20 DUP2 ADD SWAP1 POP PUSH2 0x10CE JUMP JUMPDEST POP POP POP SWAP4 SWAP3 POP POP POP JUMP JUMPDEST PUSH1 0x0 DUP3 PUSH1 0x1F DUP4 ADD SLT PUSH2 0x1132 JUMPI PUSH2 0x1131 PUSH2 0xE4F JUMP JUMPDEST JUMPDEST DUP2 CALLDATALOAD PUSH2 0x1142 DUP5 DUP3 PUSH1 0x20 DUP7 ADD PUSH2 0x1096 JUMP JUMPDEST SWAP2 POP POP SWAP3 SWAP2 POP POP JUMP JUMPDEST PUSH1 0x0 DUP1 PUSH1 0x40 DUP4 DUP6 SUB SLT ISZERO PUSH2 0x1162 JUMPI PUSH2 0x1161 PUSH2 0xD06 JUMP JUMPDEST JUMPDEST PUSH1 0x0 DUP4 ADD CALLDATALOAD PUSH8 0xFFFFFFFFFFFFFFFF DUP2 GT ISZERO PUSH2 0x1180 JUMPI PUSH2 0x117F PUSH2 0xD0B JUMP JUMPDEST JUMPDEST PUSH2 0x118C DUP6 DUP3 DUP7 ADD PUSH2 0x111D JUMP JUMPDEST SWAP3 POP POP PUSH1 0x20 DUP4 ADD CALLDATALOAD PUSH8 0xFFFFFFFFFFFFFFFF DUP2 GT ISZERO PUSH2 0x11AD JUMPI PUSH2 0x11AC PUSH2 0xD0B JUMP JUMPDEST JUMPDEST PUSH2 0x11B9 DUP6 DUP3 DUP7 ADD PUSH2 0x111D JUMP JUMPDEST SWAP2 POP POP SWAP3 POP SWAP3 SWAP1 POP JUMP JUMPDEST PUSH1 0x0 DUP2 MLOAD SWAP1 POP SWAP2 SWAP1 POP JUMP JUMPDEST PUSH1 0x0 DUP3 DUP3 MSTORE PUSH1 0x20 DUP3 ADD SWAP1 POP SWAP3 SWAP2 POP POP JUMP JUMPDEST PUSH1 0x0 DUP2 SWAP1 POP PUSH1 0x20 DUP3 ADD SWAP1 POP SWAP2 SWAP1 POP JUMP JUMPDEST PUSH1 0x0 DUP3 DUP3 MSTORE PUSH1 0x20 DUP3 ADD SWAP1 POP SWAP3 SWAP2 POP POP JUMP JUMPDEST PUSH1 0x0 PUSH2 0x120B DUP3 PUSH2 0xD73 JUMP JUMPDEST PUSH2 0x1215 DUP2 DUP6 PUSH2 0x11EF JUMP JUMPDEST SWAP4 POP PUSH2 0x1225 DUP2 DUP6 PUSH1 0x20 DUP7 ADD PUSH2 0xD8F JUMP JUMPDEST PUSH2 0x122E DUP2 PUSH2 0xDB9 JUMP JUMPDEST DUP5 ADD SWAP2 POP POP SWAP3 SWAP2 POP POP JUMP JUMPDEST PUSH1 0x0 PUSH1 0x60 DUP4 ADD PUSH1 0x0 DUP4 ADD MLOAD DUP5 DUP3 SUB PUSH1 0x0 DUP7 ADD MSTORE PUSH2 0x1256 DUP3 DUP3 PUSH2 0x1200 JUMP JUMPDEST SWAP2 POP POP PUSH1 0x20 DUP4 ADD MLOAD DUP5 DUP3 SUB PUSH1 0x20 DUP7 ADD MSTORE PUSH2 0x1270 DUP3 DUP3 PUSH2 0x1200 JUMP JUMPDEST SWAP2 POP POP PUSH1 0x40 DUP4 ADD MLOAD DUP5 DUP3 SUB PUSH1 0x40 DUP7 ADD MSTORE PUSH2 0x128A DUP3 DUP3 PUSH2 0x1200 JUMP JUMPDEST SWAP2 POP POP DUP1 SWAP2 POP POP SWAP3 SWAP2 POP POP JUMP JUMPDEST PUSH1 0x0 PUSH2 0x12A3 DUP4 DUP4 PUSH2 0x1239 JUMP JUMPDEST SWAP1 POP SWAP3 SWAP2 POP POP JUMP JUMPDEST PUSH1 0x0 PUSH1 0x20 DUP3 ADD SWAP1 POP SWAP2 SWAP1 POP JUMP JUMPDEST PUSH1 0x0 PUSH2 0x12C3 DUP3 PUSH2 0x11C3 JUMP JUMPDEST PUSH2 0x12CD DUP2 DUP6 PUSH2 0x11CE JUMP JUMPDEST SWAP4 POP DUP4 PUSH1 0x20 DUP3 MUL DUP6 ADD PUSH2 0x12DF DUP6 PUSH2 0x11DF JUMP JUMPDEST DUP1 PUSH1 0x0 JUMPDEST DUP6 DUP2 LT ISZERO PUSH2 0x131B JUMPI DUP5 DUP5 SUB DUP10 MSTORE DUP2 MLOAD PUSH2 0x12FC DUP6 DUP3 PUSH2 0x1297 JUMP JUMPDEST SWAP5 POP PUSH2 0x1307 DUP4 PUSH2 0x12AB JUMP JUMPDEST SWAP3 POP PUSH1 0x20 DUP11 ADD SWAP10 POP POP PUSH1 0x1 DUP2 ADD SWAP1 POP PUSH2 0x12E3 JUMP JUMPDEST POP DUP3 SWAP8 POP DUP8 SWAP6 POP POP POP POP POP POP SWAP3 SWAP2 POP POP JUMP JUMPDEST PUSH1 0x0 DUP2 MLOAD SWAP1 POP SWAP2 SWAP1 POP JUMP JUMPDEST PUSH1 0x0 DUP3 DUP3 MSTORE PUSH1 0x20 DUP3 ADD SWAP1 POP SWAP3 SWAP2 POP POP JUMP JUMPDEST PUSH1 0x0 DUP2 SWAP1 POP PUSH1 0x20 DUP3 ADD SWAP1 POP SWAP2 SWAP1 POP JUMP JUMPDEST PUSH1 0x0 PUSH1 0x60 DUP4 ADD PUSH1 0x0 DUP4 ADD MLOAD DUP5 DUP3 SUB PUSH1 0x0 DUP7 ADD MSTORE PUSH2 0x1376 DUP3 DUP3 PUSH2 0x1200 JUMP JUMPDEST SWAP2 POP POP PUSH1 0x20 DUP4 ADD MLOAD DUP5 DUP3 SUB PUSH1 0x20 DUP7 ADD MSTORE PUSH2 0x1390 DUP3 DUP3 PUSH2 0x1200 JUMP JUMPDEST SWAP2 POP POP PUSH1 0x40 DUP4 ADD MLOAD DUP5 DUP3 SUB PUSH1 0x40 DUP7 ADD MSTORE PUSH2 0x13AA DUP3 DUP3 PUSH2 0x1200 JUMP JUMPDEST SWAP2 POP POP DUP1 SWAP2 POP POP SWAP3 SWAP2 POP POP JUMP JUMPDEST PUSH1 0x0 PUSH2 0x13C3 DUP4 DUP4 PUSH2 0x1359 JUMP JUMPDEST SWAP1 POP SWAP3 SWAP2 POP POP JUMP JUMPDEST PUSH1 0x0 PUSH1 0x20 DUP3 ADD SWAP1 POP SWAP2 SWAP1 POP JUMP JUMPDEST PUSH1 0x0 PUSH2 0x13E3 DUP3 PUSH2 0x132D JUMP JUMPDEST PUSH2 0x13ED DUP2 DUP6 PUSH2 0x1338 JUMP JUMPDEST SWAP4 POP DUP4 PUSH1 0x20 DUP3 MUL DUP6 ADD PUSH2 0x13FF DUP6 PUSH2 0x1349 JUMP JUMPDEST DUP1 PUSH1 0x0 JUMPDEST DUP6 DUP2 LT ISZERO PUSH2 0x143B JUMPI DUP5 DUP5 SUB DUP10 MSTORE DUP2 MLOAD PUSH2 0x141C DUP6 DUP3 PUSH2 0x13B7 JUMP JUMPDEST SWAP5 POP PUSH2 0x1427 DUP4 PUSH2 0x13CB JUMP JUMPDEST SWAP3 POP PUSH1 0x20 DUP11 ADD SWAP10 POP POP PUSH1 0x1 DUP2 ADD SWAP1 POP PUSH2 0x1403 JUMP JUMPDEST POP DUP3 SWAP8 POP DUP8 SWAP6 POP POP POP POP POP POP SWAP3 SWAP2 POP POP JUMP JUMPDEST PUSH1 0x0 PUSH1 0x40 DUP3 ADD SWAP1 POP DUP2 DUP2 SUB PUSH1 0x0 DUP4 ADD MSTORE PUSH2 0x1467 DUP2 DUP6 PUSH2 0x12B8 JUMP JUMPDEST SWAP1 POP DUP2 DUP2 SUB PUSH1 0x20 DUP4 ADD MSTORE PUSH2 0x147B DUP2 DUP5 PUSH2 0x13D8 JUMP JUMPDEST SWAP1 POP SWAP4 SWAP3 POP POP POP JUMP JUMPDEST PUSH32 0x4E487B7100000000000000000000000000000000000000000000000000000000 PUSH1 0x0 MSTORE PUSH1 0x22 PUSH1 0x4 MSTORE PUSH1 0x24 PUSH1 0x0 REVERT JUMPDEST PUSH1 0x0 PUSH1 0x2 DUP3 DIV SWAP1 POP PUSH1 0x1 DUP3 AND DUP1 PUSH2 0x14CB JUMPI PUSH1 0x7F DUP3 AND SWAP2 POP JUMPDEST PUSH1 0x20 DUP3 LT DUP2 SUB PUSH2 0x14DE JUMPI PUSH2 0x14DD PUSH2 0x1484 JUMP JUMPDEST JUMPDEST POP SWAP2 SWAP1 POP JUMP JUMPDEST PUSH32 0x4E487B7100000000000000000000000000000000000000000000000000000000 PUSH1 0x0 MSTORE PUSH1 0x32 PUSH1 0x4 MSTORE PUSH1 0x24 PUSH1 0x0 REVERT JUMPDEST PUSH1 0x0 DUP2 SWAP1 POP DUP2 PUSH1 0x0 MSTORE PUSH1 0x20 PUSH1 0x0 KECCAK256 SWAP1 POP SWAP2 SWAP1 POP JUMP JUMPDEST PUSH1 0x0 PUSH1 0x20 PUSH1 0x1F DUP4 ADD DIV SWAP1 POP SWAP2 SWAP1 POP JUMP JUMPDEST PUSH1 0x0 DUP3 DUP3 SHL SWAP1 POP SWAP3 SWAP2 POP POP JUMP JUMPDEST PUSH1 0x0 PUSH1 0x8 DUP4 MUL PUSH2 0x1575 PUSH32 0xFFFFFFFFFFFFFFFFFFFFFFFFFFFFFFFFFFFFFFFFFFFFFFFFFFFFFFFFFFFFFFFF DUP3 PUSH2 0x1538 JUMP JUMPDEST PUSH2 0x157F DUP7 DUP4 PUSH2 0x1538 JUMP JUMPDEST SWAP6 POP DUP1 NOT DUP5 AND SWAP4 POP DUP1 DUP7 AND DUP5 OR SWAP3 POP POP POP SWAP4 SWAP3 POP POP POP JUMP JUMPDEST PUSH1 0x0 DUP2 SWAP1 POP SWAP2 SWAP1 POP JUMP JUMPDEST PUSH1 0x0 PUSH2 0x15BC PUSH2 0x15B7 PUSH2 0x15B2 DUP5 PUSH2 0xD10 JUMP JUMPDEST PUSH2 0x1597 JUMP JUMPDEST PUSH2 0xD10 JUMP JUMPDEST SWAP1 POP SWAP2 SWAP1 POP JUMP JUMPDEST PUSH1 0x0 DUP2 SWAP1 POP SWAP2 SWAP1 POP JUMP JUMPDEST PUSH2 0x15D6 DUP4 PUSH2 0x15A1 JUMP JUMPDEST PUSH2 0x15EA PUSH2 0x15E2 DUP3 PUSH2 0x15C3 JUMP JUMPDEST DUP5 DUP5 SLOAD PUSH2 0x1545 JUMP JUMPDEST DUP3 SSTORE POP POP POP POP JUMP JUMPDEST PUSH1 0x0 SWAP1 JUMP JUMPDEST PUSH2 0x15FF PUSH2 0x15F2 JUMP JUMPDEST PUSH2 0x160A DUP2 DUP5 DUP5 PUSH2 0x15CD JUMP JUMPDEST POP POP POP JUMP JUMPDEST JUMPDEST DUP2 DUP2 LT ISZERO PUSH2 0x162E JUMPI PUSH2 0x1623 PUSH1 0x0 DUP3 PUSH2 0x15F7 JUMP JUMPDEST PUSH1 0x1 DUP2 ADD SWAP1 POP PUSH2 0x1610 JUMP JUMPDEST POP POP JUMP JUMPDEST PUSH1 0x1F DUP3 GT ISZERO PUSH2 0x1673 JUMPI PUSH2 0x1644 DUP2 PUSH2 0x1513 JUMP JUMPDEST PUSH2 0x164D DUP5 PUSH2 0x1528 JUMP JUMPDEST DUP2 ADD PUSH1 0x20 DUP6 LT ISZERO PUSH2 0x165C JUMPI DUP2 SWAP1 POP JUMPDEST PUSH2 0x1670 PUSH2 0x1668 DUP6 PUSH2 0x1528 JUMP JUMPDEST DUP4 ADD DUP3 PUSH2 0x160F JUMP JUMPDEST POP POP JUMPDEST POP POP POP JUMP JUMPDEST PUSH1 0x0 DUP3 DUP3 SHR SWAP1 POP SWAP3 SWAP2 POP POP JUMP JUMPDEST PUSH1 0x0 PUSH2 0x1696 PUSH1 0x0 NOT DUP5 PUSH1 0x8 MUL PUSH2 0x1678 JUMP JUMPDEST NOT DUP1 DUP4 AND SWAP2 POP POP SWAP3 SWAP2 POP POP JUMP JUMPDEST PUSH1 0x0 PUSH2 0x16AF DUP4 DUP4 PUSH2 0x1685 JUMP JUMPDEST SWAP2 POP DUP3 PUSH1 0x2 MUL DUP3 OR SWAP1 POP SWAP3 SWAP2 POP POP JUMP JUMPDEST PUSH2 0x16C8 DUP3 PUSH2 0xD73 JUMP JUMPDEST PUSH8 0xFFFFFFFFFFFFFFFF DUP2 GT ISZERO PUSH2 0x16E1 JUMPI PUSH2 0x16E0 PUSH2 0xE54 JUMP JUMPDEST JUMPDEST PUSH2 0x16EB DUP3 SLOAD PUSH2 0x14B3 JUMP JUMPDEST PUSH2 0x16F6 DUP3 DUP3 DUP6 PUSH2 0x1632 JUMP JUMPDEST PUSH1 0x0 PUSH1 0x20 SWAP1 POP PUSH1 0x1F DUP4 GT PUSH1 0x1 DUP2 EQ PUSH2 0x1729 JUMPI PUSH1 0x0 DUP5 ISZERO PUSH2 0x1717 JUMPI DUP3 DUP8 ADD MLOAD SWAP1 POP JUMPDEST PUSH2 0x1721 DUP6 DUP3 PUSH2 0x16A3 JUMP JUMPDEST DUP7 SSTORE POP PUSH2 0x1789 JUMP JUMPDEST PUSH1 0x1F NOT DUP5 AND PUSH2 0x1737 DUP7 PUSH2 0x1513 JUMP JUMPDEST PUSH1 0x0 JUMPDEST DUP3 DUP2 LT ISZERO PUSH2 0x175F JUMPI DUP5 DUP10 ADD MLOAD DUP3 SSTORE PUSH1 0x1 DUP3 ADD SWAP2 POP PUSH1 0x20 DUP6 ADD SWAP5 POP PUSH1 0x20 DUP2 ADD SWAP1 POP PUSH2 0x173A JUMP JUMPDEST DUP7 DUP4 LT ISZERO PUSH2 0x177C JUMPI DUP5 DUP10 ADD MLOAD PUSH2 0x1778 PUSH1 0x1F DUP10 AND DUP3 PUSH2 0x1685 JUMP JUMPDEST DUP4 SSTORE POP JUMPDEST PUSH1 0x1 PUSH1 0x2 DUP9 MUL ADD DUP9 SSTORE POP POP POP JUMPDEST POP POP POP POP POP POP JUMP JUMPDEST PUSH32 0x4E487B7100000000000000000000000000000000000000000000000000000000 PUSH1 0x0 MSTORE PUSH1 0x11 PUSH1 0x4 MSTORE PUSH1 0x24 PUSH1 0x0 REVERT JUMPDEST PUSH1 0x0 PUSH2 0x17CB DUP3 PUSH2 0xD10 JUMP JUMPDEST SWAP2 POP PUSH32 0xFFFFFFFFFFFFFFFFFFFFFFFFFFFFFFFFFFFFFFFFFFFFFFFFFFFFFFFFFFFFFFFF DUP3 SUB PUSH2 0x17FD JUMPI PUSH2 0x17FC PUSH2 0x1791 JUMP JUMPDEST JUMPDEST PUSH1 0x1 DUP3 ADD SWAP1 POP SWAP2 SWAP1 POP JUMP INVALID LOG2 PUSH5 0x6970667358 0x22 SLT KECCAK256 DUP12 0xCA REVERT 0xAE 0x5D INVALID DUP14 BYTE SWAP1 PUSH4 0xF40B9FA9 PUSH31 0xF4E2D351718E05BD0F538DC2C26FA0910764736F6C63430008120033000000 "
				},
				"gasEstimates": {
					"creation": {
						"codeDepositCost": "1241200",
						"executionCost": "infinite",
						"totalCost": "infinite"
					},
					"external": {
						"bugs_arr(uint256)": "infinite",
						"features_arr(uint256)": "infinite",
						"get_list(string[][],string[][])": "infinite",
						"send_list()": "infinite"
					}
				},
				"methodIdentifiers": {
					"bugs_arr(uint256)": "ded1166c",
					"features_arr(uint256)": "5faa043d",
					"get_list(string[][],string[][])": "88f80098",
					"send_list()": "b87dff89"
				}
			},
			"storageLayout": {
				"storage": [
					{
						"astId": 18,
						"contract": "Patches.sol:Patch",
						"label": "h",
						"offset": 0,
						"slot": "0",
						"type": "t_string_storage"
					},
					{
						"astId": 22,
						"contract": "Patches.sol:Patch",
						"label": "bugs_arr",
						"offset": 0,
						"slot": "1",
						"type": "t_array(t_struct(Bugs)8_storage)dyn_storage"
					},
					{
						"astId": 26,
						"contract": "Patches.sol:Patch",
						"label": "features_arr",
						"offset": 0,
						"slot": "2",
						"type": "t_array(t_struct(Features)15_storage)dyn_storage"
					}
				],
				"types": {
					"t_array(t_struct(Bugs)8_storage)dyn_storage": {
						"base": "t_struct(Bugs)8_storage",
						"encoding": "dynamic_array",
						"label": "struct Bugs[]",
						"numberOfBytes": "32"
					},
					"t_array(t_struct(Features)15_storage)dyn_storage": {
						"base": "t_struct(Features)15_storage",
						"encoding": "dynamic_array",
						"label": "struct Features[]",
						"numberOfBytes": "32"
					},
					"t_string_storage": {
						"encoding": "bytes",
						"label": "string",
						"numberOfBytes": "32"
					},
					"t_struct(Bugs)8_storage": {
						"encoding": "inplace",
						"label": "struct Bugs",
						"members": [
							{
								"astId": 3,
								"contract": "Patches.sol:Patch",
								"label": "bug_name",
								"offset": 0,
								"slot": "0",
								"type": "t_string_storage"
							},
							{
								"astId": 5,
								"contract": "Patches.sol:Patch",
								"label": "bug_description",
								"offset": 0,
								"slot": "1",
								"type": "t_string_storage"
							},
							{
								"astId": 7,
								"contract": "Patches.sol:Patch",
								"label": "bug_priority",
								"offset": 0,
								"slot": "2",
								"type": "t_string_storage"
							}
						],
						"numberOfBytes": "96"
					},
					"t_struct(Features)15_storage": {
						"encoding": "inplace",
						"label": "struct Features",
						"members": [
							{
								"astId": 10,
								"contract": "Patches.sol:Patch",
								"label": "feature_name",
								"offset": 0,
								"slot": "0",
								"type": "t_string_storage"
							},
							{
								"astId": 12,
								"contract": "Patches.sol:Patch",
								"label": "feature_description",
								"offset": 0,
								"slot": "1",
								"type": "t_string_storage"
							},
							{
								"astId": 14,
								"contract": "Patches.sol:Patch",
								"label": "feature_priority",
								"offset": 0,
								"slot": "2",
								"type": "t_string_storage"
							}
						],
						"numberOfBytes": "96"
					}
				}
			},
			"userdoc": {
				"kind": "user",
				"methods": {},
				"version": 1
			}
		}
	}
}