{
	"Confirmation.sol": {
		"Statuslevel": {
			"abi": [
				{
					"inputs": [
						{
							"internalType": "string",
							"name": "dec",
							"type": "string"
						}
					],
					"name": "decision",
					"outputs": [],
					"stateMutability": "nonpayable",
					"type": "function"
				},
				{
					"inputs": [],
					"name": "whatisdec",
					"outputs": [
						{
							"internalType": "string",
							"name": "",
							"type": "string"
						}
					],
					"stateMutability": "view",
					"type": "function"
				}
			],
			"devdoc": {
				"kind": "dev",
				"methods": {},
				"version": 1
			},
			"evm": {
				"assembly": "    /* \"Confirmation.sol\":72:345  contract Statuslevel{... */\n  mstore(0x40, 0x80)\n  callvalue\n  dup1\n  iszero\n  tag_1\n  jumpi\n  0x00\n  dup1\n  revert\ntag_1:\n  pop\n  dataSize(sub_0)\n  dup1\n  dataOffset(sub_0)\n  0x00\n  codecopy\n  0x00\n  return\nstop\n\nsub_0: assembly {\n        /* \"Confirmation.sol\":72:345  contract Statuslevel{... */\n      mstore(0x40, 0x80)\n      callvalue\n      dup1\n      iszero\n      tag_1\n      jumpi\n      0x00\n      dup1\n      revert\n    tag_1:\n      pop\n      jumpi(tag_2, lt(calldatasize, 0x04))\n      shr(0xe0, calldataload(0x00))\n      dup1\n      0x2ff695a7\n      eq\n      tag_3\n      jumpi\n      dup1\n      0x5abd22f7\n      eq\n      tag_4\n      jumpi\n    tag_2:\n      0x00\n      dup1\n      revert\n        /* \"Confirmation.sol\":207:342  function whatisdec() public view returns(string memory){... */\n    tag_3:\n      tag_5\n      tag_6\n      jump\t// in\n    tag_5:\n      mload(0x40)\n      tag_7\n      swap2\n      swap1\n      tag_8\n      jump\t// in\n    tag_7:\n      mload(0x40)\n      dup1\n      swap2\n      sub\n      swap1\n      return\n        /* \"Confirmation.sol\":121:199  function decision(string memory dec) public{... */\n    tag_4:\n      tag_9\n      0x04\n      dup1\n      calldatasize\n      sub\n      dup2\n      add\n      swap1\n      tag_10\n      swap2\n      swap1\n      tag_11\n      jump\t// in\n    tag_10:\n      tag_12\n      jump\t// in\n    tag_9:\n      stop\n        /* \"Confirmation.sol\":207:342  function whatisdec() public view returns(string memory){... */\n    tag_6:\n        /* \"Confirmation.sol\":248:261  string memory */\n      0x60\n        /* \"Confirmation.sol\":273:279  uint k */\n      0x00\n        /* \"Confirmation.sol\":306:307  1 */\n      0x01\n        /* \"Confirmation.sol\":292:298  status */\n      0x00\n        /* \"Confirmation.sol\":292:305  status.length */\n      dup1\n      sload\n      swap1\n      pop\n        /* \"Confirmation.sol\":292:307  status.length-1 */\n      tag_14\n      swap2\n      swap1\n      tag_15\n      jump\t// in\n    tag_14:\n        /* \"Confirmation.sol\":290:307  k=status.length-1 */\n      swap1\n      pop\n        /* \"Confirmation.sol\":325:331  status */\n      0x00\n        /* \"Confirmation.sol\":332:333  k */\n      dup2\n        /* \"Confirmation.sol\":325:334  status[k] */\n      dup2\n      sload\n      dup2\n      lt\n      tag_16\n      jumpi\n      tag_17\n      tag_18\n      jump\t// in\n    tag_17:\n    tag_16:\n      swap1\n      0x00\n      mstore\n      keccak256(0x00, 0x20)\n      add\n        /* \"Confirmation.sol\":318:334  return status[k] */\n      dup1\n      sload\n      tag_20\n      swap1\n      tag_21\n      jump\t// in\n    tag_20:\n      dup1\n      0x1f\n      add\n      0x20\n      dup1\n      swap2\n      div\n      mul\n      0x20\n      add\n      mload(0x40)\n      swap1\n      dup2\n      add\n      0x40\n      mstore\n      dup1\n      swap3\n      swap2\n      swap1\n      dup2\n      dup2\n      mstore\n      0x20\n      add\n      dup3\n      dup1\n      sload\n      tag_22\n      swap1\n      tag_21\n      jump\t// in\n    tag_22:\n      dup1\n      iszero\n      tag_23\n      jumpi\n      dup1\n      0x1f\n      lt\n      tag_24\n      jumpi\n      0x0100\n      dup1\n      dup4\n      sload\n      div\n      mul\n      dup4\n      mstore\n      swap2\n      0x20\n      add\n      swap2\n      jump(tag_23)\n    tag_24:\n      dup3\n      add\n      swap2\n      swap1\n      0x00\n      mstore\n      keccak256(0x00, 0x20)\n      swap1\n    tag_25:\n      dup2\n      sload\n      dup2\n      mstore\n      swap1\n      0x01\n      add\n      swap1\n      0x20\n      add\n      dup1\n      dup4\n      gt\n      tag_25\n      jumpi\n      dup3\n      swap1\n      sub\n      0x1f\n      and\n      dup3\n      add\n      swap2\n    tag_23:\n      pop\n      pop\n      pop\n      pop\n      pop\n      swap2\n      pop\n      pop\n        /* \"Confirmation.sol\":207:342  function whatisdec() public view returns(string memory){... */\n      swap1\n      jump\t// out\n        /* \"Confirmation.sol\":121:199  function decision(string memory dec) public{... */\n    tag_12:\n        /* \"Confirmation.sol\":175:181  status */\n      0x00\n        /* \"Confirmation.sol\":187:190  dec */\n      dup2\n        /* \"Confirmation.sol\":175:191  status.push(dec) */\n      swap1\n      dup1\n      0x01\n      dup2\n      sload\n      add\n      dup1\n      dup3\n      sstore\n      dup1\n      swap2\n      pop\n      pop\n      0x01\n      swap1\n      sub\n      swap1\n      0x00\n      mstore\n      keccak256(0x00, 0x20)\n      add\n      0x00\n      swap1\n      swap2\n      swap1\n      swap2\n      swap1\n      swap2\n      pop\n      swap1\n      dup2\n      tag_28\n      swap2\n      swap1\n      tag_29\n      jump\t// in\n    tag_28:\n      pop\n        /* \"Confirmation.sol\":121:199  function decision(string memory dec) public{... */\n      pop\n      jump\t// out\n        /* \"#utility.yul\":7:106   */\n    tag_30:\n        /* \"#utility.yul\":59:65   */\n      0x00\n        /* \"#utility.yul\":93:98   */\n      dup2\n        /* \"#utility.yul\":87:99   */\n      mload\n        /* \"#utility.yul\":77:99   */\n      swap1\n      pop\n        /* \"#utility.yul\":7:106   */\n      swap2\n      swap1\n      pop\n      jump\t// out\n        /* \"#utility.yul\":112:281   */\n    tag_31:\n        /* \"#utility.yul\":196:207   */\n      0x00\n        /* \"#utility.yul\":230:236   */\n      dup3\n        /* \"#utility.yul\":225:228   */\n      dup3\n        /* \"#utility.yul\":218:237   */\n      mstore\n        /* \"#utility.yul\":270:274   */\n      0x20\n        /* \"#utility.yul\":265:268   */\n      dup3\n        /* \"#utility.yul\":261:275   */\n      add\n        /* \"#utility.yul\":246:275   */\n      swap1\n      pop\n        /* \"#utility.yul\":112:281   */\n      swap3\n      swap2\n      pop\n      pop\n      jump\t// out\n        /* \"#utility.yul\":287:533   */\n    tag_32:\n        /* \"#utility.yul\":368:369   */\n      0x00\n        /* \"#utility.yul\":378:491   */\n    tag_69:\n        /* \"#utility.yul\":392:398   */\n      dup4\n        /* \"#utility.yul\":389:390   */\n      dup2\n        /* \"#utility.yul\":386:399   */\n      lt\n        /* \"#utility.yul\":378:491   */\n      iszero\n      tag_71\n      jumpi\n        /* \"#utility.yul\":477:478   */\n      dup1\n        /* \"#utility.yul\":472:475   */\n      dup3\n        /* \"#utility.yul\":468:479   */\n      add\n        /* \"#utility.yul\":462:480   */\n      mload\n        /* \"#utility.yul\":458:459   */\n      dup2\n        /* \"#utility.yul\":453:456   */\n      dup5\n        /* \"#utility.yul\":449:460   */\n      add\n        /* \"#utility.yul\":442:481   */\n      mstore\n        /* \"#utility.yul\":414:416   */\n      0x20\n        /* \"#utility.yul\":411:412   */\n      dup2\n        /* \"#utility.yul\":407:417   */\n      add\n        /* \"#utility.yul\":402:417   */\n      swap1\n      pop\n        /* \"#utility.yul\":378:491   */\n      jump(tag_69)\n    tag_71:\n        /* \"#utility.yul\":525:526   */\n      0x00\n        /* \"#utility.yul\":516:522   */\n      dup5\n        /* \"#utility.yul\":511:514   */\n      dup5\n        /* \"#utility.yul\":507:523   */\n      add\n        /* \"#utility.yul\":500:527   */\n      mstore\n        /* \"#utility.yul\":349:533   */\n      pop\n        /* \"#utility.yul\":287:533   */\n      pop\n      pop\n      pop\n      jump\t// out\n        /* \"#utility.yul\":539:641   */\n    tag_33:\n        /* \"#utility.yul\":580:586   */\n      0x00\n        /* \"#utility.yul\":631:633   */\n      0x1f\n        /* \"#utility.yul\":627:634   */\n      not\n        /* \"#utility.yul\":622:624   */\n      0x1f\n        /* \"#utility.yul\":615:620   */\n      dup4\n        /* \"#utility.yul\":611:625   */\n      add\n        /* \"#utility.yul\":607:635   */\n      and\n        /* \"#utility.yul\":597:635   */\n      swap1\n      pop\n        /* \"#utility.yul\":539:641   */\n      swap2\n      swap1\n      pop\n      jump\t// out\n        /* \"#utility.yul\":647:1024   */\n    tag_34:\n        /* \"#utility.yul\":735:738   */\n      0x00\n        /* \"#utility.yul\":763:802   */\n      tag_74\n        /* \"#utility.yul\":796:801   */\n      dup3\n        /* \"#utility.yul\":763:802   */\n      tag_30\n      jump\t// in\n    tag_74:\n        /* \"#utility.yul\":818:889   */\n      tag_75\n        /* \"#utility.yul\":882:888   */\n      dup2\n        /* \"#utility.yul\":877:880   */\n      dup6\n        /* \"#utility.yul\":818:889   */\n      tag_31\n      jump\t// in\n    tag_75:\n        /* \"#utility.yul\":811:889   */\n      swap4\n      pop\n        /* \"#utility.yul\":898:963   */\n      tag_76\n        /* \"#utility.yul\":956:962   */\n      dup2\n        /* \"#utility.yul\":951:954   */\n      dup6\n        /* \"#utility.yul\":944:948   */\n      0x20\n        /* \"#utility.yul\":937:942   */\n      dup7\n        /* \"#utility.yul\":933:949   */\n      add\n        /* \"#utility.yul\":898:963   */\n      tag_32\n      jump\t// in\n    tag_76:\n        /* \"#utility.yul\":988:1017   */\n      tag_77\n        /* \"#utility.yul\":1010:1016   */\n      dup2\n        /* \"#utility.yul\":988:1017   */\n      tag_33\n      jump\t// in\n    tag_77:\n        /* \"#utility.yul\":983:986   */\n      dup5\n        /* \"#utility.yul\":979:1018   */\n      add\n        /* \"#utility.yul\":972:1018   */\n      swap2\n      pop\n        /* \"#utility.yul\":739:1024   */\n      pop\n        /* \"#utility.yul\":647:1024   */\n      swap3\n      swap2\n      pop\n      pop\n      jump\t// out\n        /* \"#utility.yul\":1030:1343   */\n    tag_8:\n        /* \"#utility.yul\":1143:1147   */\n      0x00\n        /* \"#utility.yul\":1181:1183   */\n      0x20\n        /* \"#utility.yul\":1170:1179   */\n      dup3\n        /* \"#utility.yul\":1166:1184   */\n      add\n        /* \"#utility.yul\":1158:1184   */\n      swap1\n      pop\n        /* \"#utility.yul\":1230:1239   */\n      dup2\n        /* \"#utility.yul\":1224:1228   */\n      dup2\n        /* \"#utility.yul\":1220:1240   */\n      sub\n        /* \"#utility.yul\":1216:1217   */\n      0x00\n        /* \"#utility.yul\":1205:1214   */\n      dup4\n        /* \"#utility.yul\":1201:1218   */\n      add\n        /* \"#utility.yul\":1194:1241   */\n      mstore\n        /* \"#utility.yul\":1258:1336   */\n      tag_79\n        /* \"#utility.yul\":1331:1335   */\n      dup2\n        /* \"#utility.yul\":1322:1328   */\n      dup5\n        /* \"#utility.yul\":1258:1336   */\n      tag_34\n      jump\t// in\n    tag_79:\n        /* \"#utility.yul\":1250:1336   */\n      swap1\n      pop\n        /* \"#utility.yul\":1030:1343   */\n      swap3\n      swap2\n      pop\n      pop\n      jump\t// out\n        /* \"#utility.yul\":1349:1424   */\n    tag_35:\n        /* \"#utility.yul\":1382:1388   */\n      0x00\n        /* \"#utility.yul\":1415:1417   */\n      0x40\n        /* \"#utility.yul\":1409:1418   */\n      mload\n        /* \"#utility.yul\":1399:1418   */\n      swap1\n      pop\n        /* \"#utility.yul\":1349:1424   */\n      swap1\n      jump\t// out\n        /* \"#utility.yul\":1430:1547   */\n    tag_36:\n        /* \"#utility.yul\":1539:1540   */\n      0x00\n        /* \"#utility.yul\":1536:1537   */\n      dup1\n        /* \"#utility.yul\":1529:1541   */\n      revert\n        /* \"#utility.yul\":1553:1670   */\n    tag_37:\n        /* \"#utility.yul\":1662:1663   */\n      0x00\n        /* \"#utility.yul\":1659:1660   */\n      dup1\n        /* \"#utility.yul\":1652:1664   */\n      revert\n        /* \"#utility.yul\":1676:1793   */\n    tag_38:\n        /* \"#utility.yul\":1785:1786   */\n      0x00\n        /* \"#utility.yul\":1782:1783   */\n      dup1\n        /* \"#utility.yul\":1775:1787   */\n      revert\n        /* \"#utility.yul\":1799:1916   */\n    tag_39:\n        /* \"#utility.yul\":1908:1909   */\n      0x00\n        /* \"#utility.yul\":1905:1906   */\n      dup1\n        /* \"#utility.yul\":1898:1910   */\n      revert\n        /* \"#utility.yul\":1922:2102   */\n    tag_40:\n        /* \"#utility.yul\":1970:2047   */\n      0x4e487b7100000000000000000000000000000000000000000000000000000000\n        /* \"#utility.yul\":1967:1968   */\n      0x00\n        /* \"#utility.yul\":1960:2048   */\n      mstore\n        /* \"#utility.yul\":2067:2071   */\n      0x41\n        /* \"#utility.yul\":2064:2065   */\n      0x04\n        /* \"#utility.yul\":2057:2072   */\n      mstore\n        /* \"#utility.yul\":2091:2095   */\n      0x24\n        /* \"#utility.yul\":2088:2089   */\n      0x00\n        /* \"#utility.yul\":2081:2096   */\n      revert\n        /* \"#utility.yul\":2108:2389   */\n    tag_41:\n        /* \"#utility.yul\":2191:2218   */\n      tag_87\n        /* \"#utility.yul\":2213:2217   */\n      dup3\n        /* \"#utility.yul\":2191:2218   */\n      tag_33\n      jump\t// in\n    tag_87:\n        /* \"#utility.yul\":2183:2189   */\n      dup2\n        /* \"#utility.yul\":2179:2219   */\n      add\n        /* \"#utility.yul\":2321:2327   */\n      dup2\n        /* \"#utility.yul\":2309:2319   */\n      dup2\n        /* \"#utility.yul\":2306:2328   */\n      lt\n        /* \"#utility.yul\":2285:2303   */\n      0xffffffffffffffff\n        /* \"#utility.yul\":2273:2283   */\n      dup3\n        /* \"#utility.yul\":2270:2304   */\n      gt\n        /* \"#utility.yul\":2267:2329   */\n      or\n        /* \"#utility.yul\":2264:2352   */\n      iszero\n      tag_88\n      jumpi\n        /* \"#utility.yul\":2332:2350   */\n      tag_89\n      tag_40\n      jump\t// in\n    tag_89:\n        /* \"#utility.yul\":2264:2352   */\n    tag_88:\n        /* \"#utility.yul\":2372:2382   */\n      dup1\n        /* \"#utility.yul\":2368:2370   */\n      0x40\n        /* \"#utility.yul\":2361:2383   */\n      mstore\n        /* \"#utility.yul\":2151:2389   */\n      pop\n        /* \"#utility.yul\":2108:2389   */\n      pop\n      pop\n      jump\t// out\n        /* \"#utility.yul\":2395:2524   */\n    tag_42:\n        /* \"#utility.yul\":2429:2435   */\n      0x00\n        /* \"#utility.yul\":2456:2476   */\n      tag_91\n      tag_35\n      jump\t// in\n    tag_91:\n        /* \"#utility.yul\":2446:2476   */\n      swap1\n      pop\n        /* \"#utility.yul\":2485:2518   */\n      tag_92\n        /* \"#utility.yul\":2513:2517   */\n      dup3\n        /* \"#utility.yul\":2505:2511   */\n      dup3\n        /* \"#utility.yul\":2485:2518   */\n      tag_41\n      jump\t// in\n    tag_92:\n        /* \"#utility.yul\":2395:2524   */\n      swap2\n      swap1\n      pop\n      jump\t// out\n        /* \"#utility.yul\":2530:2838   */\n    tag_43:\n        /* \"#utility.yul\":2592:2596   */\n      0x00\n        /* \"#utility.yul\":2682:2700   */\n      0xffffffffffffffff\n        /* \"#utility.yul\":2674:2680   */\n      dup3\n        /* \"#utility.yul\":2671:2701   */\n      gt\n        /* \"#utility.yul\":2668:2724   */\n      iszero\n      tag_94\n      jumpi\n        /* \"#utility.yul\":2704:2722   */\n      tag_95\n      tag_40\n      jump\t// in\n    tag_95:\n        /* \"#utility.yul\":2668:2724   */\n    tag_94:\n        /* \"#utility.yul\":2742:2771   */\n      tag_96\n        /* \"#utility.yul\":2764:2770   */\n      dup3\n        /* \"#utility.yul\":2742:2771   */\n      tag_33\n      jump\t// in\n    tag_96:\n        /* \"#utility.yul\":2734:2771   */\n      swap1\n      pop\n        /* \"#utility.yul\":2826:2830   */\n      0x20\n        /* \"#utility.yul\":2820:2824   */\n      dup2\n        /* \"#utility.yul\":2816:2831   */\n      add\n        /* \"#utility.yul\":2808:2831   */\n      swap1\n      pop\n        /* \"#utility.yul\":2530:2838   */\n      swap2\n      swap1\n      pop\n      jump\t// out\n        /* \"#utility.yul\":2844:2990   */\n    tag_44:\n        /* \"#utility.yul\":2941:2947   */\n      dup3\n        /* \"#utility.yul\":2936:2939   */\n      dup2\n        /* \"#utility.yul\":2931:2934   */\n      dup4\n        /* \"#utility.yul\":2918:2948   */\n      calldatacopy\n        /* \"#utility.yul\":2982:2983   */\n      0x00\n        /* \"#utility.yul\":2973:2979   */\n      dup4\n        /* \"#utility.yul\":2968:2971   */\n      dup4\n        /* \"#utility.yul\":2964:2980   */\n      add\n        /* \"#utility.yul\":2957:2984   */\n      mstore\n        /* \"#utility.yul\":2844:2990   */\n      pop\n      pop\n      pop\n      jump\t// out\n        /* \"#utility.yul\":2996:3421   */\n    tag_45:\n        /* \"#utility.yul\":3074:3079   */\n      0x00\n        /* \"#utility.yul\":3099:3165   */\n      tag_99\n        /* \"#utility.yul\":3115:3164   */\n      tag_100\n        /* \"#utility.yul\":3157:3163   */\n      dup5\n        /* \"#utility.yul\":3115:3164   */\n      tag_43\n      jump\t// in\n    tag_100:\n        /* \"#utility.yul\":3099:3165   */\n      tag_42\n      jump\t// in\n    tag_99:\n        /* \"#utility.yul\":3090:3165   */\n      swap1\n      pop\n        /* \"#utility.yul\":3188:3194   */\n      dup3\n        /* \"#utility.yul\":3181:3186   */\n      dup2\n        /* \"#utility.yul\":3174:3195   */\n      mstore\n        /* \"#utility.yul\":3226:3230   */\n      0x20\n        /* \"#utility.yul\":3219:3224   */\n      dup2\n        /* \"#utility.yul\":3215:3231   */\n      add\n        /* \"#utility.yul\":3264:3267   */\n      dup5\n        /* \"#utility.yul\":3255:3261   */\n      dup5\n        /* \"#utility.yul\":3250:3253   */\n      dup5\n        /* \"#utility.yul\":3246:3262   */\n      add\n        /* \"#utility.yul\":3243:3268   */\n      gt\n        /* \"#utility.yul\":3240:3352   */\n      iszero\n      tag_101\n      jumpi\n        /* \"#utility.yul\":3271:3350   */\n      tag_102\n      tag_39\n      jump\t// in\n    tag_102:\n        /* \"#utility.yul\":3240:3352   */\n    tag_101:\n        /* \"#utility.yul\":3361:3415   */\n      tag_103\n        /* \"#utility.yul\":3408:3414   */\n      dup5\n        /* \"#utility.yul\":3403:3406   */\n      dup3\n        /* \"#utility.yul\":3398:3401   */\n      dup6\n        /* \"#utility.yul\":3361:3415   */\n      tag_44\n      jump\t// in\n    tag_103:\n        /* \"#utility.yul\":3080:3421   */\n      pop\n        /* \"#utility.yul\":2996:3421   */\n      swap4\n      swap3\n      pop\n      pop\n      pop\n      jump\t// out\n        /* \"#utility.yul\":3441:3781   */\n    tag_46:\n        /* \"#utility.yul\":3497:3502   */\n      0x00\n        /* \"#utility.yul\":3546:3549   */\n      dup3\n        /* \"#utility.yul\":3539:3543   */\n      0x1f\n        /* \"#utility.yul\":3531:3537   */\n      dup4\n        /* \"#utility.yul\":3527:3544   */\n      add\n        /* \"#utility.yul\":3523:3550   */\n      slt\n        /* \"#utility.yul\":3513:3635   */\n      tag_105\n      jumpi\n        /* \"#utility.yul\":3554:3633   */\n      tag_106\n      tag_38\n      jump\t// in\n    tag_106:\n        /* \"#utility.yul\":3513:3635   */\n    tag_105:\n        /* \"#utility.yul\":3671:3677   */\n      dup2\n        /* \"#utility.yul\":3658:3678   */\n      calldataload\n        /* \"#utility.yul\":3696:3775   */\n      tag_107\n        /* \"#utility.yul\":3771:3774   */\n      dup5\n        /* \"#utility.yul\":3763:3769   */\n      dup3\n        /* \"#utility.yul\":3756:3760   */\n      0x20\n        /* \"#utility.yul\":3748:3754   */\n      dup7\n        /* \"#utility.yul\":3744:3761   */\n      add\n        /* \"#utility.yul\":3696:3775   */\n      tag_45\n      jump\t// in\n    tag_107:\n        /* \"#utility.yul\":3687:3775   */\n      swap2\n      pop\n        /* \"#utility.yul\":3503:3781   */\n      pop\n        /* \"#utility.yul\":3441:3781   */\n      swap3\n      swap2\n      pop\n      pop\n      jump\t// out\n        /* \"#utility.yul\":3787:4296   */\n    tag_11:\n        /* \"#utility.yul\":3856:3862   */\n      0x00\n        /* \"#utility.yul\":3905:3907   */\n      0x20\n        /* \"#utility.yul\":3893:3902   */\n      dup3\n        /* \"#utility.yul\":3884:3891   */\n      dup5\n        /* \"#utility.yul\":3880:3903   */\n      sub\n        /* \"#utility.yul\":3876:3908   */\n      slt\n        /* \"#utility.yul\":3873:3992   */\n      iszero\n      tag_109\n      jumpi\n        /* \"#utility.yul\":3911:3990   */\n      tag_110\n      tag_36\n      jump\t// in\n    tag_110:\n        /* \"#utility.yul\":3873:3992   */\n    tag_109:\n        /* \"#utility.yul\":4059:4060   */\n      0x00\n        /* \"#utility.yul\":4048:4057   */\n      dup3\n        /* \"#utility.yul\":4044:4061   */\n      add\n        /* \"#utility.yul\":4031:4062   */\n      calldataload\n        /* \"#utility.yul\":4089:4107   */\n      0xffffffffffffffff\n        /* \"#utility.yul\":4081:4087   */\n      dup2\n        /* \"#utility.yul\":4078:4108   */\n      gt\n        /* \"#utility.yul\":4075:4192   */\n      iszero\n      tag_111\n      jumpi\n        /* \"#utility.yul\":4111:4190   */\n      tag_112\n      tag_37\n      jump\t// in\n    tag_112:\n        /* \"#utility.yul\":4075:4192   */\n    tag_111:\n        /* \"#utility.yul\":4216:4279   */\n      tag_113\n        /* \"#utility.yul\":4271:4278   */\n      dup5\n        /* \"#utility.yul\":4262:4268   */\n      dup3\n        /* \"#utility.yul\":4251:4260   */\n      dup6\n        /* \"#utility.yul\":4247:4269   */\n      add\n        /* \"#utility.yul\":4216:4279   */\n      tag_46\n      jump\t// in\n    tag_113:\n        /* \"#utility.yul\":4206:4279   */\n      swap2\n      pop\n        /* \"#utility.yul\":4002:4289   */\n      pop\n        /* \"#utility.yul\":3787:4296   */\n      swap3\n      swap2\n      pop\n      pop\n      jump\t// out\n        /* \"#utility.yul\":4302:4379   */\n    tag_47:\n        /* \"#utility.yul\":4339:4346   */\n      0x00\n        /* \"#utility.yul\":4368:4373   */\n      dup2\n        /* \"#utility.yul\":4357:4373   */\n      swap1\n      pop\n        /* \"#utility.yul\":4302:4379   */\n      swap2\n      swap1\n      pop\n      jump\t// out\n        /* \"#utility.yul\":4385:4565   */\n    tag_48:\n        /* \"#utility.yul\":4433:4510   */\n      0x4e487b7100000000000000000000000000000000000000000000000000000000\n        /* \"#utility.yul\":4430:4431   */\n      0x00\n        /* \"#utility.yul\":4423:4511   */\n      mstore\n        /* \"#utility.yul\":4530:4534   */\n      0x11\n        /* \"#utility.yul\":4527:4528   */\n      0x04\n        /* \"#utility.yul\":4520:4535   */\n      mstore\n        /* \"#utility.yul\":4554:4558   */\n      0x24\n        /* \"#utility.yul\":4551:4552   */\n      0x00\n        /* \"#utility.yul\":4544:4559   */\n      revert\n        /* \"#utility.yul\":4571:4765   */\n    tag_15:\n        /* \"#utility.yul\":4611:4615   */\n      0x00\n        /* \"#utility.yul\":4631:4651   */\n      tag_117\n        /* \"#utility.yul\":4649:4650   */\n      dup3\n        /* \"#utility.yul\":4631:4651   */\n      tag_47\n      jump\t// in\n    tag_117:\n        /* \"#utility.yul\":4626:4651   */\n      swap2\n      pop\n        /* \"#utility.yul\":4665:4685   */\n      tag_118\n        /* \"#utility.yul\":4683:4684   */\n      dup4\n        /* \"#utility.yul\":4665:4685   */\n      tag_47\n      jump\t// in\n    tag_118:\n        /* \"#utility.yul\":4660:4685   */\n      swap3\n      pop\n        /* \"#utility.yul\":4709:4710   */\n      dup3\n        /* \"#utility.yul\":4706:4707   */\n      dup3\n        /* \"#utility.yul\":4702:4711   */\n      sub\n        /* \"#utility.yul\":4694:4711   */\n      swap1\n      pop\n        /* \"#utility.yul\":4733:4734   */\n      dup2\n        /* \"#utility.yul\":4727:4731   */\n      dup2\n        /* \"#utility.yul\":4724:4735   */\n      gt\n        /* \"#utility.yul\":4721:4758   */\n      iszero\n      tag_119\n      jumpi\n        /* \"#utility.yul\":4738:4756   */\n      tag_120\n      tag_48\n      jump\t// in\n    tag_120:\n        /* \"#utility.yul\":4721:4758   */\n    tag_119:\n        /* \"#utility.yul\":4571:4765   */\n      swap3\n      swap2\n      pop\n      pop\n      jump\t// out\n        /* \"#utility.yul\":4771:4951   */\n    tag_18:\n        /* \"#utility.yul\":4819:4896   */\n      0x4e487b7100000000000000000000000000000000000000000000000000000000\n        /* \"#utility.yul\":4816:4817   */\n      0x00\n        /* \"#utility.yul\":4809:4897   */\n      mstore\n        /* \"#utility.yul\":4916:4920   */\n      0x32\n        /* \"#utility.yul\":4913:4914   */\n      0x04\n        /* \"#utility.yul\":4906:4921   */\n      mstore\n        /* \"#utility.yul\":4940:4944   */\n      0x24\n        /* \"#utility.yul\":4937:4938   */\n      0x00\n        /* \"#utility.yul\":4930:4945   */\n      revert\n        /* \"#utility.yul\":4957:5137   */\n    tag_49:\n        /* \"#utility.yul\":5005:5082   */\n      0x4e487b7100000000000000000000000000000000000000000000000000000000\n        /* \"#utility.yul\":5002:5003   */\n      0x00\n        /* \"#utility.yul\":4995:5083   */\n      mstore\n        /* \"#utility.yul\":5102:5106   */\n      0x22\n        /* \"#utility.yul\":5099:5100   */\n      0x04\n        /* \"#utility.yul\":5092:5107   */\n      mstore\n        /* \"#utility.yul\":5126:5130   */\n      0x24\n        /* \"#utility.yul\":5123:5124   */\n      0x00\n        /* \"#utility.yul\":5116:5131   */\n      revert\n        /* \"#utility.yul\":5143:5463   */\n    tag_21:\n        /* \"#utility.yul\":5187:5193   */\n      0x00\n        /* \"#utility.yul\":5224:5225   */\n      0x02\n        /* \"#utility.yul\":5218:5222   */\n      dup3\n        /* \"#utility.yul\":5214:5226   */\n      div\n        /* \"#utility.yul\":5204:5226   */\n      swap1\n      pop\n        /* \"#utility.yul\":5271:5272   */\n      0x01\n        /* \"#utility.yul\":5265:5269   */\n      dup3\n        /* \"#utility.yul\":5261:5273   */\n      and\n        /* \"#utility.yul\":5292:5310   */\n      dup1\n        /* \"#utility.yul\":5282:5363   */\n      tag_124\n      jumpi\n        /* \"#utility.yul\":5348:5352   */\n      0x7f\n        /* \"#utility.yul\":5340:5346   */\n      dup3\n        /* \"#utility.yul\":5336:5353   */\n      and\n        /* \"#utility.yul\":5326:5353   */\n      swap2\n      pop\n        /* \"#utility.yul\":5282:5363   */\n    tag_124:\n        /* \"#utility.yul\":5410:5412   */\n      0x20\n        /* \"#utility.yul\":5402:5408   */\n      dup3\n        /* \"#utility.yul\":5399:5413   */\n      lt\n        /* \"#utility.yul\":5379:5397   */\n      dup2\n        /* \"#utility.yul\":5376:5414   */\n      sub\n        /* \"#utility.yul\":5373:5457   */\n      tag_125\n      jumpi\n        /* \"#utility.yul\":5429:5447   */\n      tag_126\n      tag_49\n      jump\t// in\n    tag_126:\n        /* \"#utility.yul\":5373:5457   */\n    tag_125:\n        /* \"#utility.yul\":5194:5463   */\n      pop\n        /* \"#utility.yul\":5143:5463   */\n      swap2\n      swap1\n      pop\n      jump\t// out\n        /* \"#utility.yul\":5469:5610   */\n    tag_50:\n        /* \"#utility.yul\":5518:5522   */\n      0x00\n        /* \"#utility.yul\":5541:5544   */\n      dup2\n        /* \"#utility.yul\":5533:5544   */\n      swap1\n      pop\n        /* \"#utility.yul\":5564:5567   */\n      dup2\n        /* \"#utility.yul\":5561:5562   */\n      0x00\n        /* \"#utility.yul\":5554:5568   */\n      mstore\n        /* \"#utility.yul\":5598:5602   */\n      0x20\n        /* \"#utility.yul\":5595:5596   */\n      0x00\n        /* \"#utility.yul\":5585:5603   */\n      keccak256\n        /* \"#utility.yul\":5577:5603   */\n      swap1\n      pop\n        /* \"#utility.yul\":5469:5610   */\n      swap2\n      swap1\n      pop\n      jump\t// out\n        /* \"#utility.yul\":5616:5709   */\n    tag_51:\n        /* \"#utility.yul\":5653:5659   */\n      0x00\n        /* \"#utility.yul\":5700:5702   */\n      0x20\n        /* \"#utility.yul\":5695:5697   */\n      0x1f\n        /* \"#utility.yul\":5688:5693   */\n      dup4\n        /* \"#utility.yul\":5684:5698   */\n      add\n        /* \"#utility.yul\":5680:5703   */\n      div\n        /* \"#utility.yul\":5670:5703   */\n      swap1\n      pop\n        /* \"#utility.yul\":5616:5709   */\n      swap2\n      swap1\n      pop\n      jump\t// out\n        /* \"#utility.yul\":5715:5822   */\n    tag_52:\n        /* \"#utility.yul\":5759:5767   */\n      0x00\n        /* \"#utility.yul\":5809:5814   */\n      dup3\n        /* \"#utility.yul\":5803:5807   */\n      dup3\n        /* \"#utility.yul\":5799:5815   */\n      shl\n        /* \"#utility.yul\":5778:5815   */\n      swap1\n      pop\n        /* \"#utility.yul\":5715:5822   */\n      swap3\n      swap2\n      pop\n      pop\n      jump\t// out\n        /* \"#utility.yul\":5828:6221   */\n    tag_53:\n        /* \"#utility.yul\":5897:5903   */\n      0x00\n        /* \"#utility.yul\":5947:5948   */\n      0x08\n        /* \"#utility.yul\":5935:5945   */\n      dup4\n        /* \"#utility.yul\":5931:5949   */\n      mul\n        /* \"#utility.yul\":5970:6067   */\n      tag_131\n        /* \"#utility.yul\":6000:6066   */\n      0xffffffffffffffffffffffffffffffffffffffffffffffffffffffffffffffff\n        /* \"#utility.yul\":5989:5998   */\n      dup3\n        /* \"#utility.yul\":5970:6067   */\n      tag_52\n      jump\t// in\n    tag_131:\n        /* \"#utility.yul\":6088:6127   */\n      tag_132\n        /* \"#utility.yul\":6118:6126   */\n      dup7\n        /* \"#utility.yul\":6107:6116   */\n      dup4\n        /* \"#utility.yul\":6088:6127   */\n      tag_52\n      jump\t// in\n    tag_132:\n        /* \"#utility.yul\":6076:6127   */\n      swap6\n      pop\n        /* \"#utility.yul\":6160:6164   */\n      dup1\n        /* \"#utility.yul\":6156:6165   */\n      not\n        /* \"#utility.yul\":6149:6154   */\n      dup5\n        /* \"#utility.yul\":6145:6166   */\n      and\n        /* \"#utility.yul\":6136:6166   */\n      swap4\n      pop\n        /* \"#utility.yul\":6209:6213   */\n      dup1\n        /* \"#utility.yul\":6199:6207   */\n      dup7\n        /* \"#utility.yul\":6195:6214   */\n      and\n        /* \"#utility.yul\":6188:6193   */\n      dup5\n        /* \"#utility.yul\":6185:6215   */\n      or\n        /* \"#utility.yul\":6175:6215   */\n      swap3\n      pop\n        /* \"#utility.yul\":5904:6221   */\n      pop\n      pop\n        /* \"#utility.yul\":5828:6221   */\n      swap4\n      swap3\n      pop\n      pop\n      pop\n      jump\t// out\n        /* \"#utility.yul\":6227:6287   */\n    tag_54:\n        /* \"#utility.yul\":6255:6258   */\n      0x00\n        /* \"#utility.yul\":6276:6281   */\n      dup2\n        /* \"#utility.yul\":6269:6281   */\n      swap1\n      pop\n        /* \"#utility.yul\":6227:6287   */\n      swap2\n      swap1\n      pop\n      jump\t// out\n        /* \"#utility.yul\":6293:6435   */\n    tag_55:\n        /* \"#utility.yul\":6343:6352   */\n      0x00\n        /* \"#utility.yul\":6376:6429   */\n      tag_135\n        /* \"#utility.yul\":6394:6428   */\n      tag_136\n        /* \"#utility.yul\":6403:6427   */\n      tag_137\n        /* \"#utility.yul\":6421:6426   */\n      dup5\n        /* \"#utility.yul\":6403:6427   */\n      tag_47\n      jump\t// in\n    tag_137:\n        /* \"#utility.yul\":6394:6428   */\n      tag_54\n      jump\t// in\n    tag_136:\n        /* \"#utility.yul\":6376:6429   */\n      tag_47\n      jump\t// in\n    tag_135:\n        /* \"#utility.yul\":6363:6429   */\n      swap1\n      pop\n        /* \"#utility.yul\":6293:6435   */\n      swap2\n      swap1\n      pop\n      jump\t// out\n        /* \"#utility.yul\":6441:6516   */\n    tag_56:\n        /* \"#utility.yul\":6484:6487   */\n      0x00\n        /* \"#utility.yul\":6505:6510   */\n      dup2\n        /* \"#utility.yul\":6498:6510   */\n      swap1\n      pop\n        /* \"#utility.yul\":6441:6516   */\n      swap2\n      swap1\n      pop\n      jump\t// out\n        /* \"#utility.yul\":6522:6791   */\n    tag_57:\n        /* \"#utility.yul\":6632:6671   */\n      tag_140\n        /* \"#utility.yul\":6663:6670   */\n      dup4\n        /* \"#utility.yul\":6632:6671   */\n      tag_55\n      jump\t// in\n    tag_140:\n        /* \"#utility.yul\":6693:6784   */\n      tag_141\n        /* \"#utility.yul\":6742:6783   */\n      tag_142\n        /* \"#utility.yul\":6766:6782   */\n      dup3\n        /* \"#utility.yul\":6742:6783   */\n      tag_56\n      jump\t// in\n    tag_142:\n        /* \"#utility.yul\":6734:6740   */\n      dup5\n        /* \"#utility.yul\":6727:6731   */\n      dup5\n        /* \"#utility.yul\":6721:6732   */\n      sload\n        /* \"#utility.yul\":6693:6784   */\n      tag_53\n      jump\t// in\n    tag_141:\n        /* \"#utility.yul\":6687:6691   */\n      dup3\n        /* \"#utility.yul\":6680:6785   */\n      sstore\n        /* \"#utility.yul\":6598:6791   */\n      pop\n        /* \"#utility.yul\":6522:6791   */\n      pop\n      pop\n      pop\n      jump\t// out\n        /* \"#utility.yul\":6797:6870   */\n    tag_58:\n        /* \"#utility.yul\":6842:6845   */\n      0x00\n        /* \"#utility.yul\":6797:6870   */\n      swap1\n      jump\t// out\n        /* \"#utility.yul\":6876:7065   */\n    tag_59:\n        /* \"#utility.yul\":6953:6985   */\n      tag_145\n      tag_58\n      jump\t// in\n    tag_145:\n        /* \"#utility.yul\":6994:7059   */\n      tag_146\n        /* \"#utility.yul\":7052:7058   */\n      dup2\n        /* \"#utility.yul\":7044:7050   */\n      dup5\n        /* \"#utility.yul\":7038:7042   */\n      dup5\n        /* \"#utility.yul\":6994:7059   */\n      tag_57\n      jump\t// in\n    tag_146:\n        /* \"#utility.yul\":6929:7065   */\n      pop\n        /* \"#utility.yul\":6876:7065   */\n      pop\n      pop\n      jump\t// out\n        /* \"#utility.yul\":7071:7257   */\n    tag_60:\n        /* \"#utility.yul\":7131:7251   */\n    tag_148:\n        /* \"#utility.yul\":7148:7151   */\n      dup2\n        /* \"#utility.yul\":7141:7146   */\n      dup2\n        /* \"#utility.yul\":7138:7152   */\n      lt\n        /* \"#utility.yul\":7131:7251   */\n      iszero\n      tag_150\n      jumpi\n        /* \"#utility.yul\":7202:7241   */\n      tag_151\n        /* \"#utility.yul\":7239:7240   */\n      0x00\n        /* \"#utility.yul\":7232:7237   */\n      dup3\n        /* \"#utility.yul\":7202:7241   */\n      tag_59\n      jump\t// in\n    tag_151:\n        /* \"#utility.yul\":7175:7176   */\n      0x01\n        /* \"#utility.yul\":7168:7173   */\n      dup2\n        /* \"#utility.yul\":7164:7177   */\n      add\n        /* \"#utility.yul\":7155:7177   */\n      swap1\n      pop\n        /* \"#utility.yul\":7131:7251   */\n      jump(tag_148)\n    tag_150:\n        /* \"#utility.yul\":7071:7257   */\n      pop\n      pop\n      jump\t// out\n        /* \"#utility.yul\":7263:7806   */\n    tag_61:\n        /* \"#utility.yul\":7364:7366   */\n      0x1f\n        /* \"#utility.yul\":7359:7362   */\n      dup3\n        /* \"#utility.yul\":7356:7367   */\n      gt\n        /* \"#utility.yul\":7353:7799   */\n      iszero\n      tag_153\n      jumpi\n        /* \"#utility.yul\":7398:7436   */\n      tag_154\n        /* \"#utility.yul\":7430:7435   */\n      dup2\n        /* \"#utility.yul\":7398:7436   */\n      tag_50\n      jump\t// in\n    tag_154:\n        /* \"#utility.yul\":7482:7511   */\n      tag_155\n        /* \"#utility.yul\":7500:7510   */\n      dup5\n        /* \"#utility.yul\":7482:7511   */\n      tag_51\n      jump\t// in\n    tag_155:\n        /* \"#utility.yul\":7472:7480   */\n      dup2\n        /* \"#utility.yul\":7468:7512   */\n      add\n        /* \"#utility.yul\":7665:7667   */\n      0x20\n        /* \"#utility.yul\":7653:7663   */\n      dup6\n        /* \"#utility.yul\":7650:7668   */\n      lt\n        /* \"#utility.yul\":7647:7696   */\n      iszero\n      tag_156\n      jumpi\n        /* \"#utility.yul\":7686:7694   */\n      dup2\n        /* \"#utility.yul\":7671:7694   */\n      swap1\n      pop\n        /* \"#utility.yul\":7647:7696   */\n    tag_156:\n        /* \"#utility.yul\":7709:7789   */\n      tag_157\n        /* \"#utility.yul\":7765:7787   */\n      tag_158\n        /* \"#utility.yul\":7783:7786   */\n      dup6\n        /* \"#utility.yul\":7765:7787   */\n      tag_51\n      jump\t// in\n    tag_158:\n        /* \"#utility.yul\":7755:7763   */\n      dup4\n        /* \"#utility.yul\":7751:7788   */\n      add\n        /* \"#utility.yul\":7738:7749   */\n      dup3\n        /* \"#utility.yul\":7709:7789   */\n      tag_60\n      jump\t// in\n    tag_157:\n        /* \"#utility.yul\":7368:7799   */\n      pop\n      pop\n        /* \"#utility.yul\":7353:7799   */\n    tag_153:\n        /* \"#utility.yul\":7263:7806   */\n      pop\n      pop\n      pop\n      jump\t// out\n        /* \"#utility.yul\":7812:7929   */\n    tag_62:\n        /* \"#utility.yul\":7866:7874   */\n      0x00\n        /* \"#utility.yul\":7916:7921   */\n      dup3\n        /* \"#utility.yul\":7910:7914   */\n      dup3\n        /* \"#utility.yul\":7906:7922   */\n      shr\n        /* \"#utility.yul\":7885:7922   */\n      swap1\n      pop\n        /* \"#utility.yul\":7812:7929   */\n      swap3\n      swap2\n      pop\n      pop\n      jump\t// out\n        /* \"#utility.yul\":7935:8104   */\n    tag_63:\n        /* \"#utility.yul\":7979:7985   */\n      0x00\n        /* \"#utility.yul\":8012:8063   */\n      tag_161\n        /* \"#utility.yul\":8060:8061   */\n      0x00\n        /* \"#utility.yul\":8056:8062   */\n      not\n        /* \"#utility.yul\":8048:8053   */\n      dup5\n        /* \"#utility.yul\":8045:8046   */\n      0x08\n        /* \"#utility.yul\":8041:8054   */\n      mul\n        /* \"#utility.yul\":8012:8063   */\n      tag_62\n      jump\t// in\n    tag_161:\n        /* \"#utility.yul\":8008:8064   */\n      not\n        /* \"#utility.yul\":8093:8097   */\n      dup1\n        /* \"#utility.yul\":8087:8091   */\n      dup4\n        /* \"#utility.yul\":8083:8098   */\n      and\n        /* \"#utility.yul\":8073:8098   */\n      swap2\n      pop\n        /* \"#utility.yul\":7986:8104   */\n      pop\n        /* \"#utility.yul\":7935:8104   */\n      swap3\n      swap2\n      pop\n      pop\n      jump\t// out\n        /* \"#utility.yul\":8109:8404   */\n    tag_64:\n        /* \"#utility.yul\":8185:8189   */\n      0x00\n        /* \"#utility.yul\":8331:8360   */\n      tag_163\n        /* \"#utility.yul\":8356:8359   */\n      dup4\n        /* \"#utility.yul\":8350:8354   */\n      dup4\n        /* \"#utility.yul\":8331:8360   */\n      tag_63\n      jump\t// in\n    tag_163:\n        /* \"#utility.yul\":8323:8360   */\n      swap2\n      pop\n        /* \"#utility.yul\":8393:8396   */\n      dup3\n        /* \"#utility.yul\":8390:8391   */\n      0x02\n        /* \"#utility.yul\":8386:8397   */\n      mul\n        /* \"#utility.yul\":8380:8384   */\n      dup3\n        /* \"#utility.yul\":8377:8398   */\n      or\n        /* \"#utility.yul\":8369:8398   */\n      swap1\n      pop\n        /* \"#utility.yul\":8109:8404   */\n      swap3\n      swap2\n      pop\n      pop\n      jump\t// out\n        /* \"#utility.yul\":8409:9804   */\n    tag_29:\n        /* \"#utility.yul\":8526:8563   */\n      tag_165\n        /* \"#utility.yul\":8559:8562   */\n      dup3\n        /* \"#utility.yul\":8526:8563   */\n      tag_30\n      jump\t// in\n    tag_165:\n        /* \"#utility.yul\":8628:8646   */\n      0xffffffffffffffff\n        /* \"#utility.yul\":8620:8626   */\n      dup2\n        /* \"#utility.yul\":8617:8647   */\n      gt\n        /* \"#utility.yul\":8614:8670   */\n      iszero\n      tag_166\n      jumpi\n        /* \"#utility.yul\":8650:8668   */\n      tag_167\n      tag_40\n      jump\t// in\n    tag_167:\n        /* \"#utility.yul\":8614:8670   */\n    tag_166:\n        /* \"#utility.yul\":8694:8732   */\n      tag_168\n        /* \"#utility.yul\":8726:8730   */\n      dup3\n        /* \"#utility.yul\":8720:8731   */\n      sload\n        /* \"#utility.yul\":8694:8732   */\n      tag_21\n      jump\t// in\n    tag_168:\n        /* \"#utility.yul\":8779:8846   */\n      tag_169\n        /* \"#utility.yul\":8839:8845   */\n      dup3\n        /* \"#utility.yul\":8831:8837   */\n      dup3\n        /* \"#utility.yul\":8825:8829   */\n      dup6\n        /* \"#utility.yul\":8779:8846   */\n      tag_61\n      jump\t// in\n    tag_169:\n        /* \"#utility.yul\":8873:8874   */\n      0x00\n        /* \"#utility.yul\":8897:8901   */\n      0x20\n        /* \"#utility.yul\":8884:8901   */\n      swap1\n      pop\n        /* \"#utility.yul\":8929:8931   */\n      0x1f\n        /* \"#utility.yul\":8921:8927   */\n      dup4\n        /* \"#utility.yul\":8918:8932   */\n      gt\n        /* \"#utility.yul\":8946:8947   */\n      0x01\n        /* \"#utility.yul\":8941:9559   */\n      dup2\n      eq\n      tag_171\n      jumpi\n        /* \"#utility.yul\":9603:9604   */\n      0x00\n        /* \"#utility.yul\":9620:9626   */\n      dup5\n        /* \"#utility.yul\":9617:9694   */\n      iszero\n      tag_172\n      jumpi\n        /* \"#utility.yul\":9669:9678   */\n      dup3\n        /* \"#utility.yul\":9664:9667   */\n      dup8\n        /* \"#utility.yul\":9660:9679   */\n      add\n        /* \"#utility.yul\":9654:9680   */\n      mload\n        /* \"#utility.yul\":9645:9680   */\n      swap1\n      pop\n        /* \"#utility.yul\":9617:9694   */\n    tag_172:\n        /* \"#utility.yul\":9720:9787   */\n      tag_173\n        /* \"#utility.yul\":9780:9786   */\n      dup6\n        /* \"#utility.yul\":9773:9778   */\n      dup3\n        /* \"#utility.yul\":9720:9787   */\n      tag_64\n      jump\t// in\n    tag_173:\n        /* \"#utility.yul\":9714:9718   */\n      dup7\n        /* \"#utility.yul\":9707:9788   */\n      sstore\n        /* \"#utility.yul\":9576:9798   */\n      pop\n        /* \"#utility.yul\":8911:9798   */\n      jump(tag_170)\n        /* \"#utility.yul\":8941:9559   */\n    tag_171:\n        /* \"#utility.yul\":8993:8997   */\n      0x1f\n        /* \"#utility.yul\":8989:8998   */\n      not\n        /* \"#utility.yul\":8981:8987   */\n      dup5\n        /* \"#utility.yul\":8977:8999   */\n      and\n        /* \"#utility.yul\":9027:9064   */\n      tag_174\n        /* \"#utility.yul\":9059:9063   */\n      dup7\n        /* \"#utility.yul\":9027:9064   */\n      tag_50\n      jump\t// in\n    tag_174:\n        /* \"#utility.yul\":9086:9087   */\n      0x00\n        /* \"#utility.yul\":9100:9308   */\n    tag_175:\n        /* \"#utility.yul\":9114:9121   */\n      dup3\n        /* \"#utility.yul\":9111:9112   */\n      dup2\n        /* \"#utility.yul\":9108:9122   */\n      lt\n        /* \"#utility.yul\":9100:9308   */\n      iszero\n      tag_177\n      jumpi\n        /* \"#utility.yul\":9193:9202   */\n      dup5\n        /* \"#utility.yul\":9188:9191   */\n      dup10\n        /* \"#utility.yul\":9184:9203   */\n      add\n        /* \"#utility.yul\":9178:9204   */\n      mload\n        /* \"#utility.yul\":9170:9176   */\n      dup3\n        /* \"#utility.yul\":9163:9205   */\n      sstore\n        /* \"#utility.yul\":9244:9245   */\n      0x01\n        /* \"#utility.yul\":9236:9242   */\n      dup3\n        /* \"#utility.yul\":9232:9246   */\n      add\n        /* \"#utility.yul\":9222:9246   */\n      swap2\n      pop\n        /* \"#utility.yul\":9291:9293   */\n      0x20\n        /* \"#utility.yul\":9280:9289   */\n      dup6\n        /* \"#utility.yul\":9276:9294   */\n      add\n        /* \"#utility.yul\":9263:9294   */\n      swap5\n      pop\n        /* \"#utility.yul\":9137:9141   */\n      0x20\n        /* \"#utility.yul\":9134:9135   */\n      dup2\n        /* \"#utility.yul\":9130:9142   */\n      add\n        /* \"#utility.yul\":9125:9142   */\n      swap1\n      pop\n        /* \"#utility.yul\":9100:9308   */\n      jump(tag_175)\n    tag_177:\n        /* \"#utility.yul\":9336:9342   */\n      dup7\n        /* \"#utility.yul\":9327:9334   */\n      dup4\n        /* \"#utility.yul\":9324:9343   */\n      lt\n        /* \"#utility.yul\":9321:9500   */\n      iszero\n      tag_178\n      jumpi\n        /* \"#utility.yul\":9394:9403   */\n      dup5\n        /* \"#utility.yul\":9389:9392   */\n      dup10\n        /* \"#utility.yul\":9385:9404   */\n      add\n        /* \"#utility.yul\":9379:9405   */\n      mload\n        /* \"#utility.yul\":9437:9485   */\n      tag_179\n        /* \"#utility.yul\":9479:9483   */\n      0x1f\n        /* \"#utility.yul\":9471:9477   */\n      dup10\n        /* \"#utility.yul\":9467:9484   */\n      and\n        /* \"#utility.yul\":9456:9465   */\n      dup3\n        /* \"#utility.yul\":9437:9485   */\n      tag_63\n      jump\t// in\n    tag_179:\n        /* \"#utility.yul\":9429:9435   */\n      dup4\n        /* \"#utility.yul\":9422:9486   */\n      sstore\n        /* \"#utility.yul\":9344:9500   */\n      pop\n        /* \"#utility.yul\":9321:9500   */\n    tag_178:\n        /* \"#utility.yul\":9546:9547   */\n      0x01\n        /* \"#utility.yul\":9542:9543   */\n      0x02\n        /* \"#utility.yul\":9534:9540   */\n      dup9\n        /* \"#utility.yul\":9530:9544   */\n      mul\n        /* \"#utility.yul\":9526:9548   */\n      add\n        /* \"#utility.yul\":9520:9524   */\n      dup9\n        /* \"#utility.yul\":9513:9549   */\n      sstore\n        /* \"#utility.yul\":8948:9559   */\n      pop\n      pop\n      pop\n        /* \"#utility.yul\":8911:9798   */\n    tag_170:\n      pop\n        /* \"#utility.yul\":8501:9804   */\n      pop\n      pop\n      pop\n        /* \"#utility.yul\":8409:9804   */\n      pop\n      pop\n      jump\t// out\n\n    auxdata: 0xa264697066735822122038eaa1ab0da610593334596ff49b56ab1c59f5fa71b4a44413eaab345c58e16e64736f6c63430008120033\n}\n",
				"bytecode": {
					"linkReferences": {},
					"object": "608060405234801561001057600080fd5b50610766806100206000396000f3fe608060405234801561001057600080fd5b50600436106100365760003560e01c80632ff695a71461003b5780635abd22f714610059575b600080fd5b610043610075565b6040516100509190610202565b60405180910390f35b610073600480360381019061006e919061036d565b61013a565b005b60606000600160008054905061008b91906103ef565b9050600081815481106100a1576100a0610423565b5b9060005260206000200180546100b690610481565b80601f01602080910402602001604051908101604052809291908181526020018280546100e290610481565b801561012f5780601f106101045761010080835404028352916020019161012f565b820191906000526020600020905b81548152906001019060200180831161011257829003601f168201915b505050505091505090565b60008190806001815401808255809150506001900390600052602060002001600090919091909150908161016e919061065e565b5050565b600081519050919050565b600082825260208201905092915050565b60005b838110156101ac578082015181840152602081019050610191565b60008484015250505050565b6000601f19601f8301169050919050565b60006101d482610172565b6101de818561017d565b93506101ee81856020860161018e565b6101f7816101b8565b840191505092915050565b6000602082019050818103600083015261021c81846101c9565b905092915050565b6000604051905090565b600080fd5b600080fd5b600080fd5b600080fd5b7f4e487b7100000000000000000000000000000000000000000000000000000000600052604160045260246000fd5b61027a826101b8565b810181811067ffffffffffffffff8211171561029957610298610242565b5b80604052505050565b60006102ac610224565b90506102b88282610271565b919050565b600067ffffffffffffffff8211156102d8576102d7610242565b5b6102e1826101b8565b9050602081019050919050565b82818337600083830152505050565b600061031061030b846102bd565b6102a2565b90508281526020810184848401111561032c5761032b61023d565b5b6103378482856102ee565b509392505050565b600082601f83011261035457610353610238565b5b81356103648482602086016102fd565b91505092915050565b6000602082840312156103835761038261022e565b5b600082013567ffffffffffffffff8111156103a1576103a0610233565b5b6103ad8482850161033f565b91505092915050565b6000819050919050565b7f4e487b7100000000000000000000000000000000000000000000000000000000600052601160045260246000fd5b60006103fa826103b6565b9150610405836103b6565b925082820390508181111561041d5761041c6103c0565b5b92915050565b7f4e487b7100000000000000000000000000000000000000000000000000000000600052603260045260246000fd5b7f4e487b7100000000000000000000000000000000000000000000000000000000600052602260045260246000fd5b6000600282049050600182168061049957607f821691505b6020821081036104ac576104ab610452565b5b50919050565b60008190508160005260206000209050919050565b60006020601f8301049050919050565b600082821b905092915050565b6000600883026105147fffffffffffffffffffffffffffffffffffffffffffffffffffffffffffffffff826104d7565b61051e86836104d7565b95508019841693508086168417925050509392505050565b6000819050919050565b600061055b610556610551846103b6565b610536565b6103b6565b9050919050565b6000819050919050565b61057583610540565b61058961058182610562565b8484546104e4565b825550505050565b600090565b61059e610591565b6105a981848461056c565b505050565b5b818110156105cd576105c2600082610596565b6001810190506105af565b5050565b601f821115610612576105e3816104b2565b6105ec846104c7565b810160208510156105fb578190505b61060f610607856104c7565b8301826105ae565b50505b505050565b600082821c905092915050565b600061063560001984600802610617565b1980831691505092915050565b600061064e8383610624565b9150826002028217905092915050565b61066782610172565b67ffffffffffffffff8111156106805761067f610242565b5b61068a8254610481565b6106958282856105d1565b600060209050601f8311600181146106c857600084156106b6578287015190505b6106c08582610642565b865550610728565b601f1984166106d6866104b2565b60005b828110156106fe578489015182556001820191506020850194506020810190506106d9565b8683101561071b5784890151610717601f891682610624565b8355505b6001600288020188555050505b50505050505056fea264697066735822122038eaa1ab0da610593334596ff49b56ab1c59f5fa71b4a44413eaab345c58e16e64736f6c63430008120033",
					"opcodes": "PUSH1 0x80 PUSH1 0x40 MSTORE CALLVALUE DUP1 ISZERO PUSH2 0x10 JUMPI PUSH1 0x0 DUP1 REVERT JUMPDEST POP PUSH2 0x766 DUP1 PUSH2 0x20 PUSH1 0x0 CODECOPY PUSH1 0x0 RETURN INVALID PUSH1 0x80 PUSH1 0x40 MSTORE CALLVALUE DUP1 ISZERO PUSH2 0x10 JUMPI PUSH1 0x0 DUP1 REVERT JUMPDEST POP PUSH1 0x4 CALLDATASIZE LT PUSH2 0x36 JUMPI PUSH1 0x0 CALLDATALOAD PUSH1 0xE0 SHR DUP1 PUSH4 0x2FF695A7 EQ PUSH2 0x3B JUMPI DUP1 PUSH4 0x5ABD22F7 EQ PUSH2 0x59 JUMPI JUMPDEST PUSH1 0x0 DUP1 REVERT JUMPDEST PUSH2 0x43 PUSH2 0x75 JUMP JUMPDEST PUSH1 0x40 MLOAD PUSH2 0x50 SWAP2 SWAP1 PUSH2 0x202 JUMP JUMPDEST PUSH1 0x40 MLOAD DUP1 SWAP2 SUB SWAP1 RETURN JUMPDEST PUSH2 0x73 PUSH1 0x4 DUP1 CALLDATASIZE SUB DUP2 ADD SWAP1 PUSH2 0x6E SWAP2 SWAP1 PUSH2 0x36D JUMP JUMPDEST PUSH2 0x13A JUMP JUMPDEST STOP JUMPDEST PUSH1 0x60 PUSH1 0x0 PUSH1 0x1 PUSH1 0x0 DUP1 SLOAD SWAP1 POP PUSH2 0x8B SWAP2 SWAP1 PUSH2 0x3EF JUMP JUMPDEST SWAP1 POP PUSH1 0x0 DUP2 DUP2 SLOAD DUP2 LT PUSH2 0xA1 JUMPI PUSH2 0xA0 PUSH2 0x423 JUMP JUMPDEST JUMPDEST SWAP1 PUSH1 0x0 MSTORE PUSH1 0x20 PUSH1 0x0 KECCAK256 ADD DUP1 SLOAD PUSH2 0xB6 SWAP1 PUSH2 0x481 JUMP JUMPDEST DUP1 PUSH1 0x1F ADD PUSH1 0x20 DUP1 SWAP2 DIV MUL PUSH1 0x20 ADD PUSH1 0x40 MLOAD SWAP1 DUP2 ADD PUSH1 0x40 MSTORE DUP1 SWAP3 SWAP2 SWAP1 DUP2 DUP2 MSTORE PUSH1 0x20 ADD DUP3 DUP1 SLOAD PUSH2 0xE2 SWAP1 PUSH2 0x481 JUMP JUMPDEST DUP1 ISZERO PUSH2 0x12F JUMPI DUP1 PUSH1 0x1F LT PUSH2 0x104 JUMPI PUSH2 0x100 DUP1 DUP4 SLOAD DIV MUL DUP4 MSTORE SWAP2 PUSH1 0x20 ADD SWAP2 PUSH2 0x12F JUMP JUMPDEST DUP3 ADD SWAP2 SWAP1 PUSH1 0x0 MSTORE PUSH1 0x20 PUSH1 0x0 KECCAK256 SWAP1 JUMPDEST DUP2 SLOAD DUP2 MSTORE SWAP1 PUSH1 0x1 ADD SWAP1 PUSH1 0x20 ADD DUP1 DUP4 GT PUSH2 0x112 JUMPI DUP3 SWAP1 SUB PUSH1 0x1F AND DUP3 ADD SWAP2 JUMPDEST POP POP POP POP POP SWAP2 POP POP SWAP1 JUMP JUMPDEST PUSH1 0x0 DUP2 SWAP1 DUP1 PUSH1 0x1 DUP2 SLOAD ADD DUP1 DUP3 SSTORE DUP1 SWAP2 POP POP PUSH1 0x1 SWAP1 SUB SWAP1 PUSH1 0x0 MSTORE PUSH1 0x20 PUSH1 0x0 KECCAK256 ADD PUSH1 0x0 SWAP1 SWAP2 SWAP1 SWAP2 SWAP1 SWAP2 POP SWAP1 DUP2 PUSH2 0x16E SWAP2 SWAP1 PUSH2 0x65E JUMP JUMPDEST POP POP JUMP JUMPDEST PUSH1 0x0 DUP2 MLOAD SWAP1 POP SWAP2 SWAP1 POP JUMP JUMPDEST PUSH1 0x0 DUP3 DUP3 MSTORE PUSH1 0x20 DUP3 ADD SWAP1 POP SWAP3 SWAP2 POP POP JUMP JUMPDEST PUSH1 0x0 JUMPDEST DUP4 DUP2 LT ISZERO PUSH2 0x1AC JUMPI DUP1 DUP3 ADD MLOAD DUP2 DUP5 ADD MSTORE PUSH1 0x20 DUP2 ADD SWAP1 POP PUSH2 0x191 JUMP JUMPDEST PUSH1 0x0 DUP5 DUP5 ADD MSTORE POP POP POP POP JUMP JUMPDEST PUSH1 0x0 PUSH1 0x1F NOT PUSH1 0x1F DUP4 ADD AND SWAP1 POP SWAP2 SWAP1 POP JUMP JUMPDEST PUSH1 0x0 PUSH2 0x1D4 DUP3 PUSH2 0x172 JUMP JUMPDEST PUSH2 0x1DE DUP2 DUP6 PUSH2 0x17D JUMP JUMPDEST SWAP4 POP PUSH2 0x1EE DUP2 DUP6 PUSH1 0x20 DUP7 ADD PUSH2 0x18E JUMP JUMPDEST PUSH2 0x1F7 DUP2 PUSH2 0x1B8 JUMP JUMPDEST DUP5 ADD SWAP2 POP POP SWAP3 SWAP2 POP POP JUMP JUMPDEST PUSH1 0x0 PUSH1 0x20 DUP3 ADD SWAP1 POP DUP2 DUP2 SUB PUSH1 0x0 DUP4 ADD MSTORE PUSH2 0x21C DUP2 DUP5 PUSH2 0x1C9 JUMP JUMPDEST SWAP1 POP SWAP3 SWAP2 POP POP JUMP JUMPDEST PUSH1 0x0 PUSH1 0x40 MLOAD SWAP1 POP SWAP1 JUMP JUMPDEST PUSH1 0x0 DUP1 REVERT JUMPDEST PUSH1 0x0 DUP1 REVERT JUMPDEST PUSH1 0x0 DUP1 REVERT JUMPDEST PUSH1 0x0 DUP1 REVERT JUMPDEST PUSH32 0x4E487B7100000000000000000000000000000000000000000000000000000000 PUSH1 0x0 MSTORE PUSH1 0x41 PUSH1 0x4 MSTORE PUSH1 0x24 PUSH1 0x0 REVERT JUMPDEST PUSH2 0x27A DUP3 PUSH2 0x1B8 JUMP JUMPDEST DUP2 ADD DUP2 DUP2 LT PUSH8 0xFFFFFFFFFFFFFFFF DUP3 GT OR ISZERO PUSH2 0x299 JUMPI PUSH2 0x298 PUSH2 0x242 JUMP JUMPDEST JUMPDEST DUP1 PUSH1 0x40 MSTORE POP POP POP JUMP JUMPDEST PUSH1 0x0 PUSH2 0x2AC PUSH2 0x224 JUMP JUMPDEST SWAP1 POP PUSH2 0x2B8 DUP3 DUP3 PUSH2 0x271 JUMP JUMPDEST SWAP2 SWAP1 POP JUMP JUMPDEST PUSH1 0x0 PUSH8 0xFFFFFFFFFFFFFFFF DUP3 GT ISZERO PUSH2 0x2D8 JUMPI PUSH2 0x2D7 PUSH2 0x242 JUMP JUMPDEST JUMPDEST PUSH2 0x2E1 DUP3 PUSH2 0x1B8 JUMP JUMPDEST SWAP1 POP PUSH1 0x20 DUP2 ADD SWAP1 POP SWAP2 SWAP1 POP JUMP JUMPDEST DUP3 DUP2 DUP4 CALLDATACOPY PUSH1 0x0 DUP4 DUP4 ADD MSTORE POP POP POP JUMP JUMPDEST PUSH1 0x0 PUSH2 0x310 PUSH2 0x30B DUP5 PUSH2 0x2BD JUMP JUMPDEST PUSH2 0x2A2 JUMP JUMPDEST SWAP1 POP DUP3 DUP2 MSTORE PUSH1 0x20 DUP2 ADD DUP5 DUP5 DUP5 ADD GT ISZERO PUSH2 0x32C JUMPI PUSH2 0x32B PUSH2 0x23D JUMP JUMPDEST JUMPDEST PUSH2 0x337 DUP5 DUP3 DUP6 PUSH2 0x2EE JUMP JUMPDEST POP SWAP4 SWAP3 POP POP POP JUMP JUMPDEST PUSH1 0x0 DUP3 PUSH1 0x1F DUP4 ADD SLT PUSH2 0x354 JUMPI PUSH2 0x353 PUSH2 0x238 JUMP JUMPDEST JUMPDEST DUP2 CALLDATALOAD PUSH2 0x364 DUP5 DUP3 PUSH1 0x20 DUP7 ADD PUSH2 0x2FD JUMP JUMPDEST SWAP2 POP POP SWAP3 SWAP2 POP POP JUMP JUMPDEST PUSH1 0x0 PUSH1 0x20 DUP3 DUP5 SUB SLT ISZERO PUSH2 0x383 JUMPI PUSH2 0x382 PUSH2 0x22E JUMP JUMPDEST JUMPDEST PUSH1 0x0 DUP3 ADD CALLDATALOAD PUSH8 0xFFFFFFFFFFFFFFFF DUP2 GT ISZERO PUSH2 0x3A1 JUMPI PUSH2 0x3A0 PUSH2 0x233 JUMP JUMPDEST JUMPDEST PUSH2 0x3AD DUP5 DUP3 DUP6 ADD PUSH2 0x33F JUMP JUMPDEST SWAP2 POP POP SWAP3 SWAP2 POP POP JUMP JUMPDEST PUSH1 0x0 DUP2 SWAP1 POP SWAP2 SWAP1 POP JUMP JUMPDEST PUSH32 0x4E487B7100000000000000000000000000000000000000000000000000000000 PUSH1 0x0 MSTORE PUSH1 0x11 PUSH1 0x4 MSTORE PUSH1 0x24 PUSH1 0x0 REVERT JUMPDEST PUSH1 0x0 PUSH2 0x3FA DUP3 PUSH2 0x3B6 JUMP JUMPDEST SWAP2 POP PUSH2 0x405 DUP4 PUSH2 0x3B6 JUMP JUMPDEST SWAP3 POP DUP3 DUP3 SUB SWAP1 POP DUP2 DUP2 GT ISZERO PUSH2 0x41D JUMPI PUSH2 0x41C PUSH2 0x3C0 JUMP JUMPDEST JUMPDEST SWAP3 SWAP2 POP POP JUMP JUMPDEST PUSH32 0x4E487B7100000000000000000000000000000000000000000000000000000000 PUSH1 0x0 MSTORE PUSH1 0x32 PUSH1 0x4 MSTORE PUSH1 0x24 PUSH1 0x0 REVERT JUMPDEST PUSH32 0x4E487B7100000000000000000000000000000000000000000000000000000000 PUSH1 0x0 MSTORE PUSH1 0x22 PUSH1 0x4 MSTORE PUSH1 0x24 PUSH1 0x0 REVERT JUMPDEST PUSH1 0x0 PUSH1 0x2 DUP3 DIV SWAP1 POP PUSH1 0x1 DUP3 AND DUP1 PUSH2 0x499 JUMPI PUSH1 0x7F DUP3 AND SWAP2 POP JUMPDEST PUSH1 0x20 DUP3 LT DUP2 SUB PUSH2 0x4AC JUMPI PUSH2 0x4AB PUSH2 0x452 JUMP JUMPDEST JUMPDEST POP SWAP2 SWAP1 POP JUMP JUMPDEST PUSH1 0x0 DUP2 SWAP1 POP DUP2 PUSH1 0x0 MSTORE PUSH1 0x20 PUSH1 0x0 KECCAK256 SWAP1 POP SWAP2 SWAP1 POP JUMP JUMPDEST PUSH1 0x0 PUSH1 0x20 PUSH1 0x1F DUP4 ADD DIV SWAP1 POP SWAP2 SWAP1 POP JUMP JUMPDEST PUSH1 0x0 DUP3 DUP3 SHL SWAP1 POP SWAP3 SWAP2 POP POP JUMP JUMPDEST PUSH1 0x0 PUSH1 0x8 DUP4 MUL PUSH2 0x514 PUSH32 0xFFFFFFFFFFFFFFFFFFFFFFFFFFFFFFFFFFFFFFFFFFFFFFFFFFFFFFFFFFFFFFFF DUP3 PUSH2 0x4D7 JUMP JUMPDEST PUSH2 0x51E DUP7 DUP4 PUSH2 0x4D7 JUMP JUMPDEST SWAP6 POP DUP1 NOT DUP5 AND SWAP4 POP DUP1 DUP7 AND DUP5 OR SWAP3 POP POP POP SWAP4 SWAP3 POP POP POP JUMP JUMPDEST PUSH1 0x0 DUP2 SWAP1 POP SWAP2 SWAP1 POP JUMP JUMPDEST PUSH1 0x0 PUSH2 0x55B PUSH2 0x556 PUSH2 0x551 DUP5 PUSH2 0x3B6 JUMP JUMPDEST PUSH2 0x536 JUMP JUMPDEST PUSH2 0x3B6 JUMP JUMPDEST SWAP1 POP SWAP2 SWAP1 POP JUMP JUMPDEST PUSH1 0x0 DUP2 SWAP1 POP SWAP2 SWAP1 POP JUMP JUMPDEST PUSH2 0x575 DUP4 PUSH2 0x540 JUMP JUMPDEST PUSH2 0x589 PUSH2 0x581 DUP3 PUSH2 0x562 JUMP JUMPDEST DUP5 DUP5 SLOAD PUSH2 0x4E4 JUMP JUMPDEST DUP3 SSTORE POP POP POP POP JUMP JUMPDEST PUSH1 0x0 SWAP1 JUMP JUMPDEST PUSH2 0x59E PUSH2 0x591 JUMP JUMPDEST PUSH2 0x5A9 DUP2 DUP5 DUP5 PUSH2 0x56C JUMP JUMPDEST POP POP POP JUMP JUMPDEST JUMPDEST DUP2 DUP2 LT ISZERO PUSH2 0x5CD JUMPI PUSH2 0x5C2 PUSH1 0x0 DUP3 PUSH2 0x596 JUMP JUMPDEST PUSH1 0x1 DUP2 ADD SWAP1 POP PUSH2 0x5AF JUMP JUMPDEST POP POP JUMP JUMPDEST PUSH1 0x1F DUP3 GT ISZERO PUSH2 0x612 JUMPI PUSH2 0x5E3 DUP2 PUSH2 0x4B2 JUMP JUMPDEST PUSH2 0x5EC DUP5 PUSH2 0x4C7 JUMP JUMPDEST DUP2 ADD PUSH1 0x20 DUP6 LT ISZERO PUSH2 0x5FB JUMPI DUP2 SWAP1 POP JUMPDEST PUSH2 0x60F PUSH2 0x607 DUP6 PUSH2 0x4C7 JUMP JUMPDEST DUP4 ADD DUP3 PUSH2 0x5AE JUMP JUMPDEST POP POP JUMPDEST POP POP POP JUMP JUMPDEST PUSH1 0x0 DUP3 DUP3 SHR SWAP1 POP SWAP3 SWAP2 POP POP JUMP JUMPDEST PUSH1 0x0 PUSH2 0x635 PUSH1 0x0 NOT DUP5 PUSH1 0x8 MUL PUSH2 0x617 JUMP JUMPDEST NOT DUP1 DUP4 AND SWAP2 POP POP SWAP3 SWAP2 POP POP JUMP JUMPDEST PUSH1 0x0 PUSH2 0x64E DUP4 DUP4 PUSH2 0x624 JUMP JUMPDEST SWAP2 POP DUP3 PUSH1 0x2 MUL DUP3 OR SWAP1 POP SWAP3 SWAP2 POP POP JUMP JUMPDEST PUSH2 0x667 DUP3 PUSH2 0x172 JUMP JUMPDEST PUSH8 0xFFFFFFFFFFFFFFFF DUP2 GT ISZERO PUSH2 0x680 JUMPI PUSH2 0x67F PUSH2 0x242 JUMP JUMPDEST JUMPDEST PUSH2 0x68A DUP3 SLOAD PUSH2 0x481 JUMP JUMPDEST PUSH2 0x695 DUP3 DUP3 DUP6 PUSH2 0x5D1 JUMP JUMPDEST PUSH1 0x0 PUSH1 0x20 SWAP1 POP PUSH1 0x1F DUP4 GT PUSH1 0x1 DUP2 EQ PUSH2 0x6C8 JUMPI PUSH1 0x0 DUP5 ISZERO PUSH2 0x6B6 JUMPI DUP3 DUP8 ADD MLOAD SWAP1 POP JUMPDEST PUSH2 0x6C0 DUP6 DUP3 PUSH2 0x642 JUMP JUMPDEST DUP7 SSTORE POP PUSH2 0x728 JUMP JUMPDEST PUSH1 0x1F NOT DUP5 AND PUSH2 0x6D6 DUP7 PUSH2 0x4B2 JUMP JUMPDEST PUSH1 0x0 JUMPDEST DUP3 DUP2 LT ISZERO PUSH2 0x6FE JUMPI DUP5 DUP10 ADD MLOAD DUP3 SSTORE PUSH1 0x1 DUP3 ADD SWAP2 POP PUSH1 0x20 DUP6 ADD SWAP5 POP PUSH1 0x20 DUP2 ADD SWAP1 POP PUSH2 0x6D9 JUMP JUMPDEST DUP7 DUP4 LT ISZERO PUSH2 0x71B JUMPI DUP5 DUP10 ADD MLOAD PUSH2 0x717 PUSH1 0x1F DUP10 AND DUP3 PUSH2 0x624 JUMP JUMPDEST DUP4 SSTORE POP JUMPDEST PUSH1 0x1 PUSH1 0x2 DUP9 MUL ADD DUP9 SSTORE POP POP POP JUMPDEST POP POP POP POP POP POP JUMP INVALID LOG2 PUSH5 0x6970667358 0x22 SLT KECCAK256 CODESIZE 0xEA LOG1 0xAB 0xD 0xA6 LT MSIZE CALLER CALLVALUE MSIZE PUSH16 0xF49B56AB1C59F5FA71B4A44413EAAB34 0x5C PC 0xE1 PUSH15 0x64736F6C6343000812003300000000 "
				},
				"gasEstimates": {
					"creation": {
						"codeDepositCost": "378800",
						"executionCost": "418",
						"totalCost": "379218"
					},
					"external": {
						"decision(string)": "infinite",
						"whatisdec()": "infinite"
					}
				},
				"methodIdentifiers": {
					"decision(string)": "5abd22f7",
					"whatisdec()": "2ff695a7"
				}
			},
			"storageLayout": {
				"storage": [
					{
						"astId": 4,
						"contract": "Confirmation.sol:Statuslevel",
						"label": "status",
						"offset": 0,
						"slot": "0",
						"type": "t_array(t_string_storage)dyn_storage"
					}
				],
				"types": {
					"t_array(t_string_storage)dyn_storage": {
						"base": "t_string_storage",
						"encoding": "dynamic_array",
						"label": "string[]",
						"numberOfBytes": "32"
					},
					"t_string_storage": {
						"encoding": "bytes",
						"label": "string",
						"numberOfBytes": "32"
					}
				}
			},
			"userdoc": {
				"kind": "user",
				"methods": {},
				"version": 1
			}
		}
	}
}